{
	"data": {
		"bytecode": {
			"linkReferences": {},
			"object": "608060405234801561001057600080fd5b506127c3806100206000396000f3fe608060405234801561001057600080fd5b50600436106101da5760003560e01c8063715018a611610104578063a9dd1225116100a2578063c3f1856511610071578063c3f185651461044f578063e82addaf14610462578063f2fde38b14610475578063f3f230771461048857600080fd5b8063a9dd122514610401578063a9ec188614610414578063afb90c6914610427578063c1690e421461042f57600080fd5b80638da5cb5b116100de5780638da5cb5b146103a757806391e8c029146103b857806399e133f9146103cb5780639d909db6146103de57600080fd5b8063715018a61461036b57806379547455146103735780637c2cb0ab1461039457600080fd5b806321d843c81161017c57806365a114f11161014b57806365a114f11461030e5780636b7d66e6146103255780636d6c501414610338578063709732c21461034b57600080fd5b806321d843c8146102b557806326a4e8d2146102d557806334c52d7a146102e857806341a5f650146102fb57600080fd5b80630b752a54116101b85780630b752a541461024457806310658a0314610257578063150b7a021461026a5780631b846edc146102a257600080fd5b806303b76c5b146101df5780630a7fc9511461020f5780630aabedd01461022f575b600080fd5b606a546101f2906001600160a01b031681565b6040516001600160a01b0390911681526020015b60405180910390f35b61022261021d3660046120c9565b6104e7565b604051610206919061211f565b61024261023d366004612132565b6105a3565b005b6102226102523660046120c9565b6105db565b6065546101f2906001600160a01b031681565b61028961027836600461214b565b630a85bd0160e11b95945050505050565b6040516001600160e01b03199091168152602001610206565b6066546101f2906001600160a01b031681565b6102c86102c3366004612132565b610746565b604051610206919061220c565b6102426102e33660046120c9565b61078d565b6067546101f2906001600160a01b031681565b6102c8610309366004612132565b6107d9565b61031760765481565b604051908152602001610206565b610242610333366004612132565b61085d565b610242610346366004612264565b61088c565b610317610359366004612132565b606c6020526000908152604090205481565b610242610a1a565b610386610381366004612264565b610a50565b6040516102069291906122a6565b6102426103a23660046122fa565b610b48565b6033546001600160a01b03166101f2565b6102426103c6366004612132565b611077565b6102426103d936600461241a565b6110a6565b6103f16103ec366004612132565b611413565b6040519015158152602001610206565b61031761040f36600461248e565b611439565b6069546101f2906001600160a01b031681565b610242611498565b61031761043d366004612132565b606b6020526000908152604090205481565b6102c861045d366004612132565b6114d6565b6068546101f2906001600160a01b031681565b6102426104833660046120c9565b61150e565b6104c26104963660046124b0565b606f6020526000908152604090205461ffff808216916201000081048216916401000000009091041683565b6040805161ffff94851681529284166020840152921691810191909152606001610206565b6001600160a01b0381166000908152606d6020526040812060609161050b826115a9565b67ffffffffffffffff811115610523576105236122d4565b60405190808252806020026020018201604052801561054c578160200160208202803683370190505b50905060005b61055b836115a9565b81101561059b5761056c83826115b3565b82828151811061057e5761057e6124d1565b602090810291909101015280610593816124fd565b915050610552565b509392505050565b6033546001600160a01b031633146105d65760405162461bcd60e51b81526004016105cd90612516565b60405180910390fd5b607155565b6066546040516370a0823160e01b81526001600160a01b0383811660048301526060926000929116906370a0823190602401602060405180830381865afa15801561062a573d6000803e3d6000fd5b505050506040513d601f19601f8201168201806040525081019061064e919061254b565b905060008167ffffffffffffffff81111561066b5761066b6122d4565b604051908082528060200260200182016040528015610694578160200160208202803683370190505b50905060005b8281101561059b57606654604051632f745c5960e01b81526001600160a01b0387811660048301526024820184905290911690632f745c5990604401602060405180830381865afa1580156106f3573d6000803e3d6000fd5b505050506040513d601f19601f82011682018060405250810190610717919061254b565b828281518110610729576107296124d1565b60209081029190910101528061073e816124fd565b91505061069a565b6000600a8210610784576014821061077d5760328210610776576064821061076f576004610787565b6003610787565b6002610787565b6001610787565b60005b92915050565b6033546001600160a01b031633146107b75760405162461bcd60e51b81526004016105cd90612516565b606580546001600160a01b0319166001600160a01b0392909216919091179055565b60665460405163032b7d6760e61b81526004810183905260009182916001600160a01b039091169063cadf59c090602401602060405180830381865afa158015610827573d6000803e3d6000fd5b505050506040513d601f19601f8201168201806040525081019061084b919061254b565b9050610856816114d6565b9392505050565b6033546001600160a01b031633146108875760405162461bcd60e51b81526004016105cd90612516565b607655565b606e5460ff166108d85760405162461bcd60e51b81526020600482015260176024820152765175657374696e67206d7573742062652061637469766560481b60448201526064016105cd565b60018110156109355760405162461bcd60e51b8152602060048201526024808201527f31206f72206d6f72652053717569726573206d75737420676f206f6e206120716044820152631d595cdd60e21b60648201526084016105cd565b60005b81811015610a15576066546001600160a01b031663b88d4fde3330868686818110610965576109656124d1565b6040516001600160e01b031960e088901b1681526001600160a01b03958616600482015294909316602485015250602090910201356044820152608060648201526000608482015260a401600060405180830381600087803b1580156109ca57600080fd5b505af11580156109de573d6000803e3d6000fd5b50505050610a038383838181106109f7576109f76124d1565b905060200201356115bf565b80610a0d816124fd565b915050610938565b505050565b6033546001600160a01b03163314610a445760405162461bcd60e51b81526004016105cd90612516565b610a4e60006116cb565b565b60608060008367ffffffffffffffff811115610a6e57610a6e6122d4565b604051908082528060200260200182016040528015610a97578160200160208202803683370190505b50905060005b84811015610b0057606c6000878784818110610abb57610abb6124d1565b90506020020135815260200190815260200160002054828281518110610ae357610ae36124d1565b602090810291909101015280610af8816124fd565b915050610a9d565b508484828282808060200260200160405190810160405280939291908181526020018383602002808284376000920191909152509298509296505050505050505b9250929050565b6000610bc8338989898987604051602001610b6896959493929190612591565b60408051601f1981840301815282825280516020918201207f19457468657265756d205369676e6564204d6573736167653a0a33320000000084830152603c8085019190915282518085039091018152605c909301909152815191012090565b60008181526075602052604090205490915060ff1615610c1e5760405162461bcd60e51b8152602060048201526011602482015270082d8e4cac2c8f240eae6cac840d0c2e6d607b1b60448201526064016105cd565b610c28818561171d565b610c685760405162461bcd60e51b8152602060048201526011602482015270496e76616c6964205369676e617475726560781b60448201526064016105cd565b6000818152607560205260408120805460ff19166001179055805b8881101561100757607654606b60008c8c85818110610ca457610ca46124d1565b9050602002013581526020019081526020016000205442610cc591906125d1565b1015610d135760405162461bcd60e51b815260206004820152601c60248201527f5371756972657320617265207374696c6c205175657374696e672e2e0000000060448201526064016105cd565b610d468a8a83818110610d2857610d286124d1565b336000908152606d6020908152604090912093910201359050611747565b610d4f57600080fd5b610d828a8a83818110610d6457610d646124d1565b336000908152606d602090815260409091209391020135905061175f565b506000610da96070548a8a85818110610d9d57610d9d6124d1565b90506020020135611439565b6066549091506000906001600160a01b0316631c0520348d8d86818110610dd257610dd26124d1565b905060200201356040518263ffffffff1660e01b8152600401610df791815260200190565b602060405180830381865afa158015610e14573d6000803e3d6000fd5b505050506040513d601f19601f82011682018060405250810190610e38919061254b565b600114610e4757607154610e55565b607154610e559060026125e8565b90508515610e8157612710610e6a87836125e8565b610e74919061261d565b610e7e9082612631565b90505b610e8b8185612631565b9350610eaf8c8c85818110610ea257610ea26124d1565b905060200201358361176b565b7f93227fc4f4055687f87b7e20a200d14be5035678c62b3cb56a929921bc2c1bff338d8d86818110610ee357610ee36124d1565b604080516001600160a01b039095168552602091820293909301359084015250810183905242606082015260800160405180910390a18615610f3957610f348c8c858181106109f7576109f76124d1565b610ff2565b610f4e8c8c85818110610d6457610d646124d1565b506066546001600160a01b031663b88d4fde30338f8f88818110610f7457610f746124d1565b6040516001600160e01b031960e088901b1681526001600160a01b03958616600482015294909316602485015250602090910201356044820152608060648201526000608482015260a401600060405180830381600087803b158015610fd957600080fd5b505af1158015610fed573d6000803e3d6000fd5b505050505b50508080610fff906124fd565b915050610c83565b506065546040516340c10f1960e01b8152336004820152602481018390526001600160a01b03909116906340c10f1990604401600060405180830381600087803b15801561105457600080fd5b505af1158015611068573d6000803e3d6000fd5b50505050505050505050505050565b6033546001600160a01b031633146110a15760405162461bcd60e51b81526004016105cd90612516565b607255565b60006110b26001611af3565b905080156110ca576000805461ff0019166101001790555b606580546001600160a01b03199081166001600160a01b038a811691909117909255606680548216898416179055606780548216888416179055606980548216878416179055606880548216868416179055606a8054909116918416919091179055611134611b78565b606e805460ff19169055607480547301010e71d9839b902f3afe9e8d9e3352a8d78d826001600160a01b031990911617905562014cd06076556103e860705568015af1d78b58c400006071556001607281905560c86073819055604080516060808201835261029e8252610118602080840191825260328486019081526000808052606f80845295517fd0170a6220fef73a7dd2c1e9984b0b3831956884ac33b7728dde627780a65be580549551935161ffff92831663ffffffff19978816176201000095841686021765ffff000000001990811664010000000092851683021790925589518089018b5261024e81526101548188019081526046828d019081529d86528a885290517f6e075724c97aa8b42d86406682b25042490cf37e8d91270a79e54ad319c8b085805492519e51918616928a16929092179d851687029d909d1783169c841682029c909c17909b5588518088018a52610212815261017c818701908152605a828c01908152600286528a885291517ff81fc1ad4b320a92e5c753c46175e95b3163f7ffc7e772242c04348a2d246e5080549251935186168f029386168802928a169186169190911791909117831691909117905588518088018a5261016881526101ea8187019081526096828c01908152600386528a885291517ff409482b4f859760ec23da36e736296cd9ff0c52ee109df8089b12081f8b41fa805492519351918616928a169290921792851687029290921783169184168d029190911790558851968701895298865261022686850190815260fa98870198895260049092529590925292517fb5ae3ebacbc80c7d6c76ce3e2d79abb3d43998bd9b19c49850f5c83cdcf9915180549251965186169098029585169093029116919092161717909116179055801561140a576000805461ff0019169055604051600181527f7f26b83ff96e1f2b6a682f133852f6798a09c465da95921460cefb38474024989060200160405180910390a15b50505050505050565b6076546000828152606b602052604081205490919061143290426125d1565b1192915050565b6040516bffffffffffffffffffffffff193360601b166020820152603481018290526054810183905260009083906074016040516020818303038152906040528051906020012060001c61148d9190612649565b610856906001612631565b6033546001600160a01b031633146114c25760405162461bcd60e51b81526004016105cd90612516565b606e805460ff19811660ff90911615179055565b600081600114611506578160021461076f578160031461077d57816004146114ff576004610787565b6000610787565b600292915050565b6033546001600160a01b031633146115385760405162461bcd60e51b81526004016105cd90612516565b6001600160a01b03811661159d5760405162461bcd60e51b815260206004820152602660248201527f4f776e61626c653a206e6577206f776e657220697320746865207a65726f206160448201526564647265737360d01b60648201526084016105cd565b6115a6816116cb565b50565b6000610787825490565b60006108568383611ba7565b606e5460ff1661160b5760405162461bcd60e51b81526020600482015260176024820152765175657374696e67206d7573742062652061637469766560481b60448201526064016105cd565b6000818152606b60209081526040808320429055606c9091528120805491611632836124fd565b9091555050336000908152606d602052604090206116509082611747565b61166f57336000908152606d6020526040902061166d9082611bd1565b505b7feeb688e49ca64099ef8805ece271b6b294bab610960661ad2fbea3ec0d943bc83382607654426116a09190612631565b604080516001600160a01b03909416845260208401929092529082015260600160405180910390a150565b603380546001600160a01b038381166001600160a01b0319831681179093556040519116919082907f8be0079c531659141344cd1fd0a4f28419497f9722a3daafe3b4186f6b6457e090600090a35050565b6074546000906001600160a01b03166117368484611bdd565b6001600160a01b0316149392505050565b60008181526001830160205260408120541515610856565b60006108568383611bf9565b60665460405163585e394d60e11b8152600481018490526000916001600160a01b03169063b0bc729a90602401602060405180830381865afa1580156117b5573d6000803e3d6000fd5b505050506040513d601f19601f820116820180604052508101906117d9919061254b565b905060006117e682610746565b90506000606f6000836004811115611800576118006121e6565b6004811115611811576118116121e6565b8152602080820192909252604090810160009081208251606081018452905461ffff80821680845262010000830482169684019690965264010000000090910416928101929092529092509085101561186c57505050505050565b8151602083015161187d919061265d565b61ffff16851161188b575060015b8151602083015161189c919061265d565b61ffff168511156118ab575060005b60008160028111156118bf576118bf6121e6565b036119e657606a54604051636ecda19b60e11b81526000916001600160a01b03169063dd9b4336906118f79089908590600401612697565b602060405180830381865afa158015611914573d6000803e3d6000fd5b505050506040513d601f19601f82011682018060405250810190611938919061254b565b90507f272e0687de8f5594ebc786f177bdd6b4e1e6b64c02ff5b19ec2da8925a4db827338860008460405161197094939291906126ab565b60405180910390a16069546040516340c10f1960e01b8152336004820152602481018390526001600160a01b03909116906340c10f19906044015b600060405180830381600087803b1580156119c557600080fd5b505af11580156119d9573d6000803e3d6000fd5b5050505050505050505050565b60018160028111156119fa576119fa6121e6565b03611aeb57606a54604051636ecda19b60e11b81526000916001600160a01b03169063dd9b433690611a33908990600190600401612697565b602060405180830381865afa158015611a50573d6000803e3d6000fd5b505050506040513d601f19601f82011682018060405250810190611a74919061254b565b90507f272e0687de8f5594ebc786f177bdd6b4e1e6b64c02ff5b19ec2da8925a4db8273388600184604051611aac94939291906126ab565b60405180910390a16067546040516340c10f1960e01b8152336004820152602481018390526001600160a01b03909116906340c10f19906044016119ab565b505050505050565b60008054610100900460ff1615611b32578160ff166001148015611b165750303b155b6107845760405162461bcd60e51b81526004016105cd906126de565b60005460ff808416911610611b595760405162461bcd60e51b81526004016105cd906126de565b506000805460ff191660ff92909216919091179055600190565b919050565b600054610100900460ff16611b9f5760405162461bcd60e51b81526004016105cd9061272c565b610a4e611cec565b6000826000018281548110611bbe57611bbe6124d1565b9060005260206000200154905092915050565b60006108568383611d1c565b6000806000611bec8585611d6b565b9150915061059b81611dd6565b60008181526001830160205260408120548015611ce2576000611c1d6001836125d1565b8554909150600090611c31906001906125d1565b9050818114611c96576000866000018281548110611c5157611c516124d1565b9060005260206000200154905080876000018481548110611c7457611c746124d1565b6000918252602080832090910192909255918252600188019052604090208390555b8554869080611ca757611ca7612777565b600190038181906000526020600020016000905590558560010160008681526020019081526020016000206000905560019350505050610787565b6000915050610787565b600054610100900460ff16611d135760405162461bcd60e51b81526004016105cd9061272c565b610a4e336116cb565b6000818152600183016020526040812054611d6357508154600181810184556000848152602080822090930184905584548482528286019093526040902091909155610787565b506000610787565b6000808251604103611da15760208301516040840151606085015160001a611d9587828585611f8c565b94509450505050610b41565b8251604003611dca5760208301516040840151611dbf868383612079565b935093505050610b41565b50600090506002610b41565b6000816004811115611dea57611dea6121e6565b03611df25750565b6001816004811115611e0657611e066121e6565b03611e535760405162461bcd60e51b815260206004820152601860248201527f45434453413a20696e76616c6964207369676e6174757265000000000000000060448201526064016105cd565b6002816004811115611e6757611e676121e6565b03611eb45760405162461bcd60e51b815260206004820152601f60248201527f45434453413a20696e76616c6964207369676e6174757265206c656e6774680060448201526064016105cd565b6003816004811115611ec857611ec86121e6565b03611f205760405162461bcd60e51b815260206004820152602260248201527f45434453413a20696e76616c6964207369676e6174757265202773272076616c604482015261756560f01b60648201526084016105cd565b6004816004811115611f3457611f346121e6565b036115a65760405162461bcd60e51b815260206004820152602260248201527f45434453413a20696e76616c6964207369676e6174757265202776272076616c604482015261756560f01b60648201526084016105cd565b6000807f7fffffffffffffffffffffffffffffff5d576e7357a4501ddfe92f46681b20a0831115611fc35750600090506003612070565b8460ff16601b14158015611fdb57508460ff16601c14155b15611fec5750600090506004612070565b6040805160008082526020820180845289905260ff881692820192909252606081018690526080810185905260019060a0016020604051602081039080840390855afa158015612040573d6000803e3d6000fd5b5050604051601f1901519150506001600160a01b03811661206957600060019250925050612070565b9150600090505b94509492505050565b6000806001600160ff1b0383168161209660ff86901c601b612631565b90506120a487828885611f8c565b935093505050935093915050565b80356001600160a01b0381168114611b7357600080fd5b6000602082840312156120db57600080fd5b610856826120b2565b600081518084526020808501945080840160005b83811015612114578151875295820195908201906001016120f8565b509495945050505050565b60208152600061085660208301846120e4565b60006020828403121561214457600080fd5b5035919050565b60008060008060006080868803121561216357600080fd5b61216c866120b2565b945061217a602087016120b2565b935060408601359250606086013567ffffffffffffffff8082111561219e57600080fd5b818801915088601f8301126121b257600080fd5b8135818111156121c157600080fd5b8960208285010111156121d357600080fd5b9699959850939650602001949392505050565b634e487b7160e01b600052602160045260246000fd5b600581106115a6576115a66121e6565b60208101612219836121fc565b91905290565b60008083601f84011261223157600080fd5b50813567ffffffffffffffff81111561224957600080fd5b6020830191508360208260051b8501011115610b4157600080fd5b6000806020838503121561227757600080fd5b823567ffffffffffffffff81111561228e57600080fd5b61229a8582860161221f565b90969095509350505050565b6040815260006122b960408301856120e4565b82810360208401526122cb81856120e4565b95945050505050565b634e487b7160e01b600052604160045260246000fd5b80358015158114611b7357600080fd5b600080600080600080600060a0888a03121561231557600080fd5b873567ffffffffffffffff8082111561232d57600080fd5b6123398b838c0161221f565b909950975060208a013591508082111561235257600080fd5b61235e8b838c0161221f565b909750955060408a013591508082111561237757600080fd5b818a0191508a601f83011261238b57600080fd5b81358181111561239d5761239d6122d4565b604051601f8201601f19908116603f011681019083821181831017156123c5576123c56122d4565b816040528281528d60208487010111156123de57600080fd5b826020860160208301376000602084830101528097505050505050612405606089016122ea565b91506080880135905092959891949750929550565b60008060008060008060c0878903121561243357600080fd5b61243c876120b2565b955061244a602088016120b2565b9450612458604088016120b2565b9350612466606088016120b2565b9250612474608088016120b2565b915061248260a088016120b2565b90509295509295509295565b600080604083850312156124a157600080fd5b50508035926020909101359150565b6000602082840312156124c257600080fd5b81356005811061085657600080fd5b634e487b7160e01b600052603260045260246000fd5b634e487b7160e01b600052601160045260246000fd5b60006001820161250f5761250f6124e7565b5060010190565b6020808252818101527f4f776e61626c653a2063616c6c6572206973206e6f7420746865206f776e6572604082015260600190565b60006020828403121561255d57600080fd5b5051919050565b60006001600160fb1b0383111561257a57600080fd5b8260051b8083863760009401938452509192915050565b6bffffffffffffffffffffffff198760601b16815260006125c06125b960148401888a612564565b8587612564565b928352505060200195945050505050565b6000828210156125e3576125e36124e7565b500390565b6000816000190483118215151615612602576126026124e7565b500290565b634e487b7160e01b600052601260045260246000fd5b60008261262c5761262c612607565b500490565b60008219821115612644576126446124e7565b500190565b60008261265857612658612607565b500690565b600061ffff80831681851680830382111561267a5761267a6124e7565b01949350505050565b60038110612693576126936121e6565b9052565b828152604081016108566020830184612683565b6001600160a01b038516815260208101849052608081016126cf6040830185612683565b82606083015295945050505050565b6020808252602e908201527f496e697469616c697a61626c653a20636f6e747261637420697320616c72656160408201526d191e481a5b9a5d1a585b1a5e995960921b606082015260800190565b6020808252602b908201527f496e697469616c697a61626c653a20636f6e7472616374206973206e6f74206960408201526a6e697469616c697a696e6760a81b606082015260800190565b634e487b7160e01b600052603160045260246000fdfea2646970667358221220fcfe22e5bce9147ca900d7428bf0fc14f550a18a02977e3f08ff0df76d6ca90a64736f6c634300080d0033",
			"opcodes": "PUSH1 0x80 PUSH1 0x40 MSTORE CALLVALUE DUP1 ISZERO PUSH2 0x10 JUMPI PUSH1 0x0 DUP1 REVERT JUMPDEST POP PUSH2 0x27C3 DUP1 PUSH2 0x20 PUSH1 0x0 CODECOPY PUSH1 0x0 RETURN INVALID PUSH1 0x80 PUSH1 0x40 MSTORE CALLVALUE DUP1 ISZERO PUSH2 0x10 JUMPI PUSH1 0x0 DUP1 REVERT JUMPDEST POP PUSH1 0x4 CALLDATASIZE LT PUSH2 0x1DA JUMPI PUSH1 0x0 CALLDATALOAD PUSH1 0xE0 SHR DUP1 PUSH4 0x715018A6 GT PUSH2 0x104 JUMPI DUP1 PUSH4 0xA9DD1225 GT PUSH2 0xA2 JUMPI DUP1 PUSH4 0xC3F18565 GT PUSH2 0x71 JUMPI DUP1 PUSH4 0xC3F18565 EQ PUSH2 0x44F JUMPI DUP1 PUSH4 0xE82ADDAF EQ PUSH2 0x462 JUMPI DUP1 PUSH4 0xF2FDE38B EQ PUSH2 0x475 JUMPI DUP1 PUSH4 0xF3F23077 EQ PUSH2 0x488 JUMPI PUSH1 0x0 DUP1 REVERT JUMPDEST DUP1 PUSH4 0xA9DD1225 EQ PUSH2 0x401 JUMPI DUP1 PUSH4 0xA9EC1886 EQ PUSH2 0x414 JUMPI DUP1 PUSH4 0xAFB90C69 EQ PUSH2 0x427 JUMPI DUP1 PUSH4 0xC1690E42 EQ PUSH2 0x42F JUMPI PUSH1 0x0 DUP1 REVERT JUMPDEST DUP1 PUSH4 0x8DA5CB5B GT PUSH2 0xDE JUMPI DUP1 PUSH4 0x8DA5CB5B EQ PUSH2 0x3A7 JUMPI DUP1 PUSH4 0x91E8C029 EQ PUSH2 0x3B8 JUMPI DUP1 PUSH4 0x99E133F9 EQ PUSH2 0x3CB JUMPI DUP1 PUSH4 0x9D909DB6 EQ PUSH2 0x3DE JUMPI PUSH1 0x0 DUP1 REVERT JUMPDEST DUP1 PUSH4 0x715018A6 EQ PUSH2 0x36B JUMPI DUP1 PUSH4 0x79547455 EQ PUSH2 0x373 JUMPI DUP1 PUSH4 0x7C2CB0AB EQ PUSH2 0x394 JUMPI PUSH1 0x0 DUP1 REVERT JUMPDEST DUP1 PUSH4 0x21D843C8 GT PUSH2 0x17C JUMPI DUP1 PUSH4 0x65A114F1 GT PUSH2 0x14B JUMPI DUP1 PUSH4 0x65A114F1 EQ PUSH2 0x30E JUMPI DUP1 PUSH4 0x6B7D66E6 EQ PUSH2 0x325 JUMPI DUP1 PUSH4 0x6D6C5014 EQ PUSH2 0x338 JUMPI DUP1 PUSH4 0x709732C2 EQ PUSH2 0x34B JUMPI PUSH1 0x0 DUP1 REVERT JUMPDEST DUP1 PUSH4 0x21D843C8 EQ PUSH2 0x2B5 JUMPI DUP1 PUSH4 0x26A4E8D2 EQ PUSH2 0x2D5 JUMPI DUP1 PUSH4 0x34C52D7A EQ PUSH2 0x2E8 JUMPI DUP1 PUSH4 0x41A5F650 EQ PUSH2 0x2FB JUMPI PUSH1 0x0 DUP1 REVERT JUMPDEST DUP1 PUSH4 0xB752A54 GT PUSH2 0x1B8 JUMPI DUP1 PUSH4 0xB752A54 EQ PUSH2 0x244 JUMPI DUP1 PUSH4 0x10658A03 EQ PUSH2 0x257 JUMPI DUP1 PUSH4 0x150B7A02 EQ PUSH2 0x26A JUMPI DUP1 PUSH4 0x1B846EDC EQ PUSH2 0x2A2 JUMPI PUSH1 0x0 DUP1 REVERT JUMPDEST DUP1 PUSH4 0x3B76C5B EQ PUSH2 0x1DF JUMPI DUP1 PUSH4 0xA7FC951 EQ PUSH2 0x20F JUMPI DUP1 PUSH4 0xAABEDD0 EQ PUSH2 0x22F JUMPI JUMPDEST PUSH1 0x0 DUP1 REVERT JUMPDEST PUSH1 0x6A SLOAD PUSH2 0x1F2 SWAP1 PUSH1 0x1 PUSH1 0x1 PUSH1 0xA0 SHL SUB AND DUP2 JUMP JUMPDEST PUSH1 0x40 MLOAD PUSH1 0x1 PUSH1 0x1 PUSH1 0xA0 SHL SUB SWAP1 SWAP2 AND DUP2 MSTORE PUSH1 0x20 ADD JUMPDEST PUSH1 0x40 MLOAD DUP1 SWAP2 SUB SWAP1 RETURN JUMPDEST PUSH2 0x222 PUSH2 0x21D CALLDATASIZE PUSH1 0x4 PUSH2 0x20C9 JUMP JUMPDEST PUSH2 0x4E7 JUMP JUMPDEST PUSH1 0x40 MLOAD PUSH2 0x206 SWAP2 SWAP1 PUSH2 0x211F JUMP JUMPDEST PUSH2 0x242 PUSH2 0x23D CALLDATASIZE PUSH1 0x4 PUSH2 0x2132 JUMP JUMPDEST PUSH2 0x5A3 JUMP JUMPDEST STOP JUMPDEST PUSH2 0x222 PUSH2 0x252 CALLDATASIZE PUSH1 0x4 PUSH2 0x20C9 JUMP JUMPDEST PUSH2 0x5DB JUMP JUMPDEST PUSH1 0x65 SLOAD PUSH2 0x1F2 SWAP1 PUSH1 0x1 PUSH1 0x1 PUSH1 0xA0 SHL SUB AND DUP2 JUMP JUMPDEST PUSH2 0x289 PUSH2 0x278 CALLDATASIZE PUSH1 0x4 PUSH2 0x214B JUMP JUMPDEST PUSH4 0xA85BD01 PUSH1 0xE1 SHL SWAP6 SWAP5 POP POP POP POP POP JUMP JUMPDEST PUSH1 0x40 MLOAD PUSH1 0x1 PUSH1 0x1 PUSH1 0xE0 SHL SUB NOT SWAP1 SWAP2 AND DUP2 MSTORE PUSH1 0x20 ADD PUSH2 0x206 JUMP JUMPDEST PUSH1 0x66 SLOAD PUSH2 0x1F2 SWAP1 PUSH1 0x1 PUSH1 0x1 PUSH1 0xA0 SHL SUB AND DUP2 JUMP JUMPDEST PUSH2 0x2C8 PUSH2 0x2C3 CALLDATASIZE PUSH1 0x4 PUSH2 0x2132 JUMP JUMPDEST PUSH2 0x746 JUMP JUMPDEST PUSH1 0x40 MLOAD PUSH2 0x206 SWAP2 SWAP1 PUSH2 0x220C JUMP JUMPDEST PUSH2 0x242 PUSH2 0x2E3 CALLDATASIZE PUSH1 0x4 PUSH2 0x20C9 JUMP JUMPDEST PUSH2 0x78D JUMP JUMPDEST PUSH1 0x67 SLOAD PUSH2 0x1F2 SWAP1 PUSH1 0x1 PUSH1 0x1 PUSH1 0xA0 SHL SUB AND DUP2 JUMP JUMPDEST PUSH2 0x2C8 PUSH2 0x309 CALLDATASIZE PUSH1 0x4 PUSH2 0x2132 JUMP JUMPDEST PUSH2 0x7D9 JUMP JUMPDEST PUSH2 0x317 PUSH1 0x76 SLOAD DUP2 JUMP JUMPDEST PUSH1 0x40 MLOAD SWAP1 DUP2 MSTORE PUSH1 0x20 ADD PUSH2 0x206 JUMP JUMPDEST PUSH2 0x242 PUSH2 0x333 CALLDATASIZE PUSH1 0x4 PUSH2 0x2132 JUMP JUMPDEST PUSH2 0x85D JUMP JUMPDEST PUSH2 0x242 PUSH2 0x346 CALLDATASIZE PUSH1 0x4 PUSH2 0x2264 JUMP JUMPDEST PUSH2 0x88C JUMP JUMPDEST PUSH2 0x317 PUSH2 0x359 CALLDATASIZE PUSH1 0x4 PUSH2 0x2132 JUMP JUMPDEST PUSH1 0x6C PUSH1 0x20 MSTORE PUSH1 0x0 SWAP1 DUP2 MSTORE PUSH1 0x40 SWAP1 KECCAK256 SLOAD DUP2 JUMP JUMPDEST PUSH2 0x242 PUSH2 0xA1A JUMP JUMPDEST PUSH2 0x386 PUSH2 0x381 CALLDATASIZE PUSH1 0x4 PUSH2 0x2264 JUMP JUMPDEST PUSH2 0xA50 JUMP JUMPDEST PUSH1 0x40 MLOAD PUSH2 0x206 SWAP3 SWAP2 SWAP1 PUSH2 0x22A6 JUMP JUMPDEST PUSH2 0x242 PUSH2 0x3A2 CALLDATASIZE PUSH1 0x4 PUSH2 0x22FA JUMP JUMPDEST PUSH2 0xB48 JUMP JUMPDEST PUSH1 0x33 SLOAD PUSH1 0x1 PUSH1 0x1 PUSH1 0xA0 SHL SUB AND PUSH2 0x1F2 JUMP JUMPDEST PUSH2 0x242 PUSH2 0x3C6 CALLDATASIZE PUSH1 0x4 PUSH2 0x2132 JUMP JUMPDEST PUSH2 0x1077 JUMP JUMPDEST PUSH2 0x242 PUSH2 0x3D9 CALLDATASIZE PUSH1 0x4 PUSH2 0x241A JUMP JUMPDEST PUSH2 0x10A6 JUMP JUMPDEST PUSH2 0x3F1 PUSH2 0x3EC CALLDATASIZE PUSH1 0x4 PUSH2 0x2132 JUMP JUMPDEST PUSH2 0x1413 JUMP JUMPDEST PUSH1 0x40 MLOAD SWAP1 ISZERO ISZERO DUP2 MSTORE PUSH1 0x20 ADD PUSH2 0x206 JUMP JUMPDEST PUSH2 0x317 PUSH2 0x40F CALLDATASIZE PUSH1 0x4 PUSH2 0x248E JUMP JUMPDEST PUSH2 0x1439 JUMP JUMPDEST PUSH1 0x69 SLOAD PUSH2 0x1F2 SWAP1 PUSH1 0x1 PUSH1 0x1 PUSH1 0xA0 SHL SUB AND DUP2 JUMP JUMPDEST PUSH2 0x242 PUSH2 0x1498 JUMP JUMPDEST PUSH2 0x317 PUSH2 0x43D CALLDATASIZE PUSH1 0x4 PUSH2 0x2132 JUMP JUMPDEST PUSH1 0x6B PUSH1 0x20 MSTORE PUSH1 0x0 SWAP1 DUP2 MSTORE PUSH1 0x40 SWAP1 KECCAK256 SLOAD DUP2 JUMP JUMPDEST PUSH2 0x2C8 PUSH2 0x45D CALLDATASIZE PUSH1 0x4 PUSH2 0x2132 JUMP JUMPDEST PUSH2 0x14D6 JUMP JUMPDEST PUSH1 0x68 SLOAD PUSH2 0x1F2 SWAP1 PUSH1 0x1 PUSH1 0x1 PUSH1 0xA0 SHL SUB AND DUP2 JUMP JUMPDEST PUSH2 0x242 PUSH2 0x483 CALLDATASIZE PUSH1 0x4 PUSH2 0x20C9 JUMP JUMPDEST PUSH2 0x150E JUMP JUMPDEST PUSH2 0x4C2 PUSH2 0x496 CALLDATASIZE PUSH1 0x4 PUSH2 0x24B0 JUMP JUMPDEST PUSH1 0x6F PUSH1 0x20 MSTORE PUSH1 0x0 SWAP1 DUP2 MSTORE PUSH1 0x40 SWAP1 KECCAK256 SLOAD PUSH2 0xFFFF DUP1 DUP3 AND SWAP2 PUSH3 0x10000 DUP2 DIV DUP3 AND SWAP2 PUSH5 0x100000000 SWAP1 SWAP2 DIV AND DUP4 JUMP JUMPDEST PUSH1 0x40 DUP1 MLOAD PUSH2 0xFFFF SWAP5 DUP6 AND DUP2 MSTORE SWAP3 DUP5 AND PUSH1 0x20 DUP5 ADD MSTORE SWAP3 AND SWAP2 DUP2 ADD SWAP2 SWAP1 SWAP2 MSTORE PUSH1 0x60 ADD PUSH2 0x206 JUMP JUMPDEST PUSH1 0x1 PUSH1 0x1 PUSH1 0xA0 SHL SUB DUP2 AND PUSH1 0x0 SWAP1 DUP2 MSTORE PUSH1 0x6D PUSH1 0x20 MSTORE PUSH1 0x40 DUP2 KECCAK256 PUSH1 0x60 SWAP2 PUSH2 0x50B DUP3 PUSH2 0x15A9 JUMP JUMPDEST PUSH8 0xFFFFFFFFFFFFFFFF DUP2 GT ISZERO PUSH2 0x523 JUMPI PUSH2 0x523 PUSH2 0x22D4 JUMP JUMPDEST PUSH1 0x40 MLOAD SWAP1 DUP1 DUP3 MSTORE DUP1 PUSH1 0x20 MUL PUSH1 0x20 ADD DUP3 ADD PUSH1 0x40 MSTORE DUP1 ISZERO PUSH2 0x54C JUMPI DUP2 PUSH1 0x20 ADD PUSH1 0x20 DUP3 MUL DUP1 CALLDATASIZE DUP4 CALLDATACOPY ADD SWAP1 POP JUMPDEST POP SWAP1 POP PUSH1 0x0 JUMPDEST PUSH2 0x55B DUP4 PUSH2 0x15A9 JUMP JUMPDEST DUP2 LT ISZERO PUSH2 0x59B JUMPI PUSH2 0x56C DUP4 DUP3 PUSH2 0x15B3 JUMP JUMPDEST DUP3 DUP3 DUP2 MLOAD DUP2 LT PUSH2 0x57E JUMPI PUSH2 0x57E PUSH2 0x24D1 JUMP JUMPDEST PUSH1 0x20 SWAP1 DUP2 MUL SWAP2 SWAP1 SWAP2 ADD ADD MSTORE DUP1 PUSH2 0x593 DUP2 PUSH2 0x24FD JUMP JUMPDEST SWAP2 POP POP PUSH2 0x552 JUMP JUMPDEST POP SWAP4 SWAP3 POP POP POP JUMP JUMPDEST PUSH1 0x33 SLOAD PUSH1 0x1 PUSH1 0x1 PUSH1 0xA0 SHL SUB AND CALLER EQ PUSH2 0x5D6 JUMPI PUSH1 0x40 MLOAD PUSH3 0x461BCD PUSH1 0xE5 SHL DUP2 MSTORE PUSH1 0x4 ADD PUSH2 0x5CD SWAP1 PUSH2 0x2516 JUMP JUMPDEST PUSH1 0x40 MLOAD DUP1 SWAP2 SUB SWAP1 REVERT JUMPDEST PUSH1 0x71 SSTORE JUMP JUMPDEST PUSH1 0x66 SLOAD PUSH1 0x40 MLOAD PUSH4 0x70A08231 PUSH1 0xE0 SHL DUP2 MSTORE PUSH1 0x1 PUSH1 0x1 PUSH1 0xA0 SHL SUB DUP4 DUP2 AND PUSH1 0x4 DUP4 ADD MSTORE PUSH1 0x60 SWAP3 PUSH1 0x0 SWAP3 SWAP2 AND SWAP1 PUSH4 0x70A08231 SWAP1 PUSH1 0x24 ADD PUSH1 0x20 PUSH1 0x40 MLOAD DUP1 DUP4 SUB DUP2 DUP7 GAS STATICCALL ISZERO DUP1 ISZERO PUSH2 0x62A JUMPI RETURNDATASIZE PUSH1 0x0 DUP1 RETURNDATACOPY RETURNDATASIZE PUSH1 0x0 REVERT JUMPDEST POP POP POP POP PUSH1 0x40 MLOAD RETURNDATASIZE PUSH1 0x1F NOT PUSH1 0x1F DUP3 ADD AND DUP3 ADD DUP1 PUSH1 0x40 MSTORE POP DUP2 ADD SWAP1 PUSH2 0x64E SWAP2 SWAP1 PUSH2 0x254B JUMP JUMPDEST SWAP1 POP PUSH1 0x0 DUP2 PUSH8 0xFFFFFFFFFFFFFFFF DUP2 GT ISZERO PUSH2 0x66B JUMPI PUSH2 0x66B PUSH2 0x22D4 JUMP JUMPDEST PUSH1 0x40 MLOAD SWAP1 DUP1 DUP3 MSTORE DUP1 PUSH1 0x20 MUL PUSH1 0x20 ADD DUP3 ADD PUSH1 0x40 MSTORE DUP1 ISZERO PUSH2 0x694 JUMPI DUP2 PUSH1 0x20 ADD PUSH1 0x20 DUP3 MUL DUP1 CALLDATASIZE DUP4 CALLDATACOPY ADD SWAP1 POP JUMPDEST POP SWAP1 POP PUSH1 0x0 JUMPDEST DUP3 DUP2 LT ISZERO PUSH2 0x59B JUMPI PUSH1 0x66 SLOAD PUSH1 0x40 MLOAD PUSH4 0x2F745C59 PUSH1 0xE0 SHL DUP2 MSTORE PUSH1 0x1 PUSH1 0x1 PUSH1 0xA0 SHL SUB DUP8 DUP2 AND PUSH1 0x4 DUP4 ADD MSTORE PUSH1 0x24 DUP3 ADD DUP5 SWAP1 MSTORE SWAP1 SWAP2 AND SWAP1 PUSH4 0x2F745C59 SWAP1 PUSH1 0x44 ADD PUSH1 0x20 PUSH1 0x40 MLOAD DUP1 DUP4 SUB DUP2 DUP7 GAS STATICCALL ISZERO DUP1 ISZERO PUSH2 0x6F3 JUMPI RETURNDATASIZE PUSH1 0x0 DUP1 RETURNDATACOPY RETURNDATASIZE PUSH1 0x0 REVERT JUMPDEST POP POP POP POP PUSH1 0x40 MLOAD RETURNDATASIZE PUSH1 0x1F NOT PUSH1 0x1F DUP3 ADD AND DUP3 ADD DUP1 PUSH1 0x40 MSTORE POP DUP2 ADD SWAP1 PUSH2 0x717 SWAP2 SWAP1 PUSH2 0x254B JUMP JUMPDEST DUP3 DUP3 DUP2 MLOAD DUP2 LT PUSH2 0x729 JUMPI PUSH2 0x729 PUSH2 0x24D1 JUMP JUMPDEST PUSH1 0x20 SWAP1 DUP2 MUL SWAP2 SWAP1 SWAP2 ADD ADD MSTORE DUP1 PUSH2 0x73E DUP2 PUSH2 0x24FD JUMP JUMPDEST SWAP2 POP POP PUSH2 0x69A JUMP JUMPDEST PUSH1 0x0 PUSH1 0xA DUP3 LT PUSH2 0x784 JUMPI PUSH1 0x14 DUP3 LT PUSH2 0x77D JUMPI PUSH1 0x32 DUP3 LT PUSH2 0x776 JUMPI PUSH1 0x64 DUP3 LT PUSH2 0x76F JUMPI PUSH1 0x4 PUSH2 0x787 JUMP JUMPDEST PUSH1 0x3 PUSH2 0x787 JUMP JUMPDEST PUSH1 0x2 PUSH2 0x787 JUMP JUMPDEST PUSH1 0x1 PUSH2 0x787 JUMP JUMPDEST PUSH1 0x0 JUMPDEST SWAP3 SWAP2 POP POP JUMP JUMPDEST PUSH1 0x33 SLOAD PUSH1 0x1 PUSH1 0x1 PUSH1 0xA0 SHL SUB AND CALLER EQ PUSH2 0x7B7 JUMPI PUSH1 0x40 MLOAD PUSH3 0x461BCD PUSH1 0xE5 SHL DUP2 MSTORE PUSH1 0x4 ADD PUSH2 0x5CD SWAP1 PUSH2 0x2516 JUMP JUMPDEST PUSH1 0x65 DUP1 SLOAD PUSH1 0x1 PUSH1 0x1 PUSH1 0xA0 SHL SUB NOT AND PUSH1 0x1 PUSH1 0x1 PUSH1 0xA0 SHL SUB SWAP3 SWAP1 SWAP3 AND SWAP2 SWAP1 SWAP2 OR SWAP1 SSTORE JUMP JUMPDEST PUSH1 0x66 SLOAD PUSH1 0x40 MLOAD PUSH4 0x32B7D67 PUSH1 0xE6 SHL DUP2 MSTORE PUSH1 0x4 DUP2 ADD DUP4 SWAP1 MSTORE PUSH1 0x0 SWAP2 DUP3 SWAP2 PUSH1 0x1 PUSH1 0x1 PUSH1 0xA0 SHL SUB SWAP1 SWAP2 AND SWAP1 PUSH4 0xCADF59C0 SWAP1 PUSH1 0x24 ADD PUSH1 0x20 PUSH1 0x40 MLOAD DUP1 DUP4 SUB DUP2 DUP7 GAS STATICCALL ISZERO DUP1 ISZERO PUSH2 0x827 JUMPI RETURNDATASIZE PUSH1 0x0 DUP1 RETURNDATACOPY RETURNDATASIZE PUSH1 0x0 REVERT JUMPDEST POP POP POP POP PUSH1 0x40 MLOAD RETURNDATASIZE PUSH1 0x1F NOT PUSH1 0x1F DUP3 ADD AND DUP3 ADD DUP1 PUSH1 0x40 MSTORE POP DUP2 ADD SWAP1 PUSH2 0x84B SWAP2 SWAP1 PUSH2 0x254B JUMP JUMPDEST SWAP1 POP PUSH2 0x856 DUP2 PUSH2 0x14D6 JUMP JUMPDEST SWAP4 SWAP3 POP POP POP JUMP JUMPDEST PUSH1 0x33 SLOAD PUSH1 0x1 PUSH1 0x1 PUSH1 0xA0 SHL SUB AND CALLER EQ PUSH2 0x887 JUMPI PUSH1 0x40 MLOAD PUSH3 0x461BCD PUSH1 0xE5 SHL DUP2 MSTORE PUSH1 0x4 ADD PUSH2 0x5CD SWAP1 PUSH2 0x2516 JUMP JUMPDEST PUSH1 0x76 SSTORE JUMP JUMPDEST PUSH1 0x6E SLOAD PUSH1 0xFF AND PUSH2 0x8D8 JUMPI PUSH1 0x40 MLOAD PUSH3 0x461BCD PUSH1 0xE5 SHL DUP2 MSTORE PUSH1 0x20 PUSH1 0x4 DUP3 ADD MSTORE PUSH1 0x17 PUSH1 0x24 DUP3 ADD MSTORE PUSH23 0x5175657374696E67206D75737420626520616374697665 PUSH1 0x48 SHL PUSH1 0x44 DUP3 ADD MSTORE PUSH1 0x64 ADD PUSH2 0x5CD JUMP JUMPDEST PUSH1 0x1 DUP2 LT ISZERO PUSH2 0x935 JUMPI PUSH1 0x40 MLOAD PUSH3 0x461BCD PUSH1 0xE5 SHL DUP2 MSTORE PUSH1 0x20 PUSH1 0x4 DUP3 ADD MSTORE PUSH1 0x24 DUP1 DUP3 ADD MSTORE PUSH32 0x31206F72206D6F72652053717569726573206D75737420676F206F6E20612071 PUSH1 0x44 DUP3 ADD MSTORE PUSH4 0x1D595CDD PUSH1 0xE2 SHL PUSH1 0x64 DUP3 ADD MSTORE PUSH1 0x84 ADD PUSH2 0x5CD JUMP JUMPDEST PUSH1 0x0 JUMPDEST DUP2 DUP2 LT ISZERO PUSH2 0xA15 JUMPI PUSH1 0x66 SLOAD PUSH1 0x1 PUSH1 0x1 PUSH1 0xA0 SHL SUB AND PUSH4 0xB88D4FDE CALLER ADDRESS DUP7 DUP7 DUP7 DUP2 DUP2 LT PUSH2 0x965 JUMPI PUSH2 0x965 PUSH2 0x24D1 JUMP JUMPDEST PUSH1 0x40 MLOAD PUSH1 0x1 PUSH1 0x1 PUSH1 0xE0 SHL SUB NOT PUSH1 0xE0 DUP9 SWAP1 SHL AND DUP2 MSTORE PUSH1 0x1 PUSH1 0x1 PUSH1 0xA0 SHL SUB SWAP6 DUP7 AND PUSH1 0x4 DUP3 ADD MSTORE SWAP5 SWAP1 SWAP4 AND PUSH1 0x24 DUP6 ADD MSTORE POP PUSH1 0x20 SWAP1 SWAP2 MUL ADD CALLDATALOAD PUSH1 0x44 DUP3 ADD MSTORE PUSH1 0x80 PUSH1 0x64 DUP3 ADD MSTORE PUSH1 0x0 PUSH1 0x84 DUP3 ADD MSTORE PUSH1 0xA4 ADD PUSH1 0x0 PUSH1 0x40 MLOAD DUP1 DUP4 SUB DUP2 PUSH1 0x0 DUP8 DUP1 EXTCODESIZE ISZERO DUP1 ISZERO PUSH2 0x9CA JUMPI PUSH1 0x0 DUP1 REVERT JUMPDEST POP GAS CALL ISZERO DUP1 ISZERO PUSH2 0x9DE JUMPI RETURNDATASIZE PUSH1 0x0 DUP1 RETURNDATACOPY RETURNDATASIZE PUSH1 0x0 REVERT JUMPDEST POP POP POP POP PUSH2 0xA03 DUP4 DUP4 DUP4 DUP2 DUP2 LT PUSH2 0x9F7 JUMPI PUSH2 0x9F7 PUSH2 0x24D1 JUMP JUMPDEST SWAP1 POP PUSH1 0x20 MUL ADD CALLDATALOAD PUSH2 0x15BF JUMP JUMPDEST DUP1 PUSH2 0xA0D DUP2 PUSH2 0x24FD JUMP JUMPDEST SWAP2 POP POP PUSH2 0x938 JUMP JUMPDEST POP POP POP JUMP JUMPDEST PUSH1 0x33 SLOAD PUSH1 0x1 PUSH1 0x1 PUSH1 0xA0 SHL SUB AND CALLER EQ PUSH2 0xA44 JUMPI PUSH1 0x40 MLOAD PUSH3 0x461BCD PUSH1 0xE5 SHL DUP2 MSTORE PUSH1 0x4 ADD PUSH2 0x5CD SWAP1 PUSH2 0x2516 JUMP JUMPDEST PUSH2 0xA4E PUSH1 0x0 PUSH2 0x16CB JUMP JUMPDEST JUMP JUMPDEST PUSH1 0x60 DUP1 PUSH1 0x0 DUP4 PUSH8 0xFFFFFFFFFFFFFFFF DUP2 GT ISZERO PUSH2 0xA6E JUMPI PUSH2 0xA6E PUSH2 0x22D4 JUMP JUMPDEST PUSH1 0x40 MLOAD SWAP1 DUP1 DUP3 MSTORE DUP1 PUSH1 0x20 MUL PUSH1 0x20 ADD DUP3 ADD PUSH1 0x40 MSTORE DUP1 ISZERO PUSH2 0xA97 JUMPI DUP2 PUSH1 0x20 ADD PUSH1 0x20 DUP3 MUL DUP1 CALLDATASIZE DUP4 CALLDATACOPY ADD SWAP1 POP JUMPDEST POP SWAP1 POP PUSH1 0x0 JUMPDEST DUP5 DUP2 LT ISZERO PUSH2 0xB00 JUMPI PUSH1 0x6C PUSH1 0x0 DUP8 DUP8 DUP5 DUP2 DUP2 LT PUSH2 0xABB JUMPI PUSH2 0xABB PUSH2 0x24D1 JUMP JUMPDEST SWAP1 POP PUSH1 0x20 MUL ADD CALLDATALOAD DUP2 MSTORE PUSH1 0x20 ADD SWAP1 DUP2 MSTORE PUSH1 0x20 ADD PUSH1 0x0 KECCAK256 SLOAD DUP3 DUP3 DUP2 MLOAD DUP2 LT PUSH2 0xAE3 JUMPI PUSH2 0xAE3 PUSH2 0x24D1 JUMP JUMPDEST PUSH1 0x20 SWAP1 DUP2 MUL SWAP2 SWAP1 SWAP2 ADD ADD MSTORE DUP1 PUSH2 0xAF8 DUP2 PUSH2 0x24FD JUMP JUMPDEST SWAP2 POP POP PUSH2 0xA9D JUMP JUMPDEST POP DUP5 DUP5 DUP3 DUP3 DUP3 DUP1 DUP1 PUSH1 0x20 MUL PUSH1 0x20 ADD PUSH1 0x40 MLOAD SWAP1 DUP2 ADD PUSH1 0x40 MSTORE DUP1 SWAP4 SWAP3 SWAP2 SWAP1 DUP2 DUP2 MSTORE PUSH1 0x20 ADD DUP4 DUP4 PUSH1 0x20 MUL DUP1 DUP3 DUP5 CALLDATACOPY PUSH1 0x0 SWAP3 ADD SWAP2 SWAP1 SWAP2 MSTORE POP SWAP3 SWAP9 POP SWAP3 SWAP7 POP POP POP POP POP POP POP JUMPDEST SWAP3 POP SWAP3 SWAP1 POP JUMP JUMPDEST PUSH1 0x0 PUSH2 0xBC8 CALLER DUP10 DUP10 DUP10 DUP10 DUP8 PUSH1 0x40 MLOAD PUSH1 0x20 ADD PUSH2 0xB68 SWAP7 SWAP6 SWAP5 SWAP4 SWAP3 SWAP2 SWAP1 PUSH2 0x2591 JUMP JUMPDEST PUSH1 0x40 DUP1 MLOAD PUSH1 0x1F NOT DUP2 DUP5 SUB ADD DUP2 MSTORE DUP3 DUP3 MSTORE DUP1 MLOAD PUSH1 0x20 SWAP2 DUP3 ADD KECCAK256 PUSH32 0x19457468657265756D205369676E6564204D6573736167653A0A333200000000 DUP5 DUP4 ADD MSTORE PUSH1 0x3C DUP1 DUP6 ADD SWAP2 SWAP1 SWAP2 MSTORE DUP3 MLOAD DUP1 DUP6 SUB SWAP1 SWAP2 ADD DUP2 MSTORE PUSH1 0x5C SWAP1 SWAP4 ADD SWAP1 SWAP2 MSTORE DUP2 MLOAD SWAP2 ADD KECCAK256 SWAP1 JUMP JUMPDEST PUSH1 0x0 DUP2 DUP2 MSTORE PUSH1 0x75 PUSH1 0x20 MSTORE PUSH1 0x40 SWAP1 KECCAK256 SLOAD SWAP1 SWAP2 POP PUSH1 0xFF AND ISZERO PUSH2 0xC1E JUMPI PUSH1 0x40 MLOAD PUSH3 0x461BCD PUSH1 0xE5 SHL DUP2 MSTORE PUSH1 0x20 PUSH1 0x4 DUP3 ADD MSTORE PUSH1 0x11 PUSH1 0x24 DUP3 ADD MSTORE PUSH17 0x82D8E4CAC2C8F240EAE6CAC840D0C2E6D PUSH1 0x7B SHL PUSH1 0x44 DUP3 ADD MSTORE PUSH1 0x64 ADD PUSH2 0x5CD JUMP JUMPDEST PUSH2 0xC28 DUP2 DUP6 PUSH2 0x171D JUMP JUMPDEST PUSH2 0xC68 JUMPI PUSH1 0x40 MLOAD PUSH3 0x461BCD PUSH1 0xE5 SHL DUP2 MSTORE PUSH1 0x20 PUSH1 0x4 DUP3 ADD MSTORE PUSH1 0x11 PUSH1 0x24 DUP3 ADD MSTORE PUSH17 0x496E76616C6964205369676E6174757265 PUSH1 0x78 SHL PUSH1 0x44 DUP3 ADD MSTORE PUSH1 0x64 ADD PUSH2 0x5CD JUMP JUMPDEST PUSH1 0x0 DUP2 DUP2 MSTORE PUSH1 0x75 PUSH1 0x20 MSTORE PUSH1 0x40 DUP2 KECCAK256 DUP1 SLOAD PUSH1 0xFF NOT AND PUSH1 0x1 OR SWAP1 SSTORE DUP1 JUMPDEST DUP9 DUP2 LT ISZERO PUSH2 0x1007 JUMPI PUSH1 0x76 SLOAD PUSH1 0x6B PUSH1 0x0 DUP13 DUP13 DUP6 DUP2 DUP2 LT PUSH2 0xCA4 JUMPI PUSH2 0xCA4 PUSH2 0x24D1 JUMP JUMPDEST SWAP1 POP PUSH1 0x20 MUL ADD CALLDATALOAD DUP2 MSTORE PUSH1 0x20 ADD SWAP1 DUP2 MSTORE PUSH1 0x20 ADD PUSH1 0x0 KECCAK256 SLOAD TIMESTAMP PUSH2 0xCC5 SWAP2 SWAP1 PUSH2 0x25D1 JUMP JUMPDEST LT ISZERO PUSH2 0xD13 JUMPI PUSH1 0x40 MLOAD PUSH3 0x461BCD PUSH1 0xE5 SHL DUP2 MSTORE PUSH1 0x20 PUSH1 0x4 DUP3 ADD MSTORE PUSH1 0x1C PUSH1 0x24 DUP3 ADD MSTORE PUSH32 0x5371756972657320617265207374696C6C205175657374696E672E2E00000000 PUSH1 0x44 DUP3 ADD MSTORE PUSH1 0x64 ADD PUSH2 0x5CD JUMP JUMPDEST PUSH2 0xD46 DUP11 DUP11 DUP4 DUP2 DUP2 LT PUSH2 0xD28 JUMPI PUSH2 0xD28 PUSH2 0x24D1 JUMP JUMPDEST CALLER PUSH1 0x0 SWAP1 DUP2 MSTORE PUSH1 0x6D PUSH1 0x20 SWAP1 DUP2 MSTORE PUSH1 0x40 SWAP1 SWAP2 KECCAK256 SWAP4 SWAP2 MUL ADD CALLDATALOAD SWAP1 POP PUSH2 0x1747 JUMP JUMPDEST PUSH2 0xD4F JUMPI PUSH1 0x0 DUP1 REVERT JUMPDEST PUSH2 0xD82 DUP11 DUP11 DUP4 DUP2 DUP2 LT PUSH2 0xD64 JUMPI PUSH2 0xD64 PUSH2 0x24D1 JUMP JUMPDEST CALLER PUSH1 0x0 SWAP1 DUP2 MSTORE PUSH1 0x6D PUSH1 0x20 SWAP1 DUP2 MSTORE PUSH1 0x40 SWAP1 SWAP2 KECCAK256 SWAP4 SWAP2 MUL ADD CALLDATALOAD SWAP1 POP PUSH2 0x175F JUMP JUMPDEST POP PUSH1 0x0 PUSH2 0xDA9 PUSH1 0x70 SLOAD DUP11 DUP11 DUP6 DUP2 DUP2 LT PUSH2 0xD9D JUMPI PUSH2 0xD9D PUSH2 0x24D1 JUMP JUMPDEST SWAP1 POP PUSH1 0x20 MUL ADD CALLDATALOAD PUSH2 0x1439 JUMP JUMPDEST PUSH1 0x66 SLOAD SWAP1 SWAP2 POP PUSH1 0x0 SWAP1 PUSH1 0x1 PUSH1 0x1 PUSH1 0xA0 SHL SUB AND PUSH4 0x1C052034 DUP14 DUP14 DUP7 DUP2 DUP2 LT PUSH2 0xDD2 JUMPI PUSH2 0xDD2 PUSH2 0x24D1 JUMP JUMPDEST SWAP1 POP PUSH1 0x20 MUL ADD CALLDATALOAD PUSH1 0x40 MLOAD DUP3 PUSH4 0xFFFFFFFF AND PUSH1 0xE0 SHL DUP2 MSTORE PUSH1 0x4 ADD PUSH2 0xDF7 SWAP2 DUP2 MSTORE PUSH1 0x20 ADD SWAP1 JUMP JUMPDEST PUSH1 0x20 PUSH1 0x40 MLOAD DUP1 DUP4 SUB DUP2 DUP7 GAS STATICCALL ISZERO DUP1 ISZERO PUSH2 0xE14 JUMPI RETURNDATASIZE PUSH1 0x0 DUP1 RETURNDATACOPY RETURNDATASIZE PUSH1 0x0 REVERT JUMPDEST POP POP POP POP PUSH1 0x40 MLOAD RETURNDATASIZE PUSH1 0x1F NOT PUSH1 0x1F DUP3 ADD AND DUP3 ADD DUP1 PUSH1 0x40 MSTORE POP DUP2 ADD SWAP1 PUSH2 0xE38 SWAP2 SWAP1 PUSH2 0x254B JUMP JUMPDEST PUSH1 0x1 EQ PUSH2 0xE47 JUMPI PUSH1 0x71 SLOAD PUSH2 0xE55 JUMP JUMPDEST PUSH1 0x71 SLOAD PUSH2 0xE55 SWAP1 PUSH1 0x2 PUSH2 0x25E8 JUMP JUMPDEST SWAP1 POP DUP6 ISZERO PUSH2 0xE81 JUMPI PUSH2 0x2710 PUSH2 0xE6A DUP8 DUP4 PUSH2 0x25E8 JUMP JUMPDEST PUSH2 0xE74 SWAP2 SWAP1 PUSH2 0x261D JUMP JUMPDEST PUSH2 0xE7E SWAP1 DUP3 PUSH2 0x2631 JUMP JUMPDEST SWAP1 POP JUMPDEST PUSH2 0xE8B DUP2 DUP6 PUSH2 0x2631 JUMP JUMPDEST SWAP4 POP PUSH2 0xEAF DUP13 DUP13 DUP6 DUP2 DUP2 LT PUSH2 0xEA2 JUMPI PUSH2 0xEA2 PUSH2 0x24D1 JUMP JUMPDEST SWAP1 POP PUSH1 0x20 MUL ADD CALLDATALOAD DUP4 PUSH2 0x176B JUMP JUMPDEST PUSH32 0x93227FC4F4055687F87B7E20A200D14BE5035678C62B3CB56A929921BC2C1BFF CALLER DUP14 DUP14 DUP7 DUP2 DUP2 LT PUSH2 0xEE3 JUMPI PUSH2 0xEE3 PUSH2 0x24D1 JUMP JUMPDEST PUSH1 0x40 DUP1 MLOAD PUSH1 0x1 PUSH1 0x1 PUSH1 0xA0 SHL SUB SWAP1 SWAP6 AND DUP6 MSTORE PUSH1 0x20 SWAP2 DUP3 MUL SWAP4 SWAP1 SWAP4 ADD CALLDATALOAD SWAP1 DUP5 ADD MSTORE POP DUP2 ADD DUP4 SWAP1 MSTORE TIMESTAMP PUSH1 0x60 DUP3 ADD MSTORE PUSH1 0x80 ADD PUSH1 0x40 MLOAD DUP1 SWAP2 SUB SWAP1 LOG1 DUP7 ISZERO PUSH2 0xF39 JUMPI PUSH2 0xF34 DUP13 DUP13 DUP6 DUP2 DUP2 LT PUSH2 0x9F7 JUMPI PUSH2 0x9F7 PUSH2 0x24D1 JUMP JUMPDEST PUSH2 0xFF2 JUMP JUMPDEST PUSH2 0xF4E DUP13 DUP13 DUP6 DUP2 DUP2 LT PUSH2 0xD64 JUMPI PUSH2 0xD64 PUSH2 0x24D1 JUMP JUMPDEST POP PUSH1 0x66 SLOAD PUSH1 0x1 PUSH1 0x1 PUSH1 0xA0 SHL SUB AND PUSH4 0xB88D4FDE ADDRESS CALLER DUP16 DUP16 DUP9 DUP2 DUP2 LT PUSH2 0xF74 JUMPI PUSH2 0xF74 PUSH2 0x24D1 JUMP JUMPDEST PUSH1 0x40 MLOAD PUSH1 0x1 PUSH1 0x1 PUSH1 0xE0 SHL SUB NOT PUSH1 0xE0 DUP9 SWAP1 SHL AND DUP2 MSTORE PUSH1 0x1 PUSH1 0x1 PUSH1 0xA0 SHL SUB SWAP6 DUP7 AND PUSH1 0x4 DUP3 ADD MSTORE SWAP5 SWAP1 SWAP4 AND PUSH1 0x24 DUP6 ADD MSTORE POP PUSH1 0x20 SWAP1 SWAP2 MUL ADD CALLDATALOAD PUSH1 0x44 DUP3 ADD MSTORE PUSH1 0x80 PUSH1 0x64 DUP3 ADD MSTORE PUSH1 0x0 PUSH1 0x84 DUP3 ADD MSTORE PUSH1 0xA4 ADD PUSH1 0x0 PUSH1 0x40 MLOAD DUP1 DUP4 SUB DUP2 PUSH1 0x0 DUP8 DUP1 EXTCODESIZE ISZERO DUP1 ISZERO PUSH2 0xFD9 JUMPI PUSH1 0x0 DUP1 REVERT JUMPDEST POP GAS CALL ISZERO DUP1 ISZERO PUSH2 0xFED JUMPI RETURNDATASIZE PUSH1 0x0 DUP1 RETURNDATACOPY RETURNDATASIZE PUSH1 0x0 REVERT JUMPDEST POP POP POP POP JUMPDEST POP POP DUP1 DUP1 PUSH2 0xFFF SWAP1 PUSH2 0x24FD JUMP JUMPDEST SWAP2 POP POP PUSH2 0xC83 JUMP JUMPDEST POP PUSH1 0x65 SLOAD PUSH1 0x40 MLOAD PUSH4 0x40C10F19 PUSH1 0xE0 SHL DUP2 MSTORE CALLER PUSH1 0x4 DUP3 ADD MSTORE PUSH1 0x24 DUP2 ADD DUP4 SWAP1 MSTORE PUSH1 0x1 PUSH1 0x1 PUSH1 0xA0 SHL SUB SWAP1 SWAP2 AND SWAP1 PUSH4 0x40C10F19 SWAP1 PUSH1 0x44 ADD PUSH1 0x0 PUSH1 0x40 MLOAD DUP1 DUP4 SUB DUP2 PUSH1 0x0 DUP8 DUP1 EXTCODESIZE ISZERO DUP1 ISZERO PUSH2 0x1054 JUMPI PUSH1 0x0 DUP1 REVERT JUMPDEST POP GAS CALL ISZERO DUP1 ISZERO PUSH2 0x1068 JUMPI RETURNDATASIZE PUSH1 0x0 DUP1 RETURNDATACOPY RETURNDATASIZE PUSH1 0x0 REVERT JUMPDEST POP POP POP POP POP POP POP POP POP POP POP POP POP JUMP JUMPDEST PUSH1 0x33 SLOAD PUSH1 0x1 PUSH1 0x1 PUSH1 0xA0 SHL SUB AND CALLER EQ PUSH2 0x10A1 JUMPI PUSH1 0x40 MLOAD PUSH3 0x461BCD PUSH1 0xE5 SHL DUP2 MSTORE PUSH1 0x4 ADD PUSH2 0x5CD SWAP1 PUSH2 0x2516 JUMP JUMPDEST PUSH1 0x72 SSTORE JUMP JUMPDEST PUSH1 0x0 PUSH2 0x10B2 PUSH1 0x1 PUSH2 0x1AF3 JUMP JUMPDEST SWAP1 POP DUP1 ISZERO PUSH2 0x10CA JUMPI PUSH1 0x0 DUP1 SLOAD PUSH2 0xFF00 NOT AND PUSH2 0x100 OR SWAP1 SSTORE JUMPDEST PUSH1 0x65 DUP1 SLOAD PUSH1 0x1 PUSH1 0x1 PUSH1 0xA0 SHL SUB NOT SWAP1 DUP2 AND PUSH1 0x1 PUSH1 0x1 PUSH1 0xA0 SHL SUB DUP11 DUP2 AND SWAP2 SWAP1 SWAP2 OR SWAP1 SWAP3 SSTORE PUSH1 0x66 DUP1 SLOAD DUP3 AND DUP10 DUP5 AND OR SWAP1 SSTORE PUSH1 0x67 DUP1 SLOAD DUP3 AND DUP9 DUP5 AND OR SWAP1 SSTORE PUSH1 0x69 DUP1 SLOAD DUP3 AND DUP8 DUP5 AND OR SWAP1 SSTORE PUSH1 0x68 DUP1 SLOAD DUP3 AND DUP7 DUP5 AND OR SWAP1 SSTORE PUSH1 0x6A DUP1 SLOAD SWAP1 SWAP2 AND SWAP2 DUP5 AND SWAP2 SWAP1 SWAP2 OR SWAP1 SSTORE PUSH2 0x1134 PUSH2 0x1B78 JUMP JUMPDEST PUSH1 0x6E DUP1 SLOAD PUSH1 0xFF NOT AND SWAP1 SSTORE PUSH1 0x74 DUP1 SLOAD PUSH20 0x1010E71D9839B902F3AFE9E8D9E3352A8D78D82 PUSH1 0x1 PUSH1 0x1 PUSH1 0xA0 SHL SUB NOT SWAP1 SWAP2 AND OR SWAP1 SSTORE PUSH3 0x14CD0 PUSH1 0x76 SSTORE PUSH2 0x3E8 PUSH1 0x70 SSTORE PUSH9 0x15AF1D78B58C40000 PUSH1 0x71 SSTORE PUSH1 0x1 PUSH1 0x72 DUP2 SWAP1 SSTORE PUSH1 0xC8 PUSH1 0x73 DUP2 SWAP1 SSTORE PUSH1 0x40 DUP1 MLOAD PUSH1 0x60 DUP1 DUP3 ADD DUP4 MSTORE PUSH2 0x29E DUP3 MSTORE PUSH2 0x118 PUSH1 0x20 DUP1 DUP5 ADD SWAP2 DUP3 MSTORE PUSH1 0x32 DUP5 DUP7 ADD SWAP1 DUP2 MSTORE PUSH1 0x0 DUP1 DUP1 MSTORE PUSH1 0x6F DUP1 DUP5 MSTORE SWAP6 MLOAD PUSH32 0xD0170A6220FEF73A7DD2C1E9984B0B3831956884AC33B7728DDE627780A65BE5 DUP1 SLOAD SWAP6 MLOAD SWAP4 MLOAD PUSH2 0xFFFF SWAP3 DUP4 AND PUSH4 0xFFFFFFFF NOT SWAP8 DUP9 AND OR PUSH3 0x10000 SWAP6 DUP5 AND DUP7 MUL OR PUSH6 0xFFFF00000000 NOT SWAP1 DUP2 AND PUSH5 0x100000000 SWAP3 DUP6 AND DUP4 MUL OR SWAP1 SWAP3 SSTORE DUP10 MLOAD DUP1 DUP10 ADD DUP12 MSTORE PUSH2 0x24E DUP2 MSTORE PUSH2 0x154 DUP2 DUP9 ADD SWAP1 DUP2 MSTORE PUSH1 0x46 DUP3 DUP14 ADD SWAP1 DUP2 MSTORE SWAP14 DUP7 MSTORE DUP11 DUP9 MSTORE SWAP1 MLOAD PUSH32 0x6E075724C97AA8B42D86406682B25042490CF37E8D91270A79E54AD319C8B085 DUP1 SLOAD SWAP3 MLOAD SWAP15 MLOAD SWAP2 DUP7 AND SWAP3 DUP11 AND SWAP3 SWAP1 SWAP3 OR SWAP14 DUP6 AND DUP8 MUL SWAP14 SWAP1 SWAP14 OR DUP4 AND SWAP13 DUP5 AND DUP3 MUL SWAP13 SWAP1 SWAP13 OR SWAP1 SWAP12 SSTORE DUP9 MLOAD DUP1 DUP9 ADD DUP11 MSTORE PUSH2 0x212 DUP2 MSTORE PUSH2 0x17C DUP2 DUP8 ADD SWAP1 DUP2 MSTORE PUSH1 0x5A DUP3 DUP13 ADD SWAP1 DUP2 MSTORE PUSH1 0x2 DUP7 MSTORE DUP11 DUP9 MSTORE SWAP2 MLOAD PUSH32 0xF81FC1AD4B320A92E5C753C46175E95B3163F7FFC7E772242C04348A2D246E50 DUP1 SLOAD SWAP3 MLOAD SWAP4 MLOAD DUP7 AND DUP16 MUL SWAP4 DUP7 AND DUP9 MUL SWAP3 DUP11 AND SWAP2 DUP7 AND SWAP2 SWAP1 SWAP2 OR SWAP2 SWAP1 SWAP2 OR DUP4 AND SWAP2 SWAP1 SWAP2 OR SWAP1 SSTORE DUP9 MLOAD DUP1 DUP9 ADD DUP11 MSTORE PUSH2 0x168 DUP2 MSTORE PUSH2 0x1EA DUP2 DUP8 ADD SWAP1 DUP2 MSTORE PUSH1 0x96 DUP3 DUP13 ADD SWAP1 DUP2 MSTORE PUSH1 0x3 DUP7 MSTORE DUP11 DUP9 MSTORE SWAP2 MLOAD PUSH32 0xF409482B4F859760EC23DA36E736296CD9FF0C52EE109DF8089B12081F8B41FA DUP1 SLOAD SWAP3 MLOAD SWAP4 MLOAD SWAP2 DUP7 AND SWAP3 DUP11 AND SWAP3 SWAP1 SWAP3 OR SWAP3 DUP6 AND DUP8 MUL SWAP3 SWAP1 SWAP3 OR DUP4 AND SWAP2 DUP5 AND DUP14 MUL SWAP2 SWAP1 SWAP2 OR SWAP1 SSTORE DUP9 MLOAD SWAP7 DUP8 ADD DUP10 MSTORE SWAP9 DUP7 MSTORE PUSH2 0x226 DUP7 DUP6 ADD SWAP1 DUP2 MSTORE PUSH1 0xFA SWAP9 DUP8 ADD SWAP9 DUP10 MSTORE PUSH1 0x4 SWAP1 SWAP3 MSTORE SWAP6 SWAP1 SWAP3 MSTORE SWAP3 MLOAD PUSH32 0xB5AE3EBACBC80C7D6C76CE3E2D79ABB3D43998BD9B19C49850F5C83CDCF99151 DUP1 SLOAD SWAP3 MLOAD SWAP7 MLOAD DUP7 AND SWAP1 SWAP9 MUL SWAP6 DUP6 AND SWAP1 SWAP4 MUL SWAP2 AND SWAP2 SWAP1 SWAP3 AND OR OR SWAP1 SWAP2 AND OR SWAP1 SSTORE DUP1 ISZERO PUSH2 0x140A JUMPI PUSH1 0x0 DUP1 SLOAD PUSH2 0xFF00 NOT AND SWAP1 SSTORE PUSH1 0x40 MLOAD PUSH1 0x1 DUP2 MSTORE PUSH32 0x7F26B83FF96E1F2B6A682F133852F6798A09C465DA95921460CEFB3847402498 SWAP1 PUSH1 0x20 ADD PUSH1 0x40 MLOAD DUP1 SWAP2 SUB SWAP1 LOG1 JUMPDEST POP POP POP POP POP POP POP JUMP JUMPDEST PUSH1 0x76 SLOAD PUSH1 0x0 DUP3 DUP2 MSTORE PUSH1 0x6B PUSH1 0x20 MSTORE PUSH1 0x40 DUP2 KECCAK256 SLOAD SWAP1 SWAP2 SWAP1 PUSH2 0x1432 SWAP1 TIMESTAMP PUSH2 0x25D1 JUMP JUMPDEST GT SWAP3 SWAP2 POP POP JUMP JUMPDEST PUSH1 0x40 MLOAD PUSH12 0xFFFFFFFFFFFFFFFFFFFFFFFF NOT CALLER PUSH1 0x60 SHL AND PUSH1 0x20 DUP3 ADD MSTORE PUSH1 0x34 DUP2 ADD DUP3 SWAP1 MSTORE PUSH1 0x54 DUP2 ADD DUP4 SWAP1 MSTORE PUSH1 0x0 SWAP1 DUP4 SWAP1 PUSH1 0x74 ADD PUSH1 0x40 MLOAD PUSH1 0x20 DUP2 DUP4 SUB SUB DUP2 MSTORE SWAP1 PUSH1 0x40 MSTORE DUP1 MLOAD SWAP1 PUSH1 0x20 ADD KECCAK256 PUSH1 0x0 SHR PUSH2 0x148D SWAP2 SWAP1 PUSH2 0x2649 JUMP JUMPDEST PUSH2 0x856 SWAP1 PUSH1 0x1 PUSH2 0x2631 JUMP JUMPDEST PUSH1 0x33 SLOAD PUSH1 0x1 PUSH1 0x1 PUSH1 0xA0 SHL SUB AND CALLER EQ PUSH2 0x14C2 JUMPI PUSH1 0x40 MLOAD PUSH3 0x461BCD PUSH1 0xE5 SHL DUP2 MSTORE PUSH1 0x4 ADD PUSH2 0x5CD SWAP1 PUSH2 0x2516 JUMP JUMPDEST PUSH1 0x6E DUP1 SLOAD PUSH1 0xFF NOT DUP2 AND PUSH1 0xFF SWAP1 SWAP2 AND ISZERO OR SWAP1 SSTORE JUMP JUMPDEST PUSH1 0x0 DUP2 PUSH1 0x1 EQ PUSH2 0x1506 JUMPI DUP2 PUSH1 0x2 EQ PUSH2 0x76F JUMPI DUP2 PUSH1 0x3 EQ PUSH2 0x77D JUMPI DUP2 PUSH1 0x4 EQ PUSH2 0x14FF JUMPI PUSH1 0x4 PUSH2 0x787 JUMP JUMPDEST PUSH1 0x0 PUSH2 0x787 JUMP JUMPDEST PUSH1 0x2 SWAP3 SWAP2 POP POP JUMP JUMPDEST PUSH1 0x33 SLOAD PUSH1 0x1 PUSH1 0x1 PUSH1 0xA0 SHL SUB AND CALLER EQ PUSH2 0x1538 JUMPI PUSH1 0x40 MLOAD PUSH3 0x461BCD PUSH1 0xE5 SHL DUP2 MSTORE PUSH1 0x4 ADD PUSH2 0x5CD SWAP1 PUSH2 0x2516 JUMP JUMPDEST PUSH1 0x1 PUSH1 0x1 PUSH1 0xA0 SHL SUB DUP2 AND PUSH2 0x159D JUMPI PUSH1 0x40 MLOAD PUSH3 0x461BCD PUSH1 0xE5 SHL DUP2 MSTORE PUSH1 0x20 PUSH1 0x4 DUP3 ADD MSTORE PUSH1 0x26 PUSH1 0x24 DUP3 ADD MSTORE PUSH32 0x4F776E61626C653A206E6577206F776E657220697320746865207A65726F2061 PUSH1 0x44 DUP3 ADD MSTORE PUSH6 0x646472657373 PUSH1 0xD0 SHL PUSH1 0x64 DUP3 ADD MSTORE PUSH1 0x84 ADD PUSH2 0x5CD JUMP JUMPDEST PUSH2 0x15A6 DUP2 PUSH2 0x16CB JUMP JUMPDEST POP JUMP JUMPDEST PUSH1 0x0 PUSH2 0x787 DUP3 SLOAD SWAP1 JUMP JUMPDEST PUSH1 0x0 PUSH2 0x856 DUP4 DUP4 PUSH2 0x1BA7 JUMP JUMPDEST PUSH1 0x6E SLOAD PUSH1 0xFF AND PUSH2 0x160B JUMPI PUSH1 0x40 MLOAD PUSH3 0x461BCD PUSH1 0xE5 SHL DUP2 MSTORE PUSH1 0x20 PUSH1 0x4 DUP3 ADD MSTORE PUSH1 0x17 PUSH1 0x24 DUP3 ADD MSTORE PUSH23 0x5175657374696E67206D75737420626520616374697665 PUSH1 0x48 SHL PUSH1 0x44 DUP3 ADD MSTORE PUSH1 0x64 ADD PUSH2 0x5CD JUMP JUMPDEST PUSH1 0x0 DUP2 DUP2 MSTORE PUSH1 0x6B PUSH1 0x20 SWAP1 DUP2 MSTORE PUSH1 0x40 DUP1 DUP4 KECCAK256 TIMESTAMP SWAP1 SSTORE PUSH1 0x6C SWAP1 SWAP2 MSTORE DUP2 KECCAK256 DUP1 SLOAD SWAP2 PUSH2 0x1632 DUP4 PUSH2 0x24FD JUMP JUMPDEST SWAP1 SWAP2 SSTORE POP POP CALLER PUSH1 0x0 SWAP1 DUP2 MSTORE PUSH1 0x6D PUSH1 0x20 MSTORE PUSH1 0x40 SWAP1 KECCAK256 PUSH2 0x1650 SWAP1 DUP3 PUSH2 0x1747 JUMP JUMPDEST PUSH2 0x166F JUMPI CALLER PUSH1 0x0 SWAP1 DUP2 MSTORE PUSH1 0x6D PUSH1 0x20 MSTORE PUSH1 0x40 SWAP1 KECCAK256 PUSH2 0x166D SWAP1 DUP3 PUSH2 0x1BD1 JUMP JUMPDEST POP JUMPDEST PUSH32 0xEEB688E49CA64099EF8805ECE271B6B294BAB610960661AD2FBEA3EC0D943BC8 CALLER DUP3 PUSH1 0x76 SLOAD TIMESTAMP PUSH2 0x16A0 SWAP2 SWAP1 PUSH2 0x2631 JUMP JUMPDEST PUSH1 0x40 DUP1 MLOAD PUSH1 0x1 PUSH1 0x1 PUSH1 0xA0 SHL SUB SWAP1 SWAP5 AND DUP5 MSTORE PUSH1 0x20 DUP5 ADD SWAP3 SWAP1 SWAP3 MSTORE SWAP1 DUP3 ADD MSTORE PUSH1 0x60 ADD PUSH1 0x40 MLOAD DUP1 SWAP2 SUB SWAP1 LOG1 POP JUMP JUMPDEST PUSH1 0x33 DUP1 SLOAD PUSH1 0x1 PUSH1 0x1 PUSH1 0xA0 SHL SUB DUP4 DUP2 AND PUSH1 0x1 PUSH1 0x1 PUSH1 0xA0 SHL SUB NOT DUP4 AND DUP2 OR SWAP1 SWAP4 SSTORE PUSH1 0x40 MLOAD SWAP2 AND SWAP2 SWAP1 DUP3 SWAP1 PUSH32 0x8BE0079C531659141344CD1FD0A4F28419497F9722A3DAAFE3B4186F6B6457E0 SWAP1 PUSH1 0x0 SWAP1 LOG3 POP POP JUMP JUMPDEST PUSH1 0x74 SLOAD PUSH1 0x0 SWAP1 PUSH1 0x1 PUSH1 0x1 PUSH1 0xA0 SHL SUB AND PUSH2 0x1736 DUP5 DUP5 PUSH2 0x1BDD JUMP JUMPDEST PUSH1 0x1 PUSH1 0x1 PUSH1 0xA0 SHL SUB AND EQ SWAP4 SWAP3 POP POP POP JUMP JUMPDEST PUSH1 0x0 DUP2 DUP2 MSTORE PUSH1 0x1 DUP4 ADD PUSH1 0x20 MSTORE PUSH1 0x40 DUP2 KECCAK256 SLOAD ISZERO ISZERO PUSH2 0x856 JUMP JUMPDEST PUSH1 0x0 PUSH2 0x856 DUP4 DUP4 PUSH2 0x1BF9 JUMP JUMPDEST PUSH1 0x66 SLOAD PUSH1 0x40 MLOAD PUSH4 0x585E394D PUSH1 0xE1 SHL DUP2 MSTORE PUSH1 0x4 DUP2 ADD DUP5 SWAP1 MSTORE PUSH1 0x0 SWAP2 PUSH1 0x1 PUSH1 0x1 PUSH1 0xA0 SHL SUB AND SWAP1 PUSH4 0xB0BC729A SWAP1 PUSH1 0x24 ADD PUSH1 0x20 PUSH1 0x40 MLOAD DUP1 DUP4 SUB DUP2 DUP7 GAS STATICCALL ISZERO DUP1 ISZERO PUSH2 0x17B5 JUMPI RETURNDATASIZE PUSH1 0x0 DUP1 RETURNDATACOPY RETURNDATASIZE PUSH1 0x0 REVERT JUMPDEST POP POP POP POP PUSH1 0x40 MLOAD RETURNDATASIZE PUSH1 0x1F NOT PUSH1 0x1F DUP3 ADD AND DUP3 ADD DUP1 PUSH1 0x40 MSTORE POP DUP2 ADD SWAP1 PUSH2 0x17D9 SWAP2 SWAP1 PUSH2 0x254B JUMP JUMPDEST SWAP1 POP PUSH1 0x0 PUSH2 0x17E6 DUP3 PUSH2 0x746 JUMP JUMPDEST SWAP1 POP PUSH1 0x0 PUSH1 0x6F PUSH1 0x0 DUP4 PUSH1 0x4 DUP2 GT ISZERO PUSH2 0x1800 JUMPI PUSH2 0x1800 PUSH2 0x21E6 JUMP JUMPDEST PUSH1 0x4 DUP2 GT ISZERO PUSH2 0x1811 JUMPI PUSH2 0x1811 PUSH2 0x21E6 JUMP JUMPDEST DUP2 MSTORE PUSH1 0x20 DUP1 DUP3 ADD SWAP3 SWAP1 SWAP3 MSTORE PUSH1 0x40 SWAP1 DUP2 ADD PUSH1 0x0 SWAP1 DUP2 KECCAK256 DUP3 MLOAD PUSH1 0x60 DUP2 ADD DUP5 MSTORE SWAP1 SLOAD PUSH2 0xFFFF DUP1 DUP3 AND DUP1 DUP5 MSTORE PUSH3 0x10000 DUP4 DIV DUP3 AND SWAP7 DUP5 ADD SWAP7 SWAP1 SWAP7 MSTORE PUSH5 0x100000000 SWAP1 SWAP2 DIV AND SWAP3 DUP2 ADD SWAP3 SWAP1 SWAP3 MSTORE SWAP1 SWAP3 POP SWAP1 DUP6 LT ISZERO PUSH2 0x186C JUMPI POP POP POP POP POP POP JUMP JUMPDEST DUP2 MLOAD PUSH1 0x20 DUP4 ADD MLOAD PUSH2 0x187D SWAP2 SWAP1 PUSH2 0x265D JUMP JUMPDEST PUSH2 0xFFFF AND DUP6 GT PUSH2 0x188B JUMPI POP PUSH1 0x1 JUMPDEST DUP2 MLOAD PUSH1 0x20 DUP4 ADD MLOAD PUSH2 0x189C SWAP2 SWAP1 PUSH2 0x265D JUMP JUMPDEST PUSH2 0xFFFF AND DUP6 GT ISZERO PUSH2 0x18AB JUMPI POP PUSH1 0x0 JUMPDEST PUSH1 0x0 DUP2 PUSH1 0x2 DUP2 GT ISZERO PUSH2 0x18BF JUMPI PUSH2 0x18BF PUSH2 0x21E6 JUMP JUMPDEST SUB PUSH2 0x19E6 JUMPI PUSH1 0x6A SLOAD PUSH1 0x40 MLOAD PUSH4 0x6ECDA19B PUSH1 0xE1 SHL DUP2 MSTORE PUSH1 0x0 SWAP2 PUSH1 0x1 PUSH1 0x1 PUSH1 0xA0 SHL SUB AND SWAP1 PUSH4 0xDD9B4336 SWAP1 PUSH2 0x18F7 SWAP1 DUP10 SWAP1 DUP6 SWAP1 PUSH1 0x4 ADD PUSH2 0x2697 JUMP JUMPDEST PUSH1 0x20 PUSH1 0x40 MLOAD DUP1 DUP4 SUB DUP2 DUP7 GAS STATICCALL ISZERO DUP1 ISZERO PUSH2 0x1914 JUMPI RETURNDATASIZE PUSH1 0x0 DUP1 RETURNDATACOPY RETURNDATASIZE PUSH1 0x0 REVERT JUMPDEST POP POP POP POP PUSH1 0x40 MLOAD RETURNDATASIZE PUSH1 0x1F NOT PUSH1 0x1F DUP3 ADD AND DUP3 ADD DUP1 PUSH1 0x40 MSTORE POP DUP2 ADD SWAP1 PUSH2 0x1938 SWAP2 SWAP1 PUSH2 0x254B JUMP JUMPDEST SWAP1 POP PUSH32 0x272E0687DE8F5594EBC786F177BDD6B4E1E6B64C02FF5B19EC2DA8925A4DB827 CALLER DUP9 PUSH1 0x0 DUP5 PUSH1 0x40 MLOAD PUSH2 0x1970 SWAP5 SWAP4 SWAP3 SWAP2 SWAP1 PUSH2 0x26AB JUMP JUMPDEST PUSH1 0x40 MLOAD DUP1 SWAP2 SUB SWAP1 LOG1 PUSH1 0x69 SLOAD PUSH1 0x40 MLOAD PUSH4 0x40C10F19 PUSH1 0xE0 SHL DUP2 MSTORE CALLER PUSH1 0x4 DUP3 ADD MSTORE PUSH1 0x24 DUP2 ADD DUP4 SWAP1 MSTORE PUSH1 0x1 PUSH1 0x1 PUSH1 0xA0 SHL SUB SWAP1 SWAP2 AND SWAP1 PUSH4 0x40C10F19 SWAP1 PUSH1 0x44 ADD JUMPDEST PUSH1 0x0 PUSH1 0x40 MLOAD DUP1 DUP4 SUB DUP2 PUSH1 0x0 DUP8 DUP1 EXTCODESIZE ISZERO DUP1 ISZERO PUSH2 0x19C5 JUMPI PUSH1 0x0 DUP1 REVERT JUMPDEST POP GAS CALL ISZERO DUP1 ISZERO PUSH2 0x19D9 JUMPI RETURNDATASIZE PUSH1 0x0 DUP1 RETURNDATACOPY RETURNDATASIZE PUSH1 0x0 REVERT JUMPDEST POP POP POP POP POP POP POP POP POP POP POP JUMP JUMPDEST PUSH1 0x1 DUP2 PUSH1 0x2 DUP2 GT ISZERO PUSH2 0x19FA JUMPI PUSH2 0x19FA PUSH2 0x21E6 JUMP JUMPDEST SUB PUSH2 0x1AEB JUMPI PUSH1 0x6A SLOAD PUSH1 0x40 MLOAD PUSH4 0x6ECDA19B PUSH1 0xE1 SHL DUP2 MSTORE PUSH1 0x0 SWAP2 PUSH1 0x1 PUSH1 0x1 PUSH1 0xA0 SHL SUB AND SWAP1 PUSH4 0xDD9B4336 SWAP1 PUSH2 0x1A33 SWAP1 DUP10 SWAP1 PUSH1 0x1 SWAP1 PUSH1 0x4 ADD PUSH2 0x2697 JUMP JUMPDEST PUSH1 0x20 PUSH1 0x40 MLOAD DUP1 DUP4 SUB DUP2 DUP7 GAS STATICCALL ISZERO DUP1 ISZERO PUSH2 0x1A50 JUMPI RETURNDATASIZE PUSH1 0x0 DUP1 RETURNDATACOPY RETURNDATASIZE PUSH1 0x0 REVERT JUMPDEST POP POP POP POP PUSH1 0x40 MLOAD RETURNDATASIZE PUSH1 0x1F NOT PUSH1 0x1F DUP3 ADD AND DUP3 ADD DUP1 PUSH1 0x40 MSTORE POP DUP2 ADD SWAP1 PUSH2 0x1A74 SWAP2 SWAP1 PUSH2 0x254B JUMP JUMPDEST SWAP1 POP PUSH32 0x272E0687DE8F5594EBC786F177BDD6B4E1E6B64C02FF5B19EC2DA8925A4DB827 CALLER DUP9 PUSH1 0x1 DUP5 PUSH1 0x40 MLOAD PUSH2 0x1AAC SWAP5 SWAP4 SWAP3 SWAP2 SWAP1 PUSH2 0x26AB JUMP JUMPDEST PUSH1 0x40 MLOAD DUP1 SWAP2 SUB SWAP1 LOG1 PUSH1 0x67 SLOAD PUSH1 0x40 MLOAD PUSH4 0x40C10F19 PUSH1 0xE0 SHL DUP2 MSTORE CALLER PUSH1 0x4 DUP3 ADD MSTORE PUSH1 0x24 DUP2 ADD DUP4 SWAP1 MSTORE PUSH1 0x1 PUSH1 0x1 PUSH1 0xA0 SHL SUB SWAP1 SWAP2 AND SWAP1 PUSH4 0x40C10F19 SWAP1 PUSH1 0x44 ADD PUSH2 0x19AB JUMP JUMPDEST POP POP POP POP POP POP JUMP JUMPDEST PUSH1 0x0 DUP1 SLOAD PUSH2 0x100 SWAP1 DIV PUSH1 0xFF AND ISZERO PUSH2 0x1B32 JUMPI DUP2 PUSH1 0xFF AND PUSH1 0x1 EQ DUP1 ISZERO PUSH2 0x1B16 JUMPI POP ADDRESS EXTCODESIZE ISZERO JUMPDEST PUSH2 0x784 JUMPI PUSH1 0x40 MLOAD PUSH3 0x461BCD PUSH1 0xE5 SHL DUP2 MSTORE PUSH1 0x4 ADD PUSH2 0x5CD SWAP1 PUSH2 0x26DE JUMP JUMPDEST PUSH1 0x0 SLOAD PUSH1 0xFF DUP1 DUP5 AND SWAP2 AND LT PUSH2 0x1B59 JUMPI PUSH1 0x40 MLOAD PUSH3 0x461BCD PUSH1 0xE5 SHL DUP2 MSTORE PUSH1 0x4 ADD PUSH2 0x5CD SWAP1 PUSH2 0x26DE JUMP JUMPDEST POP PUSH1 0x0 DUP1 SLOAD PUSH1 0xFF NOT AND PUSH1 0xFF SWAP3 SWAP1 SWAP3 AND SWAP2 SWAP1 SWAP2 OR SWAP1 SSTORE PUSH1 0x1 SWAP1 JUMP JUMPDEST SWAP2 SWAP1 POP JUMP JUMPDEST PUSH1 0x0 SLOAD PUSH2 0x100 SWAP1 DIV PUSH1 0xFF AND PUSH2 0x1B9F JUMPI PUSH1 0x40 MLOAD PUSH3 0x461BCD PUSH1 0xE5 SHL DUP2 MSTORE PUSH1 0x4 ADD PUSH2 0x5CD SWAP1 PUSH2 0x272C JUMP JUMPDEST PUSH2 0xA4E PUSH2 0x1CEC JUMP JUMPDEST PUSH1 0x0 DUP3 PUSH1 0x0 ADD DUP3 DUP2 SLOAD DUP2 LT PUSH2 0x1BBE JUMPI PUSH2 0x1BBE PUSH2 0x24D1 JUMP JUMPDEST SWAP1 PUSH1 0x0 MSTORE PUSH1 0x20 PUSH1 0x0 KECCAK256 ADD SLOAD SWAP1 POP SWAP3 SWAP2 POP POP JUMP JUMPDEST PUSH1 0x0 PUSH2 0x856 DUP4 DUP4 PUSH2 0x1D1C JUMP JUMPDEST PUSH1 0x0 DUP1 PUSH1 0x0 PUSH2 0x1BEC DUP6 DUP6 PUSH2 0x1D6B JUMP JUMPDEST SWAP2 POP SWAP2 POP PUSH2 0x59B DUP2 PUSH2 0x1DD6 JUMP JUMPDEST PUSH1 0x0 DUP2 DUP2 MSTORE PUSH1 0x1 DUP4 ADD PUSH1 0x20 MSTORE PUSH1 0x40 DUP2 KECCAK256 SLOAD DUP1 ISZERO PUSH2 0x1CE2 JUMPI PUSH1 0x0 PUSH2 0x1C1D PUSH1 0x1 DUP4 PUSH2 0x25D1 JUMP JUMPDEST DUP6 SLOAD SWAP1 SWAP2 POP PUSH1 0x0 SWAP1 PUSH2 0x1C31 SWAP1 PUSH1 0x1 SWAP1 PUSH2 0x25D1 JUMP JUMPDEST SWAP1 POP DUP2 DUP2 EQ PUSH2 0x1C96 JUMPI PUSH1 0x0 DUP7 PUSH1 0x0 ADD DUP3 DUP2 SLOAD DUP2 LT PUSH2 0x1C51 JUMPI PUSH2 0x1C51 PUSH2 0x24D1 JUMP JUMPDEST SWAP1 PUSH1 0x0 MSTORE PUSH1 0x20 PUSH1 0x0 KECCAK256 ADD SLOAD SWAP1 POP DUP1 DUP8 PUSH1 0x0 ADD DUP5 DUP2 SLOAD DUP2 LT PUSH2 0x1C74 JUMPI PUSH2 0x1C74 PUSH2 0x24D1 JUMP JUMPDEST PUSH1 0x0 SWAP2 DUP3 MSTORE PUSH1 0x20 DUP1 DUP4 KECCAK256 SWAP1 SWAP2 ADD SWAP3 SWAP1 SWAP3 SSTORE SWAP2 DUP3 MSTORE PUSH1 0x1 DUP9 ADD SWAP1 MSTORE PUSH1 0x40 SWAP1 KECCAK256 DUP4 SWAP1 SSTORE JUMPDEST DUP6 SLOAD DUP7 SWAP1 DUP1 PUSH2 0x1CA7 JUMPI PUSH2 0x1CA7 PUSH2 0x2777 JUMP JUMPDEST PUSH1 0x1 SWAP1 SUB DUP2 DUP2 SWAP1 PUSH1 0x0 MSTORE PUSH1 0x20 PUSH1 0x0 KECCAK256 ADD PUSH1 0x0 SWAP1 SSTORE SWAP1 SSTORE DUP6 PUSH1 0x1 ADD PUSH1 0x0 DUP7 DUP2 MSTORE PUSH1 0x20 ADD SWAP1 DUP2 MSTORE PUSH1 0x20 ADD PUSH1 0x0 KECCAK256 PUSH1 0x0 SWAP1 SSTORE PUSH1 0x1 SWAP4 POP POP POP POP PUSH2 0x787 JUMP JUMPDEST PUSH1 0x0 SWAP2 POP POP PUSH2 0x787 JUMP JUMPDEST PUSH1 0x0 SLOAD PUSH2 0x100 SWAP1 DIV PUSH1 0xFF AND PUSH2 0x1D13 JUMPI PUSH1 0x40 MLOAD PUSH3 0x461BCD PUSH1 0xE5 SHL DUP2 MSTORE PUSH1 0x4 ADD PUSH2 0x5CD SWAP1 PUSH2 0x272C JUMP JUMPDEST PUSH2 0xA4E CALLER PUSH2 0x16CB JUMP JUMPDEST PUSH1 0x0 DUP2 DUP2 MSTORE PUSH1 0x1 DUP4 ADD PUSH1 0x20 MSTORE PUSH1 0x40 DUP2 KECCAK256 SLOAD PUSH2 0x1D63 JUMPI POP DUP2 SLOAD PUSH1 0x1 DUP2 DUP2 ADD DUP5 SSTORE PUSH1 0x0 DUP5 DUP2 MSTORE PUSH1 0x20 DUP1 DUP3 KECCAK256 SWAP1 SWAP4 ADD DUP5 SWAP1 SSTORE DUP5 SLOAD DUP5 DUP3 MSTORE DUP3 DUP7 ADD SWAP1 SWAP4 MSTORE PUSH1 0x40 SWAP1 KECCAK256 SWAP2 SWAP1 SWAP2 SSTORE PUSH2 0x787 JUMP JUMPDEST POP PUSH1 0x0 PUSH2 0x787 JUMP JUMPDEST PUSH1 0x0 DUP1 DUP3 MLOAD PUSH1 0x41 SUB PUSH2 0x1DA1 JUMPI PUSH1 0x20 DUP4 ADD MLOAD PUSH1 0x40 DUP5 ADD MLOAD PUSH1 0x60 DUP6 ADD MLOAD PUSH1 0x0 BYTE PUSH2 0x1D95 DUP8 DUP3 DUP6 DUP6 PUSH2 0x1F8C JUMP JUMPDEST SWAP5 POP SWAP5 POP POP POP POP PUSH2 0xB41 JUMP JUMPDEST DUP3 MLOAD PUSH1 0x40 SUB PUSH2 0x1DCA JUMPI PUSH1 0x20 DUP4 ADD MLOAD PUSH1 0x40 DUP5 ADD MLOAD PUSH2 0x1DBF DUP7 DUP4 DUP4 PUSH2 0x2079 JUMP JUMPDEST SWAP4 POP SWAP4 POP POP POP PUSH2 0xB41 JUMP JUMPDEST POP PUSH1 0x0 SWAP1 POP PUSH1 0x2 PUSH2 0xB41 JUMP JUMPDEST PUSH1 0x0 DUP2 PUSH1 0x4 DUP2 GT ISZERO PUSH2 0x1DEA JUMPI PUSH2 0x1DEA PUSH2 0x21E6 JUMP JUMPDEST SUB PUSH2 0x1DF2 JUMPI POP JUMP JUMPDEST PUSH1 0x1 DUP2 PUSH1 0x4 DUP2 GT ISZERO PUSH2 0x1E06 JUMPI PUSH2 0x1E06 PUSH2 0x21E6 JUMP JUMPDEST SUB PUSH2 0x1E53 JUMPI PUSH1 0x40 MLOAD PUSH3 0x461BCD PUSH1 0xE5 SHL DUP2 MSTORE PUSH1 0x20 PUSH1 0x4 DUP3 ADD MSTORE PUSH1 0x18 PUSH1 0x24 DUP3 ADD MSTORE PUSH32 0x45434453413A20696E76616C6964207369676E61747572650000000000000000 PUSH1 0x44 DUP3 ADD MSTORE PUSH1 0x64 ADD PUSH2 0x5CD JUMP JUMPDEST PUSH1 0x2 DUP2 PUSH1 0x4 DUP2 GT ISZERO PUSH2 0x1E67 JUMPI PUSH2 0x1E67 PUSH2 0x21E6 JUMP JUMPDEST SUB PUSH2 0x1EB4 JUMPI PUSH1 0x40 MLOAD PUSH3 0x461BCD PUSH1 0xE5 SHL DUP2 MSTORE PUSH1 0x20 PUSH1 0x4 DUP3 ADD MSTORE PUSH1 0x1F PUSH1 0x24 DUP3 ADD MSTORE PUSH32 0x45434453413A20696E76616C6964207369676E6174757265206C656E67746800 PUSH1 0x44 DUP3 ADD MSTORE PUSH1 0x64 ADD PUSH2 0x5CD JUMP JUMPDEST PUSH1 0x3 DUP2 PUSH1 0x4 DUP2 GT ISZERO PUSH2 0x1EC8 JUMPI PUSH2 0x1EC8 PUSH2 0x21E6 JUMP JUMPDEST SUB PUSH2 0x1F20 JUMPI PUSH1 0x40 MLOAD PUSH3 0x461BCD PUSH1 0xE5 SHL DUP2 MSTORE PUSH1 0x20 PUSH1 0x4 DUP3 ADD MSTORE PUSH1 0x22 PUSH1 0x24 DUP3 ADD MSTORE PUSH32 0x45434453413A20696E76616C6964207369676E6174757265202773272076616C PUSH1 0x44 DUP3 ADD MSTORE PUSH2 0x7565 PUSH1 0xF0 SHL PUSH1 0x64 DUP3 ADD MSTORE PUSH1 0x84 ADD PUSH2 0x5CD JUMP JUMPDEST PUSH1 0x4 DUP2 PUSH1 0x4 DUP2 GT ISZERO PUSH2 0x1F34 JUMPI PUSH2 0x1F34 PUSH2 0x21E6 JUMP JUMPDEST SUB PUSH2 0x15A6 JUMPI PUSH1 0x40 MLOAD PUSH3 0x461BCD PUSH1 0xE5 SHL DUP2 MSTORE PUSH1 0x20 PUSH1 0x4 DUP3 ADD MSTORE PUSH1 0x22 PUSH1 0x24 DUP3 ADD MSTORE PUSH32 0x45434453413A20696E76616C6964207369676E6174757265202776272076616C PUSH1 0x44 DUP3 ADD MSTORE PUSH2 0x7565 PUSH1 0xF0 SHL PUSH1 0x64 DUP3 ADD MSTORE PUSH1 0x84 ADD PUSH2 0x5CD JUMP JUMPDEST PUSH1 0x0 DUP1 PUSH32 0x7FFFFFFFFFFFFFFFFFFFFFFFFFFFFFFF5D576E7357A4501DDFE92F46681B20A0 DUP4 GT ISZERO PUSH2 0x1FC3 JUMPI POP PUSH1 0x0 SWAP1 POP PUSH1 0x3 PUSH2 0x2070 JUMP JUMPDEST DUP5 PUSH1 0xFF AND PUSH1 0x1B EQ ISZERO DUP1 ISZERO PUSH2 0x1FDB JUMPI POP DUP5 PUSH1 0xFF AND PUSH1 0x1C EQ ISZERO JUMPDEST ISZERO PUSH2 0x1FEC JUMPI POP PUSH1 0x0 SWAP1 POP PUSH1 0x4 PUSH2 0x2070 JUMP JUMPDEST PUSH1 0x40 DUP1 MLOAD PUSH1 0x0 DUP1 DUP3 MSTORE PUSH1 0x20 DUP3 ADD DUP1 DUP5 MSTORE DUP10 SWAP1 MSTORE PUSH1 0xFF DUP9 AND SWAP3 DUP3 ADD SWAP3 SWAP1 SWAP3 MSTORE PUSH1 0x60 DUP2 ADD DUP7 SWAP1 MSTORE PUSH1 0x80 DUP2 ADD DUP6 SWAP1 MSTORE PUSH1 0x1 SWAP1 PUSH1 0xA0 ADD PUSH1 0x20 PUSH1 0x40 MLOAD PUSH1 0x20 DUP2 SUB SWAP1 DUP1 DUP5 SUB SWAP1 DUP6 GAS STATICCALL ISZERO DUP1 ISZERO PUSH2 0x2040 JUMPI RETURNDATASIZE PUSH1 0x0 DUP1 RETURNDATACOPY RETURNDATASIZE PUSH1 0x0 REVERT JUMPDEST POP POP PUSH1 0x40 MLOAD PUSH1 0x1F NOT ADD MLOAD SWAP2 POP POP PUSH1 0x1 PUSH1 0x1 PUSH1 0xA0 SHL SUB DUP2 AND PUSH2 0x2069 JUMPI PUSH1 0x0 PUSH1 0x1 SWAP3 POP SWAP3 POP POP PUSH2 0x2070 JUMP JUMPDEST SWAP2 POP PUSH1 0x0 SWAP1 POP JUMPDEST SWAP5 POP SWAP5 SWAP3 POP POP POP JUMP JUMPDEST PUSH1 0x0 DUP1 PUSH1 0x1 PUSH1 0x1 PUSH1 0xFF SHL SUB DUP4 AND DUP2 PUSH2 0x2096 PUSH1 0xFF DUP7 SWAP1 SHR PUSH1 0x1B PUSH2 0x2631 JUMP JUMPDEST SWAP1 POP PUSH2 0x20A4 DUP8 DUP3 DUP9 DUP6 PUSH2 0x1F8C JUMP JUMPDEST SWAP4 POP SWAP4 POP POP POP SWAP4 POP SWAP4 SWAP2 POP POP JUMP JUMPDEST DUP1 CALLDATALOAD PUSH1 0x1 PUSH1 0x1 PUSH1 0xA0 SHL SUB DUP2 AND DUP2 EQ PUSH2 0x1B73 JUMPI PUSH1 0x0 DUP1 REVERT JUMPDEST PUSH1 0x0 PUSH1 0x20 DUP3 DUP5 SUB SLT ISZERO PUSH2 0x20DB JUMPI PUSH1 0x0 DUP1 REVERT JUMPDEST PUSH2 0x856 DUP3 PUSH2 0x20B2 JUMP JUMPDEST PUSH1 0x0 DUP2 MLOAD DUP1 DUP5 MSTORE PUSH1 0x20 DUP1 DUP6 ADD SWAP5 POP DUP1 DUP5 ADD PUSH1 0x0 JUMPDEST DUP4 DUP2 LT ISZERO PUSH2 0x2114 JUMPI DUP2 MLOAD DUP8 MSTORE SWAP6 DUP3 ADD SWAP6 SWAP1 DUP3 ADD SWAP1 PUSH1 0x1 ADD PUSH2 0x20F8 JUMP JUMPDEST POP SWAP5 SWAP6 SWAP5 POP POP POP POP POP JUMP JUMPDEST PUSH1 0x20 DUP2 MSTORE PUSH1 0x0 PUSH2 0x856 PUSH1 0x20 DUP4 ADD DUP5 PUSH2 0x20E4 JUMP JUMPDEST PUSH1 0x0 PUSH1 0x20 DUP3 DUP5 SUB SLT ISZERO PUSH2 0x2144 JUMPI PUSH1 0x0 DUP1 REVERT JUMPDEST POP CALLDATALOAD SWAP2 SWAP1 POP JUMP JUMPDEST PUSH1 0x0 DUP1 PUSH1 0x0 DUP1 PUSH1 0x0 PUSH1 0x80 DUP7 DUP9 SUB SLT ISZERO PUSH2 0x2163 JUMPI PUSH1 0x0 DUP1 REVERT JUMPDEST PUSH2 0x216C DUP7 PUSH2 0x20B2 JUMP JUMPDEST SWAP5 POP PUSH2 0x217A PUSH1 0x20 DUP8 ADD PUSH2 0x20B2 JUMP JUMPDEST SWAP4 POP PUSH1 0x40 DUP7 ADD CALLDATALOAD SWAP3 POP PUSH1 0x60 DUP7 ADD CALLDATALOAD PUSH8 0xFFFFFFFFFFFFFFFF DUP1 DUP3 GT ISZERO PUSH2 0x219E JUMPI PUSH1 0x0 DUP1 REVERT JUMPDEST DUP2 DUP9 ADD SWAP2 POP DUP9 PUSH1 0x1F DUP4 ADD SLT PUSH2 0x21B2 JUMPI PUSH1 0x0 DUP1 REVERT JUMPDEST DUP2 CALLDATALOAD DUP2 DUP2 GT ISZERO PUSH2 0x21C1 JUMPI PUSH1 0x0 DUP1 REVERT JUMPDEST DUP10 PUSH1 0x20 DUP3 DUP6 ADD ADD GT ISZERO PUSH2 0x21D3 JUMPI PUSH1 0x0 DUP1 REVERT JUMPDEST SWAP7 SWAP10 SWAP6 SWAP9 POP SWAP4 SWAP7 POP PUSH1 0x20 ADD SWAP5 SWAP4 SWAP3 POP POP POP JUMP JUMPDEST PUSH4 0x4E487B71 PUSH1 0xE0 SHL PUSH1 0x0 MSTORE PUSH1 0x21 PUSH1 0x4 MSTORE PUSH1 0x24 PUSH1 0x0 REVERT JUMPDEST PUSH1 0x5 DUP2 LT PUSH2 0x15A6 JUMPI PUSH2 0x15A6 PUSH2 0x21E6 JUMP JUMPDEST PUSH1 0x20 DUP2 ADD PUSH2 0x2219 DUP4 PUSH2 0x21FC JUMP JUMPDEST SWAP2 SWAP1 MSTORE SWAP1 JUMP JUMPDEST PUSH1 0x0 DUP1 DUP4 PUSH1 0x1F DUP5 ADD SLT PUSH2 0x2231 JUMPI PUSH1 0x0 DUP1 REVERT JUMPDEST POP DUP2 CALLDATALOAD PUSH8 0xFFFFFFFFFFFFFFFF DUP2 GT ISZERO PUSH2 0x2249 JUMPI PUSH1 0x0 DUP1 REVERT JUMPDEST PUSH1 0x20 DUP4 ADD SWAP2 POP DUP4 PUSH1 0x20 DUP3 PUSH1 0x5 SHL DUP6 ADD ADD GT ISZERO PUSH2 0xB41 JUMPI PUSH1 0x0 DUP1 REVERT JUMPDEST PUSH1 0x0 DUP1 PUSH1 0x20 DUP4 DUP6 SUB SLT ISZERO PUSH2 0x2277 JUMPI PUSH1 0x0 DUP1 REVERT JUMPDEST DUP3 CALLDATALOAD PUSH8 0xFFFFFFFFFFFFFFFF DUP2 GT ISZERO PUSH2 0x228E JUMPI PUSH1 0x0 DUP1 REVERT JUMPDEST PUSH2 0x229A DUP6 DUP3 DUP7 ADD PUSH2 0x221F JUMP JUMPDEST SWAP1 SWAP7 SWAP1 SWAP6 POP SWAP4 POP POP POP POP JUMP JUMPDEST PUSH1 0x40 DUP2 MSTORE PUSH1 0x0 PUSH2 0x22B9 PUSH1 0x40 DUP4 ADD DUP6 PUSH2 0x20E4 JUMP JUMPDEST DUP3 DUP2 SUB PUSH1 0x20 DUP5 ADD MSTORE PUSH2 0x22CB DUP2 DUP6 PUSH2 0x20E4 JUMP JUMPDEST SWAP6 SWAP5 POP POP POP POP POP JUMP JUMPDEST PUSH4 0x4E487B71 PUSH1 0xE0 SHL PUSH1 0x0 MSTORE PUSH1 0x41 PUSH1 0x4 MSTORE PUSH1 0x24 PUSH1 0x0 REVERT JUMPDEST DUP1 CALLDATALOAD DUP1 ISZERO ISZERO DUP2 EQ PUSH2 0x1B73 JUMPI PUSH1 0x0 DUP1 REVERT JUMPDEST PUSH1 0x0 DUP1 PUSH1 0x0 DUP1 PUSH1 0x0 DUP1 PUSH1 0x0 PUSH1 0xA0 DUP9 DUP11 SUB SLT ISZERO PUSH2 0x2315 JUMPI PUSH1 0x0 DUP1 REVERT JUMPDEST DUP8 CALLDATALOAD PUSH8 0xFFFFFFFFFFFFFFFF DUP1 DUP3 GT ISZERO PUSH2 0x232D JUMPI PUSH1 0x0 DUP1 REVERT JUMPDEST PUSH2 0x2339 DUP12 DUP4 DUP13 ADD PUSH2 0x221F JUMP JUMPDEST SWAP1 SWAP10 POP SWAP8 POP PUSH1 0x20 DUP11 ADD CALLDATALOAD SWAP2 POP DUP1 DUP3 GT ISZERO PUSH2 0x2352 JUMPI PUSH1 0x0 DUP1 REVERT JUMPDEST PUSH2 0x235E DUP12 DUP4 DUP13 ADD PUSH2 0x221F JUMP JUMPDEST SWAP1 SWAP8 POP SWAP6 POP PUSH1 0x40 DUP11 ADD CALLDATALOAD SWAP2 POP DUP1 DUP3 GT ISZERO PUSH2 0x2377 JUMPI PUSH1 0x0 DUP1 REVERT JUMPDEST DUP2 DUP11 ADD SWAP2 POP DUP11 PUSH1 0x1F DUP4 ADD SLT PUSH2 0x238B JUMPI PUSH1 0x0 DUP1 REVERT JUMPDEST DUP2 CALLDATALOAD DUP2 DUP2 GT ISZERO PUSH2 0x239D JUMPI PUSH2 0x239D PUSH2 0x22D4 JUMP JUMPDEST PUSH1 0x40 MLOAD PUSH1 0x1F DUP3 ADD PUSH1 0x1F NOT SWAP1 DUP2 AND PUSH1 0x3F ADD AND DUP2 ADD SWAP1 DUP4 DUP3 GT DUP2 DUP4 LT OR ISZERO PUSH2 0x23C5 JUMPI PUSH2 0x23C5 PUSH2 0x22D4 JUMP JUMPDEST DUP2 PUSH1 0x40 MSTORE DUP3 DUP2 MSTORE DUP14 PUSH1 0x20 DUP5 DUP8 ADD ADD GT ISZERO PUSH2 0x23DE JUMPI PUSH1 0x0 DUP1 REVERT JUMPDEST DUP3 PUSH1 0x20 DUP7 ADD PUSH1 0x20 DUP4 ADD CALLDATACOPY PUSH1 0x0 PUSH1 0x20 DUP5 DUP4 ADD ADD MSTORE DUP1 SWAP8 POP POP POP POP POP POP PUSH2 0x2405 PUSH1 0x60 DUP10 ADD PUSH2 0x22EA JUMP JUMPDEST SWAP2 POP PUSH1 0x80 DUP9 ADD CALLDATALOAD SWAP1 POP SWAP3 SWAP6 SWAP9 SWAP2 SWAP5 SWAP8 POP SWAP3 SWAP6 POP JUMP JUMPDEST PUSH1 0x0 DUP1 PUSH1 0x0 DUP1 PUSH1 0x0 DUP1 PUSH1 0xC0 DUP8 DUP10 SUB SLT ISZERO PUSH2 0x2433 JUMPI PUSH1 0x0 DUP1 REVERT JUMPDEST PUSH2 0x243C DUP8 PUSH2 0x20B2 JUMP JUMPDEST SWAP6 POP PUSH2 0x244A PUSH1 0x20 DUP9 ADD PUSH2 0x20B2 JUMP JUMPDEST SWAP5 POP PUSH2 0x2458 PUSH1 0x40 DUP9 ADD PUSH2 0x20B2 JUMP JUMPDEST SWAP4 POP PUSH2 0x2466 PUSH1 0x60 DUP9 ADD PUSH2 0x20B2 JUMP JUMPDEST SWAP3 POP PUSH2 0x2474 PUSH1 0x80 DUP9 ADD PUSH2 0x20B2 JUMP JUMPDEST SWAP2 POP PUSH2 0x2482 PUSH1 0xA0 DUP9 ADD PUSH2 0x20B2 JUMP JUMPDEST SWAP1 POP SWAP3 SWAP6 POP SWAP3 SWAP6 POP SWAP3 SWAP6 JUMP JUMPDEST PUSH1 0x0 DUP1 PUSH1 0x40 DUP4 DUP6 SUB SLT ISZERO PUSH2 0x24A1 JUMPI PUSH1 0x0 DUP1 REVERT JUMPDEST POP POP DUP1 CALLDATALOAD SWAP3 PUSH1 0x20 SWAP1 SWAP2 ADD CALLDATALOAD SWAP2 POP JUMP JUMPDEST PUSH1 0x0 PUSH1 0x20 DUP3 DUP5 SUB SLT ISZERO PUSH2 0x24C2 JUMPI PUSH1 0x0 DUP1 REVERT JUMPDEST DUP2 CALLDATALOAD PUSH1 0x5 DUP2 LT PUSH2 0x856 JUMPI PUSH1 0x0 DUP1 REVERT JUMPDEST PUSH4 0x4E487B71 PUSH1 0xE0 SHL PUSH1 0x0 MSTORE PUSH1 0x32 PUSH1 0x4 MSTORE PUSH1 0x24 PUSH1 0x0 REVERT JUMPDEST PUSH4 0x4E487B71 PUSH1 0xE0 SHL PUSH1 0x0 MSTORE PUSH1 0x11 PUSH1 0x4 MSTORE PUSH1 0x24 PUSH1 0x0 REVERT JUMPDEST PUSH1 0x0 PUSH1 0x1 DUP3 ADD PUSH2 0x250F JUMPI PUSH2 0x250F PUSH2 0x24E7 JUMP JUMPDEST POP PUSH1 0x1 ADD SWAP1 JUMP JUMPDEST PUSH1 0x20 DUP1 DUP3 MSTORE DUP2 DUP2 ADD MSTORE PUSH32 0x4F776E61626C653A2063616C6C6572206973206E6F7420746865206F776E6572 PUSH1 0x40 DUP3 ADD MSTORE PUSH1 0x60 ADD SWAP1 JUMP JUMPDEST PUSH1 0x0 PUSH1 0x20 DUP3 DUP5 SUB SLT ISZERO PUSH2 0x255D JUMPI PUSH1 0x0 DUP1 REVERT JUMPDEST POP MLOAD SWAP2 SWAP1 POP JUMP JUMPDEST PUSH1 0x0 PUSH1 0x1 PUSH1 0x1 PUSH1 0xFB SHL SUB DUP4 GT ISZERO PUSH2 0x257A JUMPI PUSH1 0x0 DUP1 REVERT JUMPDEST DUP3 PUSH1 0x5 SHL DUP1 DUP4 DUP7 CALLDATACOPY PUSH1 0x0 SWAP5 ADD SWAP4 DUP5 MSTORE POP SWAP2 SWAP3 SWAP2 POP POP JUMP JUMPDEST PUSH12 0xFFFFFFFFFFFFFFFFFFFFFFFF NOT DUP8 PUSH1 0x60 SHL AND DUP2 MSTORE PUSH1 0x0 PUSH2 0x25C0 PUSH2 0x25B9 PUSH1 0x14 DUP5 ADD DUP9 DUP11 PUSH2 0x2564 JUMP JUMPDEST DUP6 DUP8 PUSH2 0x2564 JUMP JUMPDEST SWAP3 DUP4 MSTORE POP POP PUSH1 0x20 ADD SWAP6 SWAP5 POP POP POP POP POP JUMP JUMPDEST PUSH1 0x0 DUP3 DUP3 LT ISZERO PUSH2 0x25E3 JUMPI PUSH2 0x25E3 PUSH2 0x24E7 JUMP JUMPDEST POP SUB SWAP1 JUMP JUMPDEST PUSH1 0x0 DUP2 PUSH1 0x0 NOT DIV DUP4 GT DUP3 ISZERO ISZERO AND ISZERO PUSH2 0x2602 JUMPI PUSH2 0x2602 PUSH2 0x24E7 JUMP JUMPDEST POP MUL SWAP1 JUMP JUMPDEST PUSH4 0x4E487B71 PUSH1 0xE0 SHL PUSH1 0x0 MSTORE PUSH1 0x12 PUSH1 0x4 MSTORE PUSH1 0x24 PUSH1 0x0 REVERT JUMPDEST PUSH1 0x0 DUP3 PUSH2 0x262C JUMPI PUSH2 0x262C PUSH2 0x2607 JUMP JUMPDEST POP DIV SWAP1 JUMP JUMPDEST PUSH1 0x0 DUP3 NOT DUP3 GT ISZERO PUSH2 0x2644 JUMPI PUSH2 0x2644 PUSH2 0x24E7 JUMP JUMPDEST POP ADD SWAP1 JUMP JUMPDEST PUSH1 0x0 DUP3 PUSH2 0x2658 JUMPI PUSH2 0x2658 PUSH2 0x2607 JUMP JUMPDEST POP MOD SWAP1 JUMP JUMPDEST PUSH1 0x0 PUSH2 0xFFFF DUP1 DUP4 AND DUP2 DUP6 AND DUP1 DUP4 SUB DUP3 GT ISZERO PUSH2 0x267A JUMPI PUSH2 0x267A PUSH2 0x24E7 JUMP JUMPDEST ADD SWAP5 SWAP4 POP POP POP POP JUMP JUMPDEST PUSH1 0x3 DUP2 LT PUSH2 0x2693 JUMPI PUSH2 0x2693 PUSH2 0x21E6 JUMP JUMPDEST SWAP1 MSTORE JUMP JUMPDEST DUP3 DUP2 MSTORE PUSH1 0x40 DUP2 ADD PUSH2 0x856 PUSH1 0x20 DUP4 ADD DUP5 PUSH2 0x2683 JUMP JUMPDEST PUSH1 0x1 PUSH1 0x1 PUSH1 0xA0 SHL SUB DUP6 AND DUP2 MSTORE PUSH1 0x20 DUP2 ADD DUP5 SWAP1 MSTORE PUSH1 0x80 DUP2 ADD PUSH2 0x26CF PUSH1 0x40 DUP4 ADD DUP6 PUSH2 0x2683 JUMP JUMPDEST DUP3 PUSH1 0x60 DUP4 ADD MSTORE SWAP6 SWAP5 POP POP POP POP POP JUMP JUMPDEST PUSH1 0x20 DUP1 DUP3 MSTORE PUSH1 0x2E SWAP1 DUP3 ADD MSTORE PUSH32 0x496E697469616C697A61626C653A20636F6E747261637420697320616C726561 PUSH1 0x40 DUP3 ADD MSTORE PUSH14 0x191E481A5B9A5D1A585B1A5E9959 PUSH1 0x92 SHL PUSH1 0x60 DUP3 ADD MSTORE PUSH1 0x80 ADD SWAP1 JUMP JUMPDEST PUSH1 0x20 DUP1 DUP3 MSTORE PUSH1 0x2B SWAP1 DUP3 ADD MSTORE PUSH32 0x496E697469616C697A61626C653A20636F6E7472616374206973206E6F742069 PUSH1 0x40 DUP3 ADD MSTORE PUSH11 0x6E697469616C697A696E67 PUSH1 0xA8 SHL PUSH1 0x60 DUP3 ADD MSTORE PUSH1 0x80 ADD SWAP1 JUMP JUMPDEST PUSH4 0x4E487B71 PUSH1 0xE0 SHL PUSH1 0x0 MSTORE PUSH1 0x31 PUSH1 0x4 MSTORE PUSH1 0x24 PUSH1 0x0 REVERT INVALID LOG2 PUSH5 0x6970667358 0x22 SLT KECCAK256 0xFC INVALID 0x22 0xE5 0xBC 0xE9 EQ PUSH29 0xA900D7428BF0FC14F550A18A02977E3F08FF0DF76D6CA90A64736F6C63 NUMBER STOP ADDMOD 0xD STOP CALLER "
		},
		"gasEstimates": {
			"creation": {
				"codeDepositCost": "2035800",
				"executionCost": "2163",
				"totalCost": "2037963"
			},
			"external": {
				"Creturn1Change(uint256)": "24555",
				"CupgradeChange(uint256)": "24531",
				"FIEF_CONTRACT()": "2394",
				"ITEM_CONTRACT()": "2373",
				"POTION_CONTRACT()": "2416",
				"RING_CONTRACT()": "2393",
				"SQUIRE_CONTRACT()": "2438",
				"TRINKET_CONTRACT()": "2392",
				"changeResetPeriod(uint256)": "24531",
				"checkIfSquireCanLeave(uint256)": "4755",
				"checkSquires(address)": "infinite",
				"dropRates(uint8)": "2694",
				"finishCavernQuest(uint256[],uint256[],bytes,bool,uint256)": "infinite",
				"getRewardForLevel(uint256)": "517",
				"getSkillForID(uint256)": "515",
				"getSkillForType(uint256)": "infinite",
				"getTokenSeedIds(uint256[])": "infinite",
				"init(address,address,address,address,address,address)": "infinite",
				"onERC721Received(address,address,uint256,bytes)": "infinite",
				"owner()": "2365",
				"questCavern(uint256[])": "infinite",
				"random(uint256,uint256)": "694",
				"renounceOwnership()": "28163",
				"resetTime()": "2340",
				"setTokenAddress(address)": "26779",
				"squiresQuestingCavern(address)": "infinite",
				"toggleQuesting()": "26612",
				"tokenSeedId(uint256)": "2549",
				"tokenTimer(uint256)": "2549",
				"transferOwnership(address)": "28400"
			},
			"internal": {
				"_startQuest(uint256)": "infinite",
				"giveItemReward(uint256,uint256)": "infinite",
				"verify(bytes32,bytes memory)": "infinite"
			}
		},
		"methodIdentifiers": {
			"Creturn1Change(uint256)": "0aabedd0",
			"CupgradeChange(uint256)": "91e8c029",
			"FIEF_CONTRACT()": "10658a03",
			"ITEM_CONTRACT()": "03b76c5b",
			"POTION_CONTRACT()": "34c52d7a",
			"RING_CONTRACT()": "a9ec1886",
			"SQUIRE_CONTRACT()": "1b846edc",
			"TRINKET_CONTRACT()": "e82addaf",
			"changeResetPeriod(uint256)": "6b7d66e6",
			"checkIfSquireCanLeave(uint256)": "9d909db6",
			"checkSquires(address)": "0b752a54",
			"dropRates(uint8)": "f3f23077",
			"finishCavernQuest(uint256[],uint256[],bytes,bool,uint256)": "7c2cb0ab",
			"getRewardForLevel(uint256)": "21d843c8",
			"getSkillForID(uint256)": "c3f18565",
			"getSkillForType(uint256)": "41a5f650",
			"getTokenSeedIds(uint256[])": "79547455",
			"init(address,address,address,address,address,address)": "99e133f9",
			"onERC721Received(address,address,uint256,bytes)": "150b7a02",
			"owner()": "8da5cb5b",
			"questCavern(uint256[])": "6d6c5014",
			"random(uint256,uint256)": "a9dd1225",
			"renounceOwnership()": "715018a6",
			"resetTime()": "65a114f1",
			"setTokenAddress(address)": "26a4e8d2",
			"squiresQuestingCavern(address)": "0a7fc951",
			"toggleQuesting()": "afb90c69",
			"tokenSeedId(uint256)": "709732c2",
			"tokenTimer(uint256)": "c1690e42",
			"transferOwnership(address)": "f2fde38b"
		}
	},
	"abi": [
		{
			"anonymous": false,
			"inputs": [
				{
					"indexed": false,
					"internalType": "address",
					"name": "_owner",
					"type": "address"
				},
				{
					"indexed": false,
					"internalType": "uint256",
					"name": "squireId",
					"type": "uint256"
				},
				{
					"indexed": false,
					"internalType": "uint256",
					"name": "amount",
					"type": "uint256"
				},
				{
					"indexed": false,
					"internalType": "uint256",
					"name": "timestamp",
					"type": "uint256"
				}
			],
			"name": "FiefReward",
			"type": "event"
		},
		{
			"anonymous": false,
			"inputs": [
				{
					"indexed": false,
					"internalType": "address",
					"name": "_owner",
					"type": "address"
				},
				{
					"indexed": false,
					"internalType": "uint256",
					"name": "squireId",
					"type": "uint256"
				}
			],
			"name": "FinishedQuest",
			"type": "event"
		},
		{
			"anonymous": false,
			"inputs": [
				{
					"indexed": false,
					"internalType": "uint8",
					"name": "version",
					"type": "uint8"
				}
			],
			"name": "Initialized",
			"type": "event"
		},
		{
			"anonymous": false,
			"inputs": [
				{
					"indexed": false,
					"internalType": "address",
					"name": "_owner",
					"type": "address"
				},
				{
					"indexed": false,
					"internalType": "uint256",
					"name": "squireId",
					"type": "uint256"
				},
				{
					"indexed": false,
					"internalType": "enum ItemData.ItemType",
					"name": "rewardType",
					"type": "uint8"
				},
				{
					"indexed": false,
					"internalType": "uint256",
					"name": "rewardId",
					"type": "uint256"
				}
			],
			"name": "ItemReward",
			"type": "event"
		},
		{
			"anonymous": false,
			"inputs": [
				{
					"indexed": true,
					"internalType": "address",
					"name": "previousOwner",
					"type": "address"
				},
				{
					"indexed": true,
					"internalType": "address",
					"name": "newOwner",
					"type": "address"
				}
			],
			"name": "OwnershipTransferred",
			"type": "event"
		},
		{
			"anonymous": false,
			"inputs": [
				{
					"indexed": false,
					"internalType": "uint256",
					"name": "squireId",
					"type": "uint256"
				},
				{
					"indexed": false,
					"internalType": "enum SquireQuestingCavern.SkillTypes",
					"name": "skillType",
					"type": "uint8"
				}
			],
			"name": "SquireLevelUp",
			"type": "event"
		},
		{
			"anonymous": false,
			"inputs": [
				{
					"indexed": false,
					"internalType": "address",
					"name": "_owner",
					"type": "address"
				},
				{
					"indexed": false,
					"internalType": "uint256",
					"name": "squireId",
					"type": "uint256"
				},
				{
					"indexed": false,
					"internalType": "uint256",
					"name": "finishedAt",
					"type": "uint256"
				}
			],
			"name": "StartedQuest",
			"type": "event"
		},
		{
			"inputs": [
				{
					"internalType": "uint256",
					"name": "num",
					"type": "uint256"
				}
			],
			"name": "Creturn1Change",
			"outputs": [],
			"stateMutability": "nonpayable",
			"type": "function"
		},
		{
			"inputs": [
				{
					"internalType": "uint256",
					"name": "num",
					"type": "uint256"
				}
			],
			"name": "CupgradeChange",
			"outputs": [],
			"stateMutability": "nonpayable",
			"type": "function"
		},
		{
			"inputs": [],
			"name": "FIEF_CONTRACT",
			"outputs": [
				{
					"internalType": "address",
					"name": "",
					"type": "address"
				}
			],
			"stateMutability": "view",
			"type": "function"
		},
		{
			"inputs": [],
			"name": "ITEM_CONTRACT",
			"outputs": [
				{
					"internalType": "address",
					"name": "",
					"type": "address"
				}
			],
			"stateMutability": "view",
			"type": "function"
		},
		{
			"inputs": [],
			"name": "POTION_CONTRACT",
			"outputs": [
				{
					"internalType": "address",
					"name": "",
					"type": "address"
				}
			],
			"stateMutability": "view",
			"type": "function"
		},
		{
			"inputs": [],
			"name": "RING_CONTRACT",
			"outputs": [
				{
					"internalType": "address",
					"name": "",
					"type": "address"
				}
			],
			"stateMutability": "view",
			"type": "function"
		},
		{
			"inputs": [],
			"name": "SQUIRE_CONTRACT",
			"outputs": [
				{
					"internalType": "address",
					"name": "",
					"type": "address"
				}
			],
			"stateMutability": "view",
			"type": "function"
		},
		{
			"inputs": [],
			"name": "TRINKET_CONTRACT",
			"outputs": [
				{
					"internalType": "address",
					"name": "",
					"type": "address"
				}
			],
			"stateMutability": "view",
			"type": "function"
		},
		{
			"inputs": [
				{
					"internalType": "uint256",
					"name": "_time",
					"type": "uint256"
				}
			],
			"name": "changeResetPeriod",
			"outputs": [],
			"stateMutability": "nonpayable",
			"type": "function"
		},
		{
			"inputs": [
				{
					"internalType": "uint256",
					"name": "squireId",
					"type": "uint256"
				}
			],
			"name": "checkIfSquireCanLeave",
			"outputs": [
				{
					"internalType": "bool",
					"name": "",
					"type": "bool"
				}
			],
			"stateMutability": "view",
			"type": "function"
		},
		{
			"inputs": [
				{
					"internalType": "address",
					"name": "owner",
					"type": "address"
				}
			],
			"name": "checkSquires",
			"outputs": [
				{
					"internalType": "uint256[]",
					"name": "",
					"type": "uint256[]"
				}
			],
			"stateMutability": "view",
			"type": "function"
		},
		{
			"inputs": [
				{
					"internalType": "enum SquireQuestingCavern.SkillBonuses",
					"name": "",
					"type": "uint8"
				}
			],
			"name": "dropRates",
			"outputs": [
				{
					"internalType": "uint16",
					"name": "nothing",
					"type": "uint16"
				},
				{
					"internalType": "uint16",
					"name": "potion",
					"type": "uint16"
				},
				{
					"internalType": "uint16",
					"name": "ring",
					"type": "uint16"
				}
			],
			"stateMutability": "view",
			"type": "function"
		},
		{
			"inputs": [
				{
					"internalType": "uint256[]",
					"name": "tokenIds",
					"type": "uint256[]"
				},
				{
					"internalType": "uint256[]",
					"name": "seeds",
					"type": "uint256[]"
				},
				{
					"internalType": "bytes",
					"name": "signature",
					"type": "bytes"
				},
				{
					"internalType": "bool",
					"name": "restart",
					"type": "bool"
				},
				{
					"internalType": "uint256",
					"name": "boost",
					"type": "uint256"
				}
			],
			"name": "finishCavernQuest",
			"outputs": [],
			"stateMutability": "nonpayable",
			"type": "function"
		},
		{
			"inputs": [
				{
					"internalType": "uint256",
					"name": "level",
					"type": "uint256"
				}
			],
			"name": "getRewardForLevel",
			"outputs": [
				{
					"internalType": "enum SquireQuestingCavern.SkillBonuses",
					"name": "",
					"type": "uint8"
				}
			],
			"stateMutability": "pure",
			"type": "function"
		},
		{
			"inputs": [
				{
					"internalType": "uint256",
					"name": "id",
					"type": "uint256"
				}
			],
			"name": "getSkillForID",
			"outputs": [
				{
					"internalType": "enum SquireQuestingCavern.SkillTypes",
					"name": "",
					"type": "uint8"
				}
			],
			"stateMutability": "pure",
			"type": "function"
		},
		{
			"inputs": [
				{
					"internalType": "uint256",
					"name": "tokenId",
					"type": "uint256"
				}
			],
			"name": "getSkillForType",
			"outputs": [
				{
					"internalType": "enum SquireQuestingCavern.SkillTypes",
					"name": "",
					"type": "uint8"
				}
			],
			"stateMutability": "view",
			"type": "function"
		},
		{
			"inputs": [
				{
					"internalType": "uint256[]",
					"name": "squireIds",
					"type": "uint256[]"
				}
			],
			"name": "getTokenSeedIds",
			"outputs": [
				{
					"internalType": "uint256[]",
					"name": "",
					"type": "uint256[]"
				},
				{
					"internalType": "uint256[]",
					"name": "",
					"type": "uint256[]"
				}
			],
			"stateMutability": "view",
			"type": "function"
		},
		{
			"inputs": [
				{
					"internalType": "address",
					"name": "_fief",
					"type": "address"
				},
				{
					"internalType": "address",
					"name": "_squire",
					"type": "address"
				},
				{
					"internalType": "address",
					"name": "_potion",
					"type": "address"
				},
				{
					"internalType": "address",
					"name": "_ring",
					"type": "address"
				},
				{
					"internalType": "address",
					"name": "_trinket",
					"type": "address"
				},
				{
					"internalType": "address",
					"name": "_items",
					"type": "address"
				}
			],
			"name": "init",
			"outputs": [],
			"stateMutability": "nonpayable",
			"type": "function"
		},
		{
			"inputs": [
				{
					"internalType": "address",
					"name": "",
					"type": "address"
				},
				{
					"internalType": "address",
					"name": "",
					"type": "address"
				},
				{
					"internalType": "uint256",
					"name": "",
					"type": "uint256"
				},
				{
					"internalType": "bytes",
					"name": "",
					"type": "bytes"
				}
			],
			"name": "onERC721Received",
			"outputs": [
				{
					"internalType": "bytes4",
					"name": "",
					"type": "bytes4"
				}
			],
			"stateMutability": "pure",
			"type": "function"
		},
		{
			"inputs": [],
			"name": "owner",
			"outputs": [
				{
					"internalType": "address",
					"name": "",
					"type": "address"
				}
			],
			"stateMutability": "view",
			"type": "function"
		},
		{
			"inputs": [
				{
					"internalType": "uint256[]",
					"name": "squireIds",
					"type": "uint256[]"
				}
			],
			"name": "questCavern",
			"outputs": [],
			"stateMutability": "nonpayable",
			"type": "function"
		},
		{
			"inputs": [
				{
					"internalType": "uint256",
					"name": "number",
					"type": "uint256"
				},
				{
					"internalType": "uint256",
					"name": "seed",
					"type": "uint256"
				}
			],
			"name": "random",
			"outputs": [
				{
					"internalType": "uint256",
					"name": "",
					"type": "uint256"
				}
			],
			"stateMutability": "view",
			"type": "function"
		},
		{
			"inputs": [],
			"name": "renounceOwnership",
			"outputs": [],
			"stateMutability": "nonpayable",
			"type": "function"
		},
		{
			"inputs": [],
			"name": "resetTime",
			"outputs": [
				{
					"internalType": "uint256",
					"name": "",
					"type": "uint256"
				}
			],
			"stateMutability": "view",
			"type": "function"
		},
		{
			"inputs": [
				{
					"internalType": "address",
					"name": "_tokenAddress",
					"type": "address"
				}
			],
			"name": "setTokenAddress",
			"outputs": [],
			"stateMutability": "nonpayable",
			"type": "function"
		},
		{
			"inputs": [
				{
					"internalType": "address",
					"name": "account",
					"type": "address"
				}
			],
			"name": "squiresQuestingCavern",
			"outputs": [
				{
					"internalType": "uint256[]",
					"name": "",
					"type": "uint256[]"
				}
			],
			"stateMutability": "view",
			"type": "function"
		},
		{
			"inputs": [],
			"name": "toggleQuesting",
			"outputs": [],
			"stateMutability": "nonpayable",
			"type": "function"
		},
		{
			"inputs": [
				{
					"internalType": "uint256",
					"name": "",
					"type": "uint256"
				}
			],
			"name": "tokenSeedId",
			"outputs": [
				{
					"internalType": "uint256",
					"name": "",
					"type": "uint256"
				}
			],
			"stateMutability": "view",
			"type": "function"
		},
		{
			"inputs": [
				{
					"internalType": "uint256",
					"name": "",
					"type": "uint256"
				}
			],
			"name": "tokenTimer",
			"outputs": [
				{
					"internalType": "uint256",
					"name": "",
					"type": "uint256"
				}
			],
			"stateMutability": "view",
			"type": "function"
		},
		{
			"inputs": [
				{
					"internalType": "address",
					"name": "newOwner",
					"type": "address"
				}
			],
			"name": "transferOwnership",
			"outputs": [],
			"stateMutability": "nonpayable",
			"type": "function"
		}
	]
}