{
	"data": {
		"bytecode": {
			"linkReferences": {},
			"object": "608060405234801561001057600080fd5b50612c81806100206000396000f3fe608060405234801561001057600080fd5b50600436106102d65760003560e01c806368ab8f9711610182578063a9ec1886116100e9578063cca7856e116100a2578063e82addaf1161007c578063e82addaf14610715578063f09a401614610728578063f2fde38b1461073b578063f6c2d5561461074e57600080fd5b8063cca7856e146106dc578063ccd0b167146106ef578063d083c9bb1461070257600080fd5b8063a9ec188614610668578063aa6e0f031461067b578063afb90c691461068e578063b923fee414610696578063c1690e42146106a9578063c3f18565146106c957600080fd5b80638da5cb5b1161013b5780638da5cb5b146105ce5780638e89fba1146105df57806390a475a0146105ff57806395193ec3146106125780639d909db614610632578063a9dd12251461065557600080fd5b806368ab8f97146105575780636b7d66e61461055f5780636c19e78314610572578063709732c214610585578063715018a6146105a557806379547455146105ad57600080fd5b806321d843c8116102415780633aad8ee4116101fa57806348758697116101d4578063487586971461050857806351049a24146105285780635b423a8e1461053b57806365a114f11461054e57600080fd5b80633aad8ee4146104b55780634138eabc146104c857806341a5f650146104e857600080fd5b806321d843c8146104435780632259ed47146104565780632693a6ce1461046957806326a4e8d21461047c578063338905721461048f57806334c52d7a146104a257600080fd5b806310658a031161029357806310658a031461039457806313bfa794146103bf578063150b7a02146103d25780631818c8e91461040a5780631b846edc1461041d5780631e48ad131461043057600080fd5b8063040f80b5146102db57806306dfe2d1146102f0578063077fc4411461032e5780630b752a54146103415780630d45f23a146103615780630fff47f514610374575b600080fd5b6102ee6102e93660046125e0565b610761565b005b61031b6102fe366004612615565b607260209081526000928352604080842090915290825290205481565b6040519081526020015b60405180910390f35b6102ee61033c3660046125e0565b610799565b61035461034f36600461263f565b6107c8565b6040516103259190612695565b6102ee61036f366004612713565b61093b565b6103876103823660046125e0565b610ed0565b6040516103259190612828565b6065546103a7906001600160a01b031681565b6040516001600160a01b039091168152602001610325565b6102ee6103cd3660046125e0565b610f6a565b6103f16103e036600461287d565b630a85bd0160e11b95945050505050565b6040516001600160e01b03199091168152602001610325565b6102ee6104183660046125e0565b610f99565b6066546103a7906001600160a01b031681565b61035461043e36600461263f565b610fc8565b61031b6104513660046125e0565b611082565b6102ee6104643660046125e0565b6110d5565b6102ee6104773660046125e0565b611104565b6102ee61048a36600461263f565b611133565b6102ee61049d366004612918565b61117f565b6067546103a7906001600160a01b031681565b6102ee6104c336600461295a565b611301565b61031b6104d63660046125e0565b606d6020526000908152604090205481565b6104fb6104f63660046125e0565b611368565b60405161032591906129a6565b61051b6105163660046125e0565b6113ec565b60405161032591906129b4565b6102ee6105363660046125e0565b61149f565b6102ee6105493660046125e0565b6114ce565b61031b60885481565b6102ee6114fd565b6102ee61056d3660046125e0565b6115e3565b6102ee61058036600461263f565b611612565b61031b6105933660046125e0565b60706020526000908152604090205481565b6102ee611664565b6105c06105bb366004612918565b61169a565b6040516103259291906129ce565b6033546001600160a01b03166103a7565b61031b6105ed3660046125e0565b606c6020526000908152604090205481565b6102ee61060d3660046125e0565b611792565b61031b61062036600461263f565b606b6020526000908152604090205481565b6106456106403660046125e0565b6117c1565b6040519015158152602001610325565b61031b6106633660046129fc565b6117e7565b6069546103a7906001600160a01b031681565b6102ee6106893660046125e0565b611846565b6102ee611875565b6087546103a7906001600160a01b031681565b61031b6106b73660046125e0565b606f6020526000908152604090205481565b6104fb6106d73660046125e0565b6118b3565b6102ee6106ea3660046125e0565b6118ea565b6102ee6106fd3660046125e0565b611919565b6102ee6107103660046125e0565b611948565b6068546103a7906001600160a01b031681565b6102ee610736366004612a1e565b611977565b6102ee61074936600461263f565b611bc8565b6102ee61075c3660046125e0565b611c63565b6033546001600160a01b031633146107945760405162461bcd60e51b815260040161078b90612a51565b60405180910390fd5b607d55565b6033546001600160a01b031633146107c35760405162461bcd60e51b815260040161078b90612a51565b608555565b6066546040516370a0823160e01b81526001600160a01b0383811660048301526060926000929116906370a0823190602401602060405180830381865afa158015610817573d6000803e3d6000fd5b505050506040513d601f19601f8201168201806040525081019061083b9190612a86565b905060008167ffffffffffffffff811115610858576108586126ed565b604051908082528060200260200182016040528015610881578160200160208202803683370190505b50905060005b8281101561093357606654604051632f745c5960e01b81526001600160a01b0387811660048301526024820184905290911690632f745c5990604401602060405180830381865afa1580156108e0573d6000803e3d6000fd5b505050506040513d601f19601f820116820180604052508101906109049190612a86565b82828151811061091657610916612a9f565b60209081029190910101528061092b81612acb565b915050610887565b509392505050565b60006109b93388888888604051602001610959959493929190612b11565b60408051601f1981840301815282825280516020918201207f19457468657265756d205369676e6564204d6573736167653a0a33320000000084830152603c8085019190915282518085039091018152605c909301909152815191012090565b60008181526089602052604090205490915060ff1615610a0f5760405162461bcd60e51b8152602060048201526011602482015270082d8e4cac2c8f240eae6cac840d0c2e6d607b1b604482015260640161078b565b610a198184611c92565b610a595760405162461bcd60e51b8152602060048201526011602482015270496e76616c6964205369676e617475726560781b604482015260640161078b565b6000818152608960205260408120805460ff191660011790555b86811015610ec657610a9c888883818110610a9057610a90612a9f565b905060200201356117c1565b610ae85760405162461bcd60e51b815260206004820152601c60248201527f5371756972657320617265207374696c6c205175657374696e672e2e00000000604482015260640161078b565b610b1b888883818110610afd57610afd612a9f565b33600090815260716020908152604090912093910201359050611cc1565b610b2457600080fd5b6000610b4a607454888885818110610b3e57610b3e612a9f565b905060200201356117e7565b90506000610b57826113ec565b606654909150600090610bea906001600160a01b031663cf14d2ae8d8d88818110610b8457610b84612a9f565b905060200201356040518263ffffffff1660e01b8152600401610ba991815260200190565b602060405180830381865afa158015610bc6573d6000803e3d6000fd5b505050506040513d601f19601f820116820180604052508101906104519190612a86565b608a6000846003811115610c0057610c0061297c565b6003811115610c1157610c1161297c565b815260200190815260200160002054610c2a9190612b4b565b90507f93227fc4f4055687f87b7e20a200d14be5035678c62b3cb56a929921bc2c1bff338c8c87818110610c6057610c60612a9f565b604080516001600160a01b039095168552602091820293909301359084015250810183905242606082015260800160405180910390a16065546040516340c10f1960e01b8152336004820152602481018390526001600160a01b03909116906340c10f1990604401600060405180830381600087803b158015610ce257600080fd5b505af1158015610cf6573d6000803e3d6000fd5b50505050607e548311610d50576000610d1c60058b8b88818110610b3e57610b3e612a9f565b90506000610d29826118b3565b9050610d4d818e8e89818110610d4157610d41612a9f565b90506020020135611cd9565b50505b7f2b8215859742e5cd71fec0f2bef678d9f3bdb31dd5dceda7643dd0fc8d54bd4b338c8c87818110610d8457610d84612a9f565b604080516001600160a01b0390951685526020918202939093013590840152500160405180910390a18515610dd957610dd48b8b86818110610dc857610dc8612a9f565b90506020020135611f26565b610eb0565b610e0c8b8b86818110610dee57610dee612a9f565b33600090815260716020908152604090912093910201359050612032565b506066546001600160a01b031663b88d4fde30338e8e89818110610e3257610e32612a9f565b6040516001600160e01b031960e088901b1681526001600160a01b03958616600482015294909316602485015250602090910201356044820152608060648201526000608482015260a401600060405180830381600087803b158015610e9757600080fd5b505af1158015610eab573d6000803e3d6000fd5b505050505b5050508080610ebe90612acb565b915050610a73565b5050505050505050565b606e6020526000908152604090208054610ee990612b63565b80601f0160208091040260200160405190810160405280929190818152602001828054610f1590612b63565b8015610f625780601f10610f3757610100808354040283529160200191610f62565b820191906000526020600020905b815481529060010190602001808311610f4557829003601f168201915b505050505081565b6033546001600160a01b03163314610f945760405162461bcd60e51b815260040161078b90612a51565b607e55565b6033546001600160a01b03163314610fc35760405162461bcd60e51b815260040161078b90612a51565b608355565b6001600160a01b0381166000908152607160205260408120606091610fec8261203e565b67ffffffffffffffff811115611004576110046126ed565b60405190808252806020026020018201604052801561102d578160200160208202803683370190505b50905060005b61103c8361203e565b81101561093357600061104f8483612048565b90508083838151811061106457611064612a9f565b6020908102919091010152508061107a81612acb565b915050611033565b6000607f548211156110cc576081548211156110c4576083548211156110bc576085548211156110b4576086546110cf565b6084546110cf565b6082546110cf565b6080546110cf565b60005b92915050565b6033546001600160a01b031633146110ff5760405162461bcd60e51b815260040161078b90612a51565b608455565b6033546001600160a01b0316331461112e5760405162461bcd60e51b815260040161078b90612a51565b608255565b6033546001600160a01b0316331461115d5760405162461bcd60e51b815260040161078b90612a51565b606580546001600160a01b0319166001600160a01b0392909216919091179055565b60735460ff166111cb5760405162461bcd60e51b81526020600482015260176024820152765175657374696e67206d7573742062652061637469766560481b604482015260640161078b565b60018110156112285760405162461bcd60e51b8152602060048201526024808201527f31206f72206d6f72652053717569726573206d75737420676f206f6e206120716044820152631d595cdd60e21b606482015260840161078b565b60005b818110156112fc576066546001600160a01b031663b88d4fde333086868681811061125857611258612a9f565b6040516001600160e01b031960e088901b1681526001600160a01b03958616600482015294909316602485015250602090910201356044820152608060648201526000608482015260a401600060405180830381600087803b1580156112bd57600080fd5b505af11580156112d1573d6000803e3d6000fd5b505050506112ea838383818110610dc857610dc8612a9f565b806112f481612acb565b91505061122b565b505050565b6033546001600160a01b0316331461132b5760405162461bcd60e51b815260040161078b90612a51565b80608a60008460038111156113425761134261297c565b60038111156113535761135361297c565b81526020810191909152604001600020555050565b60665460405163032b7d6760e61b81526004810183905260009182916001600160a01b039091169063cadf59c090602401602060405180830381865afa1580156113b6573d6000803e3d6000fd5b505050506040513d601f19601f820116820180604052508101906113da9190612a86565b90506113e5816118b3565b9392505050565b600060755482116113ff57506000919050565b6075548211801561141f575060775460755461141b9190612b4b565b8211155b1561142c57506001919050565b60775460755461143c9190612b4b565b8211801561146657506079546077546075546114589190612b4b565b6114629190612b4b565b8211155b1561147357506002919050565b6079546077546075546114869190612b4b565b6114909190612b4b565b8211156110cc57506003919050565b6033546001600160a01b031633146114c95760405162461bcd60e51b815260040161078b90612a51565b607f55565b6033546001600160a01b031633146114f85760405162461bcd60e51b815260040161078b90612a51565b607955565b6033546001600160a01b031633146115275760405162461bcd60e51b815260040161078b90612a51565b608a6020526801a055690d9db800007f48dfbd0439eed1e067941a32b725f50324a108c89bd688b4058dee83ae92b70f556802b5e3af16b18800007fbc81cb96fd1a7cee243cf25b602a6b452f86cb2092af6f898b5901e06df4919355680410d586a20a4c00007fea1f79a6d6430395a5b22da17d068344bcc36d4f17031dd7312eca7a9a6a1caa55600360005268056bc75e2d631000007fe17d42ecd714ca71946e276b07b8908ef4b62f2bfe4b99c7e4cd14b64e9ca47f55565b6033546001600160a01b0316331461160d5760405162461bcd60e51b815260040161078b90612a51565b608855565b6033546001600160a01b0316331461163c5760405162461bcd60e51b815260040161078b90612a51565b607380546001600160a01b0390921661010002610100600160a81b0319909216919091179055565b6033546001600160a01b0316331461168e5760405162461bcd60e51b815260040161078b90612a51565b6116986000612054565b565b60608060008367ffffffffffffffff8111156116b8576116b86126ed565b6040519080825280602002602001820160405280156116e1578160200160208202803683370190505b50905060005b8481101561174a576070600087878481811061170557611705612a9f565b9050602002013581526020019081526020016000205482828151811061172d5761172d612a9f565b60209081029190910101528061174281612acb565b9150506116e7565b508484828282808060200260200160405190810160405280939291908181526020018383602002808284376000920191909152509298509296505050505050505b9250929050565b6033546001600160a01b031633146117bc5760405162461bcd60e51b815260040161078b90612a51565b607755565b6088546000828152606f60205260408120549091906117e09042612b9d565b1192915050565b6040516bffffffffffffffffffffffff193360601b166020820152603481018290526054810183905260009083906074016040516020818303038152906040528051906020012060001c61183b9190612bb4565b6113e5906001612b4b565b6033546001600160a01b031633146118705760405162461bcd60e51b815260040161078b90612a51565b607555565b6033546001600160a01b0316331461189f5760405162461bcd60e51b815260040161078b90612a51565b6073805460ff19811660ff90911615179055565b6000816001146118e257816002146118db57816003146118d45760006110cf565b60016110cf565b60036110cf565b600292915050565b6033546001600160a01b031633146119145760405162461bcd60e51b815260040161078b90612a51565b608655565b6033546001600160a01b031633146119435760405162461bcd60e51b815260040161078b90612a51565b608055565b6033546001600160a01b031633146119725760405162461bcd60e51b815260040161078b90612a51565b607b55565b600054610100900460ff166119925760005460ff1615611996565b303b155b6119f95760405162461bcd60e51b815260206004820152602e60248201527f496e697469616c697a61626c653a20636f6e747261637420697320616c72656160448201526d191e481a5b9a5d1a585b1a5e995960921b606482015260840161078b565b600054610100900460ff16158015611a1b576000805461ffff19166101011790555b606580546001600160a01b038086166001600160a01b03199283161790925560668054928516928216831790556087805490911690911790556073805460ff19169055611a666120a6565b6103e86074556102ee60755560c86077819055602d6079556005607b556001607d55607e819055608a6020526801a055690d9db800007f48dfbd0439eed1e067941a32b725f50324a108c89bd688b4058dee83ae92b70f8190556802b5e3af16b18800007fbc81cb96fd1a7cee243cf25b602a6b452f86cb2092af6f898b5901e06df4919355680410d586a20a4c00007fea1f79a6d6430395a5b22da17d068344bcc36d4f17031dd7312eca7a9a6a1caa55600360005268056bc75e2d631000007fe17d42ecd714ca71946e276b07b8908ef4b62f2bfe4b99c7e4cd14b64e9ca47f55600a607f556080556014608155680340aad21b3b7000006082556032608355680821ab0d441498000060845560646085556815af1d78b58c40000060865560738054610100600160a81b0319167401010e71d9839b902f3afe9e8d9e3352a8d78d820017905560885580156112fc576000805461ff0019169055505050565b6033546001600160a01b03163314611bf25760405162461bcd60e51b815260040161078b90612a51565b6001600160a01b038116611c575760405162461bcd60e51b815260206004820152602660248201527f4f776e61626c653a206e6577206f776e657220697320746865207a65726f206160448201526564647265737360d01b606482015260840161078b565b611c6081612054565b50565b6033546001600160a01b03163314611c8d5760405162461bcd60e51b815260040161078b90612a51565b608155565b60735460009061010090046001600160a01b0316611cb084846120d5565b6001600160a01b0316149392505050565b600081815260018301602052604081205415156113e5565b6002826004811115611ced57611ced61297c565b03611dae57606654607d546040516384103b9960e01b81526004810184905260248101919091526000604482018190526064820181905260848201526001600160a01b03909116906384103b999060a4015b600060405180830381600087803b158015611d5957600080fd5b505af1158015611d6d573d6000803e3d6000fd5b505050507f8745ce41804d354403d6912ae6393806fcda20a0623c9859d2682e7acd4c6d688183604051611da2929190612bd6565b60405180910390a15050565b6001826004811115611dc257611dc261297c565b03611e1b57606654607d546040516384103b9960e01b81526004810184905260006024820181905260448201819052606482019290925260848101919091526001600160a01b03909116906384103b999060a401611d3f565b6000826004811115611e2f57611e2f61297c565b03611e8557606654607d546040516384103b9960e01b81526004810184905260006024820181905260448201819052606482015260848101919091526001600160a01b03909116906384103b999060a401611d3f565b6003826004811115611e9957611e9961297c565b03611ef257606654607d546040516384103b9960e01b81526004810184905260006024820181905260448201929092526064810182905260848101919091526001600160a01b03909116906384103b999060a401611d3f565b6004826004811115611f0657611f0661297c565b03611f22576000611f1682611368565b90506112fc8183611cd9565b5050565b60735460ff16611f725760405162461bcd60e51b81526020600482015260176024820152765175657374696e67206d7573742062652061637469766560481b604482015260640161078b565b6000818152606f6020908152604080832042905560709091528120805491611f9983612acb565b9091555050336000908152607160205260409020611fb79082611cc1565b611fd657336000908152607160205260409020611fd490826120f1565b505b7feeb688e49ca64099ef8805ece271b6b294bab610960661ad2fbea3ec0d943bc83382608854426120079190612b4b565b604080516001600160a01b03909416845260208401929092529082015260600160405180910390a150565b60006113e583836120fd565b60006110cf825490565b60006113e583836121f0565b603380546001600160a01b038381166001600160a01b0319831681179093556040519116919082907f8be0079c531659141344cd1fd0a4f28419497f9722a3daafe3b4186f6b6457e090600090a35050565b600054610100900460ff166120cd5760405162461bcd60e51b815260040161078b90612bea565b61169861221a565b60008060006120e4858561224a565b91509150610933816122b5565b60006113e5838361246b565b600081815260018301602052604081205480156121e6576000612121600183612b9d565b855490915060009061213590600190612b9d565b905081811461219a57600086600001828154811061215557612155612a9f565b906000526020600020015490508087600001848154811061217857612178612a9f565b6000918252602080832090910192909255918252600188019052604090208390555b85548690806121ab576121ab612c35565b6001900381819060005260206000200160009055905585600101600086815260200190815260200160002060009055600193505050506110cf565b60009150506110cf565b600082600001828154811061220757612207612a9f565b9060005260206000200154905092915050565b600054610100900460ff166122415760405162461bcd60e51b815260040161078b90612bea565b61169833612054565b60008082516041036122805760208301516040840151606085015160001a612274878285856124ba565b9450945050505061178b565b82516040036122a9576020830151604084015161229e8683836125a7565b93509350505061178b565b5060009050600261178b565b60008160048111156122c9576122c961297c565b036122d15750565b60018160048111156122e5576122e561297c565b036123325760405162461bcd60e51b815260206004820152601860248201527f45434453413a20696e76616c6964207369676e61747572650000000000000000604482015260640161078b565b60028160048111156123465761234661297c565b036123935760405162461bcd60e51b815260206004820152601f60248201527f45434453413a20696e76616c6964207369676e6174757265206c656e67746800604482015260640161078b565b60038160048111156123a7576123a761297c565b036123ff5760405162461bcd60e51b815260206004820152602260248201527f45434453413a20696e76616c6964207369676e6174757265202773272076616c604482015261756560f01b606482015260840161078b565b60048160048111156124135761241361297c565b03611c605760405162461bcd60e51b815260206004820152602260248201527f45434453413a20696e76616c6964207369676e6174757265202776272076616c604482015261756560f01b606482015260840161078b565b60008181526001830160205260408120546124b2575081546001818101845560008481526020808220909301849055845484825282860190935260409020919091556110cf565b5060006110cf565b6000807f7fffffffffffffffffffffffffffffff5d576e7357a4501ddfe92f46681b20a08311156124f1575060009050600361259e565b8460ff16601b1415801561250957508460ff16601c14155b1561251a575060009050600461259e565b6040805160008082526020820180845289905260ff881692820192909252606081018690526080810185905260019060a0016020604051602081039080840390855afa15801561256e573d6000803e3d6000fd5b5050604051601f1901519150506001600160a01b0381166125975760006001925092505061259e565b9150600090505b94509492505050565b6000806001600160ff1b038316816125c460ff86901c601b612b4b565b90506125d2878288856124ba565b935093505050935093915050565b6000602082840312156125f257600080fd5b5035919050565b80356001600160a01b038116811461261057600080fd5b919050565b6000806040838503121561262857600080fd5b612631836125f9565b946020939093013593505050565b60006020828403121561265157600080fd5b6113e5826125f9565b600081518084526020808501945080840160005b8381101561268a5781518752958201959082019060010161266e565b509495945050505050565b6020815260006113e5602083018461265a565b60008083601f8401126126ba57600080fd5b50813567ffffffffffffffff8111156126d257600080fd5b6020830191508360208260051b850101111561178b57600080fd5b634e487b7160e01b600052604160045260246000fd5b8035801515811461261057600080fd5b6000806000806000806080878903121561272c57600080fd5b863567ffffffffffffffff8082111561274457600080fd5b6127508a838b016126a8565b9098509650602089013591508082111561276957600080fd5b6127758a838b016126a8565b9096509450604089013591508082111561278e57600080fd5b818901915089601f8301126127a257600080fd5b8135818111156127b4576127b46126ed565b604051601f8201601f19908116603f011681019083821181831017156127dc576127dc6126ed565b816040528281528c60208487010111156127f557600080fd5b82602086016020830137600060208483010152809650505050505061281c60608801612703565b90509295509295509295565b600060208083528351808285015260005b8181101561285557858101830151858201604001528201612839565b81811115612867576000604083870101525b50601f01601f1916929092016040019392505050565b60008060008060006080868803121561289557600080fd5b61289e866125f9565b94506128ac602087016125f9565b935060408601359250606086013567ffffffffffffffff808211156128d057600080fd5b818801915088601f8301126128e457600080fd5b8135818111156128f357600080fd5b89602082850101111561290557600080fd5b9699959850939650602001949392505050565b6000806020838503121561292b57600080fd5b823567ffffffffffffffff81111561294257600080fd5b61294e858286016126a8565b90969095509350505050565b6000806040838503121561296d57600080fd5b82356004811061263157600080fd5b634e487b7160e01b600052602160045260246000fd5b600581106129a2576129a261297c565b9052565b602081016110cf8284612992565b60208101600483106129c8576129c861297c565b91905290565b6040815260006129e1604083018561265a565b82810360208401526129f3818561265a565b95945050505050565b60008060408385031215612a0f57600080fd5b50508035926020909101359150565b60008060408385031215612a3157600080fd5b612a3a836125f9565b9150612a48602084016125f9565b90509250929050565b6020808252818101527f4f776e61626c653a2063616c6c6572206973206e6f7420746865206f776e6572604082015260600190565b600060208284031215612a9857600080fd5b5051919050565b634e487b7160e01b600052603260045260246000fd5b634e487b7160e01b600052601160045260246000fd5b600060018201612add57612add612ab5565b5060010190565b60006001600160fb1b03831115612afa57600080fd5b8260051b8083863760009401938452509192915050565b6bffffffffffffffffffffffff198660601b1681526000612b40612b39601484018789612ae4565b8486612ae4565b979650505050505050565b60008219821115612b5e57612b5e612ab5565b500190565b600181811c90821680612b7757607f821691505b602082108103612b9757634e487b7160e01b600052602260045260246000fd5b50919050565b600082821015612baf57612baf612ab5565b500390565b600082612bd157634e487b7160e01b600052601260045260246000fd5b500690565b828152604081016113e56020830184612992565b6020808252602b908201527f496e697469616c697a61626c653a20636f6e7472616374206973206e6f74206960408201526a6e697469616c697a696e6760a81b606082015260800190565b634e487b7160e01b600052603160045260246000fdfea2646970667358221220699c73c569fc4ba2a10e60076c26b615b0f8a12ea3ac12033f88125d916cdab764736f6c634300080d0033",
			"opcodes": "PUSH1 0x80 PUSH1 0x40 MSTORE CALLVALUE DUP1 ISZERO PUSH2 0x10 JUMPI PUSH1 0x0 DUP1 REVERT JUMPDEST POP PUSH2 0x2C81 DUP1 PUSH2 0x20 PUSH1 0x0 CODECOPY PUSH1 0x0 RETURN INVALID PUSH1 0x80 PUSH1 0x40 MSTORE CALLVALUE DUP1 ISZERO PUSH2 0x10 JUMPI PUSH1 0x0 DUP1 REVERT JUMPDEST POP PUSH1 0x4 CALLDATASIZE LT PUSH2 0x2D6 JUMPI PUSH1 0x0 CALLDATALOAD PUSH1 0xE0 SHR DUP1 PUSH4 0x68AB8F97 GT PUSH2 0x182 JUMPI DUP1 PUSH4 0xA9EC1886 GT PUSH2 0xE9 JUMPI DUP1 PUSH4 0xCCA7856E GT PUSH2 0xA2 JUMPI DUP1 PUSH4 0xE82ADDAF GT PUSH2 0x7C JUMPI DUP1 PUSH4 0xE82ADDAF EQ PUSH2 0x715 JUMPI DUP1 PUSH4 0xF09A4016 EQ PUSH2 0x728 JUMPI DUP1 PUSH4 0xF2FDE38B EQ PUSH2 0x73B JUMPI DUP1 PUSH4 0xF6C2D556 EQ PUSH2 0x74E JUMPI PUSH1 0x0 DUP1 REVERT JUMPDEST DUP1 PUSH4 0xCCA7856E EQ PUSH2 0x6DC JUMPI DUP1 PUSH4 0xCCD0B167 EQ PUSH2 0x6EF JUMPI DUP1 PUSH4 0xD083C9BB EQ PUSH2 0x702 JUMPI PUSH1 0x0 DUP1 REVERT JUMPDEST DUP1 PUSH4 0xA9EC1886 EQ PUSH2 0x668 JUMPI DUP1 PUSH4 0xAA6E0F03 EQ PUSH2 0x67B JUMPI DUP1 PUSH4 0xAFB90C69 EQ PUSH2 0x68E JUMPI DUP1 PUSH4 0xB923FEE4 EQ PUSH2 0x696 JUMPI DUP1 PUSH4 0xC1690E42 EQ PUSH2 0x6A9 JUMPI DUP1 PUSH4 0xC3F18565 EQ PUSH2 0x6C9 JUMPI PUSH1 0x0 DUP1 REVERT JUMPDEST DUP1 PUSH4 0x8DA5CB5B GT PUSH2 0x13B JUMPI DUP1 PUSH4 0x8DA5CB5B EQ PUSH2 0x5CE JUMPI DUP1 PUSH4 0x8E89FBA1 EQ PUSH2 0x5DF JUMPI DUP1 PUSH4 0x90A475A0 EQ PUSH2 0x5FF JUMPI DUP1 PUSH4 0x95193EC3 EQ PUSH2 0x612 JUMPI DUP1 PUSH4 0x9D909DB6 EQ PUSH2 0x632 JUMPI DUP1 PUSH4 0xA9DD1225 EQ PUSH2 0x655 JUMPI PUSH1 0x0 DUP1 REVERT JUMPDEST DUP1 PUSH4 0x68AB8F97 EQ PUSH2 0x557 JUMPI DUP1 PUSH4 0x6B7D66E6 EQ PUSH2 0x55F JUMPI DUP1 PUSH4 0x6C19E783 EQ PUSH2 0x572 JUMPI DUP1 PUSH4 0x709732C2 EQ PUSH2 0x585 JUMPI DUP1 PUSH4 0x715018A6 EQ PUSH2 0x5A5 JUMPI DUP1 PUSH4 0x79547455 EQ PUSH2 0x5AD JUMPI PUSH1 0x0 DUP1 REVERT JUMPDEST DUP1 PUSH4 0x21D843C8 GT PUSH2 0x241 JUMPI DUP1 PUSH4 0x3AAD8EE4 GT PUSH2 0x1FA JUMPI DUP1 PUSH4 0x48758697 GT PUSH2 0x1D4 JUMPI DUP1 PUSH4 0x48758697 EQ PUSH2 0x508 JUMPI DUP1 PUSH4 0x51049A24 EQ PUSH2 0x528 JUMPI DUP1 PUSH4 0x5B423A8E EQ PUSH2 0x53B JUMPI DUP1 PUSH4 0x65A114F1 EQ PUSH2 0x54E JUMPI PUSH1 0x0 DUP1 REVERT JUMPDEST DUP1 PUSH4 0x3AAD8EE4 EQ PUSH2 0x4B5 JUMPI DUP1 PUSH4 0x4138EABC EQ PUSH2 0x4C8 JUMPI DUP1 PUSH4 0x41A5F650 EQ PUSH2 0x4E8 JUMPI PUSH1 0x0 DUP1 REVERT JUMPDEST DUP1 PUSH4 0x21D843C8 EQ PUSH2 0x443 JUMPI DUP1 PUSH4 0x2259ED47 EQ PUSH2 0x456 JUMPI DUP1 PUSH4 0x2693A6CE EQ PUSH2 0x469 JUMPI DUP1 PUSH4 0x26A4E8D2 EQ PUSH2 0x47C JUMPI DUP1 PUSH4 0x33890572 EQ PUSH2 0x48F JUMPI DUP1 PUSH4 0x34C52D7A EQ PUSH2 0x4A2 JUMPI PUSH1 0x0 DUP1 REVERT JUMPDEST DUP1 PUSH4 0x10658A03 GT PUSH2 0x293 JUMPI DUP1 PUSH4 0x10658A03 EQ PUSH2 0x394 JUMPI DUP1 PUSH4 0x13BFA794 EQ PUSH2 0x3BF JUMPI DUP1 PUSH4 0x150B7A02 EQ PUSH2 0x3D2 JUMPI DUP1 PUSH4 0x1818C8E9 EQ PUSH2 0x40A JUMPI DUP1 PUSH4 0x1B846EDC EQ PUSH2 0x41D JUMPI DUP1 PUSH4 0x1E48AD13 EQ PUSH2 0x430 JUMPI PUSH1 0x0 DUP1 REVERT JUMPDEST DUP1 PUSH4 0x40F80B5 EQ PUSH2 0x2DB JUMPI DUP1 PUSH4 0x6DFE2D1 EQ PUSH2 0x2F0 JUMPI DUP1 PUSH4 0x77FC441 EQ PUSH2 0x32E JUMPI DUP1 PUSH4 0xB752A54 EQ PUSH2 0x341 JUMPI DUP1 PUSH4 0xD45F23A EQ PUSH2 0x361 JUMPI DUP1 PUSH4 0xFFF47F5 EQ PUSH2 0x374 JUMPI JUMPDEST PUSH1 0x0 DUP1 REVERT JUMPDEST PUSH2 0x2EE PUSH2 0x2E9 CALLDATASIZE PUSH1 0x4 PUSH2 0x25E0 JUMP JUMPDEST PUSH2 0x761 JUMP JUMPDEST STOP JUMPDEST PUSH2 0x31B PUSH2 0x2FE CALLDATASIZE PUSH1 0x4 PUSH2 0x2615 JUMP JUMPDEST PUSH1 0x72 PUSH1 0x20 SWAP1 DUP2 MSTORE PUSH1 0x0 SWAP3 DUP4 MSTORE PUSH1 0x40 DUP1 DUP5 KECCAK256 SWAP1 SWAP2 MSTORE SWAP1 DUP3 MSTORE SWAP1 KECCAK256 SLOAD DUP2 JUMP JUMPDEST PUSH1 0x40 MLOAD SWAP1 DUP2 MSTORE PUSH1 0x20 ADD JUMPDEST PUSH1 0x40 MLOAD DUP1 SWAP2 SUB SWAP1 RETURN JUMPDEST PUSH2 0x2EE PUSH2 0x33C CALLDATASIZE PUSH1 0x4 PUSH2 0x25E0 JUMP JUMPDEST PUSH2 0x799 JUMP JUMPDEST PUSH2 0x354 PUSH2 0x34F CALLDATASIZE PUSH1 0x4 PUSH2 0x263F JUMP JUMPDEST PUSH2 0x7C8 JUMP JUMPDEST PUSH1 0x40 MLOAD PUSH2 0x325 SWAP2 SWAP1 PUSH2 0x2695 JUMP JUMPDEST PUSH2 0x2EE PUSH2 0x36F CALLDATASIZE PUSH1 0x4 PUSH2 0x2713 JUMP JUMPDEST PUSH2 0x93B JUMP JUMPDEST PUSH2 0x387 PUSH2 0x382 CALLDATASIZE PUSH1 0x4 PUSH2 0x25E0 JUMP JUMPDEST PUSH2 0xED0 JUMP JUMPDEST PUSH1 0x40 MLOAD PUSH2 0x325 SWAP2 SWAP1 PUSH2 0x2828 JUMP JUMPDEST PUSH1 0x65 SLOAD PUSH2 0x3A7 SWAP1 PUSH1 0x1 PUSH1 0x1 PUSH1 0xA0 SHL SUB AND DUP2 JUMP JUMPDEST PUSH1 0x40 MLOAD PUSH1 0x1 PUSH1 0x1 PUSH1 0xA0 SHL SUB SWAP1 SWAP2 AND DUP2 MSTORE PUSH1 0x20 ADD PUSH2 0x325 JUMP JUMPDEST PUSH2 0x2EE PUSH2 0x3CD CALLDATASIZE PUSH1 0x4 PUSH2 0x25E0 JUMP JUMPDEST PUSH2 0xF6A JUMP JUMPDEST PUSH2 0x3F1 PUSH2 0x3E0 CALLDATASIZE PUSH1 0x4 PUSH2 0x287D JUMP JUMPDEST PUSH4 0xA85BD01 PUSH1 0xE1 SHL SWAP6 SWAP5 POP POP POP POP POP JUMP JUMPDEST PUSH1 0x40 MLOAD PUSH1 0x1 PUSH1 0x1 PUSH1 0xE0 SHL SUB NOT SWAP1 SWAP2 AND DUP2 MSTORE PUSH1 0x20 ADD PUSH2 0x325 JUMP JUMPDEST PUSH2 0x2EE PUSH2 0x418 CALLDATASIZE PUSH1 0x4 PUSH2 0x25E0 JUMP JUMPDEST PUSH2 0xF99 JUMP JUMPDEST PUSH1 0x66 SLOAD PUSH2 0x3A7 SWAP1 PUSH1 0x1 PUSH1 0x1 PUSH1 0xA0 SHL SUB AND DUP2 JUMP JUMPDEST PUSH2 0x354 PUSH2 0x43E CALLDATASIZE PUSH1 0x4 PUSH2 0x263F JUMP JUMPDEST PUSH2 0xFC8 JUMP JUMPDEST PUSH2 0x31B PUSH2 0x451 CALLDATASIZE PUSH1 0x4 PUSH2 0x25E0 JUMP JUMPDEST PUSH2 0x1082 JUMP JUMPDEST PUSH2 0x2EE PUSH2 0x464 CALLDATASIZE PUSH1 0x4 PUSH2 0x25E0 JUMP JUMPDEST PUSH2 0x10D5 JUMP JUMPDEST PUSH2 0x2EE PUSH2 0x477 CALLDATASIZE PUSH1 0x4 PUSH2 0x25E0 JUMP JUMPDEST PUSH2 0x1104 JUMP JUMPDEST PUSH2 0x2EE PUSH2 0x48A CALLDATASIZE PUSH1 0x4 PUSH2 0x263F JUMP JUMPDEST PUSH2 0x1133 JUMP JUMPDEST PUSH2 0x2EE PUSH2 0x49D CALLDATASIZE PUSH1 0x4 PUSH2 0x2918 JUMP JUMPDEST PUSH2 0x117F JUMP JUMPDEST PUSH1 0x67 SLOAD PUSH2 0x3A7 SWAP1 PUSH1 0x1 PUSH1 0x1 PUSH1 0xA0 SHL SUB AND DUP2 JUMP JUMPDEST PUSH2 0x2EE PUSH2 0x4C3 CALLDATASIZE PUSH1 0x4 PUSH2 0x295A JUMP JUMPDEST PUSH2 0x1301 JUMP JUMPDEST PUSH2 0x31B PUSH2 0x4D6 CALLDATASIZE PUSH1 0x4 PUSH2 0x25E0 JUMP JUMPDEST PUSH1 0x6D PUSH1 0x20 MSTORE PUSH1 0x0 SWAP1 DUP2 MSTORE PUSH1 0x40 SWAP1 KECCAK256 SLOAD DUP2 JUMP JUMPDEST PUSH2 0x4FB PUSH2 0x4F6 CALLDATASIZE PUSH1 0x4 PUSH2 0x25E0 JUMP JUMPDEST PUSH2 0x1368 JUMP JUMPDEST PUSH1 0x40 MLOAD PUSH2 0x325 SWAP2 SWAP1 PUSH2 0x29A6 JUMP JUMPDEST PUSH2 0x51B PUSH2 0x516 CALLDATASIZE PUSH1 0x4 PUSH2 0x25E0 JUMP JUMPDEST PUSH2 0x13EC JUMP JUMPDEST PUSH1 0x40 MLOAD PUSH2 0x325 SWAP2 SWAP1 PUSH2 0x29B4 JUMP JUMPDEST PUSH2 0x2EE PUSH2 0x536 CALLDATASIZE PUSH1 0x4 PUSH2 0x25E0 JUMP JUMPDEST PUSH2 0x149F JUMP JUMPDEST PUSH2 0x2EE PUSH2 0x549 CALLDATASIZE PUSH1 0x4 PUSH2 0x25E0 JUMP JUMPDEST PUSH2 0x14CE JUMP JUMPDEST PUSH2 0x31B PUSH1 0x88 SLOAD DUP2 JUMP JUMPDEST PUSH2 0x2EE PUSH2 0x14FD JUMP JUMPDEST PUSH2 0x2EE PUSH2 0x56D CALLDATASIZE PUSH1 0x4 PUSH2 0x25E0 JUMP JUMPDEST PUSH2 0x15E3 JUMP JUMPDEST PUSH2 0x2EE PUSH2 0x580 CALLDATASIZE PUSH1 0x4 PUSH2 0x263F JUMP JUMPDEST PUSH2 0x1612 JUMP JUMPDEST PUSH2 0x31B PUSH2 0x593 CALLDATASIZE PUSH1 0x4 PUSH2 0x25E0 JUMP JUMPDEST PUSH1 0x70 PUSH1 0x20 MSTORE PUSH1 0x0 SWAP1 DUP2 MSTORE PUSH1 0x40 SWAP1 KECCAK256 SLOAD DUP2 JUMP JUMPDEST PUSH2 0x2EE PUSH2 0x1664 JUMP JUMPDEST PUSH2 0x5C0 PUSH2 0x5BB CALLDATASIZE PUSH1 0x4 PUSH2 0x2918 JUMP JUMPDEST PUSH2 0x169A JUMP JUMPDEST PUSH1 0x40 MLOAD PUSH2 0x325 SWAP3 SWAP2 SWAP1 PUSH2 0x29CE JUMP JUMPDEST PUSH1 0x33 SLOAD PUSH1 0x1 PUSH1 0x1 PUSH1 0xA0 SHL SUB AND PUSH2 0x3A7 JUMP JUMPDEST PUSH2 0x31B PUSH2 0x5ED CALLDATASIZE PUSH1 0x4 PUSH2 0x25E0 JUMP JUMPDEST PUSH1 0x6C PUSH1 0x20 MSTORE PUSH1 0x0 SWAP1 DUP2 MSTORE PUSH1 0x40 SWAP1 KECCAK256 SLOAD DUP2 JUMP JUMPDEST PUSH2 0x2EE PUSH2 0x60D CALLDATASIZE PUSH1 0x4 PUSH2 0x25E0 JUMP JUMPDEST PUSH2 0x1792 JUMP JUMPDEST PUSH2 0x31B PUSH2 0x620 CALLDATASIZE PUSH1 0x4 PUSH2 0x263F JUMP JUMPDEST PUSH1 0x6B PUSH1 0x20 MSTORE PUSH1 0x0 SWAP1 DUP2 MSTORE PUSH1 0x40 SWAP1 KECCAK256 SLOAD DUP2 JUMP JUMPDEST PUSH2 0x645 PUSH2 0x640 CALLDATASIZE PUSH1 0x4 PUSH2 0x25E0 JUMP JUMPDEST PUSH2 0x17C1 JUMP JUMPDEST PUSH1 0x40 MLOAD SWAP1 ISZERO ISZERO DUP2 MSTORE PUSH1 0x20 ADD PUSH2 0x325 JUMP JUMPDEST PUSH2 0x31B PUSH2 0x663 CALLDATASIZE PUSH1 0x4 PUSH2 0x29FC JUMP JUMPDEST PUSH2 0x17E7 JUMP JUMPDEST PUSH1 0x69 SLOAD PUSH2 0x3A7 SWAP1 PUSH1 0x1 PUSH1 0x1 PUSH1 0xA0 SHL SUB AND DUP2 JUMP JUMPDEST PUSH2 0x2EE PUSH2 0x689 CALLDATASIZE PUSH1 0x4 PUSH2 0x25E0 JUMP JUMPDEST PUSH2 0x1846 JUMP JUMPDEST PUSH2 0x2EE PUSH2 0x1875 JUMP JUMPDEST PUSH1 0x87 SLOAD PUSH2 0x3A7 SWAP1 PUSH1 0x1 PUSH1 0x1 PUSH1 0xA0 SHL SUB AND DUP2 JUMP JUMPDEST PUSH2 0x31B PUSH2 0x6B7 CALLDATASIZE PUSH1 0x4 PUSH2 0x25E0 JUMP JUMPDEST PUSH1 0x6F PUSH1 0x20 MSTORE PUSH1 0x0 SWAP1 DUP2 MSTORE PUSH1 0x40 SWAP1 KECCAK256 SLOAD DUP2 JUMP JUMPDEST PUSH2 0x4FB PUSH2 0x6D7 CALLDATASIZE PUSH1 0x4 PUSH2 0x25E0 JUMP JUMPDEST PUSH2 0x18B3 JUMP JUMPDEST PUSH2 0x2EE PUSH2 0x6EA CALLDATASIZE PUSH1 0x4 PUSH2 0x25E0 JUMP JUMPDEST PUSH2 0x18EA JUMP JUMPDEST PUSH2 0x2EE PUSH2 0x6FD CALLDATASIZE PUSH1 0x4 PUSH2 0x25E0 JUMP JUMPDEST PUSH2 0x1919 JUMP JUMPDEST PUSH2 0x2EE PUSH2 0x710 CALLDATASIZE PUSH1 0x4 PUSH2 0x25E0 JUMP JUMPDEST PUSH2 0x1948 JUMP JUMPDEST PUSH1 0x68 SLOAD PUSH2 0x3A7 SWAP1 PUSH1 0x1 PUSH1 0x1 PUSH1 0xA0 SHL SUB AND DUP2 JUMP JUMPDEST PUSH2 0x2EE PUSH2 0x736 CALLDATASIZE PUSH1 0x4 PUSH2 0x2A1E JUMP JUMPDEST PUSH2 0x1977 JUMP JUMPDEST PUSH2 0x2EE PUSH2 0x749 CALLDATASIZE PUSH1 0x4 PUSH2 0x263F JUMP JUMPDEST PUSH2 0x1BC8 JUMP JUMPDEST PUSH2 0x2EE PUSH2 0x75C CALLDATASIZE PUSH1 0x4 PUSH2 0x25E0 JUMP JUMPDEST PUSH2 0x1C63 JUMP JUMPDEST PUSH1 0x33 SLOAD PUSH1 0x1 PUSH1 0x1 PUSH1 0xA0 SHL SUB AND CALLER EQ PUSH2 0x794 JUMPI PUSH1 0x40 MLOAD PUSH3 0x461BCD PUSH1 0xE5 SHL DUP2 MSTORE PUSH1 0x4 ADD PUSH2 0x78B SWAP1 PUSH2 0x2A51 JUMP JUMPDEST PUSH1 0x40 MLOAD DUP1 SWAP2 SUB SWAP1 REVERT JUMPDEST PUSH1 0x7D SSTORE JUMP JUMPDEST PUSH1 0x33 SLOAD PUSH1 0x1 PUSH1 0x1 PUSH1 0xA0 SHL SUB AND CALLER EQ PUSH2 0x7C3 JUMPI PUSH1 0x40 MLOAD PUSH3 0x461BCD PUSH1 0xE5 SHL DUP2 MSTORE PUSH1 0x4 ADD PUSH2 0x78B SWAP1 PUSH2 0x2A51 JUMP JUMPDEST PUSH1 0x85 SSTORE JUMP JUMPDEST PUSH1 0x66 SLOAD PUSH1 0x40 MLOAD PUSH4 0x70A08231 PUSH1 0xE0 SHL DUP2 MSTORE PUSH1 0x1 PUSH1 0x1 PUSH1 0xA0 SHL SUB DUP4 DUP2 AND PUSH1 0x4 DUP4 ADD MSTORE PUSH1 0x60 SWAP3 PUSH1 0x0 SWAP3 SWAP2 AND SWAP1 PUSH4 0x70A08231 SWAP1 PUSH1 0x24 ADD PUSH1 0x20 PUSH1 0x40 MLOAD DUP1 DUP4 SUB DUP2 DUP7 GAS STATICCALL ISZERO DUP1 ISZERO PUSH2 0x817 JUMPI RETURNDATASIZE PUSH1 0x0 DUP1 RETURNDATACOPY RETURNDATASIZE PUSH1 0x0 REVERT JUMPDEST POP POP POP POP PUSH1 0x40 MLOAD RETURNDATASIZE PUSH1 0x1F NOT PUSH1 0x1F DUP3 ADD AND DUP3 ADD DUP1 PUSH1 0x40 MSTORE POP DUP2 ADD SWAP1 PUSH2 0x83B SWAP2 SWAP1 PUSH2 0x2A86 JUMP JUMPDEST SWAP1 POP PUSH1 0x0 DUP2 PUSH8 0xFFFFFFFFFFFFFFFF DUP2 GT ISZERO PUSH2 0x858 JUMPI PUSH2 0x858 PUSH2 0x26ED JUMP JUMPDEST PUSH1 0x40 MLOAD SWAP1 DUP1 DUP3 MSTORE DUP1 PUSH1 0x20 MUL PUSH1 0x20 ADD DUP3 ADD PUSH1 0x40 MSTORE DUP1 ISZERO PUSH2 0x881 JUMPI DUP2 PUSH1 0x20 ADD PUSH1 0x20 DUP3 MUL DUP1 CALLDATASIZE DUP4 CALLDATACOPY ADD SWAP1 POP JUMPDEST POP SWAP1 POP PUSH1 0x0 JUMPDEST DUP3 DUP2 LT ISZERO PUSH2 0x933 JUMPI PUSH1 0x66 SLOAD PUSH1 0x40 MLOAD PUSH4 0x2F745C59 PUSH1 0xE0 SHL DUP2 MSTORE PUSH1 0x1 PUSH1 0x1 PUSH1 0xA0 SHL SUB DUP8 DUP2 AND PUSH1 0x4 DUP4 ADD MSTORE PUSH1 0x24 DUP3 ADD DUP5 SWAP1 MSTORE SWAP1 SWAP2 AND SWAP1 PUSH4 0x2F745C59 SWAP1 PUSH1 0x44 ADD PUSH1 0x20 PUSH1 0x40 MLOAD DUP1 DUP4 SUB DUP2 DUP7 GAS STATICCALL ISZERO DUP1 ISZERO PUSH2 0x8E0 JUMPI RETURNDATASIZE PUSH1 0x0 DUP1 RETURNDATACOPY RETURNDATASIZE PUSH1 0x0 REVERT JUMPDEST POP POP POP POP PUSH1 0x40 MLOAD RETURNDATASIZE PUSH1 0x1F NOT PUSH1 0x1F DUP3 ADD AND DUP3 ADD DUP1 PUSH1 0x40 MSTORE POP DUP2 ADD SWAP1 PUSH2 0x904 SWAP2 SWAP1 PUSH2 0x2A86 JUMP JUMPDEST DUP3 DUP3 DUP2 MLOAD DUP2 LT PUSH2 0x916 JUMPI PUSH2 0x916 PUSH2 0x2A9F JUMP JUMPDEST PUSH1 0x20 SWAP1 DUP2 MUL SWAP2 SWAP1 SWAP2 ADD ADD MSTORE DUP1 PUSH2 0x92B DUP2 PUSH2 0x2ACB JUMP JUMPDEST SWAP2 POP POP PUSH2 0x887 JUMP JUMPDEST POP SWAP4 SWAP3 POP POP POP JUMP JUMPDEST PUSH1 0x0 PUSH2 0x9B9 CALLER DUP9 DUP9 DUP9 DUP9 PUSH1 0x40 MLOAD PUSH1 0x20 ADD PUSH2 0x959 SWAP6 SWAP5 SWAP4 SWAP3 SWAP2 SWAP1 PUSH2 0x2B11 JUMP JUMPDEST PUSH1 0x40 DUP1 MLOAD PUSH1 0x1F NOT DUP2 DUP5 SUB ADD DUP2 MSTORE DUP3 DUP3 MSTORE DUP1 MLOAD PUSH1 0x20 SWAP2 DUP3 ADD KECCAK256 PUSH32 0x19457468657265756D205369676E6564204D6573736167653A0A333200000000 DUP5 DUP4 ADD MSTORE PUSH1 0x3C DUP1 DUP6 ADD SWAP2 SWAP1 SWAP2 MSTORE DUP3 MLOAD DUP1 DUP6 SUB SWAP1 SWAP2 ADD DUP2 MSTORE PUSH1 0x5C SWAP1 SWAP4 ADD SWAP1 SWAP2 MSTORE DUP2 MLOAD SWAP2 ADD KECCAK256 SWAP1 JUMP JUMPDEST PUSH1 0x0 DUP2 DUP2 MSTORE PUSH1 0x89 PUSH1 0x20 MSTORE PUSH1 0x40 SWAP1 KECCAK256 SLOAD SWAP1 SWAP2 POP PUSH1 0xFF AND ISZERO PUSH2 0xA0F JUMPI PUSH1 0x40 MLOAD PUSH3 0x461BCD PUSH1 0xE5 SHL DUP2 MSTORE PUSH1 0x20 PUSH1 0x4 DUP3 ADD MSTORE PUSH1 0x11 PUSH1 0x24 DUP3 ADD MSTORE PUSH17 0x82D8E4CAC2C8F240EAE6CAC840D0C2E6D PUSH1 0x7B SHL PUSH1 0x44 DUP3 ADD MSTORE PUSH1 0x64 ADD PUSH2 0x78B JUMP JUMPDEST PUSH2 0xA19 DUP2 DUP5 PUSH2 0x1C92 JUMP JUMPDEST PUSH2 0xA59 JUMPI PUSH1 0x40 MLOAD PUSH3 0x461BCD PUSH1 0xE5 SHL DUP2 MSTORE PUSH1 0x20 PUSH1 0x4 DUP3 ADD MSTORE PUSH1 0x11 PUSH1 0x24 DUP3 ADD MSTORE PUSH17 0x496E76616C6964205369676E6174757265 PUSH1 0x78 SHL PUSH1 0x44 DUP3 ADD MSTORE PUSH1 0x64 ADD PUSH2 0x78B JUMP JUMPDEST PUSH1 0x0 DUP2 DUP2 MSTORE PUSH1 0x89 PUSH1 0x20 MSTORE PUSH1 0x40 DUP2 KECCAK256 DUP1 SLOAD PUSH1 0xFF NOT AND PUSH1 0x1 OR SWAP1 SSTORE JUMPDEST DUP7 DUP2 LT ISZERO PUSH2 0xEC6 JUMPI PUSH2 0xA9C DUP9 DUP9 DUP4 DUP2 DUP2 LT PUSH2 0xA90 JUMPI PUSH2 0xA90 PUSH2 0x2A9F JUMP JUMPDEST SWAP1 POP PUSH1 0x20 MUL ADD CALLDATALOAD PUSH2 0x17C1 JUMP JUMPDEST PUSH2 0xAE8 JUMPI PUSH1 0x40 MLOAD PUSH3 0x461BCD PUSH1 0xE5 SHL DUP2 MSTORE PUSH1 0x20 PUSH1 0x4 DUP3 ADD MSTORE PUSH1 0x1C PUSH1 0x24 DUP3 ADD MSTORE PUSH32 0x5371756972657320617265207374696C6C205175657374696E672E2E00000000 PUSH1 0x44 DUP3 ADD MSTORE PUSH1 0x64 ADD PUSH2 0x78B JUMP JUMPDEST PUSH2 0xB1B DUP9 DUP9 DUP4 DUP2 DUP2 LT PUSH2 0xAFD JUMPI PUSH2 0xAFD PUSH2 0x2A9F JUMP JUMPDEST CALLER PUSH1 0x0 SWAP1 DUP2 MSTORE PUSH1 0x71 PUSH1 0x20 SWAP1 DUP2 MSTORE PUSH1 0x40 SWAP1 SWAP2 KECCAK256 SWAP4 SWAP2 MUL ADD CALLDATALOAD SWAP1 POP PUSH2 0x1CC1 JUMP JUMPDEST PUSH2 0xB24 JUMPI PUSH1 0x0 DUP1 REVERT JUMPDEST PUSH1 0x0 PUSH2 0xB4A PUSH1 0x74 SLOAD DUP9 DUP9 DUP6 DUP2 DUP2 LT PUSH2 0xB3E JUMPI PUSH2 0xB3E PUSH2 0x2A9F JUMP JUMPDEST SWAP1 POP PUSH1 0x20 MUL ADD CALLDATALOAD PUSH2 0x17E7 JUMP JUMPDEST SWAP1 POP PUSH1 0x0 PUSH2 0xB57 DUP3 PUSH2 0x13EC JUMP JUMPDEST PUSH1 0x66 SLOAD SWAP1 SWAP2 POP PUSH1 0x0 SWAP1 PUSH2 0xBEA SWAP1 PUSH1 0x1 PUSH1 0x1 PUSH1 0xA0 SHL SUB AND PUSH4 0xCF14D2AE DUP14 DUP14 DUP9 DUP2 DUP2 LT PUSH2 0xB84 JUMPI PUSH2 0xB84 PUSH2 0x2A9F JUMP JUMPDEST SWAP1 POP PUSH1 0x20 MUL ADD CALLDATALOAD PUSH1 0x40 MLOAD DUP3 PUSH4 0xFFFFFFFF AND PUSH1 0xE0 SHL DUP2 MSTORE PUSH1 0x4 ADD PUSH2 0xBA9 SWAP2 DUP2 MSTORE PUSH1 0x20 ADD SWAP1 JUMP JUMPDEST PUSH1 0x20 PUSH1 0x40 MLOAD DUP1 DUP4 SUB DUP2 DUP7 GAS STATICCALL ISZERO DUP1 ISZERO PUSH2 0xBC6 JUMPI RETURNDATASIZE PUSH1 0x0 DUP1 RETURNDATACOPY RETURNDATASIZE PUSH1 0x0 REVERT JUMPDEST POP POP POP POP PUSH1 0x40 MLOAD RETURNDATASIZE PUSH1 0x1F NOT PUSH1 0x1F DUP3 ADD AND DUP3 ADD DUP1 PUSH1 0x40 MSTORE POP DUP2 ADD SWAP1 PUSH2 0x451 SWAP2 SWAP1 PUSH2 0x2A86 JUMP JUMPDEST PUSH1 0x8A PUSH1 0x0 DUP5 PUSH1 0x3 DUP2 GT ISZERO PUSH2 0xC00 JUMPI PUSH2 0xC00 PUSH2 0x297C JUMP JUMPDEST PUSH1 0x3 DUP2 GT ISZERO PUSH2 0xC11 JUMPI PUSH2 0xC11 PUSH2 0x297C JUMP JUMPDEST DUP2 MSTORE PUSH1 0x20 ADD SWAP1 DUP2 MSTORE PUSH1 0x20 ADD PUSH1 0x0 KECCAK256 SLOAD PUSH2 0xC2A SWAP2 SWAP1 PUSH2 0x2B4B JUMP JUMPDEST SWAP1 POP PUSH32 0x93227FC4F4055687F87B7E20A200D14BE5035678C62B3CB56A929921BC2C1BFF CALLER DUP13 DUP13 DUP8 DUP2 DUP2 LT PUSH2 0xC60 JUMPI PUSH2 0xC60 PUSH2 0x2A9F JUMP JUMPDEST PUSH1 0x40 DUP1 MLOAD PUSH1 0x1 PUSH1 0x1 PUSH1 0xA0 SHL SUB SWAP1 SWAP6 AND DUP6 MSTORE PUSH1 0x20 SWAP2 DUP3 MUL SWAP4 SWAP1 SWAP4 ADD CALLDATALOAD SWAP1 DUP5 ADD MSTORE POP DUP2 ADD DUP4 SWAP1 MSTORE TIMESTAMP PUSH1 0x60 DUP3 ADD MSTORE PUSH1 0x80 ADD PUSH1 0x40 MLOAD DUP1 SWAP2 SUB SWAP1 LOG1 PUSH1 0x65 SLOAD PUSH1 0x40 MLOAD PUSH4 0x40C10F19 PUSH1 0xE0 SHL DUP2 MSTORE CALLER PUSH1 0x4 DUP3 ADD MSTORE PUSH1 0x24 DUP2 ADD DUP4 SWAP1 MSTORE PUSH1 0x1 PUSH1 0x1 PUSH1 0xA0 SHL SUB SWAP1 SWAP2 AND SWAP1 PUSH4 0x40C10F19 SWAP1 PUSH1 0x44 ADD PUSH1 0x0 PUSH1 0x40 MLOAD DUP1 DUP4 SUB DUP2 PUSH1 0x0 DUP8 DUP1 EXTCODESIZE ISZERO DUP1 ISZERO PUSH2 0xCE2 JUMPI PUSH1 0x0 DUP1 REVERT JUMPDEST POP GAS CALL ISZERO DUP1 ISZERO PUSH2 0xCF6 JUMPI RETURNDATASIZE PUSH1 0x0 DUP1 RETURNDATACOPY RETURNDATASIZE PUSH1 0x0 REVERT JUMPDEST POP POP POP POP PUSH1 0x7E SLOAD DUP4 GT PUSH2 0xD50 JUMPI PUSH1 0x0 PUSH2 0xD1C PUSH1 0x5 DUP12 DUP12 DUP9 DUP2 DUP2 LT PUSH2 0xB3E JUMPI PUSH2 0xB3E PUSH2 0x2A9F JUMP JUMPDEST SWAP1 POP PUSH1 0x0 PUSH2 0xD29 DUP3 PUSH2 0x18B3 JUMP JUMPDEST SWAP1 POP PUSH2 0xD4D DUP2 DUP15 DUP15 DUP10 DUP2 DUP2 LT PUSH2 0xD41 JUMPI PUSH2 0xD41 PUSH2 0x2A9F JUMP JUMPDEST SWAP1 POP PUSH1 0x20 MUL ADD CALLDATALOAD PUSH2 0x1CD9 JUMP JUMPDEST POP POP JUMPDEST PUSH32 0x2B8215859742E5CD71FEC0F2BEF678D9F3BDB31DD5DCEDA7643DD0FC8D54BD4B CALLER DUP13 DUP13 DUP8 DUP2 DUP2 LT PUSH2 0xD84 JUMPI PUSH2 0xD84 PUSH2 0x2A9F JUMP JUMPDEST PUSH1 0x40 DUP1 MLOAD PUSH1 0x1 PUSH1 0x1 PUSH1 0xA0 SHL SUB SWAP1 SWAP6 AND DUP6 MSTORE PUSH1 0x20 SWAP2 DUP3 MUL SWAP4 SWAP1 SWAP4 ADD CALLDATALOAD SWAP1 DUP5 ADD MSTORE POP ADD PUSH1 0x40 MLOAD DUP1 SWAP2 SUB SWAP1 LOG1 DUP6 ISZERO PUSH2 0xDD9 JUMPI PUSH2 0xDD4 DUP12 DUP12 DUP7 DUP2 DUP2 LT PUSH2 0xDC8 JUMPI PUSH2 0xDC8 PUSH2 0x2A9F JUMP JUMPDEST SWAP1 POP PUSH1 0x20 MUL ADD CALLDATALOAD PUSH2 0x1F26 JUMP JUMPDEST PUSH2 0xEB0 JUMP JUMPDEST PUSH2 0xE0C DUP12 DUP12 DUP7 DUP2 DUP2 LT PUSH2 0xDEE JUMPI PUSH2 0xDEE PUSH2 0x2A9F JUMP JUMPDEST CALLER PUSH1 0x0 SWAP1 DUP2 MSTORE PUSH1 0x71 PUSH1 0x20 SWAP1 DUP2 MSTORE PUSH1 0x40 SWAP1 SWAP2 KECCAK256 SWAP4 SWAP2 MUL ADD CALLDATALOAD SWAP1 POP PUSH2 0x2032 JUMP JUMPDEST POP PUSH1 0x66 SLOAD PUSH1 0x1 PUSH1 0x1 PUSH1 0xA0 SHL SUB AND PUSH4 0xB88D4FDE ADDRESS CALLER DUP15 DUP15 DUP10 DUP2 DUP2 LT PUSH2 0xE32 JUMPI PUSH2 0xE32 PUSH2 0x2A9F JUMP JUMPDEST PUSH1 0x40 MLOAD PUSH1 0x1 PUSH1 0x1 PUSH1 0xE0 SHL SUB NOT PUSH1 0xE0 DUP9 SWAP1 SHL AND DUP2 MSTORE PUSH1 0x1 PUSH1 0x1 PUSH1 0xA0 SHL SUB SWAP6 DUP7 AND PUSH1 0x4 DUP3 ADD MSTORE SWAP5 SWAP1 SWAP4 AND PUSH1 0x24 DUP6 ADD MSTORE POP PUSH1 0x20 SWAP1 SWAP2 MUL ADD CALLDATALOAD PUSH1 0x44 DUP3 ADD MSTORE PUSH1 0x80 PUSH1 0x64 DUP3 ADD MSTORE PUSH1 0x0 PUSH1 0x84 DUP3 ADD MSTORE PUSH1 0xA4 ADD PUSH1 0x0 PUSH1 0x40 MLOAD DUP1 DUP4 SUB DUP2 PUSH1 0x0 DUP8 DUP1 EXTCODESIZE ISZERO DUP1 ISZERO PUSH2 0xE97 JUMPI PUSH1 0x0 DUP1 REVERT JUMPDEST POP GAS CALL ISZERO DUP1 ISZERO PUSH2 0xEAB JUMPI RETURNDATASIZE PUSH1 0x0 DUP1 RETURNDATACOPY RETURNDATASIZE PUSH1 0x0 REVERT JUMPDEST POP POP POP POP JUMPDEST POP POP POP DUP1 DUP1 PUSH2 0xEBE SWAP1 PUSH2 0x2ACB JUMP JUMPDEST SWAP2 POP POP PUSH2 0xA73 JUMP JUMPDEST POP POP POP POP POP POP POP POP JUMP JUMPDEST PUSH1 0x6E PUSH1 0x20 MSTORE PUSH1 0x0 SWAP1 DUP2 MSTORE PUSH1 0x40 SWAP1 KECCAK256 DUP1 SLOAD PUSH2 0xEE9 SWAP1 PUSH2 0x2B63 JUMP JUMPDEST DUP1 PUSH1 0x1F ADD PUSH1 0x20 DUP1 SWAP2 DIV MUL PUSH1 0x20 ADD PUSH1 0x40 MLOAD SWAP1 DUP2 ADD PUSH1 0x40 MSTORE DUP1 SWAP3 SWAP2 SWAP1 DUP2 DUP2 MSTORE PUSH1 0x20 ADD DUP3 DUP1 SLOAD PUSH2 0xF15 SWAP1 PUSH2 0x2B63 JUMP JUMPDEST DUP1 ISZERO PUSH2 0xF62 JUMPI DUP1 PUSH1 0x1F LT PUSH2 0xF37 JUMPI PUSH2 0x100 DUP1 DUP4 SLOAD DIV MUL DUP4 MSTORE SWAP2 PUSH1 0x20 ADD SWAP2 PUSH2 0xF62 JUMP JUMPDEST DUP3 ADD SWAP2 SWAP1 PUSH1 0x0 MSTORE PUSH1 0x20 PUSH1 0x0 KECCAK256 SWAP1 JUMPDEST DUP2 SLOAD DUP2 MSTORE SWAP1 PUSH1 0x1 ADD SWAP1 PUSH1 0x20 ADD DUP1 DUP4 GT PUSH2 0xF45 JUMPI DUP3 SWAP1 SUB PUSH1 0x1F AND DUP3 ADD SWAP2 JUMPDEST POP POP POP POP POP DUP2 JUMP JUMPDEST PUSH1 0x33 SLOAD PUSH1 0x1 PUSH1 0x1 PUSH1 0xA0 SHL SUB AND CALLER EQ PUSH2 0xF94 JUMPI PUSH1 0x40 MLOAD PUSH3 0x461BCD PUSH1 0xE5 SHL DUP2 MSTORE PUSH1 0x4 ADD PUSH2 0x78B SWAP1 PUSH2 0x2A51 JUMP JUMPDEST PUSH1 0x7E SSTORE JUMP JUMPDEST PUSH1 0x33 SLOAD PUSH1 0x1 PUSH1 0x1 PUSH1 0xA0 SHL SUB AND CALLER EQ PUSH2 0xFC3 JUMPI PUSH1 0x40 MLOAD PUSH3 0x461BCD PUSH1 0xE5 SHL DUP2 MSTORE PUSH1 0x4 ADD PUSH2 0x78B SWAP1 PUSH2 0x2A51 JUMP JUMPDEST PUSH1 0x83 SSTORE JUMP JUMPDEST PUSH1 0x1 PUSH1 0x1 PUSH1 0xA0 SHL SUB DUP2 AND PUSH1 0x0 SWAP1 DUP2 MSTORE PUSH1 0x71 PUSH1 0x20 MSTORE PUSH1 0x40 DUP2 KECCAK256 PUSH1 0x60 SWAP2 PUSH2 0xFEC DUP3 PUSH2 0x203E JUMP JUMPDEST PUSH8 0xFFFFFFFFFFFFFFFF DUP2 GT ISZERO PUSH2 0x1004 JUMPI PUSH2 0x1004 PUSH2 0x26ED JUMP JUMPDEST PUSH1 0x40 MLOAD SWAP1 DUP1 DUP3 MSTORE DUP1 PUSH1 0x20 MUL PUSH1 0x20 ADD DUP3 ADD PUSH1 0x40 MSTORE DUP1 ISZERO PUSH2 0x102D JUMPI DUP2 PUSH1 0x20 ADD PUSH1 0x20 DUP3 MUL DUP1 CALLDATASIZE DUP4 CALLDATACOPY ADD SWAP1 POP JUMPDEST POP SWAP1 POP PUSH1 0x0 JUMPDEST PUSH2 0x103C DUP4 PUSH2 0x203E JUMP JUMPDEST DUP2 LT ISZERO PUSH2 0x933 JUMPI PUSH1 0x0 PUSH2 0x104F DUP5 DUP4 PUSH2 0x2048 JUMP JUMPDEST SWAP1 POP DUP1 DUP4 DUP4 DUP2 MLOAD DUP2 LT PUSH2 0x1064 JUMPI PUSH2 0x1064 PUSH2 0x2A9F JUMP JUMPDEST PUSH1 0x20 SWAP1 DUP2 MUL SWAP2 SWAP1 SWAP2 ADD ADD MSTORE POP DUP1 PUSH2 0x107A DUP2 PUSH2 0x2ACB JUMP JUMPDEST SWAP2 POP POP PUSH2 0x1033 JUMP JUMPDEST PUSH1 0x0 PUSH1 0x7F SLOAD DUP3 GT ISZERO PUSH2 0x10CC JUMPI PUSH1 0x81 SLOAD DUP3 GT ISZERO PUSH2 0x10C4 JUMPI PUSH1 0x83 SLOAD DUP3 GT ISZERO PUSH2 0x10BC JUMPI PUSH1 0x85 SLOAD DUP3 GT ISZERO PUSH2 0x10B4 JUMPI PUSH1 0x86 SLOAD PUSH2 0x10CF JUMP JUMPDEST PUSH1 0x84 SLOAD PUSH2 0x10CF JUMP JUMPDEST PUSH1 0x82 SLOAD PUSH2 0x10CF JUMP JUMPDEST PUSH1 0x80 SLOAD PUSH2 0x10CF JUMP JUMPDEST PUSH1 0x0 JUMPDEST SWAP3 SWAP2 POP POP JUMP JUMPDEST PUSH1 0x33 SLOAD PUSH1 0x1 PUSH1 0x1 PUSH1 0xA0 SHL SUB AND CALLER EQ PUSH2 0x10FF JUMPI PUSH1 0x40 MLOAD PUSH3 0x461BCD PUSH1 0xE5 SHL DUP2 MSTORE PUSH1 0x4 ADD PUSH2 0x78B SWAP1 PUSH2 0x2A51 JUMP JUMPDEST PUSH1 0x84 SSTORE JUMP JUMPDEST PUSH1 0x33 SLOAD PUSH1 0x1 PUSH1 0x1 PUSH1 0xA0 SHL SUB AND CALLER EQ PUSH2 0x112E JUMPI PUSH1 0x40 MLOAD PUSH3 0x461BCD PUSH1 0xE5 SHL DUP2 MSTORE PUSH1 0x4 ADD PUSH2 0x78B SWAP1 PUSH2 0x2A51 JUMP JUMPDEST PUSH1 0x82 SSTORE JUMP JUMPDEST PUSH1 0x33 SLOAD PUSH1 0x1 PUSH1 0x1 PUSH1 0xA0 SHL SUB AND CALLER EQ PUSH2 0x115D JUMPI PUSH1 0x40 MLOAD PUSH3 0x461BCD PUSH1 0xE5 SHL DUP2 MSTORE PUSH1 0x4 ADD PUSH2 0x78B SWAP1 PUSH2 0x2A51 JUMP JUMPDEST PUSH1 0x65 DUP1 SLOAD PUSH1 0x1 PUSH1 0x1 PUSH1 0xA0 SHL SUB NOT AND PUSH1 0x1 PUSH1 0x1 PUSH1 0xA0 SHL SUB SWAP3 SWAP1 SWAP3 AND SWAP2 SWAP1 SWAP2 OR SWAP1 SSTORE JUMP JUMPDEST PUSH1 0x73 SLOAD PUSH1 0xFF AND PUSH2 0x11CB JUMPI PUSH1 0x40 MLOAD PUSH3 0x461BCD PUSH1 0xE5 SHL DUP2 MSTORE PUSH1 0x20 PUSH1 0x4 DUP3 ADD MSTORE PUSH1 0x17 PUSH1 0x24 DUP3 ADD MSTORE PUSH23 0x5175657374696E67206D75737420626520616374697665 PUSH1 0x48 SHL PUSH1 0x44 DUP3 ADD MSTORE PUSH1 0x64 ADD PUSH2 0x78B JUMP JUMPDEST PUSH1 0x1 DUP2 LT ISZERO PUSH2 0x1228 JUMPI PUSH1 0x40 MLOAD PUSH3 0x461BCD PUSH1 0xE5 SHL DUP2 MSTORE PUSH1 0x20 PUSH1 0x4 DUP3 ADD MSTORE PUSH1 0x24 DUP1 DUP3 ADD MSTORE PUSH32 0x31206F72206D6F72652053717569726573206D75737420676F206F6E20612071 PUSH1 0x44 DUP3 ADD MSTORE PUSH4 0x1D595CDD PUSH1 0xE2 SHL PUSH1 0x64 DUP3 ADD MSTORE PUSH1 0x84 ADD PUSH2 0x78B JUMP JUMPDEST PUSH1 0x0 JUMPDEST DUP2 DUP2 LT ISZERO PUSH2 0x12FC JUMPI PUSH1 0x66 SLOAD PUSH1 0x1 PUSH1 0x1 PUSH1 0xA0 SHL SUB AND PUSH4 0xB88D4FDE CALLER ADDRESS DUP7 DUP7 DUP7 DUP2 DUP2 LT PUSH2 0x1258 JUMPI PUSH2 0x1258 PUSH2 0x2A9F JUMP JUMPDEST PUSH1 0x40 MLOAD PUSH1 0x1 PUSH1 0x1 PUSH1 0xE0 SHL SUB NOT PUSH1 0xE0 DUP9 SWAP1 SHL AND DUP2 MSTORE PUSH1 0x1 PUSH1 0x1 PUSH1 0xA0 SHL SUB SWAP6 DUP7 AND PUSH1 0x4 DUP3 ADD MSTORE SWAP5 SWAP1 SWAP4 AND PUSH1 0x24 DUP6 ADD MSTORE POP PUSH1 0x20 SWAP1 SWAP2 MUL ADD CALLDATALOAD PUSH1 0x44 DUP3 ADD MSTORE PUSH1 0x80 PUSH1 0x64 DUP3 ADD MSTORE PUSH1 0x0 PUSH1 0x84 DUP3 ADD MSTORE PUSH1 0xA4 ADD PUSH1 0x0 PUSH1 0x40 MLOAD DUP1 DUP4 SUB DUP2 PUSH1 0x0 DUP8 DUP1 EXTCODESIZE ISZERO DUP1 ISZERO PUSH2 0x12BD JUMPI PUSH1 0x0 DUP1 REVERT JUMPDEST POP GAS CALL ISZERO DUP1 ISZERO PUSH2 0x12D1 JUMPI RETURNDATASIZE PUSH1 0x0 DUP1 RETURNDATACOPY RETURNDATASIZE PUSH1 0x0 REVERT JUMPDEST POP POP POP POP PUSH2 0x12EA DUP4 DUP4 DUP4 DUP2 DUP2 LT PUSH2 0xDC8 JUMPI PUSH2 0xDC8 PUSH2 0x2A9F JUMP JUMPDEST DUP1 PUSH2 0x12F4 DUP2 PUSH2 0x2ACB JUMP JUMPDEST SWAP2 POP POP PUSH2 0x122B JUMP JUMPDEST POP POP POP JUMP JUMPDEST PUSH1 0x33 SLOAD PUSH1 0x1 PUSH1 0x1 PUSH1 0xA0 SHL SUB AND CALLER EQ PUSH2 0x132B JUMPI PUSH1 0x40 MLOAD PUSH3 0x461BCD PUSH1 0xE5 SHL DUP2 MSTORE PUSH1 0x4 ADD PUSH2 0x78B SWAP1 PUSH2 0x2A51 JUMP JUMPDEST DUP1 PUSH1 0x8A PUSH1 0x0 DUP5 PUSH1 0x3 DUP2 GT ISZERO PUSH2 0x1342 JUMPI PUSH2 0x1342 PUSH2 0x297C JUMP JUMPDEST PUSH1 0x3 DUP2 GT ISZERO PUSH2 0x1353 JUMPI PUSH2 0x1353 PUSH2 0x297C JUMP JUMPDEST DUP2 MSTORE PUSH1 0x20 DUP2 ADD SWAP2 SWAP1 SWAP2 MSTORE PUSH1 0x40 ADD PUSH1 0x0 KECCAK256 SSTORE POP POP JUMP JUMPDEST PUSH1 0x66 SLOAD PUSH1 0x40 MLOAD PUSH4 0x32B7D67 PUSH1 0xE6 SHL DUP2 MSTORE PUSH1 0x4 DUP2 ADD DUP4 SWAP1 MSTORE PUSH1 0x0 SWAP2 DUP3 SWAP2 PUSH1 0x1 PUSH1 0x1 PUSH1 0xA0 SHL SUB SWAP1 SWAP2 AND SWAP1 PUSH4 0xCADF59C0 SWAP1 PUSH1 0x24 ADD PUSH1 0x20 PUSH1 0x40 MLOAD DUP1 DUP4 SUB DUP2 DUP7 GAS STATICCALL ISZERO DUP1 ISZERO PUSH2 0x13B6 JUMPI RETURNDATASIZE PUSH1 0x0 DUP1 RETURNDATACOPY RETURNDATASIZE PUSH1 0x0 REVERT JUMPDEST POP POP POP POP PUSH1 0x40 MLOAD RETURNDATASIZE PUSH1 0x1F NOT PUSH1 0x1F DUP3 ADD AND DUP3 ADD DUP1 PUSH1 0x40 MSTORE POP DUP2 ADD SWAP1 PUSH2 0x13DA SWAP2 SWAP1 PUSH2 0x2A86 JUMP JUMPDEST SWAP1 POP PUSH2 0x13E5 DUP2 PUSH2 0x18B3 JUMP JUMPDEST SWAP4 SWAP3 POP POP POP JUMP JUMPDEST PUSH1 0x0 PUSH1 0x75 SLOAD DUP3 GT PUSH2 0x13FF JUMPI POP PUSH1 0x0 SWAP2 SWAP1 POP JUMP JUMPDEST PUSH1 0x75 SLOAD DUP3 GT DUP1 ISZERO PUSH2 0x141F JUMPI POP PUSH1 0x77 SLOAD PUSH1 0x75 SLOAD PUSH2 0x141B SWAP2 SWAP1 PUSH2 0x2B4B JUMP JUMPDEST DUP3 GT ISZERO JUMPDEST ISZERO PUSH2 0x142C JUMPI POP PUSH1 0x1 SWAP2 SWAP1 POP JUMP JUMPDEST PUSH1 0x77 SLOAD PUSH1 0x75 SLOAD PUSH2 0x143C SWAP2 SWAP1 PUSH2 0x2B4B JUMP JUMPDEST DUP3 GT DUP1 ISZERO PUSH2 0x1466 JUMPI POP PUSH1 0x79 SLOAD PUSH1 0x77 SLOAD PUSH1 0x75 SLOAD PUSH2 0x1458 SWAP2 SWAP1 PUSH2 0x2B4B JUMP JUMPDEST PUSH2 0x1462 SWAP2 SWAP1 PUSH2 0x2B4B JUMP JUMPDEST DUP3 GT ISZERO JUMPDEST ISZERO PUSH2 0x1473 JUMPI POP PUSH1 0x2 SWAP2 SWAP1 POP JUMP JUMPDEST PUSH1 0x79 SLOAD PUSH1 0x77 SLOAD PUSH1 0x75 SLOAD PUSH2 0x1486 SWAP2 SWAP1 PUSH2 0x2B4B JUMP JUMPDEST PUSH2 0x1490 SWAP2 SWAP1 PUSH2 0x2B4B JUMP JUMPDEST DUP3 GT ISZERO PUSH2 0x10CC JUMPI POP PUSH1 0x3 SWAP2 SWAP1 POP JUMP JUMPDEST PUSH1 0x33 SLOAD PUSH1 0x1 PUSH1 0x1 PUSH1 0xA0 SHL SUB AND CALLER EQ PUSH2 0x14C9 JUMPI PUSH1 0x40 MLOAD PUSH3 0x461BCD PUSH1 0xE5 SHL DUP2 MSTORE PUSH1 0x4 ADD PUSH2 0x78B SWAP1 PUSH2 0x2A51 JUMP JUMPDEST PUSH1 0x7F SSTORE JUMP JUMPDEST PUSH1 0x33 SLOAD PUSH1 0x1 PUSH1 0x1 PUSH1 0xA0 SHL SUB AND CALLER EQ PUSH2 0x14F8 JUMPI PUSH1 0x40 MLOAD PUSH3 0x461BCD PUSH1 0xE5 SHL DUP2 MSTORE PUSH1 0x4 ADD PUSH2 0x78B SWAP1 PUSH2 0x2A51 JUMP JUMPDEST PUSH1 0x79 SSTORE JUMP JUMPDEST PUSH1 0x33 SLOAD PUSH1 0x1 PUSH1 0x1 PUSH1 0xA0 SHL SUB AND CALLER EQ PUSH2 0x1527 JUMPI PUSH1 0x40 MLOAD PUSH3 0x461BCD PUSH1 0xE5 SHL DUP2 MSTORE PUSH1 0x4 ADD PUSH2 0x78B SWAP1 PUSH2 0x2A51 JUMP JUMPDEST PUSH1 0x8A PUSH1 0x20 MSTORE PUSH9 0x1A055690D9DB80000 PUSH32 0x48DFBD0439EED1E067941A32B725F50324A108C89BD688B4058DEE83AE92B70F SSTORE PUSH9 0x2B5E3AF16B1880000 PUSH32 0xBC81CB96FD1A7CEE243CF25B602A6B452F86CB2092AF6F898B5901E06DF49193 SSTORE PUSH9 0x410D586A20A4C0000 PUSH32 0xEA1F79A6D6430395A5B22DA17D068344BCC36D4F17031DD7312ECA7A9A6A1CAA SSTORE PUSH1 0x3 PUSH1 0x0 MSTORE PUSH9 0x56BC75E2D63100000 PUSH32 0xE17D42ECD714CA71946E276B07B8908EF4B62F2BFE4B99C7E4CD14B64E9CA47F SSTORE JUMP JUMPDEST PUSH1 0x33 SLOAD PUSH1 0x1 PUSH1 0x1 PUSH1 0xA0 SHL SUB AND CALLER EQ PUSH2 0x160D JUMPI PUSH1 0x40 MLOAD PUSH3 0x461BCD PUSH1 0xE5 SHL DUP2 MSTORE PUSH1 0x4 ADD PUSH2 0x78B SWAP1 PUSH2 0x2A51 JUMP JUMPDEST PUSH1 0x88 SSTORE JUMP JUMPDEST PUSH1 0x33 SLOAD PUSH1 0x1 PUSH1 0x1 PUSH1 0xA0 SHL SUB AND CALLER EQ PUSH2 0x163C JUMPI PUSH1 0x40 MLOAD PUSH3 0x461BCD PUSH1 0xE5 SHL DUP2 MSTORE PUSH1 0x4 ADD PUSH2 0x78B SWAP1 PUSH2 0x2A51 JUMP JUMPDEST PUSH1 0x73 DUP1 SLOAD PUSH1 0x1 PUSH1 0x1 PUSH1 0xA0 SHL SUB SWAP1 SWAP3 AND PUSH2 0x100 MUL PUSH2 0x100 PUSH1 0x1 PUSH1 0xA8 SHL SUB NOT SWAP1 SWAP3 AND SWAP2 SWAP1 SWAP2 OR SWAP1 SSTORE JUMP JUMPDEST PUSH1 0x33 SLOAD PUSH1 0x1 PUSH1 0x1 PUSH1 0xA0 SHL SUB AND CALLER EQ PUSH2 0x168E JUMPI PUSH1 0x40 MLOAD PUSH3 0x461BCD PUSH1 0xE5 SHL DUP2 MSTORE PUSH1 0x4 ADD PUSH2 0x78B SWAP1 PUSH2 0x2A51 JUMP JUMPDEST PUSH2 0x1698 PUSH1 0x0 PUSH2 0x2054 JUMP JUMPDEST JUMP JUMPDEST PUSH1 0x60 DUP1 PUSH1 0x0 DUP4 PUSH8 0xFFFFFFFFFFFFFFFF DUP2 GT ISZERO PUSH2 0x16B8 JUMPI PUSH2 0x16B8 PUSH2 0x26ED JUMP JUMPDEST PUSH1 0x40 MLOAD SWAP1 DUP1 DUP3 MSTORE DUP1 PUSH1 0x20 MUL PUSH1 0x20 ADD DUP3 ADD PUSH1 0x40 MSTORE DUP1 ISZERO PUSH2 0x16E1 JUMPI DUP2 PUSH1 0x20 ADD PUSH1 0x20 DUP3 MUL DUP1 CALLDATASIZE DUP4 CALLDATACOPY ADD SWAP1 POP JUMPDEST POP SWAP1 POP PUSH1 0x0 JUMPDEST DUP5 DUP2 LT ISZERO PUSH2 0x174A JUMPI PUSH1 0x70 PUSH1 0x0 DUP8 DUP8 DUP5 DUP2 DUP2 LT PUSH2 0x1705 JUMPI PUSH2 0x1705 PUSH2 0x2A9F JUMP JUMPDEST SWAP1 POP PUSH1 0x20 MUL ADD CALLDATALOAD DUP2 MSTORE PUSH1 0x20 ADD SWAP1 DUP2 MSTORE PUSH1 0x20 ADD PUSH1 0x0 KECCAK256 SLOAD DUP3 DUP3 DUP2 MLOAD DUP2 LT PUSH2 0x172D JUMPI PUSH2 0x172D PUSH2 0x2A9F JUMP JUMPDEST PUSH1 0x20 SWAP1 DUP2 MUL SWAP2 SWAP1 SWAP2 ADD ADD MSTORE DUP1 PUSH2 0x1742 DUP2 PUSH2 0x2ACB JUMP JUMPDEST SWAP2 POP POP PUSH2 0x16E7 JUMP JUMPDEST POP DUP5 DUP5 DUP3 DUP3 DUP3 DUP1 DUP1 PUSH1 0x20 MUL PUSH1 0x20 ADD PUSH1 0x40 MLOAD SWAP1 DUP2 ADD PUSH1 0x40 MSTORE DUP1 SWAP4 SWAP3 SWAP2 SWAP1 DUP2 DUP2 MSTORE PUSH1 0x20 ADD DUP4 DUP4 PUSH1 0x20 MUL DUP1 DUP3 DUP5 CALLDATACOPY PUSH1 0x0 SWAP3 ADD SWAP2 SWAP1 SWAP2 MSTORE POP SWAP3 SWAP9 POP SWAP3 SWAP7 POP POP POP POP POP POP POP JUMPDEST SWAP3 POP SWAP3 SWAP1 POP JUMP JUMPDEST PUSH1 0x33 SLOAD PUSH1 0x1 PUSH1 0x1 PUSH1 0xA0 SHL SUB AND CALLER EQ PUSH2 0x17BC JUMPI PUSH1 0x40 MLOAD PUSH3 0x461BCD PUSH1 0xE5 SHL DUP2 MSTORE PUSH1 0x4 ADD PUSH2 0x78B SWAP1 PUSH2 0x2A51 JUMP JUMPDEST PUSH1 0x77 SSTORE JUMP JUMPDEST PUSH1 0x88 SLOAD PUSH1 0x0 DUP3 DUP2 MSTORE PUSH1 0x6F PUSH1 0x20 MSTORE PUSH1 0x40 DUP2 KECCAK256 SLOAD SWAP1 SWAP2 SWAP1 PUSH2 0x17E0 SWAP1 TIMESTAMP PUSH2 0x2B9D JUMP JUMPDEST GT SWAP3 SWAP2 POP POP JUMP JUMPDEST PUSH1 0x40 MLOAD PUSH12 0xFFFFFFFFFFFFFFFFFFFFFFFF NOT CALLER PUSH1 0x60 SHL AND PUSH1 0x20 DUP3 ADD MSTORE PUSH1 0x34 DUP2 ADD DUP3 SWAP1 MSTORE PUSH1 0x54 DUP2 ADD DUP4 SWAP1 MSTORE PUSH1 0x0 SWAP1 DUP4 SWAP1 PUSH1 0x74 ADD PUSH1 0x40 MLOAD PUSH1 0x20 DUP2 DUP4 SUB SUB DUP2 MSTORE SWAP1 PUSH1 0x40 MSTORE DUP1 MLOAD SWAP1 PUSH1 0x20 ADD KECCAK256 PUSH1 0x0 SHR PUSH2 0x183B SWAP2 SWAP1 PUSH2 0x2BB4 JUMP JUMPDEST PUSH2 0x13E5 SWAP1 PUSH1 0x1 PUSH2 0x2B4B JUMP JUMPDEST PUSH1 0x33 SLOAD PUSH1 0x1 PUSH1 0x1 PUSH1 0xA0 SHL SUB AND CALLER EQ PUSH2 0x1870 JUMPI PUSH1 0x40 MLOAD PUSH3 0x461BCD PUSH1 0xE5 SHL DUP2 MSTORE PUSH1 0x4 ADD PUSH2 0x78B SWAP1 PUSH2 0x2A51 JUMP JUMPDEST PUSH1 0x75 SSTORE JUMP JUMPDEST PUSH1 0x33 SLOAD PUSH1 0x1 PUSH1 0x1 PUSH1 0xA0 SHL SUB AND CALLER EQ PUSH2 0x189F JUMPI PUSH1 0x40 MLOAD PUSH3 0x461BCD PUSH1 0xE5 SHL DUP2 MSTORE PUSH1 0x4 ADD PUSH2 0x78B SWAP1 PUSH2 0x2A51 JUMP JUMPDEST PUSH1 0x73 DUP1 SLOAD PUSH1 0xFF NOT DUP2 AND PUSH1 0xFF SWAP1 SWAP2 AND ISZERO OR SWAP1 SSTORE JUMP JUMPDEST PUSH1 0x0 DUP2 PUSH1 0x1 EQ PUSH2 0x18E2 JUMPI DUP2 PUSH1 0x2 EQ PUSH2 0x18DB JUMPI DUP2 PUSH1 0x3 EQ PUSH2 0x18D4 JUMPI PUSH1 0x0 PUSH2 0x10CF JUMP JUMPDEST PUSH1 0x1 PUSH2 0x10CF JUMP JUMPDEST PUSH1 0x3 PUSH2 0x10CF JUMP JUMPDEST PUSH1 0x2 SWAP3 SWAP2 POP POP JUMP JUMPDEST PUSH1 0x33 SLOAD PUSH1 0x1 PUSH1 0x1 PUSH1 0xA0 SHL SUB AND CALLER EQ PUSH2 0x1914 JUMPI PUSH1 0x40 MLOAD PUSH3 0x461BCD PUSH1 0xE5 SHL DUP2 MSTORE PUSH1 0x4 ADD PUSH2 0x78B SWAP1 PUSH2 0x2A51 JUMP JUMPDEST PUSH1 0x86 SSTORE JUMP JUMPDEST PUSH1 0x33 SLOAD PUSH1 0x1 PUSH1 0x1 PUSH1 0xA0 SHL SUB AND CALLER EQ PUSH2 0x1943 JUMPI PUSH1 0x40 MLOAD PUSH3 0x461BCD PUSH1 0xE5 SHL DUP2 MSTORE PUSH1 0x4 ADD PUSH2 0x78B SWAP1 PUSH2 0x2A51 JUMP JUMPDEST PUSH1 0x80 SSTORE JUMP JUMPDEST PUSH1 0x33 SLOAD PUSH1 0x1 PUSH1 0x1 PUSH1 0xA0 SHL SUB AND CALLER EQ PUSH2 0x1972 JUMPI PUSH1 0x40 MLOAD PUSH3 0x461BCD PUSH1 0xE5 SHL DUP2 MSTORE PUSH1 0x4 ADD PUSH2 0x78B SWAP1 PUSH2 0x2A51 JUMP JUMPDEST PUSH1 0x7B SSTORE JUMP JUMPDEST PUSH1 0x0 SLOAD PUSH2 0x100 SWAP1 DIV PUSH1 0xFF AND PUSH2 0x1992 JUMPI PUSH1 0x0 SLOAD PUSH1 0xFF AND ISZERO PUSH2 0x1996 JUMP JUMPDEST ADDRESS EXTCODESIZE ISZERO JUMPDEST PUSH2 0x19F9 JUMPI PUSH1 0x40 MLOAD PUSH3 0x461BCD PUSH1 0xE5 SHL DUP2 MSTORE PUSH1 0x20 PUSH1 0x4 DUP3 ADD MSTORE PUSH1 0x2E PUSH1 0x24 DUP3 ADD MSTORE PUSH32 0x496E697469616C697A61626C653A20636F6E747261637420697320616C726561 PUSH1 0x44 DUP3 ADD MSTORE PUSH14 0x191E481A5B9A5D1A585B1A5E9959 PUSH1 0x92 SHL PUSH1 0x64 DUP3 ADD MSTORE PUSH1 0x84 ADD PUSH2 0x78B JUMP JUMPDEST PUSH1 0x0 SLOAD PUSH2 0x100 SWAP1 DIV PUSH1 0xFF AND ISZERO DUP1 ISZERO PUSH2 0x1A1B JUMPI PUSH1 0x0 DUP1 SLOAD PUSH2 0xFFFF NOT AND PUSH2 0x101 OR SWAP1 SSTORE JUMPDEST PUSH1 0x65 DUP1 SLOAD PUSH1 0x1 PUSH1 0x1 PUSH1 0xA0 SHL SUB DUP1 DUP7 AND PUSH1 0x1 PUSH1 0x1 PUSH1 0xA0 SHL SUB NOT SWAP3 DUP4 AND OR SWAP1 SWAP3 SSTORE PUSH1 0x66 DUP1 SLOAD SWAP3 DUP6 AND SWAP3 DUP3 AND DUP4 OR SWAP1 SSTORE PUSH1 0x87 DUP1 SLOAD SWAP1 SWAP2 AND SWAP1 SWAP2 OR SWAP1 SSTORE PUSH1 0x73 DUP1 SLOAD PUSH1 0xFF NOT AND SWAP1 SSTORE PUSH2 0x1A66 PUSH2 0x20A6 JUMP JUMPDEST PUSH2 0x3E8 PUSH1 0x74 SSTORE PUSH2 0x2EE PUSH1 0x75 SSTORE PUSH1 0xC8 PUSH1 0x77 DUP2 SWAP1 SSTORE PUSH1 0x2D PUSH1 0x79 SSTORE PUSH1 0x5 PUSH1 0x7B SSTORE PUSH1 0x1 PUSH1 0x7D SSTORE PUSH1 0x7E DUP2 SWAP1 SSTORE PUSH1 0x8A PUSH1 0x20 MSTORE PUSH9 0x1A055690D9DB80000 PUSH32 0x48DFBD0439EED1E067941A32B725F50324A108C89BD688B4058DEE83AE92B70F DUP2 SWAP1 SSTORE PUSH9 0x2B5E3AF16B1880000 PUSH32 0xBC81CB96FD1A7CEE243CF25B602A6B452F86CB2092AF6F898B5901E06DF49193 SSTORE PUSH9 0x410D586A20A4C0000 PUSH32 0xEA1F79A6D6430395A5B22DA17D068344BCC36D4F17031DD7312ECA7A9A6A1CAA SSTORE PUSH1 0x3 PUSH1 0x0 MSTORE PUSH9 0x56BC75E2D63100000 PUSH32 0xE17D42ECD714CA71946E276B07B8908EF4B62F2BFE4B99C7E4CD14B64E9CA47F SSTORE PUSH1 0xA PUSH1 0x7F SSTORE PUSH1 0x80 SSTORE PUSH1 0x14 PUSH1 0x81 SSTORE PUSH9 0x340AAD21B3B700000 PUSH1 0x82 SSTORE PUSH1 0x32 PUSH1 0x83 SSTORE PUSH9 0x821AB0D4414980000 PUSH1 0x84 SSTORE PUSH1 0x64 PUSH1 0x85 SSTORE PUSH9 0x15AF1D78B58C400000 PUSH1 0x86 SSTORE PUSH1 0x73 DUP1 SLOAD PUSH2 0x100 PUSH1 0x1 PUSH1 0xA8 SHL SUB NOT AND PUSH21 0x1010E71D9839B902F3AFE9E8D9E3352A8D78D8200 OR SWAP1 SSTORE PUSH1 0x88 SSTORE DUP1 ISZERO PUSH2 0x12FC JUMPI PUSH1 0x0 DUP1 SLOAD PUSH2 0xFF00 NOT AND SWAP1 SSTORE POP POP POP JUMP JUMPDEST PUSH1 0x33 SLOAD PUSH1 0x1 PUSH1 0x1 PUSH1 0xA0 SHL SUB AND CALLER EQ PUSH2 0x1BF2 JUMPI PUSH1 0x40 MLOAD PUSH3 0x461BCD PUSH1 0xE5 SHL DUP2 MSTORE PUSH1 0x4 ADD PUSH2 0x78B SWAP1 PUSH2 0x2A51 JUMP JUMPDEST PUSH1 0x1 PUSH1 0x1 PUSH1 0xA0 SHL SUB DUP2 AND PUSH2 0x1C57 JUMPI PUSH1 0x40 MLOAD PUSH3 0x461BCD PUSH1 0xE5 SHL DUP2 MSTORE PUSH1 0x20 PUSH1 0x4 DUP3 ADD MSTORE PUSH1 0x26 PUSH1 0x24 DUP3 ADD MSTORE PUSH32 0x4F776E61626C653A206E6577206F776E657220697320746865207A65726F2061 PUSH1 0x44 DUP3 ADD MSTORE PUSH6 0x646472657373 PUSH1 0xD0 SHL PUSH1 0x64 DUP3 ADD MSTORE PUSH1 0x84 ADD PUSH2 0x78B JUMP JUMPDEST PUSH2 0x1C60 DUP2 PUSH2 0x2054 JUMP JUMPDEST POP JUMP JUMPDEST PUSH1 0x33 SLOAD PUSH1 0x1 PUSH1 0x1 PUSH1 0xA0 SHL SUB AND CALLER EQ PUSH2 0x1C8D JUMPI PUSH1 0x40 MLOAD PUSH3 0x461BCD PUSH1 0xE5 SHL DUP2 MSTORE PUSH1 0x4 ADD PUSH2 0x78B SWAP1 PUSH2 0x2A51 JUMP JUMPDEST PUSH1 0x81 SSTORE JUMP JUMPDEST PUSH1 0x73 SLOAD PUSH1 0x0 SWAP1 PUSH2 0x100 SWAP1 DIV PUSH1 0x1 PUSH1 0x1 PUSH1 0xA0 SHL SUB AND PUSH2 0x1CB0 DUP5 DUP5 PUSH2 0x20D5 JUMP JUMPDEST PUSH1 0x1 PUSH1 0x1 PUSH1 0xA0 SHL SUB AND EQ SWAP4 SWAP3 POP POP POP JUMP JUMPDEST PUSH1 0x0 DUP2 DUP2 MSTORE PUSH1 0x1 DUP4 ADD PUSH1 0x20 MSTORE PUSH1 0x40 DUP2 KECCAK256 SLOAD ISZERO ISZERO PUSH2 0x13E5 JUMP JUMPDEST PUSH1 0x2 DUP3 PUSH1 0x4 DUP2 GT ISZERO PUSH2 0x1CED JUMPI PUSH2 0x1CED PUSH2 0x297C JUMP JUMPDEST SUB PUSH2 0x1DAE JUMPI PUSH1 0x66 SLOAD PUSH1 0x7D SLOAD PUSH1 0x40 MLOAD PUSH4 0x84103B99 PUSH1 0xE0 SHL DUP2 MSTORE PUSH1 0x4 DUP2 ADD DUP5 SWAP1 MSTORE PUSH1 0x24 DUP2 ADD SWAP2 SWAP1 SWAP2 MSTORE PUSH1 0x0 PUSH1 0x44 DUP3 ADD DUP2 SWAP1 MSTORE PUSH1 0x64 DUP3 ADD DUP2 SWAP1 MSTORE PUSH1 0x84 DUP3 ADD MSTORE PUSH1 0x1 PUSH1 0x1 PUSH1 0xA0 SHL SUB SWAP1 SWAP2 AND SWAP1 PUSH4 0x84103B99 SWAP1 PUSH1 0xA4 ADD JUMPDEST PUSH1 0x0 PUSH1 0x40 MLOAD DUP1 DUP4 SUB DUP2 PUSH1 0x0 DUP8 DUP1 EXTCODESIZE ISZERO DUP1 ISZERO PUSH2 0x1D59 JUMPI PUSH1 0x0 DUP1 REVERT JUMPDEST POP GAS CALL ISZERO DUP1 ISZERO PUSH2 0x1D6D JUMPI RETURNDATASIZE PUSH1 0x0 DUP1 RETURNDATACOPY RETURNDATASIZE PUSH1 0x0 REVERT JUMPDEST POP POP POP POP PUSH32 0x8745CE41804D354403D6912AE6393806FCDA20A0623C9859D2682E7ACD4C6D68 DUP2 DUP4 PUSH1 0x40 MLOAD PUSH2 0x1DA2 SWAP3 SWAP2 SWAP1 PUSH2 0x2BD6 JUMP JUMPDEST PUSH1 0x40 MLOAD DUP1 SWAP2 SUB SWAP1 LOG1 POP POP JUMP JUMPDEST PUSH1 0x1 DUP3 PUSH1 0x4 DUP2 GT ISZERO PUSH2 0x1DC2 JUMPI PUSH2 0x1DC2 PUSH2 0x297C JUMP JUMPDEST SUB PUSH2 0x1E1B JUMPI PUSH1 0x66 SLOAD PUSH1 0x7D SLOAD PUSH1 0x40 MLOAD PUSH4 0x84103B99 PUSH1 0xE0 SHL DUP2 MSTORE PUSH1 0x4 DUP2 ADD DUP5 SWAP1 MSTORE PUSH1 0x0 PUSH1 0x24 DUP3 ADD DUP2 SWAP1 MSTORE PUSH1 0x44 DUP3 ADD DUP2 SWAP1 MSTORE PUSH1 0x64 DUP3 ADD SWAP3 SWAP1 SWAP3 MSTORE PUSH1 0x84 DUP2 ADD SWAP2 SWAP1 SWAP2 MSTORE PUSH1 0x1 PUSH1 0x1 PUSH1 0xA0 SHL SUB SWAP1 SWAP2 AND SWAP1 PUSH4 0x84103B99 SWAP1 PUSH1 0xA4 ADD PUSH2 0x1D3F JUMP JUMPDEST PUSH1 0x0 DUP3 PUSH1 0x4 DUP2 GT ISZERO PUSH2 0x1E2F JUMPI PUSH2 0x1E2F PUSH2 0x297C JUMP JUMPDEST SUB PUSH2 0x1E85 JUMPI PUSH1 0x66 SLOAD PUSH1 0x7D SLOAD PUSH1 0x40 MLOAD PUSH4 0x84103B99 PUSH1 0xE0 SHL DUP2 MSTORE PUSH1 0x4 DUP2 ADD DUP5 SWAP1 MSTORE PUSH1 0x0 PUSH1 0x24 DUP3 ADD DUP2 SWAP1 MSTORE PUSH1 0x44 DUP3 ADD DUP2 SWAP1 MSTORE PUSH1 0x64 DUP3 ADD MSTORE PUSH1 0x84 DUP2 ADD SWAP2 SWAP1 SWAP2 MSTORE PUSH1 0x1 PUSH1 0x1 PUSH1 0xA0 SHL SUB SWAP1 SWAP2 AND SWAP1 PUSH4 0x84103B99 SWAP1 PUSH1 0xA4 ADD PUSH2 0x1D3F JUMP JUMPDEST PUSH1 0x3 DUP3 PUSH1 0x4 DUP2 GT ISZERO PUSH2 0x1E99 JUMPI PUSH2 0x1E99 PUSH2 0x297C JUMP JUMPDEST SUB PUSH2 0x1EF2 JUMPI PUSH1 0x66 SLOAD PUSH1 0x7D SLOAD PUSH1 0x40 MLOAD PUSH4 0x84103B99 PUSH1 0xE0 SHL DUP2 MSTORE PUSH1 0x4 DUP2 ADD DUP5 SWAP1 MSTORE PUSH1 0x0 PUSH1 0x24 DUP3 ADD DUP2 SWAP1 MSTORE PUSH1 0x44 DUP3 ADD SWAP3 SWAP1 SWAP3 MSTORE PUSH1 0x64 DUP2 ADD DUP3 SWAP1 MSTORE PUSH1 0x84 DUP2 ADD SWAP2 SWAP1 SWAP2 MSTORE PUSH1 0x1 PUSH1 0x1 PUSH1 0xA0 SHL SUB SWAP1 SWAP2 AND SWAP1 PUSH4 0x84103B99 SWAP1 PUSH1 0xA4 ADD PUSH2 0x1D3F JUMP JUMPDEST PUSH1 0x4 DUP3 PUSH1 0x4 DUP2 GT ISZERO PUSH2 0x1F06 JUMPI PUSH2 0x1F06 PUSH2 0x297C JUMP JUMPDEST SUB PUSH2 0x1F22 JUMPI PUSH1 0x0 PUSH2 0x1F16 DUP3 PUSH2 0x1368 JUMP JUMPDEST SWAP1 POP PUSH2 0x12FC DUP2 DUP4 PUSH2 0x1CD9 JUMP JUMPDEST POP POP JUMP JUMPDEST PUSH1 0x73 SLOAD PUSH1 0xFF AND PUSH2 0x1F72 JUMPI PUSH1 0x40 MLOAD PUSH3 0x461BCD PUSH1 0xE5 SHL DUP2 MSTORE PUSH1 0x20 PUSH1 0x4 DUP3 ADD MSTORE PUSH1 0x17 PUSH1 0x24 DUP3 ADD MSTORE PUSH23 0x5175657374696E67206D75737420626520616374697665 PUSH1 0x48 SHL PUSH1 0x44 DUP3 ADD MSTORE PUSH1 0x64 ADD PUSH2 0x78B JUMP JUMPDEST PUSH1 0x0 DUP2 DUP2 MSTORE PUSH1 0x6F PUSH1 0x20 SWAP1 DUP2 MSTORE PUSH1 0x40 DUP1 DUP4 KECCAK256 TIMESTAMP SWAP1 SSTORE PUSH1 0x70 SWAP1 SWAP2 MSTORE DUP2 KECCAK256 DUP1 SLOAD SWAP2 PUSH2 0x1F99 DUP4 PUSH2 0x2ACB JUMP JUMPDEST SWAP1 SWAP2 SSTORE POP POP CALLER PUSH1 0x0 SWAP1 DUP2 MSTORE PUSH1 0x71 PUSH1 0x20 MSTORE PUSH1 0x40 SWAP1 KECCAK256 PUSH2 0x1FB7 SWAP1 DUP3 PUSH2 0x1CC1 JUMP JUMPDEST PUSH2 0x1FD6 JUMPI CALLER PUSH1 0x0 SWAP1 DUP2 MSTORE PUSH1 0x71 PUSH1 0x20 MSTORE PUSH1 0x40 SWAP1 KECCAK256 PUSH2 0x1FD4 SWAP1 DUP3 PUSH2 0x20F1 JUMP JUMPDEST POP JUMPDEST PUSH32 0xEEB688E49CA64099EF8805ECE271B6B294BAB610960661AD2FBEA3EC0D943BC8 CALLER DUP3 PUSH1 0x88 SLOAD TIMESTAMP PUSH2 0x2007 SWAP2 SWAP1 PUSH2 0x2B4B JUMP JUMPDEST PUSH1 0x40 DUP1 MLOAD PUSH1 0x1 PUSH1 0x1 PUSH1 0xA0 SHL SUB SWAP1 SWAP5 AND DUP5 MSTORE PUSH1 0x20 DUP5 ADD SWAP3 SWAP1 SWAP3 MSTORE SWAP1 DUP3 ADD MSTORE PUSH1 0x60 ADD PUSH1 0x40 MLOAD DUP1 SWAP2 SUB SWAP1 LOG1 POP JUMP JUMPDEST PUSH1 0x0 PUSH2 0x13E5 DUP4 DUP4 PUSH2 0x20FD JUMP JUMPDEST PUSH1 0x0 PUSH2 0x10CF DUP3 SLOAD SWAP1 JUMP JUMPDEST PUSH1 0x0 PUSH2 0x13E5 DUP4 DUP4 PUSH2 0x21F0 JUMP JUMPDEST PUSH1 0x33 DUP1 SLOAD PUSH1 0x1 PUSH1 0x1 PUSH1 0xA0 SHL SUB DUP4 DUP2 AND PUSH1 0x1 PUSH1 0x1 PUSH1 0xA0 SHL SUB NOT DUP4 AND DUP2 OR SWAP1 SWAP4 SSTORE PUSH1 0x40 MLOAD SWAP2 AND SWAP2 SWAP1 DUP3 SWAP1 PUSH32 0x8BE0079C531659141344CD1FD0A4F28419497F9722A3DAAFE3B4186F6B6457E0 SWAP1 PUSH1 0x0 SWAP1 LOG3 POP POP JUMP JUMPDEST PUSH1 0x0 SLOAD PUSH2 0x100 SWAP1 DIV PUSH1 0xFF AND PUSH2 0x20CD JUMPI PUSH1 0x40 MLOAD PUSH3 0x461BCD PUSH1 0xE5 SHL DUP2 MSTORE PUSH1 0x4 ADD PUSH2 0x78B SWAP1 PUSH2 0x2BEA JUMP JUMPDEST PUSH2 0x1698 PUSH2 0x221A JUMP JUMPDEST PUSH1 0x0 DUP1 PUSH1 0x0 PUSH2 0x20E4 DUP6 DUP6 PUSH2 0x224A JUMP JUMPDEST SWAP2 POP SWAP2 POP PUSH2 0x933 DUP2 PUSH2 0x22B5 JUMP JUMPDEST PUSH1 0x0 PUSH2 0x13E5 DUP4 DUP4 PUSH2 0x246B JUMP JUMPDEST PUSH1 0x0 DUP2 DUP2 MSTORE PUSH1 0x1 DUP4 ADD PUSH1 0x20 MSTORE PUSH1 0x40 DUP2 KECCAK256 SLOAD DUP1 ISZERO PUSH2 0x21E6 JUMPI PUSH1 0x0 PUSH2 0x2121 PUSH1 0x1 DUP4 PUSH2 0x2B9D JUMP JUMPDEST DUP6 SLOAD SWAP1 SWAP2 POP PUSH1 0x0 SWAP1 PUSH2 0x2135 SWAP1 PUSH1 0x1 SWAP1 PUSH2 0x2B9D JUMP JUMPDEST SWAP1 POP DUP2 DUP2 EQ PUSH2 0x219A JUMPI PUSH1 0x0 DUP7 PUSH1 0x0 ADD DUP3 DUP2 SLOAD DUP2 LT PUSH2 0x2155 JUMPI PUSH2 0x2155 PUSH2 0x2A9F JUMP JUMPDEST SWAP1 PUSH1 0x0 MSTORE PUSH1 0x20 PUSH1 0x0 KECCAK256 ADD SLOAD SWAP1 POP DUP1 DUP8 PUSH1 0x0 ADD DUP5 DUP2 SLOAD DUP2 LT PUSH2 0x2178 JUMPI PUSH2 0x2178 PUSH2 0x2A9F JUMP JUMPDEST PUSH1 0x0 SWAP2 DUP3 MSTORE PUSH1 0x20 DUP1 DUP4 KECCAK256 SWAP1 SWAP2 ADD SWAP3 SWAP1 SWAP3 SSTORE SWAP2 DUP3 MSTORE PUSH1 0x1 DUP9 ADD SWAP1 MSTORE PUSH1 0x40 SWAP1 KECCAK256 DUP4 SWAP1 SSTORE JUMPDEST DUP6 SLOAD DUP7 SWAP1 DUP1 PUSH2 0x21AB JUMPI PUSH2 0x21AB PUSH2 0x2C35 JUMP JUMPDEST PUSH1 0x1 SWAP1 SUB DUP2 DUP2 SWAP1 PUSH1 0x0 MSTORE PUSH1 0x20 PUSH1 0x0 KECCAK256 ADD PUSH1 0x0 SWAP1 SSTORE SWAP1 SSTORE DUP6 PUSH1 0x1 ADD PUSH1 0x0 DUP7 DUP2 MSTORE PUSH1 0x20 ADD SWAP1 DUP2 MSTORE PUSH1 0x20 ADD PUSH1 0x0 KECCAK256 PUSH1 0x0 SWAP1 SSTORE PUSH1 0x1 SWAP4 POP POP POP POP PUSH2 0x10CF JUMP JUMPDEST PUSH1 0x0 SWAP2 POP POP PUSH2 0x10CF JUMP JUMPDEST PUSH1 0x0 DUP3 PUSH1 0x0 ADD DUP3 DUP2 SLOAD DUP2 LT PUSH2 0x2207 JUMPI PUSH2 0x2207 PUSH2 0x2A9F JUMP JUMPDEST SWAP1 PUSH1 0x0 MSTORE PUSH1 0x20 PUSH1 0x0 KECCAK256 ADD SLOAD SWAP1 POP SWAP3 SWAP2 POP POP JUMP JUMPDEST PUSH1 0x0 SLOAD PUSH2 0x100 SWAP1 DIV PUSH1 0xFF AND PUSH2 0x2241 JUMPI PUSH1 0x40 MLOAD PUSH3 0x461BCD PUSH1 0xE5 SHL DUP2 MSTORE PUSH1 0x4 ADD PUSH2 0x78B SWAP1 PUSH2 0x2BEA JUMP JUMPDEST PUSH2 0x1698 CALLER PUSH2 0x2054 JUMP JUMPDEST PUSH1 0x0 DUP1 DUP3 MLOAD PUSH1 0x41 SUB PUSH2 0x2280 JUMPI PUSH1 0x20 DUP4 ADD MLOAD PUSH1 0x40 DUP5 ADD MLOAD PUSH1 0x60 DUP6 ADD MLOAD PUSH1 0x0 BYTE PUSH2 0x2274 DUP8 DUP3 DUP6 DUP6 PUSH2 0x24BA JUMP JUMPDEST SWAP5 POP SWAP5 POP POP POP POP PUSH2 0x178B JUMP JUMPDEST DUP3 MLOAD PUSH1 0x40 SUB PUSH2 0x22A9 JUMPI PUSH1 0x20 DUP4 ADD MLOAD PUSH1 0x40 DUP5 ADD MLOAD PUSH2 0x229E DUP7 DUP4 DUP4 PUSH2 0x25A7 JUMP JUMPDEST SWAP4 POP SWAP4 POP POP POP PUSH2 0x178B JUMP JUMPDEST POP PUSH1 0x0 SWAP1 POP PUSH1 0x2 PUSH2 0x178B JUMP JUMPDEST PUSH1 0x0 DUP2 PUSH1 0x4 DUP2 GT ISZERO PUSH2 0x22C9 JUMPI PUSH2 0x22C9 PUSH2 0x297C JUMP JUMPDEST SUB PUSH2 0x22D1 JUMPI POP JUMP JUMPDEST PUSH1 0x1 DUP2 PUSH1 0x4 DUP2 GT ISZERO PUSH2 0x22E5 JUMPI PUSH2 0x22E5 PUSH2 0x297C JUMP JUMPDEST SUB PUSH2 0x2332 JUMPI PUSH1 0x40 MLOAD PUSH3 0x461BCD PUSH1 0xE5 SHL DUP2 MSTORE PUSH1 0x20 PUSH1 0x4 DUP3 ADD MSTORE PUSH1 0x18 PUSH1 0x24 DUP3 ADD MSTORE PUSH32 0x45434453413A20696E76616C6964207369676E61747572650000000000000000 PUSH1 0x44 DUP3 ADD MSTORE PUSH1 0x64 ADD PUSH2 0x78B JUMP JUMPDEST PUSH1 0x2 DUP2 PUSH1 0x4 DUP2 GT ISZERO PUSH2 0x2346 JUMPI PUSH2 0x2346 PUSH2 0x297C JUMP JUMPDEST SUB PUSH2 0x2393 JUMPI PUSH1 0x40 MLOAD PUSH3 0x461BCD PUSH1 0xE5 SHL DUP2 MSTORE PUSH1 0x20 PUSH1 0x4 DUP3 ADD MSTORE PUSH1 0x1F PUSH1 0x24 DUP3 ADD MSTORE PUSH32 0x45434453413A20696E76616C6964207369676E6174757265206C656E67746800 PUSH1 0x44 DUP3 ADD MSTORE PUSH1 0x64 ADD PUSH2 0x78B JUMP JUMPDEST PUSH1 0x3 DUP2 PUSH1 0x4 DUP2 GT ISZERO PUSH2 0x23A7 JUMPI PUSH2 0x23A7 PUSH2 0x297C JUMP JUMPDEST SUB PUSH2 0x23FF JUMPI PUSH1 0x40 MLOAD PUSH3 0x461BCD PUSH1 0xE5 SHL DUP2 MSTORE PUSH1 0x20 PUSH1 0x4 DUP3 ADD MSTORE PUSH1 0x22 PUSH1 0x24 DUP3 ADD MSTORE PUSH32 0x45434453413A20696E76616C6964207369676E6174757265202773272076616C PUSH1 0x44 DUP3 ADD MSTORE PUSH2 0x7565 PUSH1 0xF0 SHL PUSH1 0x64 DUP3 ADD MSTORE PUSH1 0x84 ADD PUSH2 0x78B JUMP JUMPDEST PUSH1 0x4 DUP2 PUSH1 0x4 DUP2 GT ISZERO PUSH2 0x2413 JUMPI PUSH2 0x2413 PUSH2 0x297C JUMP JUMPDEST SUB PUSH2 0x1C60 JUMPI PUSH1 0x40 MLOAD PUSH3 0x461BCD PUSH1 0xE5 SHL DUP2 MSTORE PUSH1 0x20 PUSH1 0x4 DUP3 ADD MSTORE PUSH1 0x22 PUSH1 0x24 DUP3 ADD MSTORE PUSH32 0x45434453413A20696E76616C6964207369676E6174757265202776272076616C PUSH1 0x44 DUP3 ADD MSTORE PUSH2 0x7565 PUSH1 0xF0 SHL PUSH1 0x64 DUP3 ADD MSTORE PUSH1 0x84 ADD PUSH2 0x78B JUMP JUMPDEST PUSH1 0x0 DUP2 DUP2 MSTORE PUSH1 0x1 DUP4 ADD PUSH1 0x20 MSTORE PUSH1 0x40 DUP2 KECCAK256 SLOAD PUSH2 0x24B2 JUMPI POP DUP2 SLOAD PUSH1 0x1 DUP2 DUP2 ADD DUP5 SSTORE PUSH1 0x0 DUP5 DUP2 MSTORE PUSH1 0x20 DUP1 DUP3 KECCAK256 SWAP1 SWAP4 ADD DUP5 SWAP1 SSTORE DUP5 SLOAD DUP5 DUP3 MSTORE DUP3 DUP7 ADD SWAP1 SWAP4 MSTORE PUSH1 0x40 SWAP1 KECCAK256 SWAP2 SWAP1 SWAP2 SSTORE PUSH2 0x10CF JUMP JUMPDEST POP PUSH1 0x0 PUSH2 0x10CF JUMP JUMPDEST PUSH1 0x0 DUP1 PUSH32 0x7FFFFFFFFFFFFFFFFFFFFFFFFFFFFFFF5D576E7357A4501DDFE92F46681B20A0 DUP4 GT ISZERO PUSH2 0x24F1 JUMPI POP PUSH1 0x0 SWAP1 POP PUSH1 0x3 PUSH2 0x259E JUMP JUMPDEST DUP5 PUSH1 0xFF AND PUSH1 0x1B EQ ISZERO DUP1 ISZERO PUSH2 0x2509 JUMPI POP DUP5 PUSH1 0xFF AND PUSH1 0x1C EQ ISZERO JUMPDEST ISZERO PUSH2 0x251A JUMPI POP PUSH1 0x0 SWAP1 POP PUSH1 0x4 PUSH2 0x259E JUMP JUMPDEST PUSH1 0x40 DUP1 MLOAD PUSH1 0x0 DUP1 DUP3 MSTORE PUSH1 0x20 DUP3 ADD DUP1 DUP5 MSTORE DUP10 SWAP1 MSTORE PUSH1 0xFF DUP9 AND SWAP3 DUP3 ADD SWAP3 SWAP1 SWAP3 MSTORE PUSH1 0x60 DUP2 ADD DUP7 SWAP1 MSTORE PUSH1 0x80 DUP2 ADD DUP6 SWAP1 MSTORE PUSH1 0x1 SWAP1 PUSH1 0xA0 ADD PUSH1 0x20 PUSH1 0x40 MLOAD PUSH1 0x20 DUP2 SUB SWAP1 DUP1 DUP5 SUB SWAP1 DUP6 GAS STATICCALL ISZERO DUP1 ISZERO PUSH2 0x256E JUMPI RETURNDATASIZE PUSH1 0x0 DUP1 RETURNDATACOPY RETURNDATASIZE PUSH1 0x0 REVERT JUMPDEST POP POP PUSH1 0x40 MLOAD PUSH1 0x1F NOT ADD MLOAD SWAP2 POP POP PUSH1 0x1 PUSH1 0x1 PUSH1 0xA0 SHL SUB DUP2 AND PUSH2 0x2597 JUMPI PUSH1 0x0 PUSH1 0x1 SWAP3 POP SWAP3 POP POP PUSH2 0x259E JUMP JUMPDEST SWAP2 POP PUSH1 0x0 SWAP1 POP JUMPDEST SWAP5 POP SWAP5 SWAP3 POP POP POP JUMP JUMPDEST PUSH1 0x0 DUP1 PUSH1 0x1 PUSH1 0x1 PUSH1 0xFF SHL SUB DUP4 AND DUP2 PUSH2 0x25C4 PUSH1 0xFF DUP7 SWAP1 SHR PUSH1 0x1B PUSH2 0x2B4B JUMP JUMPDEST SWAP1 POP PUSH2 0x25D2 DUP8 DUP3 DUP9 DUP6 PUSH2 0x24BA JUMP JUMPDEST SWAP4 POP SWAP4 POP POP POP SWAP4 POP SWAP4 SWAP2 POP POP JUMP JUMPDEST PUSH1 0x0 PUSH1 0x20 DUP3 DUP5 SUB SLT ISZERO PUSH2 0x25F2 JUMPI PUSH1 0x0 DUP1 REVERT JUMPDEST POP CALLDATALOAD SWAP2 SWAP1 POP JUMP JUMPDEST DUP1 CALLDATALOAD PUSH1 0x1 PUSH1 0x1 PUSH1 0xA0 SHL SUB DUP2 AND DUP2 EQ PUSH2 0x2610 JUMPI PUSH1 0x0 DUP1 REVERT JUMPDEST SWAP2 SWAP1 POP JUMP JUMPDEST PUSH1 0x0 DUP1 PUSH1 0x40 DUP4 DUP6 SUB SLT ISZERO PUSH2 0x2628 JUMPI PUSH1 0x0 DUP1 REVERT JUMPDEST PUSH2 0x2631 DUP4 PUSH2 0x25F9 JUMP JUMPDEST SWAP5 PUSH1 0x20 SWAP4 SWAP1 SWAP4 ADD CALLDATALOAD SWAP4 POP POP POP JUMP JUMPDEST PUSH1 0x0 PUSH1 0x20 DUP3 DUP5 SUB SLT ISZERO PUSH2 0x2651 JUMPI PUSH1 0x0 DUP1 REVERT JUMPDEST PUSH2 0x13E5 DUP3 PUSH2 0x25F9 JUMP JUMPDEST PUSH1 0x0 DUP2 MLOAD DUP1 DUP5 MSTORE PUSH1 0x20 DUP1 DUP6 ADD SWAP5 POP DUP1 DUP5 ADD PUSH1 0x0 JUMPDEST DUP4 DUP2 LT ISZERO PUSH2 0x268A JUMPI DUP2 MLOAD DUP8 MSTORE SWAP6 DUP3 ADD SWAP6 SWAP1 DUP3 ADD SWAP1 PUSH1 0x1 ADD PUSH2 0x266E JUMP JUMPDEST POP SWAP5 SWAP6 SWAP5 POP POP POP POP POP JUMP JUMPDEST PUSH1 0x20 DUP2 MSTORE PUSH1 0x0 PUSH2 0x13E5 PUSH1 0x20 DUP4 ADD DUP5 PUSH2 0x265A JUMP JUMPDEST PUSH1 0x0 DUP1 DUP4 PUSH1 0x1F DUP5 ADD SLT PUSH2 0x26BA JUMPI PUSH1 0x0 DUP1 REVERT JUMPDEST POP DUP2 CALLDATALOAD PUSH8 0xFFFFFFFFFFFFFFFF DUP2 GT ISZERO PUSH2 0x26D2 JUMPI PUSH1 0x0 DUP1 REVERT JUMPDEST PUSH1 0x20 DUP4 ADD SWAP2 POP DUP4 PUSH1 0x20 DUP3 PUSH1 0x5 SHL DUP6 ADD ADD GT ISZERO PUSH2 0x178B JUMPI PUSH1 0x0 DUP1 REVERT JUMPDEST PUSH4 0x4E487B71 PUSH1 0xE0 SHL PUSH1 0x0 MSTORE PUSH1 0x41 PUSH1 0x4 MSTORE PUSH1 0x24 PUSH1 0x0 REVERT JUMPDEST DUP1 CALLDATALOAD DUP1 ISZERO ISZERO DUP2 EQ PUSH2 0x2610 JUMPI PUSH1 0x0 DUP1 REVERT JUMPDEST PUSH1 0x0 DUP1 PUSH1 0x0 DUP1 PUSH1 0x0 DUP1 PUSH1 0x80 DUP8 DUP10 SUB SLT ISZERO PUSH2 0x272C JUMPI PUSH1 0x0 DUP1 REVERT JUMPDEST DUP7 CALLDATALOAD PUSH8 0xFFFFFFFFFFFFFFFF DUP1 DUP3 GT ISZERO PUSH2 0x2744 JUMPI PUSH1 0x0 DUP1 REVERT JUMPDEST PUSH2 0x2750 DUP11 DUP4 DUP12 ADD PUSH2 0x26A8 JUMP JUMPDEST SWAP1 SWAP9 POP SWAP7 POP PUSH1 0x20 DUP10 ADD CALLDATALOAD SWAP2 POP DUP1 DUP3 GT ISZERO PUSH2 0x2769 JUMPI PUSH1 0x0 DUP1 REVERT JUMPDEST PUSH2 0x2775 DUP11 DUP4 DUP12 ADD PUSH2 0x26A8 JUMP JUMPDEST SWAP1 SWAP7 POP SWAP5 POP PUSH1 0x40 DUP10 ADD CALLDATALOAD SWAP2 POP DUP1 DUP3 GT ISZERO PUSH2 0x278E JUMPI PUSH1 0x0 DUP1 REVERT JUMPDEST DUP2 DUP10 ADD SWAP2 POP DUP10 PUSH1 0x1F DUP4 ADD SLT PUSH2 0x27A2 JUMPI PUSH1 0x0 DUP1 REVERT JUMPDEST DUP2 CALLDATALOAD DUP2 DUP2 GT ISZERO PUSH2 0x27B4 JUMPI PUSH2 0x27B4 PUSH2 0x26ED JUMP JUMPDEST PUSH1 0x40 MLOAD PUSH1 0x1F DUP3 ADD PUSH1 0x1F NOT SWAP1 DUP2 AND PUSH1 0x3F ADD AND DUP2 ADD SWAP1 DUP4 DUP3 GT DUP2 DUP4 LT OR ISZERO PUSH2 0x27DC JUMPI PUSH2 0x27DC PUSH2 0x26ED JUMP JUMPDEST DUP2 PUSH1 0x40 MSTORE DUP3 DUP2 MSTORE DUP13 PUSH1 0x20 DUP5 DUP8 ADD ADD GT ISZERO PUSH2 0x27F5 JUMPI PUSH1 0x0 DUP1 REVERT JUMPDEST DUP3 PUSH1 0x20 DUP7 ADD PUSH1 0x20 DUP4 ADD CALLDATACOPY PUSH1 0x0 PUSH1 0x20 DUP5 DUP4 ADD ADD MSTORE DUP1 SWAP7 POP POP POP POP POP POP PUSH2 0x281C PUSH1 0x60 DUP9 ADD PUSH2 0x2703 JUMP JUMPDEST SWAP1 POP SWAP3 SWAP6 POP SWAP3 SWAP6 POP SWAP3 SWAP6 JUMP JUMPDEST PUSH1 0x0 PUSH1 0x20 DUP1 DUP4 MSTORE DUP4 MLOAD DUP1 DUP3 DUP6 ADD MSTORE PUSH1 0x0 JUMPDEST DUP2 DUP2 LT ISZERO PUSH2 0x2855 JUMPI DUP6 DUP2 ADD DUP4 ADD MLOAD DUP6 DUP3 ADD PUSH1 0x40 ADD MSTORE DUP3 ADD PUSH2 0x2839 JUMP JUMPDEST DUP2 DUP2 GT ISZERO PUSH2 0x2867 JUMPI PUSH1 0x0 PUSH1 0x40 DUP4 DUP8 ADD ADD MSTORE JUMPDEST POP PUSH1 0x1F ADD PUSH1 0x1F NOT AND SWAP3 SWAP1 SWAP3 ADD PUSH1 0x40 ADD SWAP4 SWAP3 POP POP POP JUMP JUMPDEST PUSH1 0x0 DUP1 PUSH1 0x0 DUP1 PUSH1 0x0 PUSH1 0x80 DUP7 DUP9 SUB SLT ISZERO PUSH2 0x2895 JUMPI PUSH1 0x0 DUP1 REVERT JUMPDEST PUSH2 0x289E DUP7 PUSH2 0x25F9 JUMP JUMPDEST SWAP5 POP PUSH2 0x28AC PUSH1 0x20 DUP8 ADD PUSH2 0x25F9 JUMP JUMPDEST SWAP4 POP PUSH1 0x40 DUP7 ADD CALLDATALOAD SWAP3 POP PUSH1 0x60 DUP7 ADD CALLDATALOAD PUSH8 0xFFFFFFFFFFFFFFFF DUP1 DUP3 GT ISZERO PUSH2 0x28D0 JUMPI PUSH1 0x0 DUP1 REVERT JUMPDEST DUP2 DUP9 ADD SWAP2 POP DUP9 PUSH1 0x1F DUP4 ADD SLT PUSH2 0x28E4 JUMPI PUSH1 0x0 DUP1 REVERT JUMPDEST DUP2 CALLDATALOAD DUP2 DUP2 GT ISZERO PUSH2 0x28F3 JUMPI PUSH1 0x0 DUP1 REVERT JUMPDEST DUP10 PUSH1 0x20 DUP3 DUP6 ADD ADD GT ISZERO PUSH2 0x2905 JUMPI PUSH1 0x0 DUP1 REVERT JUMPDEST SWAP7 SWAP10 SWAP6 SWAP9 POP SWAP4 SWAP7 POP PUSH1 0x20 ADD SWAP5 SWAP4 SWAP3 POP POP POP JUMP JUMPDEST PUSH1 0x0 DUP1 PUSH1 0x20 DUP4 DUP6 SUB SLT ISZERO PUSH2 0x292B JUMPI PUSH1 0x0 DUP1 REVERT JUMPDEST DUP3 CALLDATALOAD PUSH8 0xFFFFFFFFFFFFFFFF DUP2 GT ISZERO PUSH2 0x2942 JUMPI PUSH1 0x0 DUP1 REVERT JUMPDEST PUSH2 0x294E DUP6 DUP3 DUP7 ADD PUSH2 0x26A8 JUMP JUMPDEST SWAP1 SWAP7 SWAP1 SWAP6 POP SWAP4 POP POP POP POP JUMP JUMPDEST PUSH1 0x0 DUP1 PUSH1 0x40 DUP4 DUP6 SUB SLT ISZERO PUSH2 0x296D JUMPI PUSH1 0x0 DUP1 REVERT JUMPDEST DUP3 CALLDATALOAD PUSH1 0x4 DUP2 LT PUSH2 0x2631 JUMPI PUSH1 0x0 DUP1 REVERT JUMPDEST PUSH4 0x4E487B71 PUSH1 0xE0 SHL PUSH1 0x0 MSTORE PUSH1 0x21 PUSH1 0x4 MSTORE PUSH1 0x24 PUSH1 0x0 REVERT JUMPDEST PUSH1 0x5 DUP2 LT PUSH2 0x29A2 JUMPI PUSH2 0x29A2 PUSH2 0x297C JUMP JUMPDEST SWAP1 MSTORE JUMP JUMPDEST PUSH1 0x20 DUP2 ADD PUSH2 0x10CF DUP3 DUP5 PUSH2 0x2992 JUMP JUMPDEST PUSH1 0x20 DUP2 ADD PUSH1 0x4 DUP4 LT PUSH2 0x29C8 JUMPI PUSH2 0x29C8 PUSH2 0x297C JUMP JUMPDEST SWAP2 SWAP1 MSTORE SWAP1 JUMP JUMPDEST PUSH1 0x40 DUP2 MSTORE PUSH1 0x0 PUSH2 0x29E1 PUSH1 0x40 DUP4 ADD DUP6 PUSH2 0x265A JUMP JUMPDEST DUP3 DUP2 SUB PUSH1 0x20 DUP5 ADD MSTORE PUSH2 0x29F3 DUP2 DUP6 PUSH2 0x265A JUMP JUMPDEST SWAP6 SWAP5 POP POP POP POP POP JUMP JUMPDEST PUSH1 0x0 DUP1 PUSH1 0x40 DUP4 DUP6 SUB SLT ISZERO PUSH2 0x2A0F JUMPI PUSH1 0x0 DUP1 REVERT JUMPDEST POP POP DUP1 CALLDATALOAD SWAP3 PUSH1 0x20 SWAP1 SWAP2 ADD CALLDATALOAD SWAP2 POP JUMP JUMPDEST PUSH1 0x0 DUP1 PUSH1 0x40 DUP4 DUP6 SUB SLT ISZERO PUSH2 0x2A31 JUMPI PUSH1 0x0 DUP1 REVERT JUMPDEST PUSH2 0x2A3A DUP4 PUSH2 0x25F9 JUMP JUMPDEST SWAP2 POP PUSH2 0x2A48 PUSH1 0x20 DUP5 ADD PUSH2 0x25F9 JUMP JUMPDEST SWAP1 POP SWAP3 POP SWAP3 SWAP1 POP JUMP JUMPDEST PUSH1 0x20 DUP1 DUP3 MSTORE DUP2 DUP2 ADD MSTORE PUSH32 0x4F776E61626C653A2063616C6C6572206973206E6F7420746865206F776E6572 PUSH1 0x40 DUP3 ADD MSTORE PUSH1 0x60 ADD SWAP1 JUMP JUMPDEST PUSH1 0x0 PUSH1 0x20 DUP3 DUP5 SUB SLT ISZERO PUSH2 0x2A98 JUMPI PUSH1 0x0 DUP1 REVERT JUMPDEST POP MLOAD SWAP2 SWAP1 POP JUMP JUMPDEST PUSH4 0x4E487B71 PUSH1 0xE0 SHL PUSH1 0x0 MSTORE PUSH1 0x32 PUSH1 0x4 MSTORE PUSH1 0x24 PUSH1 0x0 REVERT JUMPDEST PUSH4 0x4E487B71 PUSH1 0xE0 SHL PUSH1 0x0 MSTORE PUSH1 0x11 PUSH1 0x4 MSTORE PUSH1 0x24 PUSH1 0x0 REVERT JUMPDEST PUSH1 0x0 PUSH1 0x1 DUP3 ADD PUSH2 0x2ADD JUMPI PUSH2 0x2ADD PUSH2 0x2AB5 JUMP JUMPDEST POP PUSH1 0x1 ADD SWAP1 JUMP JUMPDEST PUSH1 0x0 PUSH1 0x1 PUSH1 0x1 PUSH1 0xFB SHL SUB DUP4 GT ISZERO PUSH2 0x2AFA JUMPI PUSH1 0x0 DUP1 REVERT JUMPDEST DUP3 PUSH1 0x5 SHL DUP1 DUP4 DUP7 CALLDATACOPY PUSH1 0x0 SWAP5 ADD SWAP4 DUP5 MSTORE POP SWAP2 SWAP3 SWAP2 POP POP JUMP JUMPDEST PUSH12 0xFFFFFFFFFFFFFFFFFFFFFFFF NOT DUP7 PUSH1 0x60 SHL AND DUP2 MSTORE PUSH1 0x0 PUSH2 0x2B40 PUSH2 0x2B39 PUSH1 0x14 DUP5 ADD DUP8 DUP10 PUSH2 0x2AE4 JUMP JUMPDEST DUP5 DUP7 PUSH2 0x2AE4 JUMP JUMPDEST SWAP8 SWAP7 POP POP POP POP POP POP POP JUMP JUMPDEST PUSH1 0x0 DUP3 NOT DUP3 GT ISZERO PUSH2 0x2B5E JUMPI PUSH2 0x2B5E PUSH2 0x2AB5 JUMP JUMPDEST POP ADD SWAP1 JUMP JUMPDEST PUSH1 0x1 DUP2 DUP2 SHR SWAP1 DUP3 AND DUP1 PUSH2 0x2B77 JUMPI PUSH1 0x7F DUP3 AND SWAP2 POP JUMPDEST PUSH1 0x20 DUP3 LT DUP2 SUB PUSH2 0x2B97 JUMPI PUSH4 0x4E487B71 PUSH1 0xE0 SHL PUSH1 0x0 MSTORE PUSH1 0x22 PUSH1 0x4 MSTORE PUSH1 0x24 PUSH1 0x0 REVERT JUMPDEST POP SWAP2 SWAP1 POP JUMP JUMPDEST PUSH1 0x0 DUP3 DUP3 LT ISZERO PUSH2 0x2BAF JUMPI PUSH2 0x2BAF PUSH2 0x2AB5 JUMP JUMPDEST POP SUB SWAP1 JUMP JUMPDEST PUSH1 0x0 DUP3 PUSH2 0x2BD1 JUMPI PUSH4 0x4E487B71 PUSH1 0xE0 SHL PUSH1 0x0 MSTORE PUSH1 0x12 PUSH1 0x4 MSTORE PUSH1 0x24 PUSH1 0x0 REVERT JUMPDEST POP MOD SWAP1 JUMP JUMPDEST DUP3 DUP2 MSTORE PUSH1 0x40 DUP2 ADD PUSH2 0x13E5 PUSH1 0x20 DUP4 ADD DUP5 PUSH2 0x2992 JUMP JUMPDEST PUSH1 0x20 DUP1 DUP3 MSTORE PUSH1 0x2B SWAP1 DUP3 ADD MSTORE PUSH32 0x496E697469616C697A61626C653A20636F6E7472616374206973206E6F742069 PUSH1 0x40 DUP3 ADD MSTORE PUSH11 0x6E697469616C697A696E67 PUSH1 0xA8 SHL PUSH1 0x60 DUP3 ADD MSTORE PUSH1 0x80 ADD SWAP1 JUMP JUMPDEST PUSH4 0x4E487B71 PUSH1 0xE0 SHL PUSH1 0x0 MSTORE PUSH1 0x31 PUSH1 0x4 MSTORE PUSH1 0x24 PUSH1 0x0 REVERT INVALID LOG2 PUSH5 0x6970667358 0x22 SLT KECCAK256 PUSH10 0x9C73C569FC4BA2A10E60 SMOD PUSH13 0x26B615B0F8A12EA3AC12033F88 SLT 0x5D SWAP2 PUSH13 0xDAB764736F6C634300080D0033 "
		},
		"gasEstimates": {
			"creation": {
				"codeDepositCost": "2278600",
				"executionCost": "2441",
				"totalCost": "2281041"
			},
			"external": {
				"FIEF_CONTRACT()": "2383",
				"Fprobability1Change(uint256)": "24531",
				"Fprobability2Change(uint256)": "24553",
				"Fprobability3Change(uint256)": "24575",
				"Fprobability4Change(uint256)": "24575",
				"FprobabilityUpgradeChange(uint256)": "24532",
				"FupgradeChange(uint256)": "24511",
				"POTION_CONTRACT()": "2493",
				"RING_CONTRACT()": "2382",
				"SQUIRE_CONTRACT()": "2471",
				"TRINKET_CONTRACT()": "2403",
				"addressToAmountClaimed(address)": "2619",
				"changeResetPeriod(uint256)": "24532",
				"checkIfSquireCanLeave(uint256)": "4777",
				"checkSquires(address)": "infinite",
				"depositBlocks(address,uint256)": "2670",
				"finishForestQuest(uint256[],uint256[],bytes,bool)": "infinite",
				"getRarity(uint256)": "infinite",
				"getRewardForLevel(uint256)": "10942",
				"getSkillForID(uint256)": "infinite",
				"getSkillForType(uint256)": "infinite",
				"getTokenSeedIds(uint256[])": "infinite",
				"init(address,address)": "infinite",
				"lastUpgrade(uint256)": "2517",
				"lastUpgradeType(uint256)": "infinite",
				"onERC721Received(address,address,uint256,bytes)": "infinite",
				"owner()": "2376",
				"questForest(uint256[])": "infinite",
				"random(uint256,uint256)": "793",
				"renounceOwnership()": "28251",
				"resetTime()": "2417",
				"setRarityBoost(uint8,uint256)": "24724",
				"setRewards()": "90772",
				"setSigner(address)": "26812",
				"setTokenAddress(address)": "26823",
				"skillTreeLevel1Change(uint256)": "24553",
				"skillTreeLevel2Change(uint256)": "24596",
				"skillTreeLevel3Change(uint256)": "24576",
				"skillTreeLevel4Change(uint256)": "24555",
				"skillTreeReward1Change(uint256)": "24553",
				"skillTreeReward2Change(uint256)": "24554",
				"skillTreeReward3Change(uint256)": "24532",
				"skillTreeReward4Change(uint256)": "24531",
				"squireToAmountClaimed(uint256)": "2494",
				"squires()": "2448",
				"squiresQuestingForest(address)": "infinite",
				"toggleQuesting()": "26612",
				"tokenSeedId(uint256)": "2539",
				"tokenTimer(uint256)": "2560",
				"transferOwnership(address)": "28422"
			},
			"internal": {
				"_startQuest(uint256)": "infinite",
				"upgradeSquire(enum SquireQuestingForest.SkillTypes,uint256)": "infinite",
				"verify(bytes32,bytes memory)": "infinite"
			}
		},
		"methodIdentifiers": {
			"FIEF_CONTRACT()": "10658a03",
			"Fprobability1Change(uint256)": "aa6e0f03",
			"Fprobability2Change(uint256)": "90a475a0",
			"Fprobability3Change(uint256)": "5b423a8e",
			"Fprobability4Change(uint256)": "d083c9bb",
			"FprobabilityUpgradeChange(uint256)": "13bfa794",
			"FupgradeChange(uint256)": "040f80b5",
			"POTION_CONTRACT()": "34c52d7a",
			"RING_CONTRACT()": "a9ec1886",
			"SQUIRE_CONTRACT()": "1b846edc",
			"TRINKET_CONTRACT()": "e82addaf",
			"addressToAmountClaimed(address)": "95193ec3",
			"changeResetPeriod(uint256)": "6b7d66e6",
			"checkIfSquireCanLeave(uint256)": "9d909db6",
			"checkSquires(address)": "0b752a54",
			"depositBlocks(address,uint256)": "06dfe2d1",
			"finishForestQuest(uint256[],uint256[],bytes,bool)": "0d45f23a",
			"getRarity(uint256)": "48758697",
			"getRewardForLevel(uint256)": "21d843c8",
			"getSkillForID(uint256)": "c3f18565",
			"getSkillForType(uint256)": "41a5f650",
			"getTokenSeedIds(uint256[])": "79547455",
			"init(address,address)": "f09a4016",
			"lastUpgrade(uint256)": "4138eabc",
			"lastUpgradeType(uint256)": "0fff47f5",
			"onERC721Received(address,address,uint256,bytes)": "150b7a02",
			"owner()": "8da5cb5b",
			"questForest(uint256[])": "33890572",
			"random(uint256,uint256)": "a9dd1225",
			"renounceOwnership()": "715018a6",
			"resetTime()": "65a114f1",
			"setRarityBoost(uint8,uint256)": "3aad8ee4",
			"setRewards()": "68ab8f97",
			"setSigner(address)": "6c19e783",
			"setTokenAddress(address)": "26a4e8d2",
			"skillTreeLevel1Change(uint256)": "51049a24",
			"skillTreeLevel2Change(uint256)": "f6c2d556",
			"skillTreeLevel3Change(uint256)": "1818c8e9",
			"skillTreeLevel4Change(uint256)": "077fc441",
			"skillTreeReward1Change(uint256)": "ccd0b167",
			"skillTreeReward2Change(uint256)": "2693a6ce",
			"skillTreeReward3Change(uint256)": "2259ed47",
			"skillTreeReward4Change(uint256)": "cca7856e",
			"squireToAmountClaimed(uint256)": "8e89fba1",
			"squires()": "b923fee4",
			"squiresQuestingForest(address)": "1e48ad13",
			"toggleQuesting()": "afb90c69",
			"tokenSeedId(uint256)": "709732c2",
			"tokenTimer(uint256)": "c1690e42",
			"transferOwnership(address)": "f2fde38b"
		}
	},
	"abi": [
		{
			"anonymous": false,
			"inputs": [
				{
					"indexed": false,
					"internalType": "address",
					"name": "_owner",
					"type": "address"
				},
				{
					"indexed": false,
					"internalType": "uint256",
					"name": "squireId",
					"type": "uint256"
				},
				{
					"indexed": false,
					"internalType": "uint256",
					"name": "amount",
					"type": "uint256"
				},
				{
					"indexed": false,
					"internalType": "uint256",
					"name": "timestamp",
					"type": "uint256"
				}
			],
			"name": "FiefReward",
			"type": "event"
		},
		{
			"anonymous": false,
			"inputs": [
				{
					"indexed": false,
					"internalType": "address",
					"name": "_owner",
					"type": "address"
				},
				{
					"indexed": false,
					"internalType": "uint256",
					"name": "squireId",
					"type": "uint256"
				}
			],
			"name": "FinishedQuest",
			"type": "event"
		},
		{
			"anonymous": false,
			"inputs": [
				{
					"indexed": true,
					"internalType": "address",
					"name": "previousOwner",
					"type": "address"
				},
				{
					"indexed": true,
					"internalType": "address",
					"name": "newOwner",
					"type": "address"
				}
			],
			"name": "OwnershipTransferred",
			"type": "event"
		},
		{
			"anonymous": false,
			"inputs": [
				{
					"indexed": false,
					"internalType": "uint256",
					"name": "squireId",
					"type": "uint256"
				},
				{
					"indexed": false,
					"internalType": "enum SquireQuestingForest.SkillTypes",
					"name": "skillType",
					"type": "uint8"
				}
			],
			"name": "SquireLevelUp",
			"type": "event"
		},
		{
			"anonymous": false,
			"inputs": [
				{
					"indexed": false,
					"internalType": "address",
					"name": "_owner",
					"type": "address"
				},
				{
					"indexed": false,
					"internalType": "uint256",
					"name": "squireId",
					"type": "uint256"
				},
				{
					"indexed": false,
					"internalType": "uint256",
					"name": "finishedAt",
					"type": "uint256"
				}
			],
			"name": "StartedQuest",
			"type": "event"
		},
		{
			"inputs": [],
			"name": "FIEF_CONTRACT",
			"outputs": [
				{
					"internalType": "address",
					"name": "",
					"type": "address"
				}
			],
			"stateMutability": "view",
			"type": "function"
		},
		{
			"inputs": [
				{
					"internalType": "uint256",
					"name": "num",
					"type": "uint256"
				}
			],
			"name": "Fprobability1Change",
			"outputs": [],
			"stateMutability": "nonpayable",
			"type": "function"
		},
		{
			"inputs": [
				{
					"internalType": "uint256",
					"name": "num",
					"type": "uint256"
				}
			],
			"name": "Fprobability2Change",
			"outputs": [],
			"stateMutability": "nonpayable",
			"type": "function"
		},
		{
			"inputs": [
				{
					"internalType": "uint256",
					"name": "num",
					"type": "uint256"
				}
			],
			"name": "Fprobability3Change",
			"outputs": [],
			"stateMutability": "nonpayable",
			"type": "function"
		},
		{
			"inputs": [
				{
					"internalType": "uint256",
					"name": "num",
					"type": "uint256"
				}
			],
			"name": "Fprobability4Change",
			"outputs": [],
			"stateMutability": "nonpayable",
			"type": "function"
		},
		{
			"inputs": [
				{
					"internalType": "uint256",
					"name": "num",
					"type": "uint256"
				}
			],
			"name": "FprobabilityUpgradeChange",
			"outputs": [],
			"stateMutability": "nonpayable",
			"type": "function"
		},
		{
			"inputs": [
				{
					"internalType": "uint256",
					"name": "num",
					"type": "uint256"
				}
			],
			"name": "FupgradeChange",
			"outputs": [],
			"stateMutability": "nonpayable",
			"type": "function"
		},
		{
			"inputs": [],
			"name": "POTION_CONTRACT",
			"outputs": [
				{
					"internalType": "address",
					"name": "",
					"type": "address"
				}
			],
			"stateMutability": "view",
			"type": "function"
		},
		{
			"inputs": [],
			"name": "RING_CONTRACT",
			"outputs": [
				{
					"internalType": "address",
					"name": "",
					"type": "address"
				}
			],
			"stateMutability": "view",
			"type": "function"
		},
		{
			"inputs": [],
			"name": "SQUIRE_CONTRACT",
			"outputs": [
				{
					"internalType": "address",
					"name": "",
					"type": "address"
				}
			],
			"stateMutability": "view",
			"type": "function"
		},
		{
			"inputs": [],
			"name": "TRINKET_CONTRACT",
			"outputs": [
				{
					"internalType": "address",
					"name": "",
					"type": "address"
				}
			],
			"stateMutability": "view",
			"type": "function"
		},
		{
			"inputs": [
				{
					"internalType": "address",
					"name": "",
					"type": "address"
				}
			],
			"name": "addressToAmountClaimed",
			"outputs": [
				{
					"internalType": "uint256",
					"name": "",
					"type": "uint256"
				}
			],
			"stateMutability": "view",
			"type": "function"
		},
		{
			"inputs": [
				{
					"internalType": "uint256",
					"name": "_time",
					"type": "uint256"
				}
			],
			"name": "changeResetPeriod",
			"outputs": [],
			"stateMutability": "nonpayable",
			"type": "function"
		},
		{
			"inputs": [
				{
					"internalType": "uint256",
					"name": "squireId",
					"type": "uint256"
				}
			],
			"name": "checkIfSquireCanLeave",
			"outputs": [
				{
					"internalType": "bool",
					"name": "",
					"type": "bool"
				}
			],
			"stateMutability": "view",
			"type": "function"
		},
		{
			"inputs": [
				{
					"internalType": "address",
					"name": "owner",
					"type": "address"
				}
			],
			"name": "checkSquires",
			"outputs": [
				{
					"internalType": "uint256[]",
					"name": "",
					"type": "uint256[]"
				}
			],
			"stateMutability": "view",
			"type": "function"
		},
		{
			"inputs": [
				{
					"internalType": "address",
					"name": "",
					"type": "address"
				},
				{
					"internalType": "uint256",
					"name": "",
					"type": "uint256"
				}
			],
			"name": "depositBlocks",
			"outputs": [
				{
					"internalType": "uint256",
					"name": "",
					"type": "uint256"
				}
			],
			"stateMutability": "view",
			"type": "function"
		},
		{
			"inputs": [
				{
					"internalType": "uint256[]",
					"name": "tokenIds",
					"type": "uint256[]"
				},
				{
					"internalType": "uint256[]",
					"name": "seeds",
					"type": "uint256[]"
				},
				{
					"internalType": "bytes",
					"name": "signature",
					"type": "bytes"
				},
				{
					"internalType": "bool",
					"name": "restart",
					"type": "bool"
				}
			],
			"name": "finishForestQuest",
			"outputs": [],
			"stateMutability": "nonpayable",
			"type": "function"
		},
		{
			"inputs": [
				{
					"internalType": "uint256",
					"name": "totalProbability",
					"type": "uint256"
				}
			],
			"name": "getRarity",
			"outputs": [
				{
					"internalType": "enum SquireQuestingForest.FiefRarity",
					"name": "rarity",
					"type": "uint8"
				}
			],
			"stateMutability": "view",
			"type": "function"
		},
		{
			"inputs": [
				{
					"internalType": "uint256",
					"name": "level",
					"type": "uint256"
				}
			],
			"name": "getRewardForLevel",
			"outputs": [
				{
					"internalType": "uint256",
					"name": "",
					"type": "uint256"
				}
			],
			"stateMutability": "view",
			"type": "function"
		},
		{
			"inputs": [
				{
					"internalType": "uint256",
					"name": "id",
					"type": "uint256"
				}
			],
			"name": "getSkillForID",
			"outputs": [
				{
					"internalType": "enum SquireQuestingForest.SkillTypes",
					"name": "",
					"type": "uint8"
				}
			],
			"stateMutability": "pure",
			"type": "function"
		},
		{
			"inputs": [
				{
					"internalType": "uint256",
					"name": "tokenId",
					"type": "uint256"
				}
			],
			"name": "getSkillForType",
			"outputs": [
				{
					"internalType": "enum SquireQuestingForest.SkillTypes",
					"name": "",
					"type": "uint8"
				}
			],
			"stateMutability": "view",
			"type": "function"
		},
		{
			"inputs": [
				{
					"internalType": "uint256[]",
					"name": "squireIds",
					"type": "uint256[]"
				}
			],
			"name": "getTokenSeedIds",
			"outputs": [
				{
					"internalType": "uint256[]",
					"name": "",
					"type": "uint256[]"
				},
				{
					"internalType": "uint256[]",
					"name": "",
					"type": "uint256[]"
				}
			],
			"stateMutability": "view",
			"type": "function"
		},
		{
			"inputs": [
				{
					"internalType": "address",
					"name": "_fief",
					"type": "address"
				},
				{
					"internalType": "address",
					"name": "_squire",
					"type": "address"
				}
			],
			"name": "init",
			"outputs": [],
			"stateMutability": "nonpayable",
			"type": "function"
		},
		{
			"inputs": [
				{
					"internalType": "uint256",
					"name": "",
					"type": "uint256"
				}
			],
			"name": "lastUpgrade",
			"outputs": [
				{
					"internalType": "uint256",
					"name": "",
					"type": "uint256"
				}
			],
			"stateMutability": "view",
			"type": "function"
		},
		{
			"inputs": [
				{
					"internalType": "uint256",
					"name": "",
					"type": "uint256"
				}
			],
			"name": "lastUpgradeType",
			"outputs": [
				{
					"internalType": "string",
					"name": "",
					"type": "string"
				}
			],
			"stateMutability": "view",
			"type": "function"
		},
		{
			"inputs": [
				{
					"internalType": "address",
					"name": "",
					"type": "address"
				},
				{
					"internalType": "address",
					"name": "",
					"type": "address"
				},
				{
					"internalType": "uint256",
					"name": "",
					"type": "uint256"
				},
				{
					"internalType": "bytes",
					"name": "",
					"type": "bytes"
				}
			],
			"name": "onERC721Received",
			"outputs": [
				{
					"internalType": "bytes4",
					"name": "",
					"type": "bytes4"
				}
			],
			"stateMutability": "pure",
			"type": "function"
		},
		{
			"inputs": [],
			"name": "owner",
			"outputs": [
				{
					"internalType": "address",
					"name": "",
					"type": "address"
				}
			],
			"stateMutability": "view",
			"type": "function"
		},
		{
			"inputs": [
				{
					"internalType": "uint256[]",
					"name": "squireIds",
					"type": "uint256[]"
				}
			],
			"name": "questForest",
			"outputs": [],
			"stateMutability": "nonpayable",
			"type": "function"
		},
		{
			"inputs": [
				{
					"internalType": "uint256",
					"name": "number",
					"type": "uint256"
				},
				{
					"internalType": "uint256",
					"name": "seed",
					"type": "uint256"
				}
			],
			"name": "random",
			"outputs": [
				{
					"internalType": "uint256",
					"name": "",
					"type": "uint256"
				}
			],
			"stateMutability": "view",
			"type": "function"
		},
		{
			"inputs": [],
			"name": "renounceOwnership",
			"outputs": [],
			"stateMutability": "nonpayable",
			"type": "function"
		},
		{
			"inputs": [],
			"name": "resetTime",
			"outputs": [
				{
					"internalType": "uint256",
					"name": "",
					"type": "uint256"
				}
			],
			"stateMutability": "view",
			"type": "function"
		},
		{
			"inputs": [
				{
					"internalType": "enum SquireQuestingForest.FiefRarity",
					"name": "rarity",
					"type": "uint8"
				},
				{
					"internalType": "uint256",
					"name": "boost",
					"type": "uint256"
				}
			],
			"name": "setRarityBoost",
			"outputs": [],
			"stateMutability": "nonpayable",
			"type": "function"
		},
		{
			"inputs": [],
			"name": "setRewards",
			"outputs": [],
			"stateMutability": "nonpayable",
			"type": "function"
		},
		{
			"inputs": [
				{
					"internalType": "address",
					"name": "_signer",
					"type": "address"
				}
			],
			"name": "setSigner",
			"outputs": [],
			"stateMutability": "nonpayable",
			"type": "function"
		},
		{
			"inputs": [
				{
					"internalType": "address",
					"name": "_tokenAddress",
					"type": "address"
				}
			],
			"name": "setTokenAddress",
			"outputs": [],
			"stateMutability": "nonpayable",
			"type": "function"
		},
		{
			"inputs": [
				{
					"internalType": "uint256",
					"name": "num",
					"type": "uint256"
				}
			],
			"name": "skillTreeLevel1Change",
			"outputs": [],
			"stateMutability": "nonpayable",
			"type": "function"
		},
		{
			"inputs": [
				{
					"internalType": "uint256",
					"name": "num",
					"type": "uint256"
				}
			],
			"name": "skillTreeLevel2Change",
			"outputs": [],
			"stateMutability": "nonpayable",
			"type": "function"
		},
		{
			"inputs": [
				{
					"internalType": "uint256",
					"name": "num",
					"type": "uint256"
				}
			],
			"name": "skillTreeLevel3Change",
			"outputs": [],
			"stateMutability": "nonpayable",
			"type": "function"
		},
		{
			"inputs": [
				{
					"internalType": "uint256",
					"name": "num",
					"type": "uint256"
				}
			],
			"name": "skillTreeLevel4Change",
			"outputs": [],
			"stateMutability": "nonpayable",
			"type": "function"
		},
		{
			"inputs": [
				{
					"internalType": "uint256",
					"name": "num",
					"type": "uint256"
				}
			],
			"name": "skillTreeReward1Change",
			"outputs": [],
			"stateMutability": "nonpayable",
			"type": "function"
		},
		{
			"inputs": [
				{
					"internalType": "uint256",
					"name": "num",
					"type": "uint256"
				}
			],
			"name": "skillTreeReward2Change",
			"outputs": [],
			"stateMutability": "nonpayable",
			"type": "function"
		},
		{
			"inputs": [
				{
					"internalType": "uint256",
					"name": "num",
					"type": "uint256"
				}
			],
			"name": "skillTreeReward3Change",
			"outputs": [],
			"stateMutability": "nonpayable",
			"type": "function"
		},
		{
			"inputs": [
				{
					"internalType": "uint256",
					"name": "num",
					"type": "uint256"
				}
			],
			"name": "skillTreeReward4Change",
			"outputs": [],
			"stateMutability": "nonpayable",
			"type": "function"
		},
		{
			"inputs": [
				{
					"internalType": "uint256",
					"name": "",
					"type": "uint256"
				}
			],
			"name": "squireToAmountClaimed",
			"outputs": [
				{
					"internalType": "uint256",
					"name": "",
					"type": "uint256"
				}
			],
			"stateMutability": "view",
			"type": "function"
		},
		{
			"inputs": [],
			"name": "squires",
			"outputs": [
				{
					"internalType": "contract SQUIRES",
					"name": "",
					"type": "address"
				}
			],
			"stateMutability": "view",
			"type": "function"
		},
		{
			"inputs": [
				{
					"internalType": "address",
					"name": "account",
					"type": "address"
				}
			],
			"name": "squiresQuestingForest",
			"outputs": [
				{
					"internalType": "uint256[]",
					"name": "",
					"type": "uint256[]"
				}
			],
			"stateMutability": "view",
			"type": "function"
		},
		{
			"inputs": [],
			"name": "toggleQuesting",
			"outputs": [],
			"stateMutability": "nonpayable",
			"type": "function"
		},
		{
			"inputs": [
				{
					"internalType": "uint256",
					"name": "",
					"type": "uint256"
				}
			],
			"name": "tokenSeedId",
			"outputs": [
				{
					"internalType": "uint256",
					"name": "",
					"type": "uint256"
				}
			],
			"stateMutability": "view",
			"type": "function"
		},
		{
			"inputs": [
				{
					"internalType": "uint256",
					"name": "",
					"type": "uint256"
				}
			],
			"name": "tokenTimer",
			"outputs": [
				{
					"internalType": "uint256",
					"name": "",
					"type": "uint256"
				}
			],
			"stateMutability": "view",
			"type": "function"
		},
		{
			"inputs": [
				{
					"internalType": "address",
					"name": "newOwner",
					"type": "address"
				}
			],
			"name": "transferOwnership",
			"outputs": [],
			"stateMutability": "nonpayable",
			"type": "function"
		}
	]
}