{
	"data": {
		"bytecode": {
			"linkReferences": {},
			"object": "608060405234801561001057600080fd5b506118df806100206000396000f3fe608060405234801561001057600080fd5b50600436106100cf5760003560e01c8063a9dd12251161008c578063dd9b433611610066578063dd9b4336146101a0578063e1c7392a146101b3578063f2fde38b146101bb578063fa7b3ec2146101ce57600080fd5b8063a9dd122514610167578063b6de614b1461017a578063cee6b0d71461018d57600080fd5b80630da84f6b146100d45780633cb40e16146100fa5780634f13c5a714610104578063715018a6146101245780638da5cb5b1461012c578063a0e0487514610147575b600080fd5b6100e76100e23660046111ed565b6101e1565b6040519081526020015b60405180910390f35b610102610220565b005b610117610112366004611208565b610282565b6040516100f19190611295565b610102610445565b6033546040516001600160a01b0390911681526020016100f1565b61015a610155366004611208565b61047b565b6040516100f19190611324565b6100e7610175366004611368565b61056b565b6100e76101883660046111ed565b6105d1565b61010261019b3660046115be565b610661565b6100e76101ae36600461169f565b610b1e565b610102610cbf565b6101026101c93660046116cb565b610da9565b6101026101dc3660046111ed565b610e41565b6000606760008360028111156101f9576101f9611232565b600281111561020a5761020a611232565b8152602001908152602001600020549050919050565b6033546001600160a01b031633146102535760405162461bcd60e51b815260040161024a906116f4565b60405180910390fd5b60405133904780156108fc02916000818181858888f1935050505015801561027f573d6000803e3d6000fd5b50565b6102bd6040805160c0810190915280600081526000602082018190526040909101908152600060208201819052604082015260609081015290565b6000606860008560028111156102d5576102d5611232565b60028111156102e6576102e6611232565b81526020808201929092526040908101600090812086825290925290819020815160c081019092528054829060ff16600281111561032657610326611232565b600281111561033757610337611232565b81528154610100810461ffff1660208301526040909101906301000000900460ff16600481111561036a5761036a611232565b600481111561037b5761037b611232565b8152815461ffff64010000000082048116602084015266010000000000009091041660408201526001820180546060909201916103b790611729565b80601f01602080910402602001604051908101604052809291908181526020018280546103e390611729565b80156104305780601f1061040557610100808354040283529160200191610430565b820191906000526020600020905b81548152906001019060200180831161041357829003601f168201915b50505091909252509193505050505b92915050565b6033546001600160a01b0316331461046f5760405162461bcd60e51b815260040161024a906116f4565b6104796000610f4e565b565b606060006069600085600281111561049557610495611232565b60028111156104a6576104a6611232565b81526020019081526020016000206000848152602001908152602001600020905060006104d282610fa0565b67ffffffffffffffff8111156104ea576104ea61138a565b604051908082528060200260200182016040528015610513578160200160208202803683370190505b50905060005b61052283610fa0565b811015610562576105338382610faa565b82828151811061054557610545611763565b60209081029190910101528061055a8161178f565b915050610519565b50949350505050565b6040516bffffffffffffffffffffffff193360601b166020820152603481018290526054810183905260009083906074016040516020818303038152906040528051906020012060001c6105bf91906117a8565b6105ca9060016117ca565b9392505050565b600080606560008460028111156105ea576105ea611232565b60028111156105fb576105fb611232565b815260200190815260200160002080548060200260200160405190810160405280929190818152602001828054801561065357602002820191906000526020600020905b81548152602001906001019080831161063f575b505092519695505050505050565b6033546001600160a01b0316331461068b5760405162461bcd60e51b815260040161024a906116f4565b8351855114801561069d575082518451145b80156106aa575081518351145b6106e95760405162461bcd60e51b815260206004820152601060248201526f15985b1d595cc81b9bdd081d985b1a5960821b604482015260640161024a565b606560008760028111156106ff576106ff611232565b600281111561071057610710611232565b8152602001908152602001600020600061072a9190611127565b60006067600088600281111561074257610742611232565b600281111561075357610753611232565b8152602081019190915260400160002054905060015b8181116107d8576069600089600281111561078657610786611232565b600281111561079757610797611232565b81526020808201929092526040908101600090812084825290925281209081816107c18282611127565b5050505080806107d09061178f565b915050610769565b5060005b8651811015610b0b576040518060c0016040528089600281111561080257610802611232565b815260200185838151811061081957610819611763565b602002602001015161ffff16815260200187838151811061083c5761083c611763565b6020026020010151600481111561085557610855611232565b815260200186838151811061086c5761086c611763565b602002602001015161ffff16815260200188838151811061088f5761088f611763565b602002602001015161ffff1681526020018483815181106108b2576108b2611763565b6020026020010151815250606860008a60028111156108d3576108d3611232565b60028111156108e4576108e4611232565b8152602001908152602001600020600089848151811061090657610906611763565b60209081029190910181015161ffff16825281019190915260400160002081518154829060ff1916600183600281111561094257610942611232565b02179055506020820151815461ffff9091166101000262ffff0019821681178355604084015191839163ff000000191663ffffff001990911617630100000083600481111561099357610993611232565b021790555060608201518154608084015161ffff90811666010000000000000267ffff0000000000001991909316640100000000021667ffffffff00000000199091161717815560a082015180516109f5916001840191602090910190611145565b50905050610a8b878281518110610a0e57610a0e611763565b602002602001015161ffff16606960008b6002811115610a3057610a30611232565b6002811115610a4157610a41611232565b81526020019081526020016000206000888581518110610a6357610a63611763565b602002602001015161ffff168152602001908152602001600020610fb690919063ffffffff16565b5060656000896002811115610aa257610aa2611232565b6002811115610ab357610ab3611232565b8152602001908152602001600020848281518110610ad357610ad3611763565b602090810291909101810151825460018101845560009384529190922061ffff90921691015580610b038161178f565b9150506107dc565b50610b1587610e41565b50505050505050565b60008060666000846002811115610b3757610b37611232565b6002811115610b4857610b48611232565b8152602001908152602001600020549050600060656000856002811115610b7157610b71611232565b6002811115610b8257610b82611232565b8152602001908152602001600020805480602002602001604051908101604052809291908181526020018280548015610bda57602002820191906000526020600020905b815481526020019060010190808311610bc6575b5050505050905081600003610c315760405162461bcd60e51b815260206004820152601a60248201527f4d6178206861736e2774206265656e2063616c63756c61746564000000000000604482015260640161024a565b6000610c5383866002811115610c4957610c49611232565b61017590896117ca565b9050600080600060018551610c6891906117e2565b90505b848181518110610c7d57610c7d611763565b602002602001015183610c9091906117ca565b9250828411610ca157809150610cb3565b80610cab816117f9565b915050610c6b565b50979650505050505050565b6000610ccb6001610fc2565b90508015610ce3576000805461ff0019166101001790555b610ceb61104f565b606760205260057fd4e1ac8b62c3ff1e2c1b7113742533b8310ce5ab8a8767ead9ba8b250c7e3cc98190557f6bee784efeb983674392298ab585b22866bedf00ebb0eea949d1e66f3f50e71d81905560026000527f34a128ff2438bccb68124de780ea45be60aca78c6fb6ce114324ee2dd88c546d55801561027f576000805461ff0019169055604051600181527f7f26b83ff96e1f2b6a682f133852f6798a09c465da95921460cefb38474024989060200160405180910390a150565b6033546001600160a01b03163314610dd35760405162461bcd60e51b815260040161024a906116f4565b6001600160a01b038116610e385760405162461bcd60e51b815260206004820152602660248201527f4f776e61626c653a206e6577206f776e657220697320746865207a65726f206160448201526564647265737360d01b606482015260840161024a565b61027f81610f4e565b600060656000836002811115610e5957610e59611232565b6002811115610e6a57610e6a611232565b8152602001908152602001600020805480602002602001604051908101604052809291908181526020018280548015610ec257602002820191906000526020600020905b815481526020019060010190808311610eae575b505050505090506000805b8251811015610f0f57828181518110610ee857610ee8611763565b602002602001015182610efb91906117ca565b915080610f078161178f565b915050610ecd565b508060666000856002811115610f2757610f27611232565b6002811115610f3857610f38611232565b8152602081019190915260400160002055505050565b603380546001600160a01b038381166001600160a01b0319831681179093556040519116919082907f8be0079c531659141344cd1fd0a4f28419497f9722a3daafe3b4186f6b6457e090600090a35050565b600061043f825490565b60006105ca838361107e565b60006105ca83836110a8565b60008054610100900460ff1615611009578160ff166001148015610fe55750303b155b6110015760405162461bcd60e51b815260040161024a90611810565b506000919050565b60005460ff8084169116106110305760405162461bcd60e51b815260040161024a90611810565b506000805460ff191660ff92909216919091179055600190565b919050565b600054610100900460ff166110765760405162461bcd60e51b815260040161024a9061185e565b6104796110f7565b600082600001828154811061109557611095611763565b9060005260206000200154905092915050565b60008181526001830160205260408120546110ef5750815460018181018455600084815260208082209093018490558454848252828601909352604090209190915561043f565b50600061043f565b600054610100900460ff1661111e5760405162461bcd60e51b815260040161024a9061185e565b61047933610f4e565b508054600082559060005260206000209081019061027f91906111c9565b82805461115190611729565b90600052602060002090601f01602090048101928261117357600085556111b9565b82601f1061118c57805160ff19168380011785556111b9565b828001600101855582156111b9579182015b828111156111b957825182559160200191906001019061119e565b506111c59291506111c9565b5090565b5b808211156111c557600081556001016111ca565b80356003811061104a57600080fd5b6000602082840312156111ff57600080fd5b6105ca826111de565b6000806040838503121561121b57600080fd5b611224836111de565b946020939093013593505050565b634e487b7160e01b600052602160045260246000fd5b6000815180845260005b8181101561126e57602081850181015186830182015201611252565b81811115611280576000602083870101525b50601f01601f19169290920160200192915050565b6020815260008251600381106112ad576112ad611232565b8060208401525061ffff60208401511660408301526040830151600581106112d7576112d7611232565b8060608401525060608301516112f3608084018261ffff169052565b50608083015161ffff811660a08401525060a083015160c08084015261131c60e0840182611248565b949350505050565b6020808252825182820181905260009190848201906040850190845b8181101561135c57835183529284019291840191600101611340565b50909695505050505050565b6000806040838503121561137b57600080fd5b50508035926020909101359150565b634e487b7160e01b600052604160045260246000fd5b604051601f8201601f1916810167ffffffffffffffff811182821017156113c9576113c961138a565b604052919050565b600067ffffffffffffffff8211156113eb576113eb61138a565b5060051b60200190565b600082601f83011261140657600080fd5b8135602061141b611416836113d1565b6113a0565b82815260059290921b8401810191818101908684111561143a57600080fd5b8286015b8481101561146657803561ffff811681146114595760008081fd5b835291830191830161143e565b509695505050505050565b600082601f83011261148257600080fd5b81356020611492611416836113d1565b828152600592831b85018201928282019190878511156114b157600080fd5b8387015b858110156114d95780358281106114cc5760008081fd5b84529284019284016114b5565b5090979650505050505050565b6000601f83818401126114f857600080fd5b82356020611508611416836113d1565b82815260059290921b8501810191818101908784111561152757600080fd5b8287015b84811015610cb357803567ffffffffffffffff8082111561154c5760008081fd5b818a0191508a603f8301126115615760008081fd5b858201356040828211156115775761157761138a565b611588828b01601f191689016113a0565b92508183528c8183860101111561159f5760008081fd5b818185018985013750600090820187015284525091830191830161152b565b60008060008060008060c087890312156115d757600080fd5b6115e0876111de565b9550602087013567ffffffffffffffff808211156115fd57600080fd5b6116098a838b016113f5565b9650604089013591508082111561161f57600080fd5b61162b8a838b01611471565b9550606089013591508082111561164157600080fd5b61164d8a838b016113f5565b9450608089013591508082111561166357600080fd5b61166f8a838b016113f5565b935060a089013591508082111561168557600080fd5b5061169289828a016114e6565b9150509295509295509295565b600080604083850312156116b257600080fd5b823591506116c2602084016111de565b90509250929050565b6000602082840312156116dd57600080fd5b81356001600160a01b03811681146105ca57600080fd5b6020808252818101527f4f776e61626c653a2063616c6c6572206973206e6f7420746865206f776e6572604082015260600190565b600181811c9082168061173d57607f821691505b60208210810361175d57634e487b7160e01b600052602260045260246000fd5b50919050565b634e487b7160e01b600052603260045260246000fd5b634e487b7160e01b600052601160045260246000fd5b6000600182016117a1576117a1611779565b5060010190565b6000826117c557634e487b7160e01b600052601260045260246000fd5b500690565b600082198211156117dd576117dd611779565b500190565b6000828210156117f4576117f4611779565b500390565b60008161180857611808611779565b506000190190565b6020808252602e908201527f496e697469616c697a61626c653a20636f6e747261637420697320616c72656160408201526d191e481a5b9a5d1a585b1a5e995960921b606082015260800190565b6020808252602b908201527f496e697469616c697a61626c653a20636f6e7472616374206973206e6f74206960408201526a6e697469616c697a696e6760a81b60608201526080019056fea2646970667358221220bd4652d5ba3db418d8166ed1829c40cc4c3671209aec9e457635e0e3303acdb764736f6c634300080d0033",
			"opcodes": "PUSH1 0x80 PUSH1 0x40 MSTORE CALLVALUE DUP1 ISZERO PUSH2 0x10 JUMPI PUSH1 0x0 DUP1 REVERT JUMPDEST POP PUSH2 0x18DF DUP1 PUSH2 0x20 PUSH1 0x0 CODECOPY PUSH1 0x0 RETURN INVALID PUSH1 0x80 PUSH1 0x40 MSTORE CALLVALUE DUP1 ISZERO PUSH2 0x10 JUMPI PUSH1 0x0 DUP1 REVERT JUMPDEST POP PUSH1 0x4 CALLDATASIZE LT PUSH2 0xCF JUMPI PUSH1 0x0 CALLDATALOAD PUSH1 0xE0 SHR DUP1 PUSH4 0xA9DD1225 GT PUSH2 0x8C JUMPI DUP1 PUSH4 0xDD9B4336 GT PUSH2 0x66 JUMPI DUP1 PUSH4 0xDD9B4336 EQ PUSH2 0x1A0 JUMPI DUP1 PUSH4 0xE1C7392A EQ PUSH2 0x1B3 JUMPI DUP1 PUSH4 0xF2FDE38B EQ PUSH2 0x1BB JUMPI DUP1 PUSH4 0xFA7B3EC2 EQ PUSH2 0x1CE JUMPI PUSH1 0x0 DUP1 REVERT JUMPDEST DUP1 PUSH4 0xA9DD1225 EQ PUSH2 0x167 JUMPI DUP1 PUSH4 0xB6DE614B EQ PUSH2 0x17A JUMPI DUP1 PUSH4 0xCEE6B0D7 EQ PUSH2 0x18D JUMPI PUSH1 0x0 DUP1 REVERT JUMPDEST DUP1 PUSH4 0xDA84F6B EQ PUSH2 0xD4 JUMPI DUP1 PUSH4 0x3CB40E16 EQ PUSH2 0xFA JUMPI DUP1 PUSH4 0x4F13C5A7 EQ PUSH2 0x104 JUMPI DUP1 PUSH4 0x715018A6 EQ PUSH2 0x124 JUMPI DUP1 PUSH4 0x8DA5CB5B EQ PUSH2 0x12C JUMPI DUP1 PUSH4 0xA0E04875 EQ PUSH2 0x147 JUMPI JUMPDEST PUSH1 0x0 DUP1 REVERT JUMPDEST PUSH2 0xE7 PUSH2 0xE2 CALLDATASIZE PUSH1 0x4 PUSH2 0x11ED JUMP JUMPDEST PUSH2 0x1E1 JUMP JUMPDEST PUSH1 0x40 MLOAD SWAP1 DUP2 MSTORE PUSH1 0x20 ADD JUMPDEST PUSH1 0x40 MLOAD DUP1 SWAP2 SUB SWAP1 RETURN JUMPDEST PUSH2 0x102 PUSH2 0x220 JUMP JUMPDEST STOP JUMPDEST PUSH2 0x117 PUSH2 0x112 CALLDATASIZE PUSH1 0x4 PUSH2 0x1208 JUMP JUMPDEST PUSH2 0x282 JUMP JUMPDEST PUSH1 0x40 MLOAD PUSH2 0xF1 SWAP2 SWAP1 PUSH2 0x1295 JUMP JUMPDEST PUSH2 0x102 PUSH2 0x445 JUMP JUMPDEST PUSH1 0x33 SLOAD PUSH1 0x40 MLOAD PUSH1 0x1 PUSH1 0x1 PUSH1 0xA0 SHL SUB SWAP1 SWAP2 AND DUP2 MSTORE PUSH1 0x20 ADD PUSH2 0xF1 JUMP JUMPDEST PUSH2 0x15A PUSH2 0x155 CALLDATASIZE PUSH1 0x4 PUSH2 0x1208 JUMP JUMPDEST PUSH2 0x47B JUMP JUMPDEST PUSH1 0x40 MLOAD PUSH2 0xF1 SWAP2 SWAP1 PUSH2 0x1324 JUMP JUMPDEST PUSH2 0xE7 PUSH2 0x175 CALLDATASIZE PUSH1 0x4 PUSH2 0x1368 JUMP JUMPDEST PUSH2 0x56B JUMP JUMPDEST PUSH2 0xE7 PUSH2 0x188 CALLDATASIZE PUSH1 0x4 PUSH2 0x11ED JUMP JUMPDEST PUSH2 0x5D1 JUMP JUMPDEST PUSH2 0x102 PUSH2 0x19B CALLDATASIZE PUSH1 0x4 PUSH2 0x15BE JUMP JUMPDEST PUSH2 0x661 JUMP JUMPDEST PUSH2 0xE7 PUSH2 0x1AE CALLDATASIZE PUSH1 0x4 PUSH2 0x169F JUMP JUMPDEST PUSH2 0xB1E JUMP JUMPDEST PUSH2 0x102 PUSH2 0xCBF JUMP JUMPDEST PUSH2 0x102 PUSH2 0x1C9 CALLDATASIZE PUSH1 0x4 PUSH2 0x16CB JUMP JUMPDEST PUSH2 0xDA9 JUMP JUMPDEST PUSH2 0x102 PUSH2 0x1DC CALLDATASIZE PUSH1 0x4 PUSH2 0x11ED JUMP JUMPDEST PUSH2 0xE41 JUMP JUMPDEST PUSH1 0x0 PUSH1 0x67 PUSH1 0x0 DUP4 PUSH1 0x2 DUP2 GT ISZERO PUSH2 0x1F9 JUMPI PUSH2 0x1F9 PUSH2 0x1232 JUMP JUMPDEST PUSH1 0x2 DUP2 GT ISZERO PUSH2 0x20A JUMPI PUSH2 0x20A PUSH2 0x1232 JUMP JUMPDEST DUP2 MSTORE PUSH1 0x20 ADD SWAP1 DUP2 MSTORE PUSH1 0x20 ADD PUSH1 0x0 KECCAK256 SLOAD SWAP1 POP SWAP2 SWAP1 POP JUMP JUMPDEST PUSH1 0x33 SLOAD PUSH1 0x1 PUSH1 0x1 PUSH1 0xA0 SHL SUB AND CALLER EQ PUSH2 0x253 JUMPI PUSH1 0x40 MLOAD PUSH3 0x461BCD PUSH1 0xE5 SHL DUP2 MSTORE PUSH1 0x4 ADD PUSH2 0x24A SWAP1 PUSH2 0x16F4 JUMP JUMPDEST PUSH1 0x40 MLOAD DUP1 SWAP2 SUB SWAP1 REVERT JUMPDEST PUSH1 0x40 MLOAD CALLER SWAP1 SELFBALANCE DUP1 ISZERO PUSH2 0x8FC MUL SWAP2 PUSH1 0x0 DUP2 DUP2 DUP2 DUP6 DUP9 DUP9 CALL SWAP4 POP POP POP POP ISZERO DUP1 ISZERO PUSH2 0x27F JUMPI RETURNDATASIZE PUSH1 0x0 DUP1 RETURNDATACOPY RETURNDATASIZE PUSH1 0x0 REVERT JUMPDEST POP JUMP JUMPDEST PUSH2 0x2BD PUSH1 0x40 DUP1 MLOAD PUSH1 0xC0 DUP2 ADD SWAP1 SWAP2 MSTORE DUP1 PUSH1 0x0 DUP2 MSTORE PUSH1 0x0 PUSH1 0x20 DUP3 ADD DUP2 SWAP1 MSTORE PUSH1 0x40 SWAP1 SWAP2 ADD SWAP1 DUP2 MSTORE PUSH1 0x0 PUSH1 0x20 DUP3 ADD DUP2 SWAP1 MSTORE PUSH1 0x40 DUP3 ADD MSTORE PUSH1 0x60 SWAP1 DUP2 ADD MSTORE SWAP1 JUMP JUMPDEST PUSH1 0x0 PUSH1 0x68 PUSH1 0x0 DUP6 PUSH1 0x2 DUP2 GT ISZERO PUSH2 0x2D5 JUMPI PUSH2 0x2D5 PUSH2 0x1232 JUMP JUMPDEST PUSH1 0x2 DUP2 GT ISZERO PUSH2 0x2E6 JUMPI PUSH2 0x2E6 PUSH2 0x1232 JUMP JUMPDEST DUP2 MSTORE PUSH1 0x20 DUP1 DUP3 ADD SWAP3 SWAP1 SWAP3 MSTORE PUSH1 0x40 SWAP1 DUP2 ADD PUSH1 0x0 SWAP1 DUP2 KECCAK256 DUP7 DUP3 MSTORE SWAP1 SWAP3 MSTORE SWAP1 DUP2 SWAP1 KECCAK256 DUP2 MLOAD PUSH1 0xC0 DUP2 ADD SWAP1 SWAP3 MSTORE DUP1 SLOAD DUP3 SWAP1 PUSH1 0xFF AND PUSH1 0x2 DUP2 GT ISZERO PUSH2 0x326 JUMPI PUSH2 0x326 PUSH2 0x1232 JUMP JUMPDEST PUSH1 0x2 DUP2 GT ISZERO PUSH2 0x337 JUMPI PUSH2 0x337 PUSH2 0x1232 JUMP JUMPDEST DUP2 MSTORE DUP2 SLOAD PUSH2 0x100 DUP2 DIV PUSH2 0xFFFF AND PUSH1 0x20 DUP4 ADD MSTORE PUSH1 0x40 SWAP1 SWAP2 ADD SWAP1 PUSH4 0x1000000 SWAP1 DIV PUSH1 0xFF AND PUSH1 0x4 DUP2 GT ISZERO PUSH2 0x36A JUMPI PUSH2 0x36A PUSH2 0x1232 JUMP JUMPDEST PUSH1 0x4 DUP2 GT ISZERO PUSH2 0x37B JUMPI PUSH2 0x37B PUSH2 0x1232 JUMP JUMPDEST DUP2 MSTORE DUP2 SLOAD PUSH2 0xFFFF PUSH5 0x100000000 DUP3 DIV DUP2 AND PUSH1 0x20 DUP5 ADD MSTORE PUSH7 0x1000000000000 SWAP1 SWAP2 DIV AND PUSH1 0x40 DUP3 ADD MSTORE PUSH1 0x1 DUP3 ADD DUP1 SLOAD PUSH1 0x60 SWAP1 SWAP3 ADD SWAP2 PUSH2 0x3B7 SWAP1 PUSH2 0x1729 JUMP JUMPDEST DUP1 PUSH1 0x1F ADD PUSH1 0x20 DUP1 SWAP2 DIV MUL PUSH1 0x20 ADD PUSH1 0x40 MLOAD SWAP1 DUP2 ADD PUSH1 0x40 MSTORE DUP1 SWAP3 SWAP2 SWAP1 DUP2 DUP2 MSTORE PUSH1 0x20 ADD DUP3 DUP1 SLOAD PUSH2 0x3E3 SWAP1 PUSH2 0x1729 JUMP JUMPDEST DUP1 ISZERO PUSH2 0x430 JUMPI DUP1 PUSH1 0x1F LT PUSH2 0x405 JUMPI PUSH2 0x100 DUP1 DUP4 SLOAD DIV MUL DUP4 MSTORE SWAP2 PUSH1 0x20 ADD SWAP2 PUSH2 0x430 JUMP JUMPDEST DUP3 ADD SWAP2 SWAP1 PUSH1 0x0 MSTORE PUSH1 0x20 PUSH1 0x0 KECCAK256 SWAP1 JUMPDEST DUP2 SLOAD DUP2 MSTORE SWAP1 PUSH1 0x1 ADD SWAP1 PUSH1 0x20 ADD DUP1 DUP4 GT PUSH2 0x413 JUMPI DUP3 SWAP1 SUB PUSH1 0x1F AND DUP3 ADD SWAP2 JUMPDEST POP POP POP SWAP2 SWAP1 SWAP3 MSTORE POP SWAP2 SWAP4 POP POP POP POP JUMPDEST SWAP3 SWAP2 POP POP JUMP JUMPDEST PUSH1 0x33 SLOAD PUSH1 0x1 PUSH1 0x1 PUSH1 0xA0 SHL SUB AND CALLER EQ PUSH2 0x46F JUMPI PUSH1 0x40 MLOAD PUSH3 0x461BCD PUSH1 0xE5 SHL DUP2 MSTORE PUSH1 0x4 ADD PUSH2 0x24A SWAP1 PUSH2 0x16F4 JUMP JUMPDEST PUSH2 0x479 PUSH1 0x0 PUSH2 0xF4E JUMP JUMPDEST JUMP JUMPDEST PUSH1 0x60 PUSH1 0x0 PUSH1 0x69 PUSH1 0x0 DUP6 PUSH1 0x2 DUP2 GT ISZERO PUSH2 0x495 JUMPI PUSH2 0x495 PUSH2 0x1232 JUMP JUMPDEST PUSH1 0x2 DUP2 GT ISZERO PUSH2 0x4A6 JUMPI PUSH2 0x4A6 PUSH2 0x1232 JUMP JUMPDEST DUP2 MSTORE PUSH1 0x20 ADD SWAP1 DUP2 MSTORE PUSH1 0x20 ADD PUSH1 0x0 KECCAK256 PUSH1 0x0 DUP5 DUP2 MSTORE PUSH1 0x20 ADD SWAP1 DUP2 MSTORE PUSH1 0x20 ADD PUSH1 0x0 KECCAK256 SWAP1 POP PUSH1 0x0 PUSH2 0x4D2 DUP3 PUSH2 0xFA0 JUMP JUMPDEST PUSH8 0xFFFFFFFFFFFFFFFF DUP2 GT ISZERO PUSH2 0x4EA JUMPI PUSH2 0x4EA PUSH2 0x138A JUMP JUMPDEST PUSH1 0x40 MLOAD SWAP1 DUP1 DUP3 MSTORE DUP1 PUSH1 0x20 MUL PUSH1 0x20 ADD DUP3 ADD PUSH1 0x40 MSTORE DUP1 ISZERO PUSH2 0x513 JUMPI DUP2 PUSH1 0x20 ADD PUSH1 0x20 DUP3 MUL DUP1 CALLDATASIZE DUP4 CALLDATACOPY ADD SWAP1 POP JUMPDEST POP SWAP1 POP PUSH1 0x0 JUMPDEST PUSH2 0x522 DUP4 PUSH2 0xFA0 JUMP JUMPDEST DUP2 LT ISZERO PUSH2 0x562 JUMPI PUSH2 0x533 DUP4 DUP3 PUSH2 0xFAA JUMP JUMPDEST DUP3 DUP3 DUP2 MLOAD DUP2 LT PUSH2 0x545 JUMPI PUSH2 0x545 PUSH2 0x1763 JUMP JUMPDEST PUSH1 0x20 SWAP1 DUP2 MUL SWAP2 SWAP1 SWAP2 ADD ADD MSTORE DUP1 PUSH2 0x55A DUP2 PUSH2 0x178F JUMP JUMPDEST SWAP2 POP POP PUSH2 0x519 JUMP JUMPDEST POP SWAP5 SWAP4 POP POP POP POP JUMP JUMPDEST PUSH1 0x40 MLOAD PUSH12 0xFFFFFFFFFFFFFFFFFFFFFFFF NOT CALLER PUSH1 0x60 SHL AND PUSH1 0x20 DUP3 ADD MSTORE PUSH1 0x34 DUP2 ADD DUP3 SWAP1 MSTORE PUSH1 0x54 DUP2 ADD DUP4 SWAP1 MSTORE PUSH1 0x0 SWAP1 DUP4 SWAP1 PUSH1 0x74 ADD PUSH1 0x40 MLOAD PUSH1 0x20 DUP2 DUP4 SUB SUB DUP2 MSTORE SWAP1 PUSH1 0x40 MSTORE DUP1 MLOAD SWAP1 PUSH1 0x20 ADD KECCAK256 PUSH1 0x0 SHR PUSH2 0x5BF SWAP2 SWAP1 PUSH2 0x17A8 JUMP JUMPDEST PUSH2 0x5CA SWAP1 PUSH1 0x1 PUSH2 0x17CA JUMP JUMPDEST SWAP4 SWAP3 POP POP POP JUMP JUMPDEST PUSH1 0x0 DUP1 PUSH1 0x65 PUSH1 0x0 DUP5 PUSH1 0x2 DUP2 GT ISZERO PUSH2 0x5EA JUMPI PUSH2 0x5EA PUSH2 0x1232 JUMP JUMPDEST PUSH1 0x2 DUP2 GT ISZERO PUSH2 0x5FB JUMPI PUSH2 0x5FB PUSH2 0x1232 JUMP JUMPDEST DUP2 MSTORE PUSH1 0x20 ADD SWAP1 DUP2 MSTORE PUSH1 0x20 ADD PUSH1 0x0 KECCAK256 DUP1 SLOAD DUP1 PUSH1 0x20 MUL PUSH1 0x20 ADD PUSH1 0x40 MLOAD SWAP1 DUP2 ADD PUSH1 0x40 MSTORE DUP1 SWAP3 SWAP2 SWAP1 DUP2 DUP2 MSTORE PUSH1 0x20 ADD DUP3 DUP1 SLOAD DUP1 ISZERO PUSH2 0x653 JUMPI PUSH1 0x20 MUL DUP3 ADD SWAP2 SWAP1 PUSH1 0x0 MSTORE PUSH1 0x20 PUSH1 0x0 KECCAK256 SWAP1 JUMPDEST DUP2 SLOAD DUP2 MSTORE PUSH1 0x20 ADD SWAP1 PUSH1 0x1 ADD SWAP1 DUP1 DUP4 GT PUSH2 0x63F JUMPI JUMPDEST POP POP SWAP3 MLOAD SWAP7 SWAP6 POP POP POP POP POP POP JUMP JUMPDEST PUSH1 0x33 SLOAD PUSH1 0x1 PUSH1 0x1 PUSH1 0xA0 SHL SUB AND CALLER EQ PUSH2 0x68B JUMPI PUSH1 0x40 MLOAD PUSH3 0x461BCD PUSH1 0xE5 SHL DUP2 MSTORE PUSH1 0x4 ADD PUSH2 0x24A SWAP1 PUSH2 0x16F4 JUMP JUMPDEST DUP4 MLOAD DUP6 MLOAD EQ DUP1 ISZERO PUSH2 0x69D JUMPI POP DUP3 MLOAD DUP5 MLOAD EQ JUMPDEST DUP1 ISZERO PUSH2 0x6AA JUMPI POP DUP2 MLOAD DUP4 MLOAD EQ JUMPDEST PUSH2 0x6E9 JUMPI PUSH1 0x40 MLOAD PUSH3 0x461BCD PUSH1 0xE5 SHL DUP2 MSTORE PUSH1 0x20 PUSH1 0x4 DUP3 ADD MSTORE PUSH1 0x10 PUSH1 0x24 DUP3 ADD MSTORE PUSH16 0x15985B1D595CC81B9BDD081D985B1A59 PUSH1 0x82 SHL PUSH1 0x44 DUP3 ADD MSTORE PUSH1 0x64 ADD PUSH2 0x24A JUMP JUMPDEST PUSH1 0x65 PUSH1 0x0 DUP8 PUSH1 0x2 DUP2 GT ISZERO PUSH2 0x6FF JUMPI PUSH2 0x6FF PUSH2 0x1232 JUMP JUMPDEST PUSH1 0x2 DUP2 GT ISZERO PUSH2 0x710 JUMPI PUSH2 0x710 PUSH2 0x1232 JUMP JUMPDEST DUP2 MSTORE PUSH1 0x20 ADD SWAP1 DUP2 MSTORE PUSH1 0x20 ADD PUSH1 0x0 KECCAK256 PUSH1 0x0 PUSH2 0x72A SWAP2 SWAP1 PUSH2 0x1127 JUMP JUMPDEST PUSH1 0x0 PUSH1 0x67 PUSH1 0x0 DUP9 PUSH1 0x2 DUP2 GT ISZERO PUSH2 0x742 JUMPI PUSH2 0x742 PUSH2 0x1232 JUMP JUMPDEST PUSH1 0x2 DUP2 GT ISZERO PUSH2 0x753 JUMPI PUSH2 0x753 PUSH2 0x1232 JUMP JUMPDEST DUP2 MSTORE PUSH1 0x20 DUP2 ADD SWAP2 SWAP1 SWAP2 MSTORE PUSH1 0x40 ADD PUSH1 0x0 KECCAK256 SLOAD SWAP1 POP PUSH1 0x1 JUMPDEST DUP2 DUP2 GT PUSH2 0x7D8 JUMPI PUSH1 0x69 PUSH1 0x0 DUP10 PUSH1 0x2 DUP2 GT ISZERO PUSH2 0x786 JUMPI PUSH2 0x786 PUSH2 0x1232 JUMP JUMPDEST PUSH1 0x2 DUP2 GT ISZERO PUSH2 0x797 JUMPI PUSH2 0x797 PUSH2 0x1232 JUMP JUMPDEST DUP2 MSTORE PUSH1 0x20 DUP1 DUP3 ADD SWAP3 SWAP1 SWAP3 MSTORE PUSH1 0x40 SWAP1 DUP2 ADD PUSH1 0x0 SWAP1 DUP2 KECCAK256 DUP5 DUP3 MSTORE SWAP1 SWAP3 MSTORE DUP2 KECCAK256 SWAP1 DUP2 DUP2 PUSH2 0x7C1 DUP3 DUP3 PUSH2 0x1127 JUMP JUMPDEST POP POP POP POP DUP1 DUP1 PUSH2 0x7D0 SWAP1 PUSH2 0x178F JUMP JUMPDEST SWAP2 POP POP PUSH2 0x769 JUMP JUMPDEST POP PUSH1 0x0 JUMPDEST DUP7 MLOAD DUP2 LT ISZERO PUSH2 0xB0B JUMPI PUSH1 0x40 MLOAD DUP1 PUSH1 0xC0 ADD PUSH1 0x40 MSTORE DUP1 DUP10 PUSH1 0x2 DUP2 GT ISZERO PUSH2 0x802 JUMPI PUSH2 0x802 PUSH2 0x1232 JUMP JUMPDEST DUP2 MSTORE PUSH1 0x20 ADD DUP6 DUP4 DUP2 MLOAD DUP2 LT PUSH2 0x819 JUMPI PUSH2 0x819 PUSH2 0x1763 JUMP JUMPDEST PUSH1 0x20 MUL PUSH1 0x20 ADD ADD MLOAD PUSH2 0xFFFF AND DUP2 MSTORE PUSH1 0x20 ADD DUP8 DUP4 DUP2 MLOAD DUP2 LT PUSH2 0x83C JUMPI PUSH2 0x83C PUSH2 0x1763 JUMP JUMPDEST PUSH1 0x20 MUL PUSH1 0x20 ADD ADD MLOAD PUSH1 0x4 DUP2 GT ISZERO PUSH2 0x855 JUMPI PUSH2 0x855 PUSH2 0x1232 JUMP JUMPDEST DUP2 MSTORE PUSH1 0x20 ADD DUP7 DUP4 DUP2 MLOAD DUP2 LT PUSH2 0x86C JUMPI PUSH2 0x86C PUSH2 0x1763 JUMP JUMPDEST PUSH1 0x20 MUL PUSH1 0x20 ADD ADD MLOAD PUSH2 0xFFFF AND DUP2 MSTORE PUSH1 0x20 ADD DUP9 DUP4 DUP2 MLOAD DUP2 LT PUSH2 0x88F JUMPI PUSH2 0x88F PUSH2 0x1763 JUMP JUMPDEST PUSH1 0x20 MUL PUSH1 0x20 ADD ADD MLOAD PUSH2 0xFFFF AND DUP2 MSTORE PUSH1 0x20 ADD DUP5 DUP4 DUP2 MLOAD DUP2 LT PUSH2 0x8B2 JUMPI PUSH2 0x8B2 PUSH2 0x1763 JUMP JUMPDEST PUSH1 0x20 MUL PUSH1 0x20 ADD ADD MLOAD DUP2 MSTORE POP PUSH1 0x68 PUSH1 0x0 DUP11 PUSH1 0x2 DUP2 GT ISZERO PUSH2 0x8D3 JUMPI PUSH2 0x8D3 PUSH2 0x1232 JUMP JUMPDEST PUSH1 0x2 DUP2 GT ISZERO PUSH2 0x8E4 JUMPI PUSH2 0x8E4 PUSH2 0x1232 JUMP JUMPDEST DUP2 MSTORE PUSH1 0x20 ADD SWAP1 DUP2 MSTORE PUSH1 0x20 ADD PUSH1 0x0 KECCAK256 PUSH1 0x0 DUP10 DUP5 DUP2 MLOAD DUP2 LT PUSH2 0x906 JUMPI PUSH2 0x906 PUSH2 0x1763 JUMP JUMPDEST PUSH1 0x20 SWAP1 DUP2 MUL SWAP2 SWAP1 SWAP2 ADD DUP2 ADD MLOAD PUSH2 0xFFFF AND DUP3 MSTORE DUP2 ADD SWAP2 SWAP1 SWAP2 MSTORE PUSH1 0x40 ADD PUSH1 0x0 KECCAK256 DUP2 MLOAD DUP2 SLOAD DUP3 SWAP1 PUSH1 0xFF NOT AND PUSH1 0x1 DUP4 PUSH1 0x2 DUP2 GT ISZERO PUSH2 0x942 JUMPI PUSH2 0x942 PUSH2 0x1232 JUMP JUMPDEST MUL OR SWAP1 SSTORE POP PUSH1 0x20 DUP3 ADD MLOAD DUP2 SLOAD PUSH2 0xFFFF SWAP1 SWAP2 AND PUSH2 0x100 MUL PUSH3 0xFFFF00 NOT DUP3 AND DUP2 OR DUP4 SSTORE PUSH1 0x40 DUP5 ADD MLOAD SWAP2 DUP4 SWAP2 PUSH4 0xFF000000 NOT AND PUSH4 0xFFFFFF00 NOT SWAP1 SWAP2 AND OR PUSH4 0x1000000 DUP4 PUSH1 0x4 DUP2 GT ISZERO PUSH2 0x993 JUMPI PUSH2 0x993 PUSH2 0x1232 JUMP JUMPDEST MUL OR SWAP1 SSTORE POP PUSH1 0x60 DUP3 ADD MLOAD DUP2 SLOAD PUSH1 0x80 DUP5 ADD MLOAD PUSH2 0xFFFF SWAP1 DUP2 AND PUSH7 0x1000000000000 MUL PUSH8 0xFFFF000000000000 NOT SWAP2 SWAP1 SWAP4 AND PUSH5 0x100000000 MUL AND PUSH8 0xFFFFFFFF00000000 NOT SWAP1 SWAP2 AND OR OR DUP2 SSTORE PUSH1 0xA0 DUP3 ADD MLOAD DUP1 MLOAD PUSH2 0x9F5 SWAP2 PUSH1 0x1 DUP5 ADD SWAP2 PUSH1 0x20 SWAP1 SWAP2 ADD SWAP1 PUSH2 0x1145 JUMP JUMPDEST POP SWAP1 POP POP PUSH2 0xA8B DUP8 DUP3 DUP2 MLOAD DUP2 LT PUSH2 0xA0E JUMPI PUSH2 0xA0E PUSH2 0x1763 JUMP JUMPDEST PUSH1 0x20 MUL PUSH1 0x20 ADD ADD MLOAD PUSH2 0xFFFF AND PUSH1 0x69 PUSH1 0x0 DUP12 PUSH1 0x2 DUP2 GT ISZERO PUSH2 0xA30 JUMPI PUSH2 0xA30 PUSH2 0x1232 JUMP JUMPDEST PUSH1 0x2 DUP2 GT ISZERO PUSH2 0xA41 JUMPI PUSH2 0xA41 PUSH2 0x1232 JUMP JUMPDEST DUP2 MSTORE PUSH1 0x20 ADD SWAP1 DUP2 MSTORE PUSH1 0x20 ADD PUSH1 0x0 KECCAK256 PUSH1 0x0 DUP9 DUP6 DUP2 MLOAD DUP2 LT PUSH2 0xA63 JUMPI PUSH2 0xA63 PUSH2 0x1763 JUMP JUMPDEST PUSH1 0x20 MUL PUSH1 0x20 ADD ADD MLOAD PUSH2 0xFFFF AND DUP2 MSTORE PUSH1 0x20 ADD SWAP1 DUP2 MSTORE PUSH1 0x20 ADD PUSH1 0x0 KECCAK256 PUSH2 0xFB6 SWAP1 SWAP2 SWAP1 PUSH4 0xFFFFFFFF AND JUMP JUMPDEST POP PUSH1 0x65 PUSH1 0x0 DUP10 PUSH1 0x2 DUP2 GT ISZERO PUSH2 0xAA2 JUMPI PUSH2 0xAA2 PUSH2 0x1232 JUMP JUMPDEST PUSH1 0x2 DUP2 GT ISZERO PUSH2 0xAB3 JUMPI PUSH2 0xAB3 PUSH2 0x1232 JUMP JUMPDEST DUP2 MSTORE PUSH1 0x20 ADD SWAP1 DUP2 MSTORE PUSH1 0x20 ADD PUSH1 0x0 KECCAK256 DUP5 DUP3 DUP2 MLOAD DUP2 LT PUSH2 0xAD3 JUMPI PUSH2 0xAD3 PUSH2 0x1763 JUMP JUMPDEST PUSH1 0x20 SWAP1 DUP2 MUL SWAP2 SWAP1 SWAP2 ADD DUP2 ADD MLOAD DUP3 SLOAD PUSH1 0x1 DUP2 ADD DUP5 SSTORE PUSH1 0x0 SWAP4 DUP5 MSTORE SWAP2 SWAP1 SWAP3 KECCAK256 PUSH2 0xFFFF SWAP1 SWAP3 AND SWAP2 ADD SSTORE DUP1 PUSH2 0xB03 DUP2 PUSH2 0x178F JUMP JUMPDEST SWAP2 POP POP PUSH2 0x7DC JUMP JUMPDEST POP PUSH2 0xB15 DUP8 PUSH2 0xE41 JUMP JUMPDEST POP POP POP POP POP POP POP JUMP JUMPDEST PUSH1 0x0 DUP1 PUSH1 0x66 PUSH1 0x0 DUP5 PUSH1 0x2 DUP2 GT ISZERO PUSH2 0xB37 JUMPI PUSH2 0xB37 PUSH2 0x1232 JUMP JUMPDEST PUSH1 0x2 DUP2 GT ISZERO PUSH2 0xB48 JUMPI PUSH2 0xB48 PUSH2 0x1232 JUMP JUMPDEST DUP2 MSTORE PUSH1 0x20 ADD SWAP1 DUP2 MSTORE PUSH1 0x20 ADD PUSH1 0x0 KECCAK256 SLOAD SWAP1 POP PUSH1 0x0 PUSH1 0x65 PUSH1 0x0 DUP6 PUSH1 0x2 DUP2 GT ISZERO PUSH2 0xB71 JUMPI PUSH2 0xB71 PUSH2 0x1232 JUMP JUMPDEST PUSH1 0x2 DUP2 GT ISZERO PUSH2 0xB82 JUMPI PUSH2 0xB82 PUSH2 0x1232 JUMP JUMPDEST DUP2 MSTORE PUSH1 0x20 ADD SWAP1 DUP2 MSTORE PUSH1 0x20 ADD PUSH1 0x0 KECCAK256 DUP1 SLOAD DUP1 PUSH1 0x20 MUL PUSH1 0x20 ADD PUSH1 0x40 MLOAD SWAP1 DUP2 ADD PUSH1 0x40 MSTORE DUP1 SWAP3 SWAP2 SWAP1 DUP2 DUP2 MSTORE PUSH1 0x20 ADD DUP3 DUP1 SLOAD DUP1 ISZERO PUSH2 0xBDA JUMPI PUSH1 0x20 MUL DUP3 ADD SWAP2 SWAP1 PUSH1 0x0 MSTORE PUSH1 0x20 PUSH1 0x0 KECCAK256 SWAP1 JUMPDEST DUP2 SLOAD DUP2 MSTORE PUSH1 0x20 ADD SWAP1 PUSH1 0x1 ADD SWAP1 DUP1 DUP4 GT PUSH2 0xBC6 JUMPI JUMPDEST POP POP POP POP POP SWAP1 POP DUP2 PUSH1 0x0 SUB PUSH2 0xC31 JUMPI PUSH1 0x40 MLOAD PUSH3 0x461BCD PUSH1 0xE5 SHL DUP2 MSTORE PUSH1 0x20 PUSH1 0x4 DUP3 ADD MSTORE PUSH1 0x1A PUSH1 0x24 DUP3 ADD MSTORE PUSH32 0x4D6178206861736E2774206265656E2063616C63756C61746564000000000000 PUSH1 0x44 DUP3 ADD MSTORE PUSH1 0x64 ADD PUSH2 0x24A JUMP JUMPDEST PUSH1 0x0 PUSH2 0xC53 DUP4 DUP7 PUSH1 0x2 DUP2 GT ISZERO PUSH2 0xC49 JUMPI PUSH2 0xC49 PUSH2 0x1232 JUMP JUMPDEST PUSH2 0x175 SWAP1 DUP10 PUSH2 0x17CA JUMP JUMPDEST SWAP1 POP PUSH1 0x0 DUP1 PUSH1 0x0 PUSH1 0x1 DUP6 MLOAD PUSH2 0xC68 SWAP2 SWAP1 PUSH2 0x17E2 JUMP JUMPDEST SWAP1 POP JUMPDEST DUP5 DUP2 DUP2 MLOAD DUP2 LT PUSH2 0xC7D JUMPI PUSH2 0xC7D PUSH2 0x1763 JUMP JUMPDEST PUSH1 0x20 MUL PUSH1 0x20 ADD ADD MLOAD DUP4 PUSH2 0xC90 SWAP2 SWAP1 PUSH2 0x17CA JUMP JUMPDEST SWAP3 POP DUP3 DUP5 GT PUSH2 0xCA1 JUMPI DUP1 SWAP2 POP PUSH2 0xCB3 JUMP JUMPDEST DUP1 PUSH2 0xCAB DUP2 PUSH2 0x17F9 JUMP JUMPDEST SWAP2 POP POP PUSH2 0xC6B JUMP JUMPDEST POP SWAP8 SWAP7 POP POP POP POP POP POP POP JUMP JUMPDEST PUSH1 0x0 PUSH2 0xCCB PUSH1 0x1 PUSH2 0xFC2 JUMP JUMPDEST SWAP1 POP DUP1 ISZERO PUSH2 0xCE3 JUMPI PUSH1 0x0 DUP1 SLOAD PUSH2 0xFF00 NOT AND PUSH2 0x100 OR SWAP1 SSTORE JUMPDEST PUSH2 0xCEB PUSH2 0x104F JUMP JUMPDEST PUSH1 0x67 PUSH1 0x20 MSTORE PUSH1 0x5 PUSH32 0xD4E1AC8B62C3FF1E2C1B7113742533B8310CE5AB8A8767EAD9BA8B250C7E3CC9 DUP2 SWAP1 SSTORE PUSH32 0x6BEE784EFEB983674392298AB585B22866BEDF00EBB0EEA949D1E66F3F50E71D DUP2 SWAP1 SSTORE PUSH1 0x2 PUSH1 0x0 MSTORE PUSH32 0x34A128FF2438BCCB68124DE780EA45BE60ACA78C6FB6CE114324EE2DD88C546D SSTORE DUP1 ISZERO PUSH2 0x27F JUMPI PUSH1 0x0 DUP1 SLOAD PUSH2 0xFF00 NOT AND SWAP1 SSTORE PUSH1 0x40 MLOAD PUSH1 0x1 DUP2 MSTORE PUSH32 0x7F26B83FF96E1F2B6A682F133852F6798A09C465DA95921460CEFB3847402498 SWAP1 PUSH1 0x20 ADD PUSH1 0x40 MLOAD DUP1 SWAP2 SUB SWAP1 LOG1 POP JUMP JUMPDEST PUSH1 0x33 SLOAD PUSH1 0x1 PUSH1 0x1 PUSH1 0xA0 SHL SUB AND CALLER EQ PUSH2 0xDD3 JUMPI PUSH1 0x40 MLOAD PUSH3 0x461BCD PUSH1 0xE5 SHL DUP2 MSTORE PUSH1 0x4 ADD PUSH2 0x24A SWAP1 PUSH2 0x16F4 JUMP JUMPDEST PUSH1 0x1 PUSH1 0x1 PUSH1 0xA0 SHL SUB DUP2 AND PUSH2 0xE38 JUMPI PUSH1 0x40 MLOAD PUSH3 0x461BCD PUSH1 0xE5 SHL DUP2 MSTORE PUSH1 0x20 PUSH1 0x4 DUP3 ADD MSTORE PUSH1 0x26 PUSH1 0x24 DUP3 ADD MSTORE PUSH32 0x4F776E61626C653A206E6577206F776E657220697320746865207A65726F2061 PUSH1 0x44 DUP3 ADD MSTORE PUSH6 0x646472657373 PUSH1 0xD0 SHL PUSH1 0x64 DUP3 ADD MSTORE PUSH1 0x84 ADD PUSH2 0x24A JUMP JUMPDEST PUSH2 0x27F DUP2 PUSH2 0xF4E JUMP JUMPDEST PUSH1 0x0 PUSH1 0x65 PUSH1 0x0 DUP4 PUSH1 0x2 DUP2 GT ISZERO PUSH2 0xE59 JUMPI PUSH2 0xE59 PUSH2 0x1232 JUMP JUMPDEST PUSH1 0x2 DUP2 GT ISZERO PUSH2 0xE6A JUMPI PUSH2 0xE6A PUSH2 0x1232 JUMP JUMPDEST DUP2 MSTORE PUSH1 0x20 ADD SWAP1 DUP2 MSTORE PUSH1 0x20 ADD PUSH1 0x0 KECCAK256 DUP1 SLOAD DUP1 PUSH1 0x20 MUL PUSH1 0x20 ADD PUSH1 0x40 MLOAD SWAP1 DUP2 ADD PUSH1 0x40 MSTORE DUP1 SWAP3 SWAP2 SWAP1 DUP2 DUP2 MSTORE PUSH1 0x20 ADD DUP3 DUP1 SLOAD DUP1 ISZERO PUSH2 0xEC2 JUMPI PUSH1 0x20 MUL DUP3 ADD SWAP2 SWAP1 PUSH1 0x0 MSTORE PUSH1 0x20 PUSH1 0x0 KECCAK256 SWAP1 JUMPDEST DUP2 SLOAD DUP2 MSTORE PUSH1 0x20 ADD SWAP1 PUSH1 0x1 ADD SWAP1 DUP1 DUP4 GT PUSH2 0xEAE JUMPI JUMPDEST POP POP POP POP POP SWAP1 POP PUSH1 0x0 DUP1 JUMPDEST DUP3 MLOAD DUP2 LT ISZERO PUSH2 0xF0F JUMPI DUP3 DUP2 DUP2 MLOAD DUP2 LT PUSH2 0xEE8 JUMPI PUSH2 0xEE8 PUSH2 0x1763 JUMP JUMPDEST PUSH1 0x20 MUL PUSH1 0x20 ADD ADD MLOAD DUP3 PUSH2 0xEFB SWAP2 SWAP1 PUSH2 0x17CA JUMP JUMPDEST SWAP2 POP DUP1 PUSH2 0xF07 DUP2 PUSH2 0x178F JUMP JUMPDEST SWAP2 POP POP PUSH2 0xECD JUMP JUMPDEST POP DUP1 PUSH1 0x66 PUSH1 0x0 DUP6 PUSH1 0x2 DUP2 GT ISZERO PUSH2 0xF27 JUMPI PUSH2 0xF27 PUSH2 0x1232 JUMP JUMPDEST PUSH1 0x2 DUP2 GT ISZERO PUSH2 0xF38 JUMPI PUSH2 0xF38 PUSH2 0x1232 JUMP JUMPDEST DUP2 MSTORE PUSH1 0x20 DUP2 ADD SWAP2 SWAP1 SWAP2 MSTORE PUSH1 0x40 ADD PUSH1 0x0 KECCAK256 SSTORE POP POP POP JUMP JUMPDEST PUSH1 0x33 DUP1 SLOAD PUSH1 0x1 PUSH1 0x1 PUSH1 0xA0 SHL SUB DUP4 DUP2 AND PUSH1 0x1 PUSH1 0x1 PUSH1 0xA0 SHL SUB NOT DUP4 AND DUP2 OR SWAP1 SWAP4 SSTORE PUSH1 0x40 MLOAD SWAP2 AND SWAP2 SWAP1 DUP3 SWAP1 PUSH32 0x8BE0079C531659141344CD1FD0A4F28419497F9722A3DAAFE3B4186F6B6457E0 SWAP1 PUSH1 0x0 SWAP1 LOG3 POP POP JUMP JUMPDEST PUSH1 0x0 PUSH2 0x43F DUP3 SLOAD SWAP1 JUMP JUMPDEST PUSH1 0x0 PUSH2 0x5CA DUP4 DUP4 PUSH2 0x107E JUMP JUMPDEST PUSH1 0x0 PUSH2 0x5CA DUP4 DUP4 PUSH2 0x10A8 JUMP JUMPDEST PUSH1 0x0 DUP1 SLOAD PUSH2 0x100 SWAP1 DIV PUSH1 0xFF AND ISZERO PUSH2 0x1009 JUMPI DUP2 PUSH1 0xFF AND PUSH1 0x1 EQ DUP1 ISZERO PUSH2 0xFE5 JUMPI POP ADDRESS EXTCODESIZE ISZERO JUMPDEST PUSH2 0x1001 JUMPI PUSH1 0x40 MLOAD PUSH3 0x461BCD PUSH1 0xE5 SHL DUP2 MSTORE PUSH1 0x4 ADD PUSH2 0x24A SWAP1 PUSH2 0x1810 JUMP JUMPDEST POP PUSH1 0x0 SWAP2 SWAP1 POP JUMP JUMPDEST PUSH1 0x0 SLOAD PUSH1 0xFF DUP1 DUP5 AND SWAP2 AND LT PUSH2 0x1030 JUMPI PUSH1 0x40 MLOAD PUSH3 0x461BCD PUSH1 0xE5 SHL DUP2 MSTORE PUSH1 0x4 ADD PUSH2 0x24A SWAP1 PUSH2 0x1810 JUMP JUMPDEST POP PUSH1 0x0 DUP1 SLOAD PUSH1 0xFF NOT AND PUSH1 0xFF SWAP3 SWAP1 SWAP3 AND SWAP2 SWAP1 SWAP2 OR SWAP1 SSTORE PUSH1 0x1 SWAP1 JUMP JUMPDEST SWAP2 SWAP1 POP JUMP JUMPDEST PUSH1 0x0 SLOAD PUSH2 0x100 SWAP1 DIV PUSH1 0xFF AND PUSH2 0x1076 JUMPI PUSH1 0x40 MLOAD PUSH3 0x461BCD PUSH1 0xE5 SHL DUP2 MSTORE PUSH1 0x4 ADD PUSH2 0x24A SWAP1 PUSH2 0x185E JUMP JUMPDEST PUSH2 0x479 PUSH2 0x10F7 JUMP JUMPDEST PUSH1 0x0 DUP3 PUSH1 0x0 ADD DUP3 DUP2 SLOAD DUP2 LT PUSH2 0x1095 JUMPI PUSH2 0x1095 PUSH2 0x1763 JUMP JUMPDEST SWAP1 PUSH1 0x0 MSTORE PUSH1 0x20 PUSH1 0x0 KECCAK256 ADD SLOAD SWAP1 POP SWAP3 SWAP2 POP POP JUMP JUMPDEST PUSH1 0x0 DUP2 DUP2 MSTORE PUSH1 0x1 DUP4 ADD PUSH1 0x20 MSTORE PUSH1 0x40 DUP2 KECCAK256 SLOAD PUSH2 0x10EF JUMPI POP DUP2 SLOAD PUSH1 0x1 DUP2 DUP2 ADD DUP5 SSTORE PUSH1 0x0 DUP5 DUP2 MSTORE PUSH1 0x20 DUP1 DUP3 KECCAK256 SWAP1 SWAP4 ADD DUP5 SWAP1 SSTORE DUP5 SLOAD DUP5 DUP3 MSTORE DUP3 DUP7 ADD SWAP1 SWAP4 MSTORE PUSH1 0x40 SWAP1 KECCAK256 SWAP2 SWAP1 SWAP2 SSTORE PUSH2 0x43F JUMP JUMPDEST POP PUSH1 0x0 PUSH2 0x43F JUMP JUMPDEST PUSH1 0x0 SLOAD PUSH2 0x100 SWAP1 DIV PUSH1 0xFF AND PUSH2 0x111E JUMPI PUSH1 0x40 MLOAD PUSH3 0x461BCD PUSH1 0xE5 SHL DUP2 MSTORE PUSH1 0x4 ADD PUSH2 0x24A SWAP1 PUSH2 0x185E JUMP JUMPDEST PUSH2 0x479 CALLER PUSH2 0xF4E JUMP JUMPDEST POP DUP1 SLOAD PUSH1 0x0 DUP3 SSTORE SWAP1 PUSH1 0x0 MSTORE PUSH1 0x20 PUSH1 0x0 KECCAK256 SWAP1 DUP2 ADD SWAP1 PUSH2 0x27F SWAP2 SWAP1 PUSH2 0x11C9 JUMP JUMPDEST DUP3 DUP1 SLOAD PUSH2 0x1151 SWAP1 PUSH2 0x1729 JUMP JUMPDEST SWAP1 PUSH1 0x0 MSTORE PUSH1 0x20 PUSH1 0x0 KECCAK256 SWAP1 PUSH1 0x1F ADD PUSH1 0x20 SWAP1 DIV DUP2 ADD SWAP3 DUP3 PUSH2 0x1173 JUMPI PUSH1 0x0 DUP6 SSTORE PUSH2 0x11B9 JUMP JUMPDEST DUP3 PUSH1 0x1F LT PUSH2 0x118C JUMPI DUP1 MLOAD PUSH1 0xFF NOT AND DUP4 DUP1 ADD OR DUP6 SSTORE PUSH2 0x11B9 JUMP JUMPDEST DUP3 DUP1 ADD PUSH1 0x1 ADD DUP6 SSTORE DUP3 ISZERO PUSH2 0x11B9 JUMPI SWAP2 DUP3 ADD JUMPDEST DUP3 DUP2 GT ISZERO PUSH2 0x11B9 JUMPI DUP3 MLOAD DUP3 SSTORE SWAP2 PUSH1 0x20 ADD SWAP2 SWAP1 PUSH1 0x1 ADD SWAP1 PUSH2 0x119E JUMP JUMPDEST POP PUSH2 0x11C5 SWAP3 SWAP2 POP PUSH2 0x11C9 JUMP JUMPDEST POP SWAP1 JUMP JUMPDEST JUMPDEST DUP1 DUP3 GT ISZERO PUSH2 0x11C5 JUMPI PUSH1 0x0 DUP2 SSTORE PUSH1 0x1 ADD PUSH2 0x11CA JUMP JUMPDEST DUP1 CALLDATALOAD PUSH1 0x3 DUP2 LT PUSH2 0x104A JUMPI PUSH1 0x0 DUP1 REVERT JUMPDEST PUSH1 0x0 PUSH1 0x20 DUP3 DUP5 SUB SLT ISZERO PUSH2 0x11FF JUMPI PUSH1 0x0 DUP1 REVERT JUMPDEST PUSH2 0x5CA DUP3 PUSH2 0x11DE JUMP JUMPDEST PUSH1 0x0 DUP1 PUSH1 0x40 DUP4 DUP6 SUB SLT ISZERO PUSH2 0x121B JUMPI PUSH1 0x0 DUP1 REVERT JUMPDEST PUSH2 0x1224 DUP4 PUSH2 0x11DE JUMP JUMPDEST SWAP5 PUSH1 0x20 SWAP4 SWAP1 SWAP4 ADD CALLDATALOAD SWAP4 POP POP POP JUMP JUMPDEST PUSH4 0x4E487B71 PUSH1 0xE0 SHL PUSH1 0x0 MSTORE PUSH1 0x21 PUSH1 0x4 MSTORE PUSH1 0x24 PUSH1 0x0 REVERT JUMPDEST PUSH1 0x0 DUP2 MLOAD DUP1 DUP5 MSTORE PUSH1 0x0 JUMPDEST DUP2 DUP2 LT ISZERO PUSH2 0x126E JUMPI PUSH1 0x20 DUP2 DUP6 ADD DUP2 ADD MLOAD DUP7 DUP4 ADD DUP3 ADD MSTORE ADD PUSH2 0x1252 JUMP JUMPDEST DUP2 DUP2 GT ISZERO PUSH2 0x1280 JUMPI PUSH1 0x0 PUSH1 0x20 DUP4 DUP8 ADD ADD MSTORE JUMPDEST POP PUSH1 0x1F ADD PUSH1 0x1F NOT AND SWAP3 SWAP1 SWAP3 ADD PUSH1 0x20 ADD SWAP3 SWAP2 POP POP JUMP JUMPDEST PUSH1 0x20 DUP2 MSTORE PUSH1 0x0 DUP3 MLOAD PUSH1 0x3 DUP2 LT PUSH2 0x12AD JUMPI PUSH2 0x12AD PUSH2 0x1232 JUMP JUMPDEST DUP1 PUSH1 0x20 DUP5 ADD MSTORE POP PUSH2 0xFFFF PUSH1 0x20 DUP5 ADD MLOAD AND PUSH1 0x40 DUP4 ADD MSTORE PUSH1 0x40 DUP4 ADD MLOAD PUSH1 0x5 DUP2 LT PUSH2 0x12D7 JUMPI PUSH2 0x12D7 PUSH2 0x1232 JUMP JUMPDEST DUP1 PUSH1 0x60 DUP5 ADD MSTORE POP PUSH1 0x60 DUP4 ADD MLOAD PUSH2 0x12F3 PUSH1 0x80 DUP5 ADD DUP3 PUSH2 0xFFFF AND SWAP1 MSTORE JUMP JUMPDEST POP PUSH1 0x80 DUP4 ADD MLOAD PUSH2 0xFFFF DUP2 AND PUSH1 0xA0 DUP5 ADD MSTORE POP PUSH1 0xA0 DUP4 ADD MLOAD PUSH1 0xC0 DUP1 DUP5 ADD MSTORE PUSH2 0x131C PUSH1 0xE0 DUP5 ADD DUP3 PUSH2 0x1248 JUMP JUMPDEST SWAP5 SWAP4 POP POP POP POP JUMP JUMPDEST PUSH1 0x20 DUP1 DUP3 MSTORE DUP3 MLOAD DUP3 DUP3 ADD DUP2 SWAP1 MSTORE PUSH1 0x0 SWAP2 SWAP1 DUP5 DUP3 ADD SWAP1 PUSH1 0x40 DUP6 ADD SWAP1 DUP5 JUMPDEST DUP2 DUP2 LT ISZERO PUSH2 0x135C JUMPI DUP4 MLOAD DUP4 MSTORE SWAP3 DUP5 ADD SWAP3 SWAP2 DUP5 ADD SWAP2 PUSH1 0x1 ADD PUSH2 0x1340 JUMP JUMPDEST POP SWAP1 SWAP7 SWAP6 POP POP POP POP POP POP JUMP JUMPDEST PUSH1 0x0 DUP1 PUSH1 0x40 DUP4 DUP6 SUB SLT ISZERO PUSH2 0x137B JUMPI PUSH1 0x0 DUP1 REVERT JUMPDEST POP POP DUP1 CALLDATALOAD SWAP3 PUSH1 0x20 SWAP1 SWAP2 ADD CALLDATALOAD SWAP2 POP JUMP JUMPDEST PUSH4 0x4E487B71 PUSH1 0xE0 SHL PUSH1 0x0 MSTORE PUSH1 0x41 PUSH1 0x4 MSTORE PUSH1 0x24 PUSH1 0x0 REVERT JUMPDEST PUSH1 0x40 MLOAD PUSH1 0x1F DUP3 ADD PUSH1 0x1F NOT AND DUP2 ADD PUSH8 0xFFFFFFFFFFFFFFFF DUP2 GT DUP3 DUP3 LT OR ISZERO PUSH2 0x13C9 JUMPI PUSH2 0x13C9 PUSH2 0x138A JUMP JUMPDEST PUSH1 0x40 MSTORE SWAP2 SWAP1 POP JUMP JUMPDEST PUSH1 0x0 PUSH8 0xFFFFFFFFFFFFFFFF DUP3 GT ISZERO PUSH2 0x13EB JUMPI PUSH2 0x13EB PUSH2 0x138A JUMP JUMPDEST POP PUSH1 0x5 SHL PUSH1 0x20 ADD SWAP1 JUMP JUMPDEST PUSH1 0x0 DUP3 PUSH1 0x1F DUP4 ADD SLT PUSH2 0x1406 JUMPI PUSH1 0x0 DUP1 REVERT JUMPDEST DUP2 CALLDATALOAD PUSH1 0x20 PUSH2 0x141B PUSH2 0x1416 DUP4 PUSH2 0x13D1 JUMP JUMPDEST PUSH2 0x13A0 JUMP JUMPDEST DUP3 DUP2 MSTORE PUSH1 0x5 SWAP3 SWAP1 SWAP3 SHL DUP5 ADD DUP2 ADD SWAP2 DUP2 DUP2 ADD SWAP1 DUP7 DUP5 GT ISZERO PUSH2 0x143A JUMPI PUSH1 0x0 DUP1 REVERT JUMPDEST DUP3 DUP7 ADD JUMPDEST DUP5 DUP2 LT ISZERO PUSH2 0x1466 JUMPI DUP1 CALLDATALOAD PUSH2 0xFFFF DUP2 AND DUP2 EQ PUSH2 0x1459 JUMPI PUSH1 0x0 DUP1 DUP2 REVERT JUMPDEST DUP4 MSTORE SWAP2 DUP4 ADD SWAP2 DUP4 ADD PUSH2 0x143E JUMP JUMPDEST POP SWAP7 SWAP6 POP POP POP POP POP POP JUMP JUMPDEST PUSH1 0x0 DUP3 PUSH1 0x1F DUP4 ADD SLT PUSH2 0x1482 JUMPI PUSH1 0x0 DUP1 REVERT JUMPDEST DUP2 CALLDATALOAD PUSH1 0x20 PUSH2 0x1492 PUSH2 0x1416 DUP4 PUSH2 0x13D1 JUMP JUMPDEST DUP3 DUP2 MSTORE PUSH1 0x5 SWAP3 DUP4 SHL DUP6 ADD DUP3 ADD SWAP3 DUP3 DUP3 ADD SWAP2 SWAP1 DUP8 DUP6 GT ISZERO PUSH2 0x14B1 JUMPI PUSH1 0x0 DUP1 REVERT JUMPDEST DUP4 DUP8 ADD JUMPDEST DUP6 DUP2 LT ISZERO PUSH2 0x14D9 JUMPI DUP1 CALLDATALOAD DUP3 DUP2 LT PUSH2 0x14CC JUMPI PUSH1 0x0 DUP1 DUP2 REVERT JUMPDEST DUP5 MSTORE SWAP3 DUP5 ADD SWAP3 DUP5 ADD PUSH2 0x14B5 JUMP JUMPDEST POP SWAP1 SWAP8 SWAP7 POP POP POP POP POP POP POP JUMP JUMPDEST PUSH1 0x0 PUSH1 0x1F DUP4 DUP2 DUP5 ADD SLT PUSH2 0x14F8 JUMPI PUSH1 0x0 DUP1 REVERT JUMPDEST DUP3 CALLDATALOAD PUSH1 0x20 PUSH2 0x1508 PUSH2 0x1416 DUP4 PUSH2 0x13D1 JUMP JUMPDEST DUP3 DUP2 MSTORE PUSH1 0x5 SWAP3 SWAP1 SWAP3 SHL DUP6 ADD DUP2 ADD SWAP2 DUP2 DUP2 ADD SWAP1 DUP8 DUP5 GT ISZERO PUSH2 0x1527 JUMPI PUSH1 0x0 DUP1 REVERT JUMPDEST DUP3 DUP8 ADD JUMPDEST DUP5 DUP2 LT ISZERO PUSH2 0xCB3 JUMPI DUP1 CALLDATALOAD PUSH8 0xFFFFFFFFFFFFFFFF DUP1 DUP3 GT ISZERO PUSH2 0x154C JUMPI PUSH1 0x0 DUP1 DUP2 REVERT JUMPDEST DUP2 DUP11 ADD SWAP2 POP DUP11 PUSH1 0x3F DUP4 ADD SLT PUSH2 0x1561 JUMPI PUSH1 0x0 DUP1 DUP2 REVERT JUMPDEST DUP6 DUP3 ADD CALLDATALOAD PUSH1 0x40 DUP3 DUP3 GT ISZERO PUSH2 0x1577 JUMPI PUSH2 0x1577 PUSH2 0x138A JUMP JUMPDEST PUSH2 0x1588 DUP3 DUP12 ADD PUSH1 0x1F NOT AND DUP10 ADD PUSH2 0x13A0 JUMP JUMPDEST SWAP3 POP DUP2 DUP4 MSTORE DUP13 DUP2 DUP4 DUP7 ADD ADD GT ISZERO PUSH2 0x159F JUMPI PUSH1 0x0 DUP1 DUP2 REVERT JUMPDEST DUP2 DUP2 DUP6 ADD DUP10 DUP6 ADD CALLDATACOPY POP PUSH1 0x0 SWAP1 DUP3 ADD DUP8 ADD MSTORE DUP5 MSTORE POP SWAP2 DUP4 ADD SWAP2 DUP4 ADD PUSH2 0x152B JUMP JUMPDEST PUSH1 0x0 DUP1 PUSH1 0x0 DUP1 PUSH1 0x0 DUP1 PUSH1 0xC0 DUP8 DUP10 SUB SLT ISZERO PUSH2 0x15D7 JUMPI PUSH1 0x0 DUP1 REVERT JUMPDEST PUSH2 0x15E0 DUP8 PUSH2 0x11DE JUMP JUMPDEST SWAP6 POP PUSH1 0x20 DUP8 ADD CALLDATALOAD PUSH8 0xFFFFFFFFFFFFFFFF DUP1 DUP3 GT ISZERO PUSH2 0x15FD JUMPI PUSH1 0x0 DUP1 REVERT JUMPDEST PUSH2 0x1609 DUP11 DUP4 DUP12 ADD PUSH2 0x13F5 JUMP JUMPDEST SWAP7 POP PUSH1 0x40 DUP10 ADD CALLDATALOAD SWAP2 POP DUP1 DUP3 GT ISZERO PUSH2 0x161F JUMPI PUSH1 0x0 DUP1 REVERT JUMPDEST PUSH2 0x162B DUP11 DUP4 DUP12 ADD PUSH2 0x1471 JUMP JUMPDEST SWAP6 POP PUSH1 0x60 DUP10 ADD CALLDATALOAD SWAP2 POP DUP1 DUP3 GT ISZERO PUSH2 0x1641 JUMPI PUSH1 0x0 DUP1 REVERT JUMPDEST PUSH2 0x164D DUP11 DUP4 DUP12 ADD PUSH2 0x13F5 JUMP JUMPDEST SWAP5 POP PUSH1 0x80 DUP10 ADD CALLDATALOAD SWAP2 POP DUP1 DUP3 GT ISZERO PUSH2 0x1663 JUMPI PUSH1 0x0 DUP1 REVERT JUMPDEST PUSH2 0x166F DUP11 DUP4 DUP12 ADD PUSH2 0x13F5 JUMP JUMPDEST SWAP4 POP PUSH1 0xA0 DUP10 ADD CALLDATALOAD SWAP2 POP DUP1 DUP3 GT ISZERO PUSH2 0x1685 JUMPI PUSH1 0x0 DUP1 REVERT JUMPDEST POP PUSH2 0x1692 DUP10 DUP3 DUP11 ADD PUSH2 0x14E6 JUMP JUMPDEST SWAP2 POP POP SWAP3 SWAP6 POP SWAP3 SWAP6 POP SWAP3 SWAP6 JUMP JUMPDEST PUSH1 0x0 DUP1 PUSH1 0x40 DUP4 DUP6 SUB SLT ISZERO PUSH2 0x16B2 JUMPI PUSH1 0x0 DUP1 REVERT JUMPDEST DUP3 CALLDATALOAD SWAP2 POP PUSH2 0x16C2 PUSH1 0x20 DUP5 ADD PUSH2 0x11DE JUMP JUMPDEST SWAP1 POP SWAP3 POP SWAP3 SWAP1 POP JUMP JUMPDEST PUSH1 0x0 PUSH1 0x20 DUP3 DUP5 SUB SLT ISZERO PUSH2 0x16DD JUMPI PUSH1 0x0 DUP1 REVERT JUMPDEST DUP2 CALLDATALOAD PUSH1 0x1 PUSH1 0x1 PUSH1 0xA0 SHL SUB DUP2 AND DUP2 EQ PUSH2 0x5CA JUMPI PUSH1 0x0 DUP1 REVERT JUMPDEST PUSH1 0x20 DUP1 DUP3 MSTORE DUP2 DUP2 ADD MSTORE PUSH32 0x4F776E61626C653A2063616C6C6572206973206E6F7420746865206F776E6572 PUSH1 0x40 DUP3 ADD MSTORE PUSH1 0x60 ADD SWAP1 JUMP JUMPDEST PUSH1 0x1 DUP2 DUP2 SHR SWAP1 DUP3 AND DUP1 PUSH2 0x173D JUMPI PUSH1 0x7F DUP3 AND SWAP2 POP JUMPDEST PUSH1 0x20 DUP3 LT DUP2 SUB PUSH2 0x175D JUMPI PUSH4 0x4E487B71 PUSH1 0xE0 SHL PUSH1 0x0 MSTORE PUSH1 0x22 PUSH1 0x4 MSTORE PUSH1 0x24 PUSH1 0x0 REVERT JUMPDEST POP SWAP2 SWAP1 POP JUMP JUMPDEST PUSH4 0x4E487B71 PUSH1 0xE0 SHL PUSH1 0x0 MSTORE PUSH1 0x32 PUSH1 0x4 MSTORE PUSH1 0x24 PUSH1 0x0 REVERT JUMPDEST PUSH4 0x4E487B71 PUSH1 0xE0 SHL PUSH1 0x0 MSTORE PUSH1 0x11 PUSH1 0x4 MSTORE PUSH1 0x24 PUSH1 0x0 REVERT JUMPDEST PUSH1 0x0 PUSH1 0x1 DUP3 ADD PUSH2 0x17A1 JUMPI PUSH2 0x17A1 PUSH2 0x1779 JUMP JUMPDEST POP PUSH1 0x1 ADD SWAP1 JUMP JUMPDEST PUSH1 0x0 DUP3 PUSH2 0x17C5 JUMPI PUSH4 0x4E487B71 PUSH1 0xE0 SHL PUSH1 0x0 MSTORE PUSH1 0x12 PUSH1 0x4 MSTORE PUSH1 0x24 PUSH1 0x0 REVERT JUMPDEST POP MOD SWAP1 JUMP JUMPDEST PUSH1 0x0 DUP3 NOT DUP3 GT ISZERO PUSH2 0x17DD JUMPI PUSH2 0x17DD PUSH2 0x1779 JUMP JUMPDEST POP ADD SWAP1 JUMP JUMPDEST PUSH1 0x0 DUP3 DUP3 LT ISZERO PUSH2 0x17F4 JUMPI PUSH2 0x17F4 PUSH2 0x1779 JUMP JUMPDEST POP SUB SWAP1 JUMP JUMPDEST PUSH1 0x0 DUP2 PUSH2 0x1808 JUMPI PUSH2 0x1808 PUSH2 0x1779 JUMP JUMPDEST POP PUSH1 0x0 NOT ADD SWAP1 JUMP JUMPDEST PUSH1 0x20 DUP1 DUP3 MSTORE PUSH1 0x2E SWAP1 DUP3 ADD MSTORE PUSH32 0x496E697469616C697A61626C653A20636F6E747261637420697320616C726561 PUSH1 0x40 DUP3 ADD MSTORE PUSH14 0x191E481A5B9A5D1A585B1A5E9959 PUSH1 0x92 SHL PUSH1 0x60 DUP3 ADD MSTORE PUSH1 0x80 ADD SWAP1 JUMP JUMPDEST PUSH1 0x20 DUP1 DUP3 MSTORE PUSH1 0x2B SWAP1 DUP3 ADD MSTORE PUSH32 0x496E697469616C697A61626C653A20636F6E7472616374206973206E6F742069 PUSH1 0x40 DUP3 ADD MSTORE PUSH11 0x6E697469616C697A696E67 PUSH1 0xA8 SHL PUSH1 0x60 DUP3 ADD MSTORE PUSH1 0x80 ADD SWAP1 JUMP INVALID LOG2 PUSH5 0x6970667358 0x22 SLT KECCAK256 0xBD CHAINID MSTORE 0xD5 0xBA RETURNDATASIZE 0xB4 XOR 0xD8 AND PUSH15 0xD1829C40CC4C3671209AEC9E457635 0xE0 0xE3 ADDRESS GASPRICE 0xCD 0xB7 PUSH5 0x736F6C6343 STOP ADDMOD 0xD STOP CALLER "
		},
		"gasEstimates": {
			"creation": {
				"codeDepositCost": "1273400",
				"executionCost": "1322",
				"totalCost": "1274722"
			},
			"external": {
				"addItemData(uint8,uint16[],uint8[],uint16[],uint16[],string[])": "infinite",
				"calculateMax(uint8)": "infinite",
				"checkLevelCap(uint8)": "2580",
				"checkTypes(uint8)": "infinite",
				"chooseType(uint256,uint8)": "infinite",
				"getIdsByTypeAndLevel(uint8,uint256)": "infinite",
				"getItemByTypeAndId(uint8,uint256)": "infinite",
				"init()": "infinite",
				"owner()": "2390",
				"random(uint256,uint256)": "661",
				"renounceOwnership()": "28184",
				"transferOwnership(address)": "28343",
				"withdrawToOwner()": "infinite"
			}
		},
		"methodIdentifiers": {
			"addItemData(uint8,uint16[],uint8[],uint16[],uint16[],string[])": "cee6b0d7",
			"calculateMax(uint8)": "fa7b3ec2",
			"checkLevelCap(uint8)": "0da84f6b",
			"checkTypes(uint8)": "b6de614b",
			"chooseType(uint256,uint8)": "dd9b4336",
			"getIdsByTypeAndLevel(uint8,uint256)": "a0e04875",
			"getItemByTypeAndId(uint8,uint256)": "4f13c5a7",
			"init()": "e1c7392a",
			"owner()": "8da5cb5b",
			"random(uint256,uint256)": "a9dd1225",
			"renounceOwnership()": "715018a6",
			"transferOwnership(address)": "f2fde38b",
			"withdrawToOwner()": "3cb40e16"
		}
	},
	"abi": [
		{
			"anonymous": false,
			"inputs": [
				{
					"indexed": false,
					"internalType": "uint8",
					"name": "version",
					"type": "uint8"
				}
			],
			"name": "Initialized",
			"type": "event"
		},
		{
			"anonymous": false,
			"inputs": [
				{
					"indexed": true,
					"internalType": "address",
					"name": "previousOwner",
					"type": "address"
				},
				{
					"indexed": true,
					"internalType": "address",
					"name": "newOwner",
					"type": "address"
				}
			],
			"name": "OwnershipTransferred",
			"type": "event"
		},
		{
			"inputs": [
				{
					"internalType": "enum ItemData.ItemType",
					"name": "itemType",
					"type": "uint8"
				},
				{
					"internalType": "uint16[]",
					"name": "itemId",
					"type": "uint16[]"
				},
				{
					"internalType": "enum ItemData.ItemClass[]",
					"name": "itemClass",
					"type": "uint8[]"
				},
				{
					"internalType": "uint16[]",
					"name": "level",
					"type": "uint16[]"
				},
				{
					"internalType": "uint16[]",
					"name": "rate",
					"type": "uint16[]"
				},
				{
					"internalType": "string[]",
					"name": "name",
					"type": "string[]"
				}
			],
			"name": "addItemData",
			"outputs": [],
			"stateMutability": "nonpayable",
			"type": "function"
		},
		{
			"inputs": [
				{
					"internalType": "enum ItemData.ItemType",
					"name": "itemType",
					"type": "uint8"
				}
			],
			"name": "calculateMax",
			"outputs": [],
			"stateMutability": "nonpayable",
			"type": "function"
		},
		{
			"inputs": [
				{
					"internalType": "enum ItemData.ItemType",
					"name": "itemType",
					"type": "uint8"
				}
			],
			"name": "checkLevelCap",
			"outputs": [
				{
					"internalType": "uint256",
					"name": "",
					"type": "uint256"
				}
			],
			"stateMutability": "view",
			"type": "function"
		},
		{
			"inputs": [
				{
					"internalType": "enum ItemData.ItemType",
					"name": "itemType",
					"type": "uint8"
				}
			],
			"name": "checkTypes",
			"outputs": [
				{
					"internalType": "uint256",
					"name": "",
					"type": "uint256"
				}
			],
			"stateMutability": "view",
			"type": "function"
		},
		{
			"inputs": [
				{
					"internalType": "uint256",
					"name": "probability",
					"type": "uint256"
				},
				{
					"internalType": "enum ItemData.ItemType",
					"name": "itemType",
					"type": "uint8"
				}
			],
			"name": "chooseType",
			"outputs": [
				{
					"internalType": "uint256",
					"name": "",
					"type": "uint256"
				}
			],
			"stateMutability": "view",
			"type": "function"
		},
		{
			"inputs": [
				{
					"internalType": "enum ItemData.ItemType",
					"name": "itemType",
					"type": "uint8"
				},
				{
					"internalType": "uint256",
					"name": "level",
					"type": "uint256"
				}
			],
			"name": "getIdsByTypeAndLevel",
			"outputs": [
				{
					"internalType": "uint256[]",
					"name": "",
					"type": "uint256[]"
				}
			],
			"stateMutability": "view",
			"type": "function"
		},
		{
			"inputs": [
				{
					"internalType": "enum ItemData.ItemType",
					"name": "itemType",
					"type": "uint8"
				},
				{
					"internalType": "uint256",
					"name": "itemId",
					"type": "uint256"
				}
			],
			"name": "getItemByTypeAndId",
			"outputs": [
				{
					"components": [
						{
							"internalType": "enum ItemData.ItemType",
							"name": "itemType",
							"type": "uint8"
						},
						{
							"internalType": "uint16",
							"name": "dropRate",
							"type": "uint16"
						},
						{
							"internalType": "enum ItemData.ItemClass",
							"name": "itemClass",
							"type": "uint8"
						},
						{
							"internalType": "uint16",
							"name": "level",
							"type": "uint16"
						},
						{
							"internalType": "uint16",
							"name": "itemId",
							"type": "uint16"
						},
						{
							"internalType": "string",
							"name": "name",
							"type": "string"
						}
					],
					"internalType": "struct ItemData.Item",
					"name": "",
					"type": "tuple"
				}
			],
			"stateMutability": "view",
			"type": "function"
		},
		{
			"inputs": [],
			"name": "init",
			"outputs": [],
			"stateMutability": "nonpayable",
			"type": "function"
		},
		{
			"inputs": [],
			"name": "owner",
			"outputs": [
				{
					"internalType": "address",
					"name": "",
					"type": "address"
				}
			],
			"stateMutability": "view",
			"type": "function"
		},
		{
			"inputs": [
				{
					"internalType": "uint256",
					"name": "number",
					"type": "uint256"
				},
				{
					"internalType": "uint256",
					"name": "seed",
					"type": "uint256"
				}
			],
			"name": "random",
			"outputs": [
				{
					"internalType": "uint256",
					"name": "",
					"type": "uint256"
				}
			],
			"stateMutability": "view",
			"type": "function"
		},
		{
			"inputs": [],
			"name": "renounceOwnership",
			"outputs": [],
			"stateMutability": "nonpayable",
			"type": "function"
		},
		{
			"inputs": [
				{
					"internalType": "address",
					"name": "newOwner",
					"type": "address"
				}
			],
			"name": "transferOwnership",
			"outputs": [],
			"stateMutability": "nonpayable",
			"type": "function"
		},
		{
			"inputs": [],
			"name": "withdrawToOwner",
			"outputs": [],
			"stateMutability": "nonpayable",
			"type": "function"
		}
	]
}