{
	"data": {
		"bytecode": {
			"linkReferences": {},
			"object": "608060405234801561001057600080fd5b50612b41806100206000396000f3fe608060405234801561001057600080fd5b50600436106101e55760003560e01c8063709732c21161010f578063ac04cbd9116100a2578063c3f1856511610071578063c3f185651461046d578063e82addaf14610480578063f2fde38b14610493578063f3f23077146104a657600080fd5b8063ac04cbd91461041f578063afb90c6914610432578063b05dfa071461043a578063c1690e421461044d57600080fd5b806399e133f9116100de57806399e133f9146103c35780639d909db6146103d6578063a9dd1225146103f9578063a9ec18861461040c57600080fd5b8063709732c214610369578063715018a61461038957806379547455146103915780638da5cb5b146103b257600080fd5b80631b846edc1161018757806341a5f6501161015657806341a5f6501461031957806365a114f11461032c5780636b7d66e6146103435780636fc6f2801461035657600080fd5b80631b846edc146102c057806321d843c8146102d357806326a4e8d2146102f357806334c52d7a1461030657600080fd5b806310658a03116101c357806310658a031461024f578063130d260f14610262578063150b7a0214610275578063159674f7146102ad57600080fd5b806303b76c5b146101ea5780630b752a541461021a5780630de0944a1461023a575b600080fd5b606a546101fd906001600160a01b031681565b6040516001600160a01b0390911681526020015b60405180910390f35b61022d61022836600461242a565b610505565b6040516102119190612480565b61024d610248366004612493565b610678565b005b6065546101fd906001600160a01b031681565b61024d6102703660046124f1565b6106b0565b610294610283366004612533565b630a85bd0160e11b95945050505050565b6040516001600160e01b03199091168152602001610211565b61024d6102bb3660046125f4565b61083e565b6066546101fd906001600160a01b031681565b6102e66102e1366004612493565b610e39565b604051610211919061273a565b61024d61030136600461242a565b610e80565b6067546101fd906001600160a01b031681565b6102e6610327366004612493565b610ecc565b61033560765481565b604051908152602001610211565b61024d610351366004612493565b610f50565b61024d610364366004612493565b610f7f565b610335610377366004612493565b606c6020526000908152604090205481565b61024d610fae565b6103a461039f3660046124f1565b610fe4565b60405161021192919061274d565b6033546001600160a01b03166101fd565b61024d6103d136600461277b565b6110dc565b6103e96103e4366004612493565b611444565b6040519015158152602001610211565b6103356104073660046127ef565b61146a565b6069546101fd906001600160a01b031681565b61024d61042d366004612493565b6114c9565b61024d6114f8565b61022d61044836600461242a565b611536565b61033561045b366004612493565b606b6020526000908152604090205481565b6102e661047b366004612493565b6115ea565b6068546101fd906001600160a01b031681565b61024d6104a136600461242a565b611622565b6104e06104b4366004612811565b60736020526000908152604090205461ffff808216916201000081048216916401000000009091041683565b6040805161ffff94851681529284166020840152921691810191909152606001610211565b6066546040516370a0823160e01b81526001600160a01b0383811660048301526060926000929116906370a0823190602401602060405180830381865afa158015610554573d6000803e3d6000fd5b505050506040513d601f19601f820116820180604052508101906105789190612832565b905060008167ffffffffffffffff811115610595576105956125ce565b6040519080825280602002602001820160405280156105be578160200160208202803683370190505b50905060005b8281101561067057606654604051632f745c5960e01b81526001600160a01b0387811660048301526024820184905290911690632f745c5990604401602060405180830381865afa15801561061d573d6000803e3d6000fd5b505050506040513d601f19601f820116820180604052508101906106419190612832565b8282815181106106535761065361284b565b60209081029190910101528061066881612877565b9150506105c4565b509392505050565b6033546001600160a01b031633146106ab5760405162461bcd60e51b81526004016106a290612890565b60405180910390fd5b607155565b606e5460ff166106fc5760405162461bcd60e51b81526020600482015260176024820152765175657374696e67206d7573742062652061637469766560481b60448201526064016106a2565b60018110156107595760405162461bcd60e51b8152602060048201526024808201527f31206f72206d6f72652053717569726573206d75737420676f206f6e206120716044820152631d595cdd60e21b60648201526084016106a2565b60005b81811015610839576066546001600160a01b031663b88d4fde33308686868181106107895761078961284b565b6040516001600160e01b031960e088901b1681526001600160a01b03958616600482015294909316602485015250602090910201356044820152608060648201526000608482015260a401600060405180830381600087803b1580156107ee57600080fd5b505af1158015610802573d6000803e3d6000fd5b5050505061082783838381811061081b5761081b61284b565b905060200201356116bd565b8061083181612877565b91505061075c565b505050565b60006108be33898989898760405160200161085e969594939291906128f2565b60408051601f1981840301815282825280516020918201207f19457468657265756d205369676e6564204d6573736167653a0a33320000000084830152603c8085019190915282518085039091018152605c909301909152815191012090565b60008181526075602052604090205490915060ff16156109145760405162461bcd60e51b8152602060048201526011602482015270082d8e4cac2c8f240eae6cac840d0c2e6d607b1b60448201526064016106a2565b61091e81856117c9565b61095e5760405162461bcd60e51b8152602060048201526011602482015270496e76616c6964205369676e617475726560781b60448201526064016106a2565b6000818152607560205260408120805460ff19166001179055805b88811015610dc957607654606b60008c8c8581811061099a5761099a61284b565b90506020020135815260200190815260200160002054426109bb9190612932565b1015610a095760405162461bcd60e51b815260206004820152601c60248201527f5371756972657320617265207374696c6c205175657374696e672e2e0000000060448201526064016106a2565b610a3c8a8a83818110610a1e57610a1e61284b565b336000908152606d60209081526040909120939102013590506117f3565b610a4557600080fd5b610a788a8a83818110610a5a57610a5a61284b565b336000908152606d602090815260409091209391020135905061180b565b506000610a9f606f548a8a85818110610a9357610a9361284b565b9050602002013561146a565b6066549091506000906001600160a01b0316631c0520348d8d86818110610ac857610ac861284b565b905060200201356040518263ffffffff1660e01b8152600401610aed91815260200190565b602060405180830381865afa158015610b0a573d6000803e3d6000fd5b505050506040513d601f19601f82011682018060405250810190610b2e9190612832565b600114610b3d57607054610b4b565b607054610b4b906002612949565b90508515610b7757612710610b608783612949565b610b6a919061297e565b610b749082612992565b90505b610b818185612992565b93507f93227fc4f4055687f87b7e20a200d14be5035678c62b3cb56a929921bc2c1bff338d8d86818110610bb757610bb761284b565b604080516001600160a01b039095168552602091820293909301359084015250810183905242606082015260800160405180910390a17f2b8215859742e5cd71fec0f2bef678d9f3bdb31dd5dceda7643dd0fc8d54bd4b338d8d86818110610c2157610c2161284b565b604080516001600160a01b0390951685526020918202939093013590840152500160405180910390a1610c6c8c8c85818110610c5f57610c5f61284b565b9050602002013583611817565b6072548211610cdb57600060058b8b86818110610c8b57610c8b61284b565b90506020020135610c9c91906129aa565b610ca7906001612992565b90506000610cb4826115ea565b9050610cd8818f8f88818110610ccc57610ccc61284b565b90506020020135611b9f565b50505b8615610cfb57610cf68c8c8581811061081b5761081b61284b565b610db4565b610d108c8c85818110610a5a57610a5a61284b565b506066546001600160a01b031663b88d4fde30338f8f88818110610d3657610d3661284b565b6040516001600160e01b031960e088901b1681526001600160a01b03958616600482015294909316602485015250602090910201356044820152608060648201526000608482015260a401600060405180830381600087803b158015610d9b57600080fd5b505af1158015610daf573d6000803e3d6000fd5b505050505b50508080610dc190612877565b915050610979565b506065546040516340c10f1960e01b8152336004820152602481018390526001600160a01b03909116906340c10f1990604401600060405180830381600087803b158015610e1657600080fd5b505af1158015610e2a573d6000803e3d6000fd5b50505050505050505050505050565b6000600a8210610e775760148210610e705760328210610e695760648210610e62576004610e7a565b6003610e7a565b6002610e7a565b6001610e7a565b60005b92915050565b6033546001600160a01b03163314610eaa5760405162461bcd60e51b81526004016106a290612890565b606580546001600160a01b0319166001600160a01b0392909216919091179055565b60665460405163032b7d6760e61b81526004810183905260009182916001600160a01b039091169063cadf59c090602401602060405180830381865afa158015610f1a573d6000803e3d6000fd5b505050506040513d601f19601f82011682018060405250810190610f3e9190612832565b9050610f49816115ea565b9392505050565b6033546001600160a01b03163314610f7a5760405162461bcd60e51b81526004016106a290612890565b607655565b6033546001600160a01b03163314610fa95760405162461bcd60e51b81526004016106a290612890565b607055565b6033546001600160a01b03163314610fd85760405162461bcd60e51b81526004016106a290612890565b610fe26000611dec565b565b60608060008367ffffffffffffffff811115611002576110026125ce565b60405190808252806020026020018201604052801561102b578160200160208202803683370190505b50905060005b8481101561109457606c600087878481811061104f5761104f61284b565b905060200201358152602001908152602001600020548282815181106110775761107761284b565b60209081029190910101528061108c81612877565b915050611031565b508484828282808060200260200160405190810160405280939291908181526020018383602002808284376000920191909152509298509296505050505050505b9250929050565b60006110e86001611e3e565b90508015611100576000805461ff0019166101001790555b606580546001600160a01b03199081166001600160a01b038a811691909117909255606680548216898416179055606780548216888416179055606980548216878416179055606880548216868416179055606a805490911691841691909117905561116a611ec3565b606e805460ff191690556103e8606f5568015af1d78b58c400006070556001607181905560c8607255607480547301010e71d9839b902f3afe9e8d9e3352a8d78d826001600160a01b031990911617905562014cd060765560408051606080820183526102b2825260fa6020808401918252603c8486019081526000808052607380845295517f37752fb6c52d3edead1b46e6bc9caaf15e79e8a8593990dba84e5007780d3f9980549551935161ffff92831663ffffffff19978816176201000095841686021765ffff000000001990811664010000000092851683021790925589518089018b5261027681526101228188019081526050828d019081529c86528a885290517f311261bb81894ce0a38a909d14e87b1170932e4f9e501f1f188bcddfaa6989cc805492519d51918616928a16929092179c851687029c909c1783169b841682029b909b17909a5588518088018a5261023a815261014a8187019081526064828c01908152600286528a885291517f11d66f64e5b3be7984756d8958394fe1c58314780e161de105bb1c9ecb6339c680549251935186168e029386168802928a169186169190911791909117831691909117905588518088018a526101f4815261015e8187018181526096838d01908152600387528b895292517f2927e5704be5824a6d0b06cf45d464e8a0c1a9eb7933f9c7e5ff3c8f7604f6e6805492519451918716928b169290921793861688029390931784169285168d029290921790915589519788018a5287526101a987860190815260e1998801998a5260049093529690935293517f10b53080705ee4422db8945e63557a5aa899ba0c82c680a36b11c2bb9f3848018054955197518416909802968316909102939092169116171716179055801561143b576000805461ff0019169055604051600181527f7f26b83ff96e1f2b6a682f133852f6798a09c465da95921460cefb38474024989060200160405180910390a15b50505050505050565b6076546000828152606b60205260408120549091906114639042612932565b1192915050565b6040516bffffffffffffffffffffffff193360601b166020820152603481018290526054810183905260009083906074016040516020818303038152906040528051906020012060001c6114be91906129aa565b610f49906001612992565b6033546001600160a01b031633146114f35760405162461bcd60e51b81526004016106a290612890565b607255565b6033546001600160a01b031633146115225760405162461bcd60e51b81526004016106a290612890565b606e805460ff19811660ff90911615179055565b6001600160a01b0381166000908152606d6020526040812060609161155a82611ef2565b67ffffffffffffffff811115611572576115726125ce565b60405190808252806020026020018201604052801561159b578160200160208202803683370190505b50905060005b6115aa83611ef2565b811015610670576115bb8382611efc565b8282815181106115cd576115cd61284b565b6020908102919091010152806115e281612877565b9150506115a1565b60008160011461161a5781600214610e625781600314610e705781600414611613576004610e7a565b6000610e7a565b600292915050565b6033546001600160a01b0316331461164c5760405162461bcd60e51b81526004016106a290612890565b6001600160a01b0381166116b15760405162461bcd60e51b815260206004820152602660248201527f4f776e61626c653a206e6577206f776e657220697320746865207a65726f206160448201526564647265737360d01b60648201526084016106a2565b6116ba81611dec565b50565b606e5460ff166117095760405162461bcd60e51b81526020600482015260176024820152765175657374696e67206d7573742062652061637469766560481b60448201526064016106a2565b6000818152606b60209081526040808320429055606c909152812080549161173083612877565b9091555050336000908152606d6020526040902061174e90826117f3565b61176d57336000908152606d6020526040902061176b9082611f08565b505b7feeb688e49ca64099ef8805ece271b6b294bab610960661ad2fbea3ec0d943bc833826076544261179e9190612992565b604080516001600160a01b03909416845260208401929092529082015260600160405180910390a150565b6074546000906001600160a01b03166117e28484611f14565b6001600160a01b0316149392505050565b60008181526001830160205260408120541515610f49565b6000610f498383611f30565b60665460405163585e394d60e11b8152600481018490526000916001600160a01b03169063b0bc729a90602401602060405180830381865afa158015611861573d6000803e3d6000fd5b505050506040513d601f19601f820116820180604052508101906118859190612832565b9050600061189282610e39565b90506000607360008360048111156118ac576118ac612714565b60048111156118bd576118bd612714565b8152602080820192909252604090810160009081208251606081018452905461ffff80821680845262010000830482169684019690965264010000000090910416928101929092529092509085101561191857505050505050565b8151602083015161192991906129be565b61ffff16851015611938575060005b8151602083015161194991906129be565b61ffff168510611957575060025b600081600281111561196b5761196b612714565b03611a9257606a54604051636ecda19b60e11b81526000916001600160a01b03169063dd9b4336906119a390899085906004016129f8565b602060405180830381865afa1580156119c0573d6000803e3d6000fd5b505050506040513d601f19601f820116820180604052508101906119e49190612832565b90507f272e0687de8f5594ebc786f177bdd6b4e1e6b64c02ff5b19ec2da8925a4db8273388600084604051611a1c9493929190612a0c565b60405180910390a16069546040516340c10f1960e01b8152336004820152602481018390526001600160a01b03909116906340c10f19906044015b600060405180830381600087803b158015611a7157600080fd5b505af1158015611a85573d6000803e3d6000fd5b5050505050505050505050565b6002816002811115611aa657611aa6612714565b03611b9757606a54604051636ecda19b60e11b81526000916001600160a01b03169063dd9b433690611adf9089906002906004016129f8565b602060405180830381865afa158015611afc573d6000803e3d6000fd5b505050506040513d601f19601f82011682018060405250810190611b209190612832565b90507f272e0687de8f5594ebc786f177bdd6b4e1e6b64c02ff5b19ec2da8925a4db8273388600284604051611b589493929190612a0c565b60405180910390a16068546040516340c10f1960e01b8152336004820152602481018390526001600160a01b03909116906340c10f1990604401611a57565b505050505050565b6002826004811115611bb357611bb3612714565b03611c74576066546071546040516384103b9960e01b81526004810184905260248101919091526000604482018190526064820181905260848201526001600160a01b03909116906384103b999060a4015b600060405180830381600087803b158015611c1f57600080fd5b505af1158015611c33573d6000803e3d6000fd5b505050507f8745ce41804d354403d6912ae6393806fcda20a0623c9859d2682e7acd4c6d688183604051611c68929190612a3f565b60405180910390a15050565b6001826004811115611c8857611c88612714565b03611ce1576066546071546040516384103b9960e01b81526004810184905260006024820181905260448201819052606482019290925260848101919091526001600160a01b03909116906384103b999060a401611c05565b6000826004811115611cf557611cf5612714565b03611d4b576066546071546040516384103b9960e01b81526004810184905260006024820181905260448201819052606482015260848101919091526001600160a01b03909116906384103b999060a401611c05565b6003826004811115611d5f57611d5f612714565b03611db8576066546071546040516384103b9960e01b81526004810184905260006024820181905260448201929092526064810182905260848101919091526001600160a01b03909116906384103b999060a401611c05565b6004826004811115611dcc57611dcc612714565b03611de8576000611ddc82610ecc565b90506108398183611b9f565b5050565b603380546001600160a01b038381166001600160a01b0319831681179093556040519116919082907f8be0079c531659141344cd1fd0a4f28419497f9722a3daafe3b4186f6b6457e090600090a35050565b60008054610100900460ff1615611e7d578160ff166001148015611e615750303b155b610e775760405162461bcd60e51b81526004016106a290612a5c565b60005460ff808416911610611ea45760405162461bcd60e51b81526004016106a290612a5c565b506000805460ff191660ff92909216919091179055600190565b919050565b600054610100900460ff16611eea5760405162461bcd60e51b81526004016106a290612aaa565b610fe2612023565b6000610e7a825490565b6000610f498383612053565b6000610f49838361207d565b6000806000611f2385856120cc565b9150915061067081612137565b60008181526001830160205260408120548015612019576000611f54600183612932565b8554909150600090611f6890600190612932565b9050818114611fcd576000866000018281548110611f8857611f8861284b565b9060005260206000200154905080876000018481548110611fab57611fab61284b565b6000918252602080832090910192909255918252600188019052604090208390555b8554869080611fde57611fde612af5565b600190038181906000526020600020016000905590558560010160008681526020019081526020016000206000905560019350505050610e7a565b6000915050610e7a565b600054610100900460ff1661204a5760405162461bcd60e51b81526004016106a290612aaa565b610fe233611dec565b600082600001828154811061206a5761206a61284b565b9060005260206000200154905092915050565b60008181526001830160205260408120546120c457508154600181810184556000848152602080822090930184905584548482528286019093526040902091909155610e7a565b506000610e7a565b60008082516041036121025760208301516040840151606085015160001a6120f6878285856122ed565b945094505050506110d5565b825160400361212b57602083015160408401516121208683836123da565b9350935050506110d5565b506000905060026110d5565b600081600481111561214b5761214b612714565b036121535750565b600181600481111561216757612167612714565b036121b45760405162461bcd60e51b815260206004820152601860248201527f45434453413a20696e76616c6964207369676e6174757265000000000000000060448201526064016106a2565b60028160048111156121c8576121c8612714565b036122155760405162461bcd60e51b815260206004820152601f60248201527f45434453413a20696e76616c6964207369676e6174757265206c656e6774680060448201526064016106a2565b600381600481111561222957612229612714565b036122815760405162461bcd60e51b815260206004820152602260248201527f45434453413a20696e76616c6964207369676e6174757265202773272076616c604482015261756560f01b60648201526084016106a2565b600481600481111561229557612295612714565b036116ba5760405162461bcd60e51b815260206004820152602260248201527f45434453413a20696e76616c6964207369676e6174757265202776272076616c604482015261756560f01b60648201526084016106a2565b6000807f7fffffffffffffffffffffffffffffff5d576e7357a4501ddfe92f46681b20a083111561232457506000905060036123d1565b8460ff16601b1415801561233c57508460ff16601c14155b1561234d57506000905060046123d1565b6040805160008082526020820180845289905260ff881692820192909252606081018690526080810185905260019060a0016020604051602081039080840390855afa1580156123a1573d6000803e3d6000fd5b5050604051601f1901519150506001600160a01b0381166123ca576000600192509250506123d1565b9150600090505b94509492505050565b6000806001600160ff1b038316816123f760ff86901c601b612992565b9050612405878288856122ed565b935093505050935093915050565b80356001600160a01b0381168114611ebe57600080fd5b60006020828403121561243c57600080fd5b610f4982612413565b600081518084526020808501945080840160005b8381101561247557815187529582019590820190600101612459565b509495945050505050565b602081526000610f496020830184612445565b6000602082840312156124a557600080fd5b5035919050565b60008083601f8401126124be57600080fd5b50813567ffffffffffffffff8111156124d657600080fd5b6020830191508360208260051b85010111156110d557600080fd5b6000806020838503121561250457600080fd5b823567ffffffffffffffff81111561251b57600080fd5b612527858286016124ac565b90969095509350505050565b60008060008060006080868803121561254b57600080fd5b61255486612413565b945061256260208701612413565b935060408601359250606086013567ffffffffffffffff8082111561258657600080fd5b818801915088601f83011261259a57600080fd5b8135818111156125a957600080fd5b8960208285010111156125bb57600080fd5b9699959850939650602001949392505050565b634e487b7160e01b600052604160045260246000fd5b80358015158114611ebe57600080fd5b600080600080600080600060a0888a03121561260f57600080fd5b873567ffffffffffffffff8082111561262757600080fd5b6126338b838c016124ac565b909950975060208a013591508082111561264c57600080fd5b6126588b838c016124ac565b909750955060408a013591508082111561267157600080fd5b818a0191508a601f83011261268557600080fd5b813581811115612697576126976125ce565b604051601f8201601f19908116603f011681019083821181831017156126bf576126bf6125ce565b816040528281528d60208487010111156126d857600080fd5b8260208601602083013760006020848301015280975050505050506126ff606089016125e4565b91506080880135905092959891949750929550565b634e487b7160e01b600052602160045260246000fd5b600581106116ba576116ba612714565b602081016127478361272a565b91905290565b6040815260006127606040830185612445565b82810360208401526127728185612445565b95945050505050565b60008060008060008060c0878903121561279457600080fd5b61279d87612413565b95506127ab60208801612413565b94506127b960408801612413565b93506127c760608801612413565b92506127d560808801612413565b91506127e360a08801612413565b90509295509295509295565b6000806040838503121561280257600080fd5b50508035926020909101359150565b60006020828403121561282357600080fd5b813560058110610f4957600080fd5b60006020828403121561284457600080fd5b5051919050565b634e487b7160e01b600052603260045260246000fd5b634e487b7160e01b600052601160045260246000fd5b60006001820161288957612889612861565b5060010190565b6020808252818101527f4f776e61626c653a2063616c6c6572206973206e6f7420746865206f776e6572604082015260600190565b60006001600160fb1b038311156128db57600080fd5b8260051b8083863760009401938452509192915050565b6bffffffffffffffffffffffff198760601b168152600061292161291a60148401888a6128c5565b85876128c5565b928352505060200195945050505050565b60008282101561294457612944612861565b500390565b600081600019048311821515161561296357612963612861565b500290565b634e487b7160e01b600052601260045260246000fd5b60008261298d5761298d612968565b500490565b600082198211156129a5576129a5612861565b500190565b6000826129b9576129b9612968565b500690565b600061ffff8083168185168083038211156129db576129db612861565b01949350505050565b600381106129f4576129f4612714565b9052565b82815260408101610f4960208301846129e4565b6001600160a01b03851681526020810184905260808101612a3060408301856129e4565b82606083015295945050505050565b82815260408101612a4f8361272a565b8260208301529392505050565b6020808252602e908201527f496e697469616c697a61626c653a20636f6e747261637420697320616c72656160408201526d191e481a5b9a5d1a585b1a5e995960921b606082015260800190565b6020808252602b908201527f496e697469616c697a61626c653a20636f6e7472616374206973206e6f74206960408201526a6e697469616c697a696e6760a81b606082015260800190565b634e487b7160e01b600052603160045260246000fdfea2646970667358221220645da97faf18bcbac160f05d5a61675b32b4ba47adb48efb8b630285ff61aa7d64736f6c634300080d0033",
			"opcodes": "PUSH1 0x80 PUSH1 0x40 MSTORE CALLVALUE DUP1 ISZERO PUSH2 0x10 JUMPI PUSH1 0x0 DUP1 REVERT JUMPDEST POP PUSH2 0x2B41 DUP1 PUSH2 0x20 PUSH1 0x0 CODECOPY PUSH1 0x0 RETURN INVALID PUSH1 0x80 PUSH1 0x40 MSTORE CALLVALUE DUP1 ISZERO PUSH2 0x10 JUMPI PUSH1 0x0 DUP1 REVERT JUMPDEST POP PUSH1 0x4 CALLDATASIZE LT PUSH2 0x1E5 JUMPI PUSH1 0x0 CALLDATALOAD PUSH1 0xE0 SHR DUP1 PUSH4 0x709732C2 GT PUSH2 0x10F JUMPI DUP1 PUSH4 0xAC04CBD9 GT PUSH2 0xA2 JUMPI DUP1 PUSH4 0xC3F18565 GT PUSH2 0x71 JUMPI DUP1 PUSH4 0xC3F18565 EQ PUSH2 0x46D JUMPI DUP1 PUSH4 0xE82ADDAF EQ PUSH2 0x480 JUMPI DUP1 PUSH4 0xF2FDE38B EQ PUSH2 0x493 JUMPI DUP1 PUSH4 0xF3F23077 EQ PUSH2 0x4A6 JUMPI PUSH1 0x0 DUP1 REVERT JUMPDEST DUP1 PUSH4 0xAC04CBD9 EQ PUSH2 0x41F JUMPI DUP1 PUSH4 0xAFB90C69 EQ PUSH2 0x432 JUMPI DUP1 PUSH4 0xB05DFA07 EQ PUSH2 0x43A JUMPI DUP1 PUSH4 0xC1690E42 EQ PUSH2 0x44D JUMPI PUSH1 0x0 DUP1 REVERT JUMPDEST DUP1 PUSH4 0x99E133F9 GT PUSH2 0xDE JUMPI DUP1 PUSH4 0x99E133F9 EQ PUSH2 0x3C3 JUMPI DUP1 PUSH4 0x9D909DB6 EQ PUSH2 0x3D6 JUMPI DUP1 PUSH4 0xA9DD1225 EQ PUSH2 0x3F9 JUMPI DUP1 PUSH4 0xA9EC1886 EQ PUSH2 0x40C JUMPI PUSH1 0x0 DUP1 REVERT JUMPDEST DUP1 PUSH4 0x709732C2 EQ PUSH2 0x369 JUMPI DUP1 PUSH4 0x715018A6 EQ PUSH2 0x389 JUMPI DUP1 PUSH4 0x79547455 EQ PUSH2 0x391 JUMPI DUP1 PUSH4 0x8DA5CB5B EQ PUSH2 0x3B2 JUMPI PUSH1 0x0 DUP1 REVERT JUMPDEST DUP1 PUSH4 0x1B846EDC GT PUSH2 0x187 JUMPI DUP1 PUSH4 0x41A5F650 GT PUSH2 0x156 JUMPI DUP1 PUSH4 0x41A5F650 EQ PUSH2 0x319 JUMPI DUP1 PUSH4 0x65A114F1 EQ PUSH2 0x32C JUMPI DUP1 PUSH4 0x6B7D66E6 EQ PUSH2 0x343 JUMPI DUP1 PUSH4 0x6FC6F280 EQ PUSH2 0x356 JUMPI PUSH1 0x0 DUP1 REVERT JUMPDEST DUP1 PUSH4 0x1B846EDC EQ PUSH2 0x2C0 JUMPI DUP1 PUSH4 0x21D843C8 EQ PUSH2 0x2D3 JUMPI DUP1 PUSH4 0x26A4E8D2 EQ PUSH2 0x2F3 JUMPI DUP1 PUSH4 0x34C52D7A EQ PUSH2 0x306 JUMPI PUSH1 0x0 DUP1 REVERT JUMPDEST DUP1 PUSH4 0x10658A03 GT PUSH2 0x1C3 JUMPI DUP1 PUSH4 0x10658A03 EQ PUSH2 0x24F JUMPI DUP1 PUSH4 0x130D260F EQ PUSH2 0x262 JUMPI DUP1 PUSH4 0x150B7A02 EQ PUSH2 0x275 JUMPI DUP1 PUSH4 0x159674F7 EQ PUSH2 0x2AD JUMPI PUSH1 0x0 DUP1 REVERT JUMPDEST DUP1 PUSH4 0x3B76C5B EQ PUSH2 0x1EA JUMPI DUP1 PUSH4 0xB752A54 EQ PUSH2 0x21A JUMPI DUP1 PUSH4 0xDE0944A EQ PUSH2 0x23A JUMPI JUMPDEST PUSH1 0x0 DUP1 REVERT JUMPDEST PUSH1 0x6A SLOAD PUSH2 0x1FD SWAP1 PUSH1 0x1 PUSH1 0x1 PUSH1 0xA0 SHL SUB AND DUP2 JUMP JUMPDEST PUSH1 0x40 MLOAD PUSH1 0x1 PUSH1 0x1 PUSH1 0xA0 SHL SUB SWAP1 SWAP2 AND DUP2 MSTORE PUSH1 0x20 ADD JUMPDEST PUSH1 0x40 MLOAD DUP1 SWAP2 SUB SWAP1 RETURN JUMPDEST PUSH2 0x22D PUSH2 0x228 CALLDATASIZE PUSH1 0x4 PUSH2 0x242A JUMP JUMPDEST PUSH2 0x505 JUMP JUMPDEST PUSH1 0x40 MLOAD PUSH2 0x211 SWAP2 SWAP1 PUSH2 0x2480 JUMP JUMPDEST PUSH2 0x24D PUSH2 0x248 CALLDATASIZE PUSH1 0x4 PUSH2 0x2493 JUMP JUMPDEST PUSH2 0x678 JUMP JUMPDEST STOP JUMPDEST PUSH1 0x65 SLOAD PUSH2 0x1FD SWAP1 PUSH1 0x1 PUSH1 0x1 PUSH1 0xA0 SHL SUB AND DUP2 JUMP JUMPDEST PUSH2 0x24D PUSH2 0x270 CALLDATASIZE PUSH1 0x4 PUSH2 0x24F1 JUMP JUMPDEST PUSH2 0x6B0 JUMP JUMPDEST PUSH2 0x294 PUSH2 0x283 CALLDATASIZE PUSH1 0x4 PUSH2 0x2533 JUMP JUMPDEST PUSH4 0xA85BD01 PUSH1 0xE1 SHL SWAP6 SWAP5 POP POP POP POP POP JUMP JUMPDEST PUSH1 0x40 MLOAD PUSH1 0x1 PUSH1 0x1 PUSH1 0xE0 SHL SUB NOT SWAP1 SWAP2 AND DUP2 MSTORE PUSH1 0x20 ADD PUSH2 0x211 JUMP JUMPDEST PUSH2 0x24D PUSH2 0x2BB CALLDATASIZE PUSH1 0x4 PUSH2 0x25F4 JUMP JUMPDEST PUSH2 0x83E JUMP JUMPDEST PUSH1 0x66 SLOAD PUSH2 0x1FD SWAP1 PUSH1 0x1 PUSH1 0x1 PUSH1 0xA0 SHL SUB AND DUP2 JUMP JUMPDEST PUSH2 0x2E6 PUSH2 0x2E1 CALLDATASIZE PUSH1 0x4 PUSH2 0x2493 JUMP JUMPDEST PUSH2 0xE39 JUMP JUMPDEST PUSH1 0x40 MLOAD PUSH2 0x211 SWAP2 SWAP1 PUSH2 0x273A JUMP JUMPDEST PUSH2 0x24D PUSH2 0x301 CALLDATASIZE PUSH1 0x4 PUSH2 0x242A JUMP JUMPDEST PUSH2 0xE80 JUMP JUMPDEST PUSH1 0x67 SLOAD PUSH2 0x1FD SWAP1 PUSH1 0x1 PUSH1 0x1 PUSH1 0xA0 SHL SUB AND DUP2 JUMP JUMPDEST PUSH2 0x2E6 PUSH2 0x327 CALLDATASIZE PUSH1 0x4 PUSH2 0x2493 JUMP JUMPDEST PUSH2 0xECC JUMP JUMPDEST PUSH2 0x335 PUSH1 0x76 SLOAD DUP2 JUMP JUMPDEST PUSH1 0x40 MLOAD SWAP1 DUP2 MSTORE PUSH1 0x20 ADD PUSH2 0x211 JUMP JUMPDEST PUSH2 0x24D PUSH2 0x351 CALLDATASIZE PUSH1 0x4 PUSH2 0x2493 JUMP JUMPDEST PUSH2 0xF50 JUMP JUMPDEST PUSH2 0x24D PUSH2 0x364 CALLDATASIZE PUSH1 0x4 PUSH2 0x2493 JUMP JUMPDEST PUSH2 0xF7F JUMP JUMPDEST PUSH2 0x335 PUSH2 0x377 CALLDATASIZE PUSH1 0x4 PUSH2 0x2493 JUMP JUMPDEST PUSH1 0x6C PUSH1 0x20 MSTORE PUSH1 0x0 SWAP1 DUP2 MSTORE PUSH1 0x40 SWAP1 KECCAK256 SLOAD DUP2 JUMP JUMPDEST PUSH2 0x24D PUSH2 0xFAE JUMP JUMPDEST PUSH2 0x3A4 PUSH2 0x39F CALLDATASIZE PUSH1 0x4 PUSH2 0x24F1 JUMP JUMPDEST PUSH2 0xFE4 JUMP JUMPDEST PUSH1 0x40 MLOAD PUSH2 0x211 SWAP3 SWAP2 SWAP1 PUSH2 0x274D JUMP JUMPDEST PUSH1 0x33 SLOAD PUSH1 0x1 PUSH1 0x1 PUSH1 0xA0 SHL SUB AND PUSH2 0x1FD JUMP JUMPDEST PUSH2 0x24D PUSH2 0x3D1 CALLDATASIZE PUSH1 0x4 PUSH2 0x277B JUMP JUMPDEST PUSH2 0x10DC JUMP JUMPDEST PUSH2 0x3E9 PUSH2 0x3E4 CALLDATASIZE PUSH1 0x4 PUSH2 0x2493 JUMP JUMPDEST PUSH2 0x1444 JUMP JUMPDEST PUSH1 0x40 MLOAD SWAP1 ISZERO ISZERO DUP2 MSTORE PUSH1 0x20 ADD PUSH2 0x211 JUMP JUMPDEST PUSH2 0x335 PUSH2 0x407 CALLDATASIZE PUSH1 0x4 PUSH2 0x27EF JUMP JUMPDEST PUSH2 0x146A JUMP JUMPDEST PUSH1 0x69 SLOAD PUSH2 0x1FD SWAP1 PUSH1 0x1 PUSH1 0x1 PUSH1 0xA0 SHL SUB AND DUP2 JUMP JUMPDEST PUSH2 0x24D PUSH2 0x42D CALLDATASIZE PUSH1 0x4 PUSH2 0x2493 JUMP JUMPDEST PUSH2 0x14C9 JUMP JUMPDEST PUSH2 0x24D PUSH2 0x14F8 JUMP JUMPDEST PUSH2 0x22D PUSH2 0x448 CALLDATASIZE PUSH1 0x4 PUSH2 0x242A JUMP JUMPDEST PUSH2 0x1536 JUMP JUMPDEST PUSH2 0x335 PUSH2 0x45B CALLDATASIZE PUSH1 0x4 PUSH2 0x2493 JUMP JUMPDEST PUSH1 0x6B PUSH1 0x20 MSTORE PUSH1 0x0 SWAP1 DUP2 MSTORE PUSH1 0x40 SWAP1 KECCAK256 SLOAD DUP2 JUMP JUMPDEST PUSH2 0x2E6 PUSH2 0x47B CALLDATASIZE PUSH1 0x4 PUSH2 0x2493 JUMP JUMPDEST PUSH2 0x15EA JUMP JUMPDEST PUSH1 0x68 SLOAD PUSH2 0x1FD SWAP1 PUSH1 0x1 PUSH1 0x1 PUSH1 0xA0 SHL SUB AND DUP2 JUMP JUMPDEST PUSH2 0x24D PUSH2 0x4A1 CALLDATASIZE PUSH1 0x4 PUSH2 0x242A JUMP JUMPDEST PUSH2 0x1622 JUMP JUMPDEST PUSH2 0x4E0 PUSH2 0x4B4 CALLDATASIZE PUSH1 0x4 PUSH2 0x2811 JUMP JUMPDEST PUSH1 0x73 PUSH1 0x20 MSTORE PUSH1 0x0 SWAP1 DUP2 MSTORE PUSH1 0x40 SWAP1 KECCAK256 SLOAD PUSH2 0xFFFF DUP1 DUP3 AND SWAP2 PUSH3 0x10000 DUP2 DIV DUP3 AND SWAP2 PUSH5 0x100000000 SWAP1 SWAP2 DIV AND DUP4 JUMP JUMPDEST PUSH1 0x40 DUP1 MLOAD PUSH2 0xFFFF SWAP5 DUP6 AND DUP2 MSTORE SWAP3 DUP5 AND PUSH1 0x20 DUP5 ADD MSTORE SWAP3 AND SWAP2 DUP2 ADD SWAP2 SWAP1 SWAP2 MSTORE PUSH1 0x60 ADD PUSH2 0x211 JUMP JUMPDEST PUSH1 0x66 SLOAD PUSH1 0x40 MLOAD PUSH4 0x70A08231 PUSH1 0xE0 SHL DUP2 MSTORE PUSH1 0x1 PUSH1 0x1 PUSH1 0xA0 SHL SUB DUP4 DUP2 AND PUSH1 0x4 DUP4 ADD MSTORE PUSH1 0x60 SWAP3 PUSH1 0x0 SWAP3 SWAP2 AND SWAP1 PUSH4 0x70A08231 SWAP1 PUSH1 0x24 ADD PUSH1 0x20 PUSH1 0x40 MLOAD DUP1 DUP4 SUB DUP2 DUP7 GAS STATICCALL ISZERO DUP1 ISZERO PUSH2 0x554 JUMPI RETURNDATASIZE PUSH1 0x0 DUP1 RETURNDATACOPY RETURNDATASIZE PUSH1 0x0 REVERT JUMPDEST POP POP POP POP PUSH1 0x40 MLOAD RETURNDATASIZE PUSH1 0x1F NOT PUSH1 0x1F DUP3 ADD AND DUP3 ADD DUP1 PUSH1 0x40 MSTORE POP DUP2 ADD SWAP1 PUSH2 0x578 SWAP2 SWAP1 PUSH2 0x2832 JUMP JUMPDEST SWAP1 POP PUSH1 0x0 DUP2 PUSH8 0xFFFFFFFFFFFFFFFF DUP2 GT ISZERO PUSH2 0x595 JUMPI PUSH2 0x595 PUSH2 0x25CE JUMP JUMPDEST PUSH1 0x40 MLOAD SWAP1 DUP1 DUP3 MSTORE DUP1 PUSH1 0x20 MUL PUSH1 0x20 ADD DUP3 ADD PUSH1 0x40 MSTORE DUP1 ISZERO PUSH2 0x5BE JUMPI DUP2 PUSH1 0x20 ADD PUSH1 0x20 DUP3 MUL DUP1 CALLDATASIZE DUP4 CALLDATACOPY ADD SWAP1 POP JUMPDEST POP SWAP1 POP PUSH1 0x0 JUMPDEST DUP3 DUP2 LT ISZERO PUSH2 0x670 JUMPI PUSH1 0x66 SLOAD PUSH1 0x40 MLOAD PUSH4 0x2F745C59 PUSH1 0xE0 SHL DUP2 MSTORE PUSH1 0x1 PUSH1 0x1 PUSH1 0xA0 SHL SUB DUP8 DUP2 AND PUSH1 0x4 DUP4 ADD MSTORE PUSH1 0x24 DUP3 ADD DUP5 SWAP1 MSTORE SWAP1 SWAP2 AND SWAP1 PUSH4 0x2F745C59 SWAP1 PUSH1 0x44 ADD PUSH1 0x20 PUSH1 0x40 MLOAD DUP1 DUP4 SUB DUP2 DUP7 GAS STATICCALL ISZERO DUP1 ISZERO PUSH2 0x61D JUMPI RETURNDATASIZE PUSH1 0x0 DUP1 RETURNDATACOPY RETURNDATASIZE PUSH1 0x0 REVERT JUMPDEST POP POP POP POP PUSH1 0x40 MLOAD RETURNDATASIZE PUSH1 0x1F NOT PUSH1 0x1F DUP3 ADD AND DUP3 ADD DUP1 PUSH1 0x40 MSTORE POP DUP2 ADD SWAP1 PUSH2 0x641 SWAP2 SWAP1 PUSH2 0x2832 JUMP JUMPDEST DUP3 DUP3 DUP2 MLOAD DUP2 LT PUSH2 0x653 JUMPI PUSH2 0x653 PUSH2 0x284B JUMP JUMPDEST PUSH1 0x20 SWAP1 DUP2 MUL SWAP2 SWAP1 SWAP2 ADD ADD MSTORE DUP1 PUSH2 0x668 DUP2 PUSH2 0x2877 JUMP JUMPDEST SWAP2 POP POP PUSH2 0x5C4 JUMP JUMPDEST POP SWAP4 SWAP3 POP POP POP JUMP JUMPDEST PUSH1 0x33 SLOAD PUSH1 0x1 PUSH1 0x1 PUSH1 0xA0 SHL SUB AND CALLER EQ PUSH2 0x6AB JUMPI PUSH1 0x40 MLOAD PUSH3 0x461BCD PUSH1 0xE5 SHL DUP2 MSTORE PUSH1 0x4 ADD PUSH2 0x6A2 SWAP1 PUSH2 0x2890 JUMP JUMPDEST PUSH1 0x40 MLOAD DUP1 SWAP2 SUB SWAP1 REVERT JUMPDEST PUSH1 0x71 SSTORE JUMP JUMPDEST PUSH1 0x6E SLOAD PUSH1 0xFF AND PUSH2 0x6FC JUMPI PUSH1 0x40 MLOAD PUSH3 0x461BCD PUSH1 0xE5 SHL DUP2 MSTORE PUSH1 0x20 PUSH1 0x4 DUP3 ADD MSTORE PUSH1 0x17 PUSH1 0x24 DUP3 ADD MSTORE PUSH23 0x5175657374696E67206D75737420626520616374697665 PUSH1 0x48 SHL PUSH1 0x44 DUP3 ADD MSTORE PUSH1 0x64 ADD PUSH2 0x6A2 JUMP JUMPDEST PUSH1 0x1 DUP2 LT ISZERO PUSH2 0x759 JUMPI PUSH1 0x40 MLOAD PUSH3 0x461BCD PUSH1 0xE5 SHL DUP2 MSTORE PUSH1 0x20 PUSH1 0x4 DUP3 ADD MSTORE PUSH1 0x24 DUP1 DUP3 ADD MSTORE PUSH32 0x31206F72206D6F72652053717569726573206D75737420676F206F6E20612071 PUSH1 0x44 DUP3 ADD MSTORE PUSH4 0x1D595CDD PUSH1 0xE2 SHL PUSH1 0x64 DUP3 ADD MSTORE PUSH1 0x84 ADD PUSH2 0x6A2 JUMP JUMPDEST PUSH1 0x0 JUMPDEST DUP2 DUP2 LT ISZERO PUSH2 0x839 JUMPI PUSH1 0x66 SLOAD PUSH1 0x1 PUSH1 0x1 PUSH1 0xA0 SHL SUB AND PUSH4 0xB88D4FDE CALLER ADDRESS DUP7 DUP7 DUP7 DUP2 DUP2 LT PUSH2 0x789 JUMPI PUSH2 0x789 PUSH2 0x284B JUMP JUMPDEST PUSH1 0x40 MLOAD PUSH1 0x1 PUSH1 0x1 PUSH1 0xE0 SHL SUB NOT PUSH1 0xE0 DUP9 SWAP1 SHL AND DUP2 MSTORE PUSH1 0x1 PUSH1 0x1 PUSH1 0xA0 SHL SUB SWAP6 DUP7 AND PUSH1 0x4 DUP3 ADD MSTORE SWAP5 SWAP1 SWAP4 AND PUSH1 0x24 DUP6 ADD MSTORE POP PUSH1 0x20 SWAP1 SWAP2 MUL ADD CALLDATALOAD PUSH1 0x44 DUP3 ADD MSTORE PUSH1 0x80 PUSH1 0x64 DUP3 ADD MSTORE PUSH1 0x0 PUSH1 0x84 DUP3 ADD MSTORE PUSH1 0xA4 ADD PUSH1 0x0 PUSH1 0x40 MLOAD DUP1 DUP4 SUB DUP2 PUSH1 0x0 DUP8 DUP1 EXTCODESIZE ISZERO DUP1 ISZERO PUSH2 0x7EE JUMPI PUSH1 0x0 DUP1 REVERT JUMPDEST POP GAS CALL ISZERO DUP1 ISZERO PUSH2 0x802 JUMPI RETURNDATASIZE PUSH1 0x0 DUP1 RETURNDATACOPY RETURNDATASIZE PUSH1 0x0 REVERT JUMPDEST POP POP POP POP PUSH2 0x827 DUP4 DUP4 DUP4 DUP2 DUP2 LT PUSH2 0x81B JUMPI PUSH2 0x81B PUSH2 0x284B JUMP JUMPDEST SWAP1 POP PUSH1 0x20 MUL ADD CALLDATALOAD PUSH2 0x16BD JUMP JUMPDEST DUP1 PUSH2 0x831 DUP2 PUSH2 0x2877 JUMP JUMPDEST SWAP2 POP POP PUSH2 0x75C JUMP JUMPDEST POP POP POP JUMP JUMPDEST PUSH1 0x0 PUSH2 0x8BE CALLER DUP10 DUP10 DUP10 DUP10 DUP8 PUSH1 0x40 MLOAD PUSH1 0x20 ADD PUSH2 0x85E SWAP7 SWAP6 SWAP5 SWAP4 SWAP3 SWAP2 SWAP1 PUSH2 0x28F2 JUMP JUMPDEST PUSH1 0x40 DUP1 MLOAD PUSH1 0x1F NOT DUP2 DUP5 SUB ADD DUP2 MSTORE DUP3 DUP3 MSTORE DUP1 MLOAD PUSH1 0x20 SWAP2 DUP3 ADD KECCAK256 PUSH32 0x19457468657265756D205369676E6564204D6573736167653A0A333200000000 DUP5 DUP4 ADD MSTORE PUSH1 0x3C DUP1 DUP6 ADD SWAP2 SWAP1 SWAP2 MSTORE DUP3 MLOAD DUP1 DUP6 SUB SWAP1 SWAP2 ADD DUP2 MSTORE PUSH1 0x5C SWAP1 SWAP4 ADD SWAP1 SWAP2 MSTORE DUP2 MLOAD SWAP2 ADD KECCAK256 SWAP1 JUMP JUMPDEST PUSH1 0x0 DUP2 DUP2 MSTORE PUSH1 0x75 PUSH1 0x20 MSTORE PUSH1 0x40 SWAP1 KECCAK256 SLOAD SWAP1 SWAP2 POP PUSH1 0xFF AND ISZERO PUSH2 0x914 JUMPI PUSH1 0x40 MLOAD PUSH3 0x461BCD PUSH1 0xE5 SHL DUP2 MSTORE PUSH1 0x20 PUSH1 0x4 DUP3 ADD MSTORE PUSH1 0x11 PUSH1 0x24 DUP3 ADD MSTORE PUSH17 0x82D8E4CAC2C8F240EAE6CAC840D0C2E6D PUSH1 0x7B SHL PUSH1 0x44 DUP3 ADD MSTORE PUSH1 0x64 ADD PUSH2 0x6A2 JUMP JUMPDEST PUSH2 0x91E DUP2 DUP6 PUSH2 0x17C9 JUMP JUMPDEST PUSH2 0x95E JUMPI PUSH1 0x40 MLOAD PUSH3 0x461BCD PUSH1 0xE5 SHL DUP2 MSTORE PUSH1 0x20 PUSH1 0x4 DUP3 ADD MSTORE PUSH1 0x11 PUSH1 0x24 DUP3 ADD MSTORE PUSH17 0x496E76616C6964205369676E6174757265 PUSH1 0x78 SHL PUSH1 0x44 DUP3 ADD MSTORE PUSH1 0x64 ADD PUSH2 0x6A2 JUMP JUMPDEST PUSH1 0x0 DUP2 DUP2 MSTORE PUSH1 0x75 PUSH1 0x20 MSTORE PUSH1 0x40 DUP2 KECCAK256 DUP1 SLOAD PUSH1 0xFF NOT AND PUSH1 0x1 OR SWAP1 SSTORE DUP1 JUMPDEST DUP9 DUP2 LT ISZERO PUSH2 0xDC9 JUMPI PUSH1 0x76 SLOAD PUSH1 0x6B PUSH1 0x0 DUP13 DUP13 DUP6 DUP2 DUP2 LT PUSH2 0x99A JUMPI PUSH2 0x99A PUSH2 0x284B JUMP JUMPDEST SWAP1 POP PUSH1 0x20 MUL ADD CALLDATALOAD DUP2 MSTORE PUSH1 0x20 ADD SWAP1 DUP2 MSTORE PUSH1 0x20 ADD PUSH1 0x0 KECCAK256 SLOAD TIMESTAMP PUSH2 0x9BB SWAP2 SWAP1 PUSH2 0x2932 JUMP JUMPDEST LT ISZERO PUSH2 0xA09 JUMPI PUSH1 0x40 MLOAD PUSH3 0x461BCD PUSH1 0xE5 SHL DUP2 MSTORE PUSH1 0x20 PUSH1 0x4 DUP3 ADD MSTORE PUSH1 0x1C PUSH1 0x24 DUP3 ADD MSTORE PUSH32 0x5371756972657320617265207374696C6C205175657374696E672E2E00000000 PUSH1 0x44 DUP3 ADD MSTORE PUSH1 0x64 ADD PUSH2 0x6A2 JUMP JUMPDEST PUSH2 0xA3C DUP11 DUP11 DUP4 DUP2 DUP2 LT PUSH2 0xA1E JUMPI PUSH2 0xA1E PUSH2 0x284B JUMP JUMPDEST CALLER PUSH1 0x0 SWAP1 DUP2 MSTORE PUSH1 0x6D PUSH1 0x20 SWAP1 DUP2 MSTORE PUSH1 0x40 SWAP1 SWAP2 KECCAK256 SWAP4 SWAP2 MUL ADD CALLDATALOAD SWAP1 POP PUSH2 0x17F3 JUMP JUMPDEST PUSH2 0xA45 JUMPI PUSH1 0x0 DUP1 REVERT JUMPDEST PUSH2 0xA78 DUP11 DUP11 DUP4 DUP2 DUP2 LT PUSH2 0xA5A JUMPI PUSH2 0xA5A PUSH2 0x284B JUMP JUMPDEST CALLER PUSH1 0x0 SWAP1 DUP2 MSTORE PUSH1 0x6D PUSH1 0x20 SWAP1 DUP2 MSTORE PUSH1 0x40 SWAP1 SWAP2 KECCAK256 SWAP4 SWAP2 MUL ADD CALLDATALOAD SWAP1 POP PUSH2 0x180B JUMP JUMPDEST POP PUSH1 0x0 PUSH2 0xA9F PUSH1 0x6F SLOAD DUP11 DUP11 DUP6 DUP2 DUP2 LT PUSH2 0xA93 JUMPI PUSH2 0xA93 PUSH2 0x284B JUMP JUMPDEST SWAP1 POP PUSH1 0x20 MUL ADD CALLDATALOAD PUSH2 0x146A JUMP JUMPDEST PUSH1 0x66 SLOAD SWAP1 SWAP2 POP PUSH1 0x0 SWAP1 PUSH1 0x1 PUSH1 0x1 PUSH1 0xA0 SHL SUB AND PUSH4 0x1C052034 DUP14 DUP14 DUP7 DUP2 DUP2 LT PUSH2 0xAC8 JUMPI PUSH2 0xAC8 PUSH2 0x284B JUMP JUMPDEST SWAP1 POP PUSH1 0x20 MUL ADD CALLDATALOAD PUSH1 0x40 MLOAD DUP3 PUSH4 0xFFFFFFFF AND PUSH1 0xE0 SHL DUP2 MSTORE PUSH1 0x4 ADD PUSH2 0xAED SWAP2 DUP2 MSTORE PUSH1 0x20 ADD SWAP1 JUMP JUMPDEST PUSH1 0x20 PUSH1 0x40 MLOAD DUP1 DUP4 SUB DUP2 DUP7 GAS STATICCALL ISZERO DUP1 ISZERO PUSH2 0xB0A JUMPI RETURNDATASIZE PUSH1 0x0 DUP1 RETURNDATACOPY RETURNDATASIZE PUSH1 0x0 REVERT JUMPDEST POP POP POP POP PUSH1 0x40 MLOAD RETURNDATASIZE PUSH1 0x1F NOT PUSH1 0x1F DUP3 ADD AND DUP3 ADD DUP1 PUSH1 0x40 MSTORE POP DUP2 ADD SWAP1 PUSH2 0xB2E SWAP2 SWAP1 PUSH2 0x2832 JUMP JUMPDEST PUSH1 0x1 EQ PUSH2 0xB3D JUMPI PUSH1 0x70 SLOAD PUSH2 0xB4B JUMP JUMPDEST PUSH1 0x70 SLOAD PUSH2 0xB4B SWAP1 PUSH1 0x2 PUSH2 0x2949 JUMP JUMPDEST SWAP1 POP DUP6 ISZERO PUSH2 0xB77 JUMPI PUSH2 0x2710 PUSH2 0xB60 DUP8 DUP4 PUSH2 0x2949 JUMP JUMPDEST PUSH2 0xB6A SWAP2 SWAP1 PUSH2 0x297E JUMP JUMPDEST PUSH2 0xB74 SWAP1 DUP3 PUSH2 0x2992 JUMP JUMPDEST SWAP1 POP JUMPDEST PUSH2 0xB81 DUP2 DUP6 PUSH2 0x2992 JUMP JUMPDEST SWAP4 POP PUSH32 0x93227FC4F4055687F87B7E20A200D14BE5035678C62B3CB56A929921BC2C1BFF CALLER DUP14 DUP14 DUP7 DUP2 DUP2 LT PUSH2 0xBB7 JUMPI PUSH2 0xBB7 PUSH2 0x284B JUMP JUMPDEST PUSH1 0x40 DUP1 MLOAD PUSH1 0x1 PUSH1 0x1 PUSH1 0xA0 SHL SUB SWAP1 SWAP6 AND DUP6 MSTORE PUSH1 0x20 SWAP2 DUP3 MUL SWAP4 SWAP1 SWAP4 ADD CALLDATALOAD SWAP1 DUP5 ADD MSTORE POP DUP2 ADD DUP4 SWAP1 MSTORE TIMESTAMP PUSH1 0x60 DUP3 ADD MSTORE PUSH1 0x80 ADD PUSH1 0x40 MLOAD DUP1 SWAP2 SUB SWAP1 LOG1 PUSH32 0x2B8215859742E5CD71FEC0F2BEF678D9F3BDB31DD5DCEDA7643DD0FC8D54BD4B CALLER DUP14 DUP14 DUP7 DUP2 DUP2 LT PUSH2 0xC21 JUMPI PUSH2 0xC21 PUSH2 0x284B JUMP JUMPDEST PUSH1 0x40 DUP1 MLOAD PUSH1 0x1 PUSH1 0x1 PUSH1 0xA0 SHL SUB SWAP1 SWAP6 AND DUP6 MSTORE PUSH1 0x20 SWAP2 DUP3 MUL SWAP4 SWAP1 SWAP4 ADD CALLDATALOAD SWAP1 DUP5 ADD MSTORE POP ADD PUSH1 0x40 MLOAD DUP1 SWAP2 SUB SWAP1 LOG1 PUSH2 0xC6C DUP13 DUP13 DUP6 DUP2 DUP2 LT PUSH2 0xC5F JUMPI PUSH2 0xC5F PUSH2 0x284B JUMP JUMPDEST SWAP1 POP PUSH1 0x20 MUL ADD CALLDATALOAD DUP4 PUSH2 0x1817 JUMP JUMPDEST PUSH1 0x72 SLOAD DUP3 GT PUSH2 0xCDB JUMPI PUSH1 0x0 PUSH1 0x5 DUP12 DUP12 DUP7 DUP2 DUP2 LT PUSH2 0xC8B JUMPI PUSH2 0xC8B PUSH2 0x284B JUMP JUMPDEST SWAP1 POP PUSH1 0x20 MUL ADD CALLDATALOAD PUSH2 0xC9C SWAP2 SWAP1 PUSH2 0x29AA JUMP JUMPDEST PUSH2 0xCA7 SWAP1 PUSH1 0x1 PUSH2 0x2992 JUMP JUMPDEST SWAP1 POP PUSH1 0x0 PUSH2 0xCB4 DUP3 PUSH2 0x15EA JUMP JUMPDEST SWAP1 POP PUSH2 0xCD8 DUP2 DUP16 DUP16 DUP9 DUP2 DUP2 LT PUSH2 0xCCC JUMPI PUSH2 0xCCC PUSH2 0x284B JUMP JUMPDEST SWAP1 POP PUSH1 0x20 MUL ADD CALLDATALOAD PUSH2 0x1B9F JUMP JUMPDEST POP POP JUMPDEST DUP7 ISZERO PUSH2 0xCFB JUMPI PUSH2 0xCF6 DUP13 DUP13 DUP6 DUP2 DUP2 LT PUSH2 0x81B JUMPI PUSH2 0x81B PUSH2 0x284B JUMP JUMPDEST PUSH2 0xDB4 JUMP JUMPDEST PUSH2 0xD10 DUP13 DUP13 DUP6 DUP2 DUP2 LT PUSH2 0xA5A JUMPI PUSH2 0xA5A PUSH2 0x284B JUMP JUMPDEST POP PUSH1 0x66 SLOAD PUSH1 0x1 PUSH1 0x1 PUSH1 0xA0 SHL SUB AND PUSH4 0xB88D4FDE ADDRESS CALLER DUP16 DUP16 DUP9 DUP2 DUP2 LT PUSH2 0xD36 JUMPI PUSH2 0xD36 PUSH2 0x284B JUMP JUMPDEST PUSH1 0x40 MLOAD PUSH1 0x1 PUSH1 0x1 PUSH1 0xE0 SHL SUB NOT PUSH1 0xE0 DUP9 SWAP1 SHL AND DUP2 MSTORE PUSH1 0x1 PUSH1 0x1 PUSH1 0xA0 SHL SUB SWAP6 DUP7 AND PUSH1 0x4 DUP3 ADD MSTORE SWAP5 SWAP1 SWAP4 AND PUSH1 0x24 DUP6 ADD MSTORE POP PUSH1 0x20 SWAP1 SWAP2 MUL ADD CALLDATALOAD PUSH1 0x44 DUP3 ADD MSTORE PUSH1 0x80 PUSH1 0x64 DUP3 ADD MSTORE PUSH1 0x0 PUSH1 0x84 DUP3 ADD MSTORE PUSH1 0xA4 ADD PUSH1 0x0 PUSH1 0x40 MLOAD DUP1 DUP4 SUB DUP2 PUSH1 0x0 DUP8 DUP1 EXTCODESIZE ISZERO DUP1 ISZERO PUSH2 0xD9B JUMPI PUSH1 0x0 DUP1 REVERT JUMPDEST POP GAS CALL ISZERO DUP1 ISZERO PUSH2 0xDAF JUMPI RETURNDATASIZE PUSH1 0x0 DUP1 RETURNDATACOPY RETURNDATASIZE PUSH1 0x0 REVERT JUMPDEST POP POP POP POP JUMPDEST POP POP DUP1 DUP1 PUSH2 0xDC1 SWAP1 PUSH2 0x2877 JUMP JUMPDEST SWAP2 POP POP PUSH2 0x979 JUMP JUMPDEST POP PUSH1 0x65 SLOAD PUSH1 0x40 MLOAD PUSH4 0x40C10F19 PUSH1 0xE0 SHL DUP2 MSTORE CALLER PUSH1 0x4 DUP3 ADD MSTORE PUSH1 0x24 DUP2 ADD DUP4 SWAP1 MSTORE PUSH1 0x1 PUSH1 0x1 PUSH1 0xA0 SHL SUB SWAP1 SWAP2 AND SWAP1 PUSH4 0x40C10F19 SWAP1 PUSH1 0x44 ADD PUSH1 0x0 PUSH1 0x40 MLOAD DUP1 DUP4 SUB DUP2 PUSH1 0x0 DUP8 DUP1 EXTCODESIZE ISZERO DUP1 ISZERO PUSH2 0xE16 JUMPI PUSH1 0x0 DUP1 REVERT JUMPDEST POP GAS CALL ISZERO DUP1 ISZERO PUSH2 0xE2A JUMPI RETURNDATASIZE PUSH1 0x0 DUP1 RETURNDATACOPY RETURNDATASIZE PUSH1 0x0 REVERT JUMPDEST POP POP POP POP POP POP POP POP POP POP POP POP POP JUMP JUMPDEST PUSH1 0x0 PUSH1 0xA DUP3 LT PUSH2 0xE77 JUMPI PUSH1 0x14 DUP3 LT PUSH2 0xE70 JUMPI PUSH1 0x32 DUP3 LT PUSH2 0xE69 JUMPI PUSH1 0x64 DUP3 LT PUSH2 0xE62 JUMPI PUSH1 0x4 PUSH2 0xE7A JUMP JUMPDEST PUSH1 0x3 PUSH2 0xE7A JUMP JUMPDEST PUSH1 0x2 PUSH2 0xE7A JUMP JUMPDEST PUSH1 0x1 PUSH2 0xE7A JUMP JUMPDEST PUSH1 0x0 JUMPDEST SWAP3 SWAP2 POP POP JUMP JUMPDEST PUSH1 0x33 SLOAD PUSH1 0x1 PUSH1 0x1 PUSH1 0xA0 SHL SUB AND CALLER EQ PUSH2 0xEAA JUMPI PUSH1 0x40 MLOAD PUSH3 0x461BCD PUSH1 0xE5 SHL DUP2 MSTORE PUSH1 0x4 ADD PUSH2 0x6A2 SWAP1 PUSH2 0x2890 JUMP JUMPDEST PUSH1 0x65 DUP1 SLOAD PUSH1 0x1 PUSH1 0x1 PUSH1 0xA0 SHL SUB NOT AND PUSH1 0x1 PUSH1 0x1 PUSH1 0xA0 SHL SUB SWAP3 SWAP1 SWAP3 AND SWAP2 SWAP1 SWAP2 OR SWAP1 SSTORE JUMP JUMPDEST PUSH1 0x66 SLOAD PUSH1 0x40 MLOAD PUSH4 0x32B7D67 PUSH1 0xE6 SHL DUP2 MSTORE PUSH1 0x4 DUP2 ADD DUP4 SWAP1 MSTORE PUSH1 0x0 SWAP2 DUP3 SWAP2 PUSH1 0x1 PUSH1 0x1 PUSH1 0xA0 SHL SUB SWAP1 SWAP2 AND SWAP1 PUSH4 0xCADF59C0 SWAP1 PUSH1 0x24 ADD PUSH1 0x20 PUSH1 0x40 MLOAD DUP1 DUP4 SUB DUP2 DUP7 GAS STATICCALL ISZERO DUP1 ISZERO PUSH2 0xF1A JUMPI RETURNDATASIZE PUSH1 0x0 DUP1 RETURNDATACOPY RETURNDATASIZE PUSH1 0x0 REVERT JUMPDEST POP POP POP POP PUSH1 0x40 MLOAD RETURNDATASIZE PUSH1 0x1F NOT PUSH1 0x1F DUP3 ADD AND DUP3 ADD DUP1 PUSH1 0x40 MSTORE POP DUP2 ADD SWAP1 PUSH2 0xF3E SWAP2 SWAP1 PUSH2 0x2832 JUMP JUMPDEST SWAP1 POP PUSH2 0xF49 DUP2 PUSH2 0x15EA JUMP JUMPDEST SWAP4 SWAP3 POP POP POP JUMP JUMPDEST PUSH1 0x33 SLOAD PUSH1 0x1 PUSH1 0x1 PUSH1 0xA0 SHL SUB AND CALLER EQ PUSH2 0xF7A JUMPI PUSH1 0x40 MLOAD PUSH3 0x461BCD PUSH1 0xE5 SHL DUP2 MSTORE PUSH1 0x4 ADD PUSH2 0x6A2 SWAP1 PUSH2 0x2890 JUMP JUMPDEST PUSH1 0x76 SSTORE JUMP JUMPDEST PUSH1 0x33 SLOAD PUSH1 0x1 PUSH1 0x1 PUSH1 0xA0 SHL SUB AND CALLER EQ PUSH2 0xFA9 JUMPI PUSH1 0x40 MLOAD PUSH3 0x461BCD PUSH1 0xE5 SHL DUP2 MSTORE PUSH1 0x4 ADD PUSH2 0x6A2 SWAP1 PUSH2 0x2890 JUMP JUMPDEST PUSH1 0x70 SSTORE JUMP JUMPDEST PUSH1 0x33 SLOAD PUSH1 0x1 PUSH1 0x1 PUSH1 0xA0 SHL SUB AND CALLER EQ PUSH2 0xFD8 JUMPI PUSH1 0x40 MLOAD PUSH3 0x461BCD PUSH1 0xE5 SHL DUP2 MSTORE PUSH1 0x4 ADD PUSH2 0x6A2 SWAP1 PUSH2 0x2890 JUMP JUMPDEST PUSH2 0xFE2 PUSH1 0x0 PUSH2 0x1DEC JUMP JUMPDEST JUMP JUMPDEST PUSH1 0x60 DUP1 PUSH1 0x0 DUP4 PUSH8 0xFFFFFFFFFFFFFFFF DUP2 GT ISZERO PUSH2 0x1002 JUMPI PUSH2 0x1002 PUSH2 0x25CE JUMP JUMPDEST PUSH1 0x40 MLOAD SWAP1 DUP1 DUP3 MSTORE DUP1 PUSH1 0x20 MUL PUSH1 0x20 ADD DUP3 ADD PUSH1 0x40 MSTORE DUP1 ISZERO PUSH2 0x102B JUMPI DUP2 PUSH1 0x20 ADD PUSH1 0x20 DUP3 MUL DUP1 CALLDATASIZE DUP4 CALLDATACOPY ADD SWAP1 POP JUMPDEST POP SWAP1 POP PUSH1 0x0 JUMPDEST DUP5 DUP2 LT ISZERO PUSH2 0x1094 JUMPI PUSH1 0x6C PUSH1 0x0 DUP8 DUP8 DUP5 DUP2 DUP2 LT PUSH2 0x104F JUMPI PUSH2 0x104F PUSH2 0x284B JUMP JUMPDEST SWAP1 POP PUSH1 0x20 MUL ADD CALLDATALOAD DUP2 MSTORE PUSH1 0x20 ADD SWAP1 DUP2 MSTORE PUSH1 0x20 ADD PUSH1 0x0 KECCAK256 SLOAD DUP3 DUP3 DUP2 MLOAD DUP2 LT PUSH2 0x1077 JUMPI PUSH2 0x1077 PUSH2 0x284B JUMP JUMPDEST PUSH1 0x20 SWAP1 DUP2 MUL SWAP2 SWAP1 SWAP2 ADD ADD MSTORE DUP1 PUSH2 0x108C DUP2 PUSH2 0x2877 JUMP JUMPDEST SWAP2 POP POP PUSH2 0x1031 JUMP JUMPDEST POP DUP5 DUP5 DUP3 DUP3 DUP3 DUP1 DUP1 PUSH1 0x20 MUL PUSH1 0x20 ADD PUSH1 0x40 MLOAD SWAP1 DUP2 ADD PUSH1 0x40 MSTORE DUP1 SWAP4 SWAP3 SWAP2 SWAP1 DUP2 DUP2 MSTORE PUSH1 0x20 ADD DUP4 DUP4 PUSH1 0x20 MUL DUP1 DUP3 DUP5 CALLDATACOPY PUSH1 0x0 SWAP3 ADD SWAP2 SWAP1 SWAP2 MSTORE POP SWAP3 SWAP9 POP SWAP3 SWAP7 POP POP POP POP POP POP POP JUMPDEST SWAP3 POP SWAP3 SWAP1 POP JUMP JUMPDEST PUSH1 0x0 PUSH2 0x10E8 PUSH1 0x1 PUSH2 0x1E3E JUMP JUMPDEST SWAP1 POP DUP1 ISZERO PUSH2 0x1100 JUMPI PUSH1 0x0 DUP1 SLOAD PUSH2 0xFF00 NOT AND PUSH2 0x100 OR SWAP1 SSTORE JUMPDEST PUSH1 0x65 DUP1 SLOAD PUSH1 0x1 PUSH1 0x1 PUSH1 0xA0 SHL SUB NOT SWAP1 DUP2 AND PUSH1 0x1 PUSH1 0x1 PUSH1 0xA0 SHL SUB DUP11 DUP2 AND SWAP2 SWAP1 SWAP2 OR SWAP1 SWAP3 SSTORE PUSH1 0x66 DUP1 SLOAD DUP3 AND DUP10 DUP5 AND OR SWAP1 SSTORE PUSH1 0x67 DUP1 SLOAD DUP3 AND DUP9 DUP5 AND OR SWAP1 SSTORE PUSH1 0x69 DUP1 SLOAD DUP3 AND DUP8 DUP5 AND OR SWAP1 SSTORE PUSH1 0x68 DUP1 SLOAD DUP3 AND DUP7 DUP5 AND OR SWAP1 SSTORE PUSH1 0x6A DUP1 SLOAD SWAP1 SWAP2 AND SWAP2 DUP5 AND SWAP2 SWAP1 SWAP2 OR SWAP1 SSTORE PUSH2 0x116A PUSH2 0x1EC3 JUMP JUMPDEST PUSH1 0x6E DUP1 SLOAD PUSH1 0xFF NOT AND SWAP1 SSTORE PUSH2 0x3E8 PUSH1 0x6F SSTORE PUSH9 0x15AF1D78B58C40000 PUSH1 0x70 SSTORE PUSH1 0x1 PUSH1 0x71 DUP2 SWAP1 SSTORE PUSH1 0xC8 PUSH1 0x72 SSTORE PUSH1 0x74 DUP1 SLOAD PUSH20 0x1010E71D9839B902F3AFE9E8D9E3352A8D78D82 PUSH1 0x1 PUSH1 0x1 PUSH1 0xA0 SHL SUB NOT SWAP1 SWAP2 AND OR SWAP1 SSTORE PUSH3 0x14CD0 PUSH1 0x76 SSTORE PUSH1 0x40 DUP1 MLOAD PUSH1 0x60 DUP1 DUP3 ADD DUP4 MSTORE PUSH2 0x2B2 DUP3 MSTORE PUSH1 0xFA PUSH1 0x20 DUP1 DUP5 ADD SWAP2 DUP3 MSTORE PUSH1 0x3C DUP5 DUP7 ADD SWAP1 DUP2 MSTORE PUSH1 0x0 DUP1 DUP1 MSTORE PUSH1 0x73 DUP1 DUP5 MSTORE SWAP6 MLOAD PUSH32 0x37752FB6C52D3EDEAD1B46E6BC9CAAF15E79E8A8593990DBA84E5007780D3F99 DUP1 SLOAD SWAP6 MLOAD SWAP4 MLOAD PUSH2 0xFFFF SWAP3 DUP4 AND PUSH4 0xFFFFFFFF NOT SWAP8 DUP9 AND OR PUSH3 0x10000 SWAP6 DUP5 AND DUP7 MUL OR PUSH6 0xFFFF00000000 NOT SWAP1 DUP2 AND PUSH5 0x100000000 SWAP3 DUP6 AND DUP4 MUL OR SWAP1 SWAP3 SSTORE DUP10 MLOAD DUP1 DUP10 ADD DUP12 MSTORE PUSH2 0x276 DUP2 MSTORE PUSH2 0x122 DUP2 DUP9 ADD SWAP1 DUP2 MSTORE PUSH1 0x50 DUP3 DUP14 ADD SWAP1 DUP2 MSTORE SWAP13 DUP7 MSTORE DUP11 DUP9 MSTORE SWAP1 MLOAD PUSH32 0x311261BB81894CE0A38A909D14E87B1170932E4F9E501F1F188BCDDFAA6989CC DUP1 SLOAD SWAP3 MLOAD SWAP14 MLOAD SWAP2 DUP7 AND SWAP3 DUP11 AND SWAP3 SWAP1 SWAP3 OR SWAP13 DUP6 AND DUP8 MUL SWAP13 SWAP1 SWAP13 OR DUP4 AND SWAP12 DUP5 AND DUP3 MUL SWAP12 SWAP1 SWAP12 OR SWAP1 SWAP11 SSTORE DUP9 MLOAD DUP1 DUP9 ADD DUP11 MSTORE PUSH2 0x23A DUP2 MSTORE PUSH2 0x14A DUP2 DUP8 ADD SWAP1 DUP2 MSTORE PUSH1 0x64 DUP3 DUP13 ADD SWAP1 DUP2 MSTORE PUSH1 0x2 DUP7 MSTORE DUP11 DUP9 MSTORE SWAP2 MLOAD PUSH32 0x11D66F64E5B3BE7984756D8958394FE1C58314780E161DE105BB1C9ECB6339C6 DUP1 SLOAD SWAP3 MLOAD SWAP4 MLOAD DUP7 AND DUP15 MUL SWAP4 DUP7 AND DUP9 MUL SWAP3 DUP11 AND SWAP2 DUP7 AND SWAP2 SWAP1 SWAP2 OR SWAP2 SWAP1 SWAP2 OR DUP4 AND SWAP2 SWAP1 SWAP2 OR SWAP1 SSTORE DUP9 MLOAD DUP1 DUP9 ADD DUP11 MSTORE PUSH2 0x1F4 DUP2 MSTORE PUSH2 0x15E DUP2 DUP8 ADD DUP2 DUP2 MSTORE PUSH1 0x96 DUP4 DUP14 ADD SWAP1 DUP2 MSTORE PUSH1 0x3 DUP8 MSTORE DUP12 DUP10 MSTORE SWAP3 MLOAD PUSH32 0x2927E5704BE5824A6D0B06CF45D464E8A0C1A9EB7933F9C7E5FF3C8F7604F6E6 DUP1 SLOAD SWAP3 MLOAD SWAP5 MLOAD SWAP2 DUP8 AND SWAP3 DUP12 AND SWAP3 SWAP1 SWAP3 OR SWAP4 DUP7 AND DUP9 MUL SWAP4 SWAP1 SWAP4 OR DUP5 AND SWAP3 DUP6 AND DUP14 MUL SWAP3 SWAP1 SWAP3 OR SWAP1 SWAP2 SSTORE DUP10 MLOAD SWAP8 DUP9 ADD DUP11 MSTORE DUP8 MSTORE PUSH2 0x1A9 DUP8 DUP7 ADD SWAP1 DUP2 MSTORE PUSH1 0xE1 SWAP10 DUP9 ADD SWAP10 DUP11 MSTORE PUSH1 0x4 SWAP1 SWAP4 MSTORE SWAP7 SWAP1 SWAP4 MSTORE SWAP4 MLOAD PUSH32 0x10B53080705EE4422DB8945E63557A5AA899BA0C82C680A36B11C2BB9F384801 DUP1 SLOAD SWAP6 MLOAD SWAP8 MLOAD DUP5 AND SWAP1 SWAP9 MUL SWAP7 DUP4 AND SWAP1 SWAP2 MUL SWAP4 SWAP1 SWAP3 AND SWAP2 AND OR OR AND OR SWAP1 SSTORE DUP1 ISZERO PUSH2 0x143B JUMPI PUSH1 0x0 DUP1 SLOAD PUSH2 0xFF00 NOT AND SWAP1 SSTORE PUSH1 0x40 MLOAD PUSH1 0x1 DUP2 MSTORE PUSH32 0x7F26B83FF96E1F2B6A682F133852F6798A09C465DA95921460CEFB3847402498 SWAP1 PUSH1 0x20 ADD PUSH1 0x40 MLOAD DUP1 SWAP2 SUB SWAP1 LOG1 JUMPDEST POP POP POP POP POP POP POP JUMP JUMPDEST PUSH1 0x76 SLOAD PUSH1 0x0 DUP3 DUP2 MSTORE PUSH1 0x6B PUSH1 0x20 MSTORE PUSH1 0x40 DUP2 KECCAK256 SLOAD SWAP1 SWAP2 SWAP1 PUSH2 0x1463 SWAP1 TIMESTAMP PUSH2 0x2932 JUMP JUMPDEST GT SWAP3 SWAP2 POP POP JUMP JUMPDEST PUSH1 0x40 MLOAD PUSH12 0xFFFFFFFFFFFFFFFFFFFFFFFF NOT CALLER PUSH1 0x60 SHL AND PUSH1 0x20 DUP3 ADD MSTORE PUSH1 0x34 DUP2 ADD DUP3 SWAP1 MSTORE PUSH1 0x54 DUP2 ADD DUP4 SWAP1 MSTORE PUSH1 0x0 SWAP1 DUP4 SWAP1 PUSH1 0x74 ADD PUSH1 0x40 MLOAD PUSH1 0x20 DUP2 DUP4 SUB SUB DUP2 MSTORE SWAP1 PUSH1 0x40 MSTORE DUP1 MLOAD SWAP1 PUSH1 0x20 ADD KECCAK256 PUSH1 0x0 SHR PUSH2 0x14BE SWAP2 SWAP1 PUSH2 0x29AA JUMP JUMPDEST PUSH2 0xF49 SWAP1 PUSH1 0x1 PUSH2 0x2992 JUMP JUMPDEST PUSH1 0x33 SLOAD PUSH1 0x1 PUSH1 0x1 PUSH1 0xA0 SHL SUB AND CALLER EQ PUSH2 0x14F3 JUMPI PUSH1 0x40 MLOAD PUSH3 0x461BCD PUSH1 0xE5 SHL DUP2 MSTORE PUSH1 0x4 ADD PUSH2 0x6A2 SWAP1 PUSH2 0x2890 JUMP JUMPDEST PUSH1 0x72 SSTORE JUMP JUMPDEST PUSH1 0x33 SLOAD PUSH1 0x1 PUSH1 0x1 PUSH1 0xA0 SHL SUB AND CALLER EQ PUSH2 0x1522 JUMPI PUSH1 0x40 MLOAD PUSH3 0x461BCD PUSH1 0xE5 SHL DUP2 MSTORE PUSH1 0x4 ADD PUSH2 0x6A2 SWAP1 PUSH2 0x2890 JUMP JUMPDEST PUSH1 0x6E DUP1 SLOAD PUSH1 0xFF NOT DUP2 AND PUSH1 0xFF SWAP1 SWAP2 AND ISZERO OR SWAP1 SSTORE JUMP JUMPDEST PUSH1 0x1 PUSH1 0x1 PUSH1 0xA0 SHL SUB DUP2 AND PUSH1 0x0 SWAP1 DUP2 MSTORE PUSH1 0x6D PUSH1 0x20 MSTORE PUSH1 0x40 DUP2 KECCAK256 PUSH1 0x60 SWAP2 PUSH2 0x155A DUP3 PUSH2 0x1EF2 JUMP JUMPDEST PUSH8 0xFFFFFFFFFFFFFFFF DUP2 GT ISZERO PUSH2 0x1572 JUMPI PUSH2 0x1572 PUSH2 0x25CE JUMP JUMPDEST PUSH1 0x40 MLOAD SWAP1 DUP1 DUP3 MSTORE DUP1 PUSH1 0x20 MUL PUSH1 0x20 ADD DUP3 ADD PUSH1 0x40 MSTORE DUP1 ISZERO PUSH2 0x159B JUMPI DUP2 PUSH1 0x20 ADD PUSH1 0x20 DUP3 MUL DUP1 CALLDATASIZE DUP4 CALLDATACOPY ADD SWAP1 POP JUMPDEST POP SWAP1 POP PUSH1 0x0 JUMPDEST PUSH2 0x15AA DUP4 PUSH2 0x1EF2 JUMP JUMPDEST DUP2 LT ISZERO PUSH2 0x670 JUMPI PUSH2 0x15BB DUP4 DUP3 PUSH2 0x1EFC JUMP JUMPDEST DUP3 DUP3 DUP2 MLOAD DUP2 LT PUSH2 0x15CD JUMPI PUSH2 0x15CD PUSH2 0x284B JUMP JUMPDEST PUSH1 0x20 SWAP1 DUP2 MUL SWAP2 SWAP1 SWAP2 ADD ADD MSTORE DUP1 PUSH2 0x15E2 DUP2 PUSH2 0x2877 JUMP JUMPDEST SWAP2 POP POP PUSH2 0x15A1 JUMP JUMPDEST PUSH1 0x0 DUP2 PUSH1 0x1 EQ PUSH2 0x161A JUMPI DUP2 PUSH1 0x2 EQ PUSH2 0xE62 JUMPI DUP2 PUSH1 0x3 EQ PUSH2 0xE70 JUMPI DUP2 PUSH1 0x4 EQ PUSH2 0x1613 JUMPI PUSH1 0x4 PUSH2 0xE7A JUMP JUMPDEST PUSH1 0x0 PUSH2 0xE7A JUMP JUMPDEST PUSH1 0x2 SWAP3 SWAP2 POP POP JUMP JUMPDEST PUSH1 0x33 SLOAD PUSH1 0x1 PUSH1 0x1 PUSH1 0xA0 SHL SUB AND CALLER EQ PUSH2 0x164C JUMPI PUSH1 0x40 MLOAD PUSH3 0x461BCD PUSH1 0xE5 SHL DUP2 MSTORE PUSH1 0x4 ADD PUSH2 0x6A2 SWAP1 PUSH2 0x2890 JUMP JUMPDEST PUSH1 0x1 PUSH1 0x1 PUSH1 0xA0 SHL SUB DUP2 AND PUSH2 0x16B1 JUMPI PUSH1 0x40 MLOAD PUSH3 0x461BCD PUSH1 0xE5 SHL DUP2 MSTORE PUSH1 0x20 PUSH1 0x4 DUP3 ADD MSTORE PUSH1 0x26 PUSH1 0x24 DUP3 ADD MSTORE PUSH32 0x4F776E61626C653A206E6577206F776E657220697320746865207A65726F2061 PUSH1 0x44 DUP3 ADD MSTORE PUSH6 0x646472657373 PUSH1 0xD0 SHL PUSH1 0x64 DUP3 ADD MSTORE PUSH1 0x84 ADD PUSH2 0x6A2 JUMP JUMPDEST PUSH2 0x16BA DUP2 PUSH2 0x1DEC JUMP JUMPDEST POP JUMP JUMPDEST PUSH1 0x6E SLOAD PUSH1 0xFF AND PUSH2 0x1709 JUMPI PUSH1 0x40 MLOAD PUSH3 0x461BCD PUSH1 0xE5 SHL DUP2 MSTORE PUSH1 0x20 PUSH1 0x4 DUP3 ADD MSTORE PUSH1 0x17 PUSH1 0x24 DUP3 ADD MSTORE PUSH23 0x5175657374696E67206D75737420626520616374697665 PUSH1 0x48 SHL PUSH1 0x44 DUP3 ADD MSTORE PUSH1 0x64 ADD PUSH2 0x6A2 JUMP JUMPDEST PUSH1 0x0 DUP2 DUP2 MSTORE PUSH1 0x6B PUSH1 0x20 SWAP1 DUP2 MSTORE PUSH1 0x40 DUP1 DUP4 KECCAK256 TIMESTAMP SWAP1 SSTORE PUSH1 0x6C SWAP1 SWAP2 MSTORE DUP2 KECCAK256 DUP1 SLOAD SWAP2 PUSH2 0x1730 DUP4 PUSH2 0x2877 JUMP JUMPDEST SWAP1 SWAP2 SSTORE POP POP CALLER PUSH1 0x0 SWAP1 DUP2 MSTORE PUSH1 0x6D PUSH1 0x20 MSTORE PUSH1 0x40 SWAP1 KECCAK256 PUSH2 0x174E SWAP1 DUP3 PUSH2 0x17F3 JUMP JUMPDEST PUSH2 0x176D JUMPI CALLER PUSH1 0x0 SWAP1 DUP2 MSTORE PUSH1 0x6D PUSH1 0x20 MSTORE PUSH1 0x40 SWAP1 KECCAK256 PUSH2 0x176B SWAP1 DUP3 PUSH2 0x1F08 JUMP JUMPDEST POP JUMPDEST PUSH32 0xEEB688E49CA64099EF8805ECE271B6B294BAB610960661AD2FBEA3EC0D943BC8 CALLER DUP3 PUSH1 0x76 SLOAD TIMESTAMP PUSH2 0x179E SWAP2 SWAP1 PUSH2 0x2992 JUMP JUMPDEST PUSH1 0x40 DUP1 MLOAD PUSH1 0x1 PUSH1 0x1 PUSH1 0xA0 SHL SUB SWAP1 SWAP5 AND DUP5 MSTORE PUSH1 0x20 DUP5 ADD SWAP3 SWAP1 SWAP3 MSTORE SWAP1 DUP3 ADD MSTORE PUSH1 0x60 ADD PUSH1 0x40 MLOAD DUP1 SWAP2 SUB SWAP1 LOG1 POP JUMP JUMPDEST PUSH1 0x74 SLOAD PUSH1 0x0 SWAP1 PUSH1 0x1 PUSH1 0x1 PUSH1 0xA0 SHL SUB AND PUSH2 0x17E2 DUP5 DUP5 PUSH2 0x1F14 JUMP JUMPDEST PUSH1 0x1 PUSH1 0x1 PUSH1 0xA0 SHL SUB AND EQ SWAP4 SWAP3 POP POP POP JUMP JUMPDEST PUSH1 0x0 DUP2 DUP2 MSTORE PUSH1 0x1 DUP4 ADD PUSH1 0x20 MSTORE PUSH1 0x40 DUP2 KECCAK256 SLOAD ISZERO ISZERO PUSH2 0xF49 JUMP JUMPDEST PUSH1 0x0 PUSH2 0xF49 DUP4 DUP4 PUSH2 0x1F30 JUMP JUMPDEST PUSH1 0x66 SLOAD PUSH1 0x40 MLOAD PUSH4 0x585E394D PUSH1 0xE1 SHL DUP2 MSTORE PUSH1 0x4 DUP2 ADD DUP5 SWAP1 MSTORE PUSH1 0x0 SWAP2 PUSH1 0x1 PUSH1 0x1 PUSH1 0xA0 SHL SUB AND SWAP1 PUSH4 0xB0BC729A SWAP1 PUSH1 0x24 ADD PUSH1 0x20 PUSH1 0x40 MLOAD DUP1 DUP4 SUB DUP2 DUP7 GAS STATICCALL ISZERO DUP1 ISZERO PUSH2 0x1861 JUMPI RETURNDATASIZE PUSH1 0x0 DUP1 RETURNDATACOPY RETURNDATASIZE PUSH1 0x0 REVERT JUMPDEST POP POP POP POP PUSH1 0x40 MLOAD RETURNDATASIZE PUSH1 0x1F NOT PUSH1 0x1F DUP3 ADD AND DUP3 ADD DUP1 PUSH1 0x40 MSTORE POP DUP2 ADD SWAP1 PUSH2 0x1885 SWAP2 SWAP1 PUSH2 0x2832 JUMP JUMPDEST SWAP1 POP PUSH1 0x0 PUSH2 0x1892 DUP3 PUSH2 0xE39 JUMP JUMPDEST SWAP1 POP PUSH1 0x0 PUSH1 0x73 PUSH1 0x0 DUP4 PUSH1 0x4 DUP2 GT ISZERO PUSH2 0x18AC JUMPI PUSH2 0x18AC PUSH2 0x2714 JUMP JUMPDEST PUSH1 0x4 DUP2 GT ISZERO PUSH2 0x18BD JUMPI PUSH2 0x18BD PUSH2 0x2714 JUMP JUMPDEST DUP2 MSTORE PUSH1 0x20 DUP1 DUP3 ADD SWAP3 SWAP1 SWAP3 MSTORE PUSH1 0x40 SWAP1 DUP2 ADD PUSH1 0x0 SWAP1 DUP2 KECCAK256 DUP3 MLOAD PUSH1 0x60 DUP2 ADD DUP5 MSTORE SWAP1 SLOAD PUSH2 0xFFFF DUP1 DUP3 AND DUP1 DUP5 MSTORE PUSH3 0x10000 DUP4 DIV DUP3 AND SWAP7 DUP5 ADD SWAP7 SWAP1 SWAP7 MSTORE PUSH5 0x100000000 SWAP1 SWAP2 DIV AND SWAP3 DUP2 ADD SWAP3 SWAP1 SWAP3 MSTORE SWAP1 SWAP3 POP SWAP1 DUP6 LT ISZERO PUSH2 0x1918 JUMPI POP POP POP POP POP POP JUMP JUMPDEST DUP2 MLOAD PUSH1 0x20 DUP4 ADD MLOAD PUSH2 0x1929 SWAP2 SWAP1 PUSH2 0x29BE JUMP JUMPDEST PUSH2 0xFFFF AND DUP6 LT ISZERO PUSH2 0x1938 JUMPI POP PUSH1 0x0 JUMPDEST DUP2 MLOAD PUSH1 0x20 DUP4 ADD MLOAD PUSH2 0x1949 SWAP2 SWAP1 PUSH2 0x29BE JUMP JUMPDEST PUSH2 0xFFFF AND DUP6 LT PUSH2 0x1957 JUMPI POP PUSH1 0x2 JUMPDEST PUSH1 0x0 DUP2 PUSH1 0x2 DUP2 GT ISZERO PUSH2 0x196B JUMPI PUSH2 0x196B PUSH2 0x2714 JUMP JUMPDEST SUB PUSH2 0x1A92 JUMPI PUSH1 0x6A SLOAD PUSH1 0x40 MLOAD PUSH4 0x6ECDA19B PUSH1 0xE1 SHL DUP2 MSTORE PUSH1 0x0 SWAP2 PUSH1 0x1 PUSH1 0x1 PUSH1 0xA0 SHL SUB AND SWAP1 PUSH4 0xDD9B4336 SWAP1 PUSH2 0x19A3 SWAP1 DUP10 SWAP1 DUP6 SWAP1 PUSH1 0x4 ADD PUSH2 0x29F8 JUMP JUMPDEST PUSH1 0x20 PUSH1 0x40 MLOAD DUP1 DUP4 SUB DUP2 DUP7 GAS STATICCALL ISZERO DUP1 ISZERO PUSH2 0x19C0 JUMPI RETURNDATASIZE PUSH1 0x0 DUP1 RETURNDATACOPY RETURNDATASIZE PUSH1 0x0 REVERT JUMPDEST POP POP POP POP PUSH1 0x40 MLOAD RETURNDATASIZE PUSH1 0x1F NOT PUSH1 0x1F DUP3 ADD AND DUP3 ADD DUP1 PUSH1 0x40 MSTORE POP DUP2 ADD SWAP1 PUSH2 0x19E4 SWAP2 SWAP1 PUSH2 0x2832 JUMP JUMPDEST SWAP1 POP PUSH32 0x272E0687DE8F5594EBC786F177BDD6B4E1E6B64C02FF5B19EC2DA8925A4DB827 CALLER DUP9 PUSH1 0x0 DUP5 PUSH1 0x40 MLOAD PUSH2 0x1A1C SWAP5 SWAP4 SWAP3 SWAP2 SWAP1 PUSH2 0x2A0C JUMP JUMPDEST PUSH1 0x40 MLOAD DUP1 SWAP2 SUB SWAP1 LOG1 PUSH1 0x69 SLOAD PUSH1 0x40 MLOAD PUSH4 0x40C10F19 PUSH1 0xE0 SHL DUP2 MSTORE CALLER PUSH1 0x4 DUP3 ADD MSTORE PUSH1 0x24 DUP2 ADD DUP4 SWAP1 MSTORE PUSH1 0x1 PUSH1 0x1 PUSH1 0xA0 SHL SUB SWAP1 SWAP2 AND SWAP1 PUSH4 0x40C10F19 SWAP1 PUSH1 0x44 ADD JUMPDEST PUSH1 0x0 PUSH1 0x40 MLOAD DUP1 DUP4 SUB DUP2 PUSH1 0x0 DUP8 DUP1 EXTCODESIZE ISZERO DUP1 ISZERO PUSH2 0x1A71 JUMPI PUSH1 0x0 DUP1 REVERT JUMPDEST POP GAS CALL ISZERO DUP1 ISZERO PUSH2 0x1A85 JUMPI RETURNDATASIZE PUSH1 0x0 DUP1 RETURNDATACOPY RETURNDATASIZE PUSH1 0x0 REVERT JUMPDEST POP POP POP POP POP POP POP POP POP POP POP JUMP JUMPDEST PUSH1 0x2 DUP2 PUSH1 0x2 DUP2 GT ISZERO PUSH2 0x1AA6 JUMPI PUSH2 0x1AA6 PUSH2 0x2714 JUMP JUMPDEST SUB PUSH2 0x1B97 JUMPI PUSH1 0x6A SLOAD PUSH1 0x40 MLOAD PUSH4 0x6ECDA19B PUSH1 0xE1 SHL DUP2 MSTORE PUSH1 0x0 SWAP2 PUSH1 0x1 PUSH1 0x1 PUSH1 0xA0 SHL SUB AND SWAP1 PUSH4 0xDD9B4336 SWAP1 PUSH2 0x1ADF SWAP1 DUP10 SWAP1 PUSH1 0x2 SWAP1 PUSH1 0x4 ADD PUSH2 0x29F8 JUMP JUMPDEST PUSH1 0x20 PUSH1 0x40 MLOAD DUP1 DUP4 SUB DUP2 DUP7 GAS STATICCALL ISZERO DUP1 ISZERO PUSH2 0x1AFC JUMPI RETURNDATASIZE PUSH1 0x0 DUP1 RETURNDATACOPY RETURNDATASIZE PUSH1 0x0 REVERT JUMPDEST POP POP POP POP PUSH1 0x40 MLOAD RETURNDATASIZE PUSH1 0x1F NOT PUSH1 0x1F DUP3 ADD AND DUP3 ADD DUP1 PUSH1 0x40 MSTORE POP DUP2 ADD SWAP1 PUSH2 0x1B20 SWAP2 SWAP1 PUSH2 0x2832 JUMP JUMPDEST SWAP1 POP PUSH32 0x272E0687DE8F5594EBC786F177BDD6B4E1E6B64C02FF5B19EC2DA8925A4DB827 CALLER DUP9 PUSH1 0x2 DUP5 PUSH1 0x40 MLOAD PUSH2 0x1B58 SWAP5 SWAP4 SWAP3 SWAP2 SWAP1 PUSH2 0x2A0C JUMP JUMPDEST PUSH1 0x40 MLOAD DUP1 SWAP2 SUB SWAP1 LOG1 PUSH1 0x68 SLOAD PUSH1 0x40 MLOAD PUSH4 0x40C10F19 PUSH1 0xE0 SHL DUP2 MSTORE CALLER PUSH1 0x4 DUP3 ADD MSTORE PUSH1 0x24 DUP2 ADD DUP4 SWAP1 MSTORE PUSH1 0x1 PUSH1 0x1 PUSH1 0xA0 SHL SUB SWAP1 SWAP2 AND SWAP1 PUSH4 0x40C10F19 SWAP1 PUSH1 0x44 ADD PUSH2 0x1A57 JUMP JUMPDEST POP POP POP POP POP POP JUMP JUMPDEST PUSH1 0x2 DUP3 PUSH1 0x4 DUP2 GT ISZERO PUSH2 0x1BB3 JUMPI PUSH2 0x1BB3 PUSH2 0x2714 JUMP JUMPDEST SUB PUSH2 0x1C74 JUMPI PUSH1 0x66 SLOAD PUSH1 0x71 SLOAD PUSH1 0x40 MLOAD PUSH4 0x84103B99 PUSH1 0xE0 SHL DUP2 MSTORE PUSH1 0x4 DUP2 ADD DUP5 SWAP1 MSTORE PUSH1 0x24 DUP2 ADD SWAP2 SWAP1 SWAP2 MSTORE PUSH1 0x0 PUSH1 0x44 DUP3 ADD DUP2 SWAP1 MSTORE PUSH1 0x64 DUP3 ADD DUP2 SWAP1 MSTORE PUSH1 0x84 DUP3 ADD MSTORE PUSH1 0x1 PUSH1 0x1 PUSH1 0xA0 SHL SUB SWAP1 SWAP2 AND SWAP1 PUSH4 0x84103B99 SWAP1 PUSH1 0xA4 ADD JUMPDEST PUSH1 0x0 PUSH1 0x40 MLOAD DUP1 DUP4 SUB DUP2 PUSH1 0x0 DUP8 DUP1 EXTCODESIZE ISZERO DUP1 ISZERO PUSH2 0x1C1F JUMPI PUSH1 0x0 DUP1 REVERT JUMPDEST POP GAS CALL ISZERO DUP1 ISZERO PUSH2 0x1C33 JUMPI RETURNDATASIZE PUSH1 0x0 DUP1 RETURNDATACOPY RETURNDATASIZE PUSH1 0x0 REVERT JUMPDEST POP POP POP POP PUSH32 0x8745CE41804D354403D6912AE6393806FCDA20A0623C9859D2682E7ACD4C6D68 DUP2 DUP4 PUSH1 0x40 MLOAD PUSH2 0x1C68 SWAP3 SWAP2 SWAP1 PUSH2 0x2A3F JUMP JUMPDEST PUSH1 0x40 MLOAD DUP1 SWAP2 SUB SWAP1 LOG1 POP POP JUMP JUMPDEST PUSH1 0x1 DUP3 PUSH1 0x4 DUP2 GT ISZERO PUSH2 0x1C88 JUMPI PUSH2 0x1C88 PUSH2 0x2714 JUMP JUMPDEST SUB PUSH2 0x1CE1 JUMPI PUSH1 0x66 SLOAD PUSH1 0x71 SLOAD PUSH1 0x40 MLOAD PUSH4 0x84103B99 PUSH1 0xE0 SHL DUP2 MSTORE PUSH1 0x4 DUP2 ADD DUP5 SWAP1 MSTORE PUSH1 0x0 PUSH1 0x24 DUP3 ADD DUP2 SWAP1 MSTORE PUSH1 0x44 DUP3 ADD DUP2 SWAP1 MSTORE PUSH1 0x64 DUP3 ADD SWAP3 SWAP1 SWAP3 MSTORE PUSH1 0x84 DUP2 ADD SWAP2 SWAP1 SWAP2 MSTORE PUSH1 0x1 PUSH1 0x1 PUSH1 0xA0 SHL SUB SWAP1 SWAP2 AND SWAP1 PUSH4 0x84103B99 SWAP1 PUSH1 0xA4 ADD PUSH2 0x1C05 JUMP JUMPDEST PUSH1 0x0 DUP3 PUSH1 0x4 DUP2 GT ISZERO PUSH2 0x1CF5 JUMPI PUSH2 0x1CF5 PUSH2 0x2714 JUMP JUMPDEST SUB PUSH2 0x1D4B JUMPI PUSH1 0x66 SLOAD PUSH1 0x71 SLOAD PUSH1 0x40 MLOAD PUSH4 0x84103B99 PUSH1 0xE0 SHL DUP2 MSTORE PUSH1 0x4 DUP2 ADD DUP5 SWAP1 MSTORE PUSH1 0x0 PUSH1 0x24 DUP3 ADD DUP2 SWAP1 MSTORE PUSH1 0x44 DUP3 ADD DUP2 SWAP1 MSTORE PUSH1 0x64 DUP3 ADD MSTORE PUSH1 0x84 DUP2 ADD SWAP2 SWAP1 SWAP2 MSTORE PUSH1 0x1 PUSH1 0x1 PUSH1 0xA0 SHL SUB SWAP1 SWAP2 AND SWAP1 PUSH4 0x84103B99 SWAP1 PUSH1 0xA4 ADD PUSH2 0x1C05 JUMP JUMPDEST PUSH1 0x3 DUP3 PUSH1 0x4 DUP2 GT ISZERO PUSH2 0x1D5F JUMPI PUSH2 0x1D5F PUSH2 0x2714 JUMP JUMPDEST SUB PUSH2 0x1DB8 JUMPI PUSH1 0x66 SLOAD PUSH1 0x71 SLOAD PUSH1 0x40 MLOAD PUSH4 0x84103B99 PUSH1 0xE0 SHL DUP2 MSTORE PUSH1 0x4 DUP2 ADD DUP5 SWAP1 MSTORE PUSH1 0x0 PUSH1 0x24 DUP3 ADD DUP2 SWAP1 MSTORE PUSH1 0x44 DUP3 ADD SWAP3 SWAP1 SWAP3 MSTORE PUSH1 0x64 DUP2 ADD DUP3 SWAP1 MSTORE PUSH1 0x84 DUP2 ADD SWAP2 SWAP1 SWAP2 MSTORE PUSH1 0x1 PUSH1 0x1 PUSH1 0xA0 SHL SUB SWAP1 SWAP2 AND SWAP1 PUSH4 0x84103B99 SWAP1 PUSH1 0xA4 ADD PUSH2 0x1C05 JUMP JUMPDEST PUSH1 0x4 DUP3 PUSH1 0x4 DUP2 GT ISZERO PUSH2 0x1DCC JUMPI PUSH2 0x1DCC PUSH2 0x2714 JUMP JUMPDEST SUB PUSH2 0x1DE8 JUMPI PUSH1 0x0 PUSH2 0x1DDC DUP3 PUSH2 0xECC JUMP JUMPDEST SWAP1 POP PUSH2 0x839 DUP2 DUP4 PUSH2 0x1B9F JUMP JUMPDEST POP POP JUMP JUMPDEST PUSH1 0x33 DUP1 SLOAD PUSH1 0x1 PUSH1 0x1 PUSH1 0xA0 SHL SUB DUP4 DUP2 AND PUSH1 0x1 PUSH1 0x1 PUSH1 0xA0 SHL SUB NOT DUP4 AND DUP2 OR SWAP1 SWAP4 SSTORE PUSH1 0x40 MLOAD SWAP2 AND SWAP2 SWAP1 DUP3 SWAP1 PUSH32 0x8BE0079C531659141344CD1FD0A4F28419497F9722A3DAAFE3B4186F6B6457E0 SWAP1 PUSH1 0x0 SWAP1 LOG3 POP POP JUMP JUMPDEST PUSH1 0x0 DUP1 SLOAD PUSH2 0x100 SWAP1 DIV PUSH1 0xFF AND ISZERO PUSH2 0x1E7D JUMPI DUP2 PUSH1 0xFF AND PUSH1 0x1 EQ DUP1 ISZERO PUSH2 0x1E61 JUMPI POP ADDRESS EXTCODESIZE ISZERO JUMPDEST PUSH2 0xE77 JUMPI PUSH1 0x40 MLOAD PUSH3 0x461BCD PUSH1 0xE5 SHL DUP2 MSTORE PUSH1 0x4 ADD PUSH2 0x6A2 SWAP1 PUSH2 0x2A5C JUMP JUMPDEST PUSH1 0x0 SLOAD PUSH1 0xFF DUP1 DUP5 AND SWAP2 AND LT PUSH2 0x1EA4 JUMPI PUSH1 0x40 MLOAD PUSH3 0x461BCD PUSH1 0xE5 SHL DUP2 MSTORE PUSH1 0x4 ADD PUSH2 0x6A2 SWAP1 PUSH2 0x2A5C JUMP JUMPDEST POP PUSH1 0x0 DUP1 SLOAD PUSH1 0xFF NOT AND PUSH1 0xFF SWAP3 SWAP1 SWAP3 AND SWAP2 SWAP1 SWAP2 OR SWAP1 SSTORE PUSH1 0x1 SWAP1 JUMP JUMPDEST SWAP2 SWAP1 POP JUMP JUMPDEST PUSH1 0x0 SLOAD PUSH2 0x100 SWAP1 DIV PUSH1 0xFF AND PUSH2 0x1EEA JUMPI PUSH1 0x40 MLOAD PUSH3 0x461BCD PUSH1 0xE5 SHL DUP2 MSTORE PUSH1 0x4 ADD PUSH2 0x6A2 SWAP1 PUSH2 0x2AAA JUMP JUMPDEST PUSH2 0xFE2 PUSH2 0x2023 JUMP JUMPDEST PUSH1 0x0 PUSH2 0xE7A DUP3 SLOAD SWAP1 JUMP JUMPDEST PUSH1 0x0 PUSH2 0xF49 DUP4 DUP4 PUSH2 0x2053 JUMP JUMPDEST PUSH1 0x0 PUSH2 0xF49 DUP4 DUP4 PUSH2 0x207D JUMP JUMPDEST PUSH1 0x0 DUP1 PUSH1 0x0 PUSH2 0x1F23 DUP6 DUP6 PUSH2 0x20CC JUMP JUMPDEST SWAP2 POP SWAP2 POP PUSH2 0x670 DUP2 PUSH2 0x2137 JUMP JUMPDEST PUSH1 0x0 DUP2 DUP2 MSTORE PUSH1 0x1 DUP4 ADD PUSH1 0x20 MSTORE PUSH1 0x40 DUP2 KECCAK256 SLOAD DUP1 ISZERO PUSH2 0x2019 JUMPI PUSH1 0x0 PUSH2 0x1F54 PUSH1 0x1 DUP4 PUSH2 0x2932 JUMP JUMPDEST DUP6 SLOAD SWAP1 SWAP2 POP PUSH1 0x0 SWAP1 PUSH2 0x1F68 SWAP1 PUSH1 0x1 SWAP1 PUSH2 0x2932 JUMP JUMPDEST SWAP1 POP DUP2 DUP2 EQ PUSH2 0x1FCD JUMPI PUSH1 0x0 DUP7 PUSH1 0x0 ADD DUP3 DUP2 SLOAD DUP2 LT PUSH2 0x1F88 JUMPI PUSH2 0x1F88 PUSH2 0x284B JUMP JUMPDEST SWAP1 PUSH1 0x0 MSTORE PUSH1 0x20 PUSH1 0x0 KECCAK256 ADD SLOAD SWAP1 POP DUP1 DUP8 PUSH1 0x0 ADD DUP5 DUP2 SLOAD DUP2 LT PUSH2 0x1FAB JUMPI PUSH2 0x1FAB PUSH2 0x284B JUMP JUMPDEST PUSH1 0x0 SWAP2 DUP3 MSTORE PUSH1 0x20 DUP1 DUP4 KECCAK256 SWAP1 SWAP2 ADD SWAP3 SWAP1 SWAP3 SSTORE SWAP2 DUP3 MSTORE PUSH1 0x1 DUP9 ADD SWAP1 MSTORE PUSH1 0x40 SWAP1 KECCAK256 DUP4 SWAP1 SSTORE JUMPDEST DUP6 SLOAD DUP7 SWAP1 DUP1 PUSH2 0x1FDE JUMPI PUSH2 0x1FDE PUSH2 0x2AF5 JUMP JUMPDEST PUSH1 0x1 SWAP1 SUB DUP2 DUP2 SWAP1 PUSH1 0x0 MSTORE PUSH1 0x20 PUSH1 0x0 KECCAK256 ADD PUSH1 0x0 SWAP1 SSTORE SWAP1 SSTORE DUP6 PUSH1 0x1 ADD PUSH1 0x0 DUP7 DUP2 MSTORE PUSH1 0x20 ADD SWAP1 DUP2 MSTORE PUSH1 0x20 ADD PUSH1 0x0 KECCAK256 PUSH1 0x0 SWAP1 SSTORE PUSH1 0x1 SWAP4 POP POP POP POP PUSH2 0xE7A JUMP JUMPDEST PUSH1 0x0 SWAP2 POP POP PUSH2 0xE7A JUMP JUMPDEST PUSH1 0x0 SLOAD PUSH2 0x100 SWAP1 DIV PUSH1 0xFF AND PUSH2 0x204A JUMPI PUSH1 0x40 MLOAD PUSH3 0x461BCD PUSH1 0xE5 SHL DUP2 MSTORE PUSH1 0x4 ADD PUSH2 0x6A2 SWAP1 PUSH2 0x2AAA JUMP JUMPDEST PUSH2 0xFE2 CALLER PUSH2 0x1DEC JUMP JUMPDEST PUSH1 0x0 DUP3 PUSH1 0x0 ADD DUP3 DUP2 SLOAD DUP2 LT PUSH2 0x206A JUMPI PUSH2 0x206A PUSH2 0x284B JUMP JUMPDEST SWAP1 PUSH1 0x0 MSTORE PUSH1 0x20 PUSH1 0x0 KECCAK256 ADD SLOAD SWAP1 POP SWAP3 SWAP2 POP POP JUMP JUMPDEST PUSH1 0x0 DUP2 DUP2 MSTORE PUSH1 0x1 DUP4 ADD PUSH1 0x20 MSTORE PUSH1 0x40 DUP2 KECCAK256 SLOAD PUSH2 0x20C4 JUMPI POP DUP2 SLOAD PUSH1 0x1 DUP2 DUP2 ADD DUP5 SSTORE PUSH1 0x0 DUP5 DUP2 MSTORE PUSH1 0x20 DUP1 DUP3 KECCAK256 SWAP1 SWAP4 ADD DUP5 SWAP1 SSTORE DUP5 SLOAD DUP5 DUP3 MSTORE DUP3 DUP7 ADD SWAP1 SWAP4 MSTORE PUSH1 0x40 SWAP1 KECCAK256 SWAP2 SWAP1 SWAP2 SSTORE PUSH2 0xE7A JUMP JUMPDEST POP PUSH1 0x0 PUSH2 0xE7A JUMP JUMPDEST PUSH1 0x0 DUP1 DUP3 MLOAD PUSH1 0x41 SUB PUSH2 0x2102 JUMPI PUSH1 0x20 DUP4 ADD MLOAD PUSH1 0x40 DUP5 ADD MLOAD PUSH1 0x60 DUP6 ADD MLOAD PUSH1 0x0 BYTE PUSH2 0x20F6 DUP8 DUP3 DUP6 DUP6 PUSH2 0x22ED JUMP JUMPDEST SWAP5 POP SWAP5 POP POP POP POP PUSH2 0x10D5 JUMP JUMPDEST DUP3 MLOAD PUSH1 0x40 SUB PUSH2 0x212B JUMPI PUSH1 0x20 DUP4 ADD MLOAD PUSH1 0x40 DUP5 ADD MLOAD PUSH2 0x2120 DUP7 DUP4 DUP4 PUSH2 0x23DA JUMP JUMPDEST SWAP4 POP SWAP4 POP POP POP PUSH2 0x10D5 JUMP JUMPDEST POP PUSH1 0x0 SWAP1 POP PUSH1 0x2 PUSH2 0x10D5 JUMP JUMPDEST PUSH1 0x0 DUP2 PUSH1 0x4 DUP2 GT ISZERO PUSH2 0x214B JUMPI PUSH2 0x214B PUSH2 0x2714 JUMP JUMPDEST SUB PUSH2 0x2153 JUMPI POP JUMP JUMPDEST PUSH1 0x1 DUP2 PUSH1 0x4 DUP2 GT ISZERO PUSH2 0x2167 JUMPI PUSH2 0x2167 PUSH2 0x2714 JUMP JUMPDEST SUB PUSH2 0x21B4 JUMPI PUSH1 0x40 MLOAD PUSH3 0x461BCD PUSH1 0xE5 SHL DUP2 MSTORE PUSH1 0x20 PUSH1 0x4 DUP3 ADD MSTORE PUSH1 0x18 PUSH1 0x24 DUP3 ADD MSTORE PUSH32 0x45434453413A20696E76616C6964207369676E61747572650000000000000000 PUSH1 0x44 DUP3 ADD MSTORE PUSH1 0x64 ADD PUSH2 0x6A2 JUMP JUMPDEST PUSH1 0x2 DUP2 PUSH1 0x4 DUP2 GT ISZERO PUSH2 0x21C8 JUMPI PUSH2 0x21C8 PUSH2 0x2714 JUMP JUMPDEST SUB PUSH2 0x2215 JUMPI PUSH1 0x40 MLOAD PUSH3 0x461BCD PUSH1 0xE5 SHL DUP2 MSTORE PUSH1 0x20 PUSH1 0x4 DUP3 ADD MSTORE PUSH1 0x1F PUSH1 0x24 DUP3 ADD MSTORE PUSH32 0x45434453413A20696E76616C6964207369676E6174757265206C656E67746800 PUSH1 0x44 DUP3 ADD MSTORE PUSH1 0x64 ADD PUSH2 0x6A2 JUMP JUMPDEST PUSH1 0x3 DUP2 PUSH1 0x4 DUP2 GT ISZERO PUSH2 0x2229 JUMPI PUSH2 0x2229 PUSH2 0x2714 JUMP JUMPDEST SUB PUSH2 0x2281 JUMPI PUSH1 0x40 MLOAD PUSH3 0x461BCD PUSH1 0xE5 SHL DUP2 MSTORE PUSH1 0x20 PUSH1 0x4 DUP3 ADD MSTORE PUSH1 0x22 PUSH1 0x24 DUP3 ADD MSTORE PUSH32 0x45434453413A20696E76616C6964207369676E6174757265202773272076616C PUSH1 0x44 DUP3 ADD MSTORE PUSH2 0x7565 PUSH1 0xF0 SHL PUSH1 0x64 DUP3 ADD MSTORE PUSH1 0x84 ADD PUSH2 0x6A2 JUMP JUMPDEST PUSH1 0x4 DUP2 PUSH1 0x4 DUP2 GT ISZERO PUSH2 0x2295 JUMPI PUSH2 0x2295 PUSH2 0x2714 JUMP JUMPDEST SUB PUSH2 0x16BA JUMPI PUSH1 0x40 MLOAD PUSH3 0x461BCD PUSH1 0xE5 SHL DUP2 MSTORE PUSH1 0x20 PUSH1 0x4 DUP3 ADD MSTORE PUSH1 0x22 PUSH1 0x24 DUP3 ADD MSTORE PUSH32 0x45434453413A20696E76616C6964207369676E6174757265202776272076616C PUSH1 0x44 DUP3 ADD MSTORE PUSH2 0x7565 PUSH1 0xF0 SHL PUSH1 0x64 DUP3 ADD MSTORE PUSH1 0x84 ADD PUSH2 0x6A2 JUMP JUMPDEST PUSH1 0x0 DUP1 PUSH32 0x7FFFFFFFFFFFFFFFFFFFFFFFFFFFFFFF5D576E7357A4501DDFE92F46681B20A0 DUP4 GT ISZERO PUSH2 0x2324 JUMPI POP PUSH1 0x0 SWAP1 POP PUSH1 0x3 PUSH2 0x23D1 JUMP JUMPDEST DUP5 PUSH1 0xFF AND PUSH1 0x1B EQ ISZERO DUP1 ISZERO PUSH2 0x233C JUMPI POP DUP5 PUSH1 0xFF AND PUSH1 0x1C EQ ISZERO JUMPDEST ISZERO PUSH2 0x234D JUMPI POP PUSH1 0x0 SWAP1 POP PUSH1 0x4 PUSH2 0x23D1 JUMP JUMPDEST PUSH1 0x40 DUP1 MLOAD PUSH1 0x0 DUP1 DUP3 MSTORE PUSH1 0x20 DUP3 ADD DUP1 DUP5 MSTORE DUP10 SWAP1 MSTORE PUSH1 0xFF DUP9 AND SWAP3 DUP3 ADD SWAP3 SWAP1 SWAP3 MSTORE PUSH1 0x60 DUP2 ADD DUP7 SWAP1 MSTORE PUSH1 0x80 DUP2 ADD DUP6 SWAP1 MSTORE PUSH1 0x1 SWAP1 PUSH1 0xA0 ADD PUSH1 0x20 PUSH1 0x40 MLOAD PUSH1 0x20 DUP2 SUB SWAP1 DUP1 DUP5 SUB SWAP1 DUP6 GAS STATICCALL ISZERO DUP1 ISZERO PUSH2 0x23A1 JUMPI RETURNDATASIZE PUSH1 0x0 DUP1 RETURNDATACOPY RETURNDATASIZE PUSH1 0x0 REVERT JUMPDEST POP POP PUSH1 0x40 MLOAD PUSH1 0x1F NOT ADD MLOAD SWAP2 POP POP PUSH1 0x1 PUSH1 0x1 PUSH1 0xA0 SHL SUB DUP2 AND PUSH2 0x23CA JUMPI PUSH1 0x0 PUSH1 0x1 SWAP3 POP SWAP3 POP POP PUSH2 0x23D1 JUMP JUMPDEST SWAP2 POP PUSH1 0x0 SWAP1 POP JUMPDEST SWAP5 POP SWAP5 SWAP3 POP POP POP JUMP JUMPDEST PUSH1 0x0 DUP1 PUSH1 0x1 PUSH1 0x1 PUSH1 0xFF SHL SUB DUP4 AND DUP2 PUSH2 0x23F7 PUSH1 0xFF DUP7 SWAP1 SHR PUSH1 0x1B PUSH2 0x2992 JUMP JUMPDEST SWAP1 POP PUSH2 0x2405 DUP8 DUP3 DUP9 DUP6 PUSH2 0x22ED JUMP JUMPDEST SWAP4 POP SWAP4 POP POP POP SWAP4 POP SWAP4 SWAP2 POP POP JUMP JUMPDEST DUP1 CALLDATALOAD PUSH1 0x1 PUSH1 0x1 PUSH1 0xA0 SHL SUB DUP2 AND DUP2 EQ PUSH2 0x1EBE JUMPI PUSH1 0x0 DUP1 REVERT JUMPDEST PUSH1 0x0 PUSH1 0x20 DUP3 DUP5 SUB SLT ISZERO PUSH2 0x243C JUMPI PUSH1 0x0 DUP1 REVERT JUMPDEST PUSH2 0xF49 DUP3 PUSH2 0x2413 JUMP JUMPDEST PUSH1 0x0 DUP2 MLOAD DUP1 DUP5 MSTORE PUSH1 0x20 DUP1 DUP6 ADD SWAP5 POP DUP1 DUP5 ADD PUSH1 0x0 JUMPDEST DUP4 DUP2 LT ISZERO PUSH2 0x2475 JUMPI DUP2 MLOAD DUP8 MSTORE SWAP6 DUP3 ADD SWAP6 SWAP1 DUP3 ADD SWAP1 PUSH1 0x1 ADD PUSH2 0x2459 JUMP JUMPDEST POP SWAP5 SWAP6 SWAP5 POP POP POP POP POP JUMP JUMPDEST PUSH1 0x20 DUP2 MSTORE PUSH1 0x0 PUSH2 0xF49 PUSH1 0x20 DUP4 ADD DUP5 PUSH2 0x2445 JUMP JUMPDEST PUSH1 0x0 PUSH1 0x20 DUP3 DUP5 SUB SLT ISZERO PUSH2 0x24A5 JUMPI PUSH1 0x0 DUP1 REVERT JUMPDEST POP CALLDATALOAD SWAP2 SWAP1 POP JUMP JUMPDEST PUSH1 0x0 DUP1 DUP4 PUSH1 0x1F DUP5 ADD SLT PUSH2 0x24BE JUMPI PUSH1 0x0 DUP1 REVERT JUMPDEST POP DUP2 CALLDATALOAD PUSH8 0xFFFFFFFFFFFFFFFF DUP2 GT ISZERO PUSH2 0x24D6 JUMPI PUSH1 0x0 DUP1 REVERT JUMPDEST PUSH1 0x20 DUP4 ADD SWAP2 POP DUP4 PUSH1 0x20 DUP3 PUSH1 0x5 SHL DUP6 ADD ADD GT ISZERO PUSH2 0x10D5 JUMPI PUSH1 0x0 DUP1 REVERT JUMPDEST PUSH1 0x0 DUP1 PUSH1 0x20 DUP4 DUP6 SUB SLT ISZERO PUSH2 0x2504 JUMPI PUSH1 0x0 DUP1 REVERT JUMPDEST DUP3 CALLDATALOAD PUSH8 0xFFFFFFFFFFFFFFFF DUP2 GT ISZERO PUSH2 0x251B JUMPI PUSH1 0x0 DUP1 REVERT JUMPDEST PUSH2 0x2527 DUP6 DUP3 DUP7 ADD PUSH2 0x24AC JUMP JUMPDEST SWAP1 SWAP7 SWAP1 SWAP6 POP SWAP4 POP POP POP POP JUMP JUMPDEST PUSH1 0x0 DUP1 PUSH1 0x0 DUP1 PUSH1 0x0 PUSH1 0x80 DUP7 DUP9 SUB SLT ISZERO PUSH2 0x254B JUMPI PUSH1 0x0 DUP1 REVERT JUMPDEST PUSH2 0x2554 DUP7 PUSH2 0x2413 JUMP JUMPDEST SWAP5 POP PUSH2 0x2562 PUSH1 0x20 DUP8 ADD PUSH2 0x2413 JUMP JUMPDEST SWAP4 POP PUSH1 0x40 DUP7 ADD CALLDATALOAD SWAP3 POP PUSH1 0x60 DUP7 ADD CALLDATALOAD PUSH8 0xFFFFFFFFFFFFFFFF DUP1 DUP3 GT ISZERO PUSH2 0x2586 JUMPI PUSH1 0x0 DUP1 REVERT JUMPDEST DUP2 DUP9 ADD SWAP2 POP DUP9 PUSH1 0x1F DUP4 ADD SLT PUSH2 0x259A JUMPI PUSH1 0x0 DUP1 REVERT JUMPDEST DUP2 CALLDATALOAD DUP2 DUP2 GT ISZERO PUSH2 0x25A9 JUMPI PUSH1 0x0 DUP1 REVERT JUMPDEST DUP10 PUSH1 0x20 DUP3 DUP6 ADD ADD GT ISZERO PUSH2 0x25BB JUMPI PUSH1 0x0 DUP1 REVERT JUMPDEST SWAP7 SWAP10 SWAP6 SWAP9 POP SWAP4 SWAP7 POP PUSH1 0x20 ADD SWAP5 SWAP4 SWAP3 POP POP POP JUMP JUMPDEST PUSH4 0x4E487B71 PUSH1 0xE0 SHL PUSH1 0x0 MSTORE PUSH1 0x41 PUSH1 0x4 MSTORE PUSH1 0x24 PUSH1 0x0 REVERT JUMPDEST DUP1 CALLDATALOAD DUP1 ISZERO ISZERO DUP2 EQ PUSH2 0x1EBE JUMPI PUSH1 0x0 DUP1 REVERT JUMPDEST PUSH1 0x0 DUP1 PUSH1 0x0 DUP1 PUSH1 0x0 DUP1 PUSH1 0x0 PUSH1 0xA0 DUP9 DUP11 SUB SLT ISZERO PUSH2 0x260F JUMPI PUSH1 0x0 DUP1 REVERT JUMPDEST DUP8 CALLDATALOAD PUSH8 0xFFFFFFFFFFFFFFFF DUP1 DUP3 GT ISZERO PUSH2 0x2627 JUMPI PUSH1 0x0 DUP1 REVERT JUMPDEST PUSH2 0x2633 DUP12 DUP4 DUP13 ADD PUSH2 0x24AC JUMP JUMPDEST SWAP1 SWAP10 POP SWAP8 POP PUSH1 0x20 DUP11 ADD CALLDATALOAD SWAP2 POP DUP1 DUP3 GT ISZERO PUSH2 0x264C JUMPI PUSH1 0x0 DUP1 REVERT JUMPDEST PUSH2 0x2658 DUP12 DUP4 DUP13 ADD PUSH2 0x24AC JUMP JUMPDEST SWAP1 SWAP8 POP SWAP6 POP PUSH1 0x40 DUP11 ADD CALLDATALOAD SWAP2 POP DUP1 DUP3 GT ISZERO PUSH2 0x2671 JUMPI PUSH1 0x0 DUP1 REVERT JUMPDEST DUP2 DUP11 ADD SWAP2 POP DUP11 PUSH1 0x1F DUP4 ADD SLT PUSH2 0x2685 JUMPI PUSH1 0x0 DUP1 REVERT JUMPDEST DUP2 CALLDATALOAD DUP2 DUP2 GT ISZERO PUSH2 0x2697 JUMPI PUSH2 0x2697 PUSH2 0x25CE JUMP JUMPDEST PUSH1 0x40 MLOAD PUSH1 0x1F DUP3 ADD PUSH1 0x1F NOT SWAP1 DUP2 AND PUSH1 0x3F ADD AND DUP2 ADD SWAP1 DUP4 DUP3 GT DUP2 DUP4 LT OR ISZERO PUSH2 0x26BF JUMPI PUSH2 0x26BF PUSH2 0x25CE JUMP JUMPDEST DUP2 PUSH1 0x40 MSTORE DUP3 DUP2 MSTORE DUP14 PUSH1 0x20 DUP5 DUP8 ADD ADD GT ISZERO PUSH2 0x26D8 JUMPI PUSH1 0x0 DUP1 REVERT JUMPDEST DUP3 PUSH1 0x20 DUP7 ADD PUSH1 0x20 DUP4 ADD CALLDATACOPY PUSH1 0x0 PUSH1 0x20 DUP5 DUP4 ADD ADD MSTORE DUP1 SWAP8 POP POP POP POP POP POP PUSH2 0x26FF PUSH1 0x60 DUP10 ADD PUSH2 0x25E4 JUMP JUMPDEST SWAP2 POP PUSH1 0x80 DUP9 ADD CALLDATALOAD SWAP1 POP SWAP3 SWAP6 SWAP9 SWAP2 SWAP5 SWAP8 POP SWAP3 SWAP6 POP JUMP JUMPDEST PUSH4 0x4E487B71 PUSH1 0xE0 SHL PUSH1 0x0 MSTORE PUSH1 0x21 PUSH1 0x4 MSTORE PUSH1 0x24 PUSH1 0x0 REVERT JUMPDEST PUSH1 0x5 DUP2 LT PUSH2 0x16BA JUMPI PUSH2 0x16BA PUSH2 0x2714 JUMP JUMPDEST PUSH1 0x20 DUP2 ADD PUSH2 0x2747 DUP4 PUSH2 0x272A JUMP JUMPDEST SWAP2 SWAP1 MSTORE SWAP1 JUMP JUMPDEST PUSH1 0x40 DUP2 MSTORE PUSH1 0x0 PUSH2 0x2760 PUSH1 0x40 DUP4 ADD DUP6 PUSH2 0x2445 JUMP JUMPDEST DUP3 DUP2 SUB PUSH1 0x20 DUP5 ADD MSTORE PUSH2 0x2772 DUP2 DUP6 PUSH2 0x2445 JUMP JUMPDEST SWAP6 SWAP5 POP POP POP POP POP JUMP JUMPDEST PUSH1 0x0 DUP1 PUSH1 0x0 DUP1 PUSH1 0x0 DUP1 PUSH1 0xC0 DUP8 DUP10 SUB SLT ISZERO PUSH2 0x2794 JUMPI PUSH1 0x0 DUP1 REVERT JUMPDEST PUSH2 0x279D DUP8 PUSH2 0x2413 JUMP JUMPDEST SWAP6 POP PUSH2 0x27AB PUSH1 0x20 DUP9 ADD PUSH2 0x2413 JUMP JUMPDEST SWAP5 POP PUSH2 0x27B9 PUSH1 0x40 DUP9 ADD PUSH2 0x2413 JUMP JUMPDEST SWAP4 POP PUSH2 0x27C7 PUSH1 0x60 DUP9 ADD PUSH2 0x2413 JUMP JUMPDEST SWAP3 POP PUSH2 0x27D5 PUSH1 0x80 DUP9 ADD PUSH2 0x2413 JUMP JUMPDEST SWAP2 POP PUSH2 0x27E3 PUSH1 0xA0 DUP9 ADD PUSH2 0x2413 JUMP JUMPDEST SWAP1 POP SWAP3 SWAP6 POP SWAP3 SWAP6 POP SWAP3 SWAP6 JUMP JUMPDEST PUSH1 0x0 DUP1 PUSH1 0x40 DUP4 DUP6 SUB SLT ISZERO PUSH2 0x2802 JUMPI PUSH1 0x0 DUP1 REVERT JUMPDEST POP POP DUP1 CALLDATALOAD SWAP3 PUSH1 0x20 SWAP1 SWAP2 ADD CALLDATALOAD SWAP2 POP JUMP JUMPDEST PUSH1 0x0 PUSH1 0x20 DUP3 DUP5 SUB SLT ISZERO PUSH2 0x2823 JUMPI PUSH1 0x0 DUP1 REVERT JUMPDEST DUP2 CALLDATALOAD PUSH1 0x5 DUP2 LT PUSH2 0xF49 JUMPI PUSH1 0x0 DUP1 REVERT JUMPDEST PUSH1 0x0 PUSH1 0x20 DUP3 DUP5 SUB SLT ISZERO PUSH2 0x2844 JUMPI PUSH1 0x0 DUP1 REVERT JUMPDEST POP MLOAD SWAP2 SWAP1 POP JUMP JUMPDEST PUSH4 0x4E487B71 PUSH1 0xE0 SHL PUSH1 0x0 MSTORE PUSH1 0x32 PUSH1 0x4 MSTORE PUSH1 0x24 PUSH1 0x0 REVERT JUMPDEST PUSH4 0x4E487B71 PUSH1 0xE0 SHL PUSH1 0x0 MSTORE PUSH1 0x11 PUSH1 0x4 MSTORE PUSH1 0x24 PUSH1 0x0 REVERT JUMPDEST PUSH1 0x0 PUSH1 0x1 DUP3 ADD PUSH2 0x2889 JUMPI PUSH2 0x2889 PUSH2 0x2861 JUMP JUMPDEST POP PUSH1 0x1 ADD SWAP1 JUMP JUMPDEST PUSH1 0x20 DUP1 DUP3 MSTORE DUP2 DUP2 ADD MSTORE PUSH32 0x4F776E61626C653A2063616C6C6572206973206E6F7420746865206F776E6572 PUSH1 0x40 DUP3 ADD MSTORE PUSH1 0x60 ADD SWAP1 JUMP JUMPDEST PUSH1 0x0 PUSH1 0x1 PUSH1 0x1 PUSH1 0xFB SHL SUB DUP4 GT ISZERO PUSH2 0x28DB JUMPI PUSH1 0x0 DUP1 REVERT JUMPDEST DUP3 PUSH1 0x5 SHL DUP1 DUP4 DUP7 CALLDATACOPY PUSH1 0x0 SWAP5 ADD SWAP4 DUP5 MSTORE POP SWAP2 SWAP3 SWAP2 POP POP JUMP JUMPDEST PUSH12 0xFFFFFFFFFFFFFFFFFFFFFFFF NOT DUP8 PUSH1 0x60 SHL AND DUP2 MSTORE PUSH1 0x0 PUSH2 0x2921 PUSH2 0x291A PUSH1 0x14 DUP5 ADD DUP9 DUP11 PUSH2 0x28C5 JUMP JUMPDEST DUP6 DUP8 PUSH2 0x28C5 JUMP JUMPDEST SWAP3 DUP4 MSTORE POP POP PUSH1 0x20 ADD SWAP6 SWAP5 POP POP POP POP POP JUMP JUMPDEST PUSH1 0x0 DUP3 DUP3 LT ISZERO PUSH2 0x2944 JUMPI PUSH2 0x2944 PUSH2 0x2861 JUMP JUMPDEST POP SUB SWAP1 JUMP JUMPDEST PUSH1 0x0 DUP2 PUSH1 0x0 NOT DIV DUP4 GT DUP3 ISZERO ISZERO AND ISZERO PUSH2 0x2963 JUMPI PUSH2 0x2963 PUSH2 0x2861 JUMP JUMPDEST POP MUL SWAP1 JUMP JUMPDEST PUSH4 0x4E487B71 PUSH1 0xE0 SHL PUSH1 0x0 MSTORE PUSH1 0x12 PUSH1 0x4 MSTORE PUSH1 0x24 PUSH1 0x0 REVERT JUMPDEST PUSH1 0x0 DUP3 PUSH2 0x298D JUMPI PUSH2 0x298D PUSH2 0x2968 JUMP JUMPDEST POP DIV SWAP1 JUMP JUMPDEST PUSH1 0x0 DUP3 NOT DUP3 GT ISZERO PUSH2 0x29A5 JUMPI PUSH2 0x29A5 PUSH2 0x2861 JUMP JUMPDEST POP ADD SWAP1 JUMP JUMPDEST PUSH1 0x0 DUP3 PUSH2 0x29B9 JUMPI PUSH2 0x29B9 PUSH2 0x2968 JUMP JUMPDEST POP MOD SWAP1 JUMP JUMPDEST PUSH1 0x0 PUSH2 0xFFFF DUP1 DUP4 AND DUP2 DUP6 AND DUP1 DUP4 SUB DUP3 GT ISZERO PUSH2 0x29DB JUMPI PUSH2 0x29DB PUSH2 0x2861 JUMP JUMPDEST ADD SWAP5 SWAP4 POP POP POP POP JUMP JUMPDEST PUSH1 0x3 DUP2 LT PUSH2 0x29F4 JUMPI PUSH2 0x29F4 PUSH2 0x2714 JUMP JUMPDEST SWAP1 MSTORE JUMP JUMPDEST DUP3 DUP2 MSTORE PUSH1 0x40 DUP2 ADD PUSH2 0xF49 PUSH1 0x20 DUP4 ADD DUP5 PUSH2 0x29E4 JUMP JUMPDEST PUSH1 0x1 PUSH1 0x1 PUSH1 0xA0 SHL SUB DUP6 AND DUP2 MSTORE PUSH1 0x20 DUP2 ADD DUP5 SWAP1 MSTORE PUSH1 0x80 DUP2 ADD PUSH2 0x2A30 PUSH1 0x40 DUP4 ADD DUP6 PUSH2 0x29E4 JUMP JUMPDEST DUP3 PUSH1 0x60 DUP4 ADD MSTORE SWAP6 SWAP5 POP POP POP POP POP JUMP JUMPDEST DUP3 DUP2 MSTORE PUSH1 0x40 DUP2 ADD PUSH2 0x2A4F DUP4 PUSH2 0x272A JUMP JUMPDEST DUP3 PUSH1 0x20 DUP4 ADD MSTORE SWAP4 SWAP3 POP POP POP JUMP JUMPDEST PUSH1 0x20 DUP1 DUP3 MSTORE PUSH1 0x2E SWAP1 DUP3 ADD MSTORE PUSH32 0x496E697469616C697A61626C653A20636F6E747261637420697320616C726561 PUSH1 0x40 DUP3 ADD MSTORE PUSH14 0x191E481A5B9A5D1A585B1A5E9959 PUSH1 0x92 SHL PUSH1 0x60 DUP3 ADD MSTORE PUSH1 0x80 ADD SWAP1 JUMP JUMPDEST PUSH1 0x20 DUP1 DUP3 MSTORE PUSH1 0x2B SWAP1 DUP3 ADD MSTORE PUSH32 0x496E697469616C697A61626C653A20636F6E7472616374206973206E6F742069 PUSH1 0x40 DUP3 ADD MSTORE PUSH11 0x6E697469616C697A696E67 PUSH1 0xA8 SHL PUSH1 0x60 DUP3 ADD MSTORE PUSH1 0x80 ADD SWAP1 JUMP JUMPDEST PUSH4 0x4E487B71 PUSH1 0xE0 SHL PUSH1 0x0 MSTORE PUSH1 0x31 PUSH1 0x4 MSTORE PUSH1 0x24 PUSH1 0x0 REVERT INVALID LOG2 PUSH5 0x6970667358 0x22 SLT KECCAK256 PUSH5 0x5DA97FAF18 0xBC 0xBA 0xC1 PUSH1 0xF0 0x5D GAS PUSH2 0x675B ORIGIN 0xB4 0xBA SELFBALANCE 0xAD 0xB4 DUP15 0xFB DUP12 PUSH4 0x285FF61 0xAA PUSH30 0x64736F6C634300080D003300000000000000000000000000000000000000 "
		},
		"gasEstimates": {
			"creation": {
				"codeDepositCost": "2214600",
				"executionCost": "2368",
				"totalCost": "2216968"
			},
			"external": {
				"FIEF_CONTRACT()": "2372",
				"ITEM_CONTRACT()": "2373",
				"MprobabilityUpgradeChange(uint256)": "24509",
				"Mreturn1Change(uint256)": "24575",
				"MupgradeChange(uint256)": "24555",
				"POTION_CONTRACT()": "2438",
				"RING_CONTRACT()": "2437",
				"SQUIRE_CONTRACT()": "2372",
				"TRINKET_CONTRACT()": "2392",
				"changeResetPeriod(uint256)": "24553",
				"checkIfSquireCanLeave(uint256)": "4711",
				"checkSquires(address)": "infinite",
				"dropRates(uint8)": "2694",
				"finishMountainQuest(uint256[],uint256[],bytes,bool,uint256)": "infinite",
				"getRewardForLevel(uint256)": "539",
				"getSkillForID(uint256)": "515",
				"getSkillForType(uint256)": "infinite",
				"getTokenSeedIds(uint256[])": "infinite",
				"init(address,address,address,address,address,address)": "infinite",
				"onERC721Received(address,address,uint256,bytes)": "infinite",
				"owner()": "2432",
				"questMountain(uint256[])": "infinite",
				"random(uint256,uint256)": "738",
				"renounceOwnership()": "28185",
				"resetTime()": "2362",
				"setTokenAddress(address)": "26801",
				"squiresQuestingMountain(address)": "infinite",
				"toggleQuesting()": "26590",
				"tokenSeedId(uint256)": "2484",
				"tokenTimer(uint256)": "2549",
				"transferOwnership(address)": "28400"
			},
			"internal": {
				"_startQuest(uint256)": "infinite",
				"giveItemReward(uint256,uint256)": "infinite",
				"upgradeSquire(enum SquireQuestingMountain.SkillTypes,uint256)": "infinite",
				"verify(bytes32,bytes memory)": "infinite"
			}
		},
		"methodIdentifiers": {
			"FIEF_CONTRACT()": "10658a03",
			"ITEM_CONTRACT()": "03b76c5b",
			"MprobabilityUpgradeChange(uint256)": "ac04cbd9",
			"Mreturn1Change(uint256)": "6fc6f280",
			"MupgradeChange(uint256)": "0de0944a",
			"POTION_CONTRACT()": "34c52d7a",
			"RING_CONTRACT()": "a9ec1886",
			"SQUIRE_CONTRACT()": "1b846edc",
			"TRINKET_CONTRACT()": "e82addaf",
			"changeResetPeriod(uint256)": "6b7d66e6",
			"checkIfSquireCanLeave(uint256)": "9d909db6",
			"checkSquires(address)": "0b752a54",
			"dropRates(uint8)": "f3f23077",
			"finishMountainQuest(uint256[],uint256[],bytes,bool,uint256)": "159674f7",
			"getRewardForLevel(uint256)": "21d843c8",
			"getSkillForID(uint256)": "c3f18565",
			"getSkillForType(uint256)": "41a5f650",
			"getTokenSeedIds(uint256[])": "79547455",
			"init(address,address,address,address,address,address)": "99e133f9",
			"onERC721Received(address,address,uint256,bytes)": "150b7a02",
			"owner()": "8da5cb5b",
			"questMountain(uint256[])": "130d260f",
			"random(uint256,uint256)": "a9dd1225",
			"renounceOwnership()": "715018a6",
			"resetTime()": "65a114f1",
			"setTokenAddress(address)": "26a4e8d2",
			"squiresQuestingMountain(address)": "b05dfa07",
			"toggleQuesting()": "afb90c69",
			"tokenSeedId(uint256)": "709732c2",
			"tokenTimer(uint256)": "c1690e42",
			"transferOwnership(address)": "f2fde38b"
		}
	},
	"abi": [
		{
			"anonymous": false,
			"inputs": [
				{
					"indexed": false,
					"internalType": "address",
					"name": "_owner",
					"type": "address"
				},
				{
					"indexed": false,
					"internalType": "uint256",
					"name": "squireId",
					"type": "uint256"
				},
				{
					"indexed": false,
					"internalType": "uint256",
					"name": "amount",
					"type": "uint256"
				},
				{
					"indexed": false,
					"internalType": "uint256",
					"name": "timestamp",
					"type": "uint256"
				}
			],
			"name": "FiefReward",
			"type": "event"
		},
		{
			"anonymous": false,
			"inputs": [
				{
					"indexed": false,
					"internalType": "address",
					"name": "_owner",
					"type": "address"
				},
				{
					"indexed": false,
					"internalType": "uint256",
					"name": "squireId",
					"type": "uint256"
				}
			],
			"name": "FinishedQuest",
			"type": "event"
		},
		{
			"anonymous": false,
			"inputs": [
				{
					"indexed": false,
					"internalType": "uint8",
					"name": "version",
					"type": "uint8"
				}
			],
			"name": "Initialized",
			"type": "event"
		},
		{
			"anonymous": false,
			"inputs": [
				{
					"indexed": false,
					"internalType": "address",
					"name": "_owner",
					"type": "address"
				},
				{
					"indexed": false,
					"internalType": "uint256",
					"name": "squireId",
					"type": "uint256"
				},
				{
					"indexed": false,
					"internalType": "enum ItemData.ItemType",
					"name": "rewardType",
					"type": "uint8"
				},
				{
					"indexed": false,
					"internalType": "uint256",
					"name": "rewardId",
					"type": "uint256"
				}
			],
			"name": "ItemReward",
			"type": "event"
		},
		{
			"anonymous": false,
			"inputs": [
				{
					"indexed": true,
					"internalType": "address",
					"name": "previousOwner",
					"type": "address"
				},
				{
					"indexed": true,
					"internalType": "address",
					"name": "newOwner",
					"type": "address"
				}
			],
			"name": "OwnershipTransferred",
			"type": "event"
		},
		{
			"anonymous": false,
			"inputs": [
				{
					"indexed": false,
					"internalType": "uint256",
					"name": "squireId",
					"type": "uint256"
				},
				{
					"indexed": false,
					"internalType": "enum SquireQuestingMountain.SkillTypes",
					"name": "skillType",
					"type": "uint8"
				}
			],
			"name": "SquireLevelUp",
			"type": "event"
		},
		{
			"anonymous": false,
			"inputs": [
				{
					"indexed": false,
					"internalType": "address",
					"name": "_owner",
					"type": "address"
				},
				{
					"indexed": false,
					"internalType": "uint256",
					"name": "squireId",
					"type": "uint256"
				},
				{
					"indexed": false,
					"internalType": "uint256",
					"name": "finishedAt",
					"type": "uint256"
				}
			],
			"name": "StartedQuest",
			"type": "event"
		},
		{
			"inputs": [],
			"name": "FIEF_CONTRACT",
			"outputs": [
				{
					"internalType": "address",
					"name": "",
					"type": "address"
				}
			],
			"stateMutability": "view",
			"type": "function"
		},
		{
			"inputs": [],
			"name": "ITEM_CONTRACT",
			"outputs": [
				{
					"internalType": "address",
					"name": "",
					"type": "address"
				}
			],
			"stateMutability": "view",
			"type": "function"
		},
		{
			"inputs": [
				{
					"internalType": "uint256",
					"name": "num",
					"type": "uint256"
				}
			],
			"name": "MprobabilityUpgradeChange",
			"outputs": [],
			"stateMutability": "nonpayable",
			"type": "function"
		},
		{
			"inputs": [
				{
					"internalType": "uint256",
					"name": "num",
					"type": "uint256"
				}
			],
			"name": "Mreturn1Change",
			"outputs": [],
			"stateMutability": "nonpayable",
			"type": "function"
		},
		{
			"inputs": [
				{
					"internalType": "uint256",
					"name": "num",
					"type": "uint256"
				}
			],
			"name": "MupgradeChange",
			"outputs": [],
			"stateMutability": "nonpayable",
			"type": "function"
		},
		{
			"inputs": [],
			"name": "POTION_CONTRACT",
			"outputs": [
				{
					"internalType": "address",
					"name": "",
					"type": "address"
				}
			],
			"stateMutability": "view",
			"type": "function"
		},
		{
			"inputs": [],
			"name": "RING_CONTRACT",
			"outputs": [
				{
					"internalType": "address",
					"name": "",
					"type": "address"
				}
			],
			"stateMutability": "view",
			"type": "function"
		},
		{
			"inputs": [],
			"name": "SQUIRE_CONTRACT",
			"outputs": [
				{
					"internalType": "address",
					"name": "",
					"type": "address"
				}
			],
			"stateMutability": "view",
			"type": "function"
		},
		{
			"inputs": [],
			"name": "TRINKET_CONTRACT",
			"outputs": [
				{
					"internalType": "address",
					"name": "",
					"type": "address"
				}
			],
			"stateMutability": "view",
			"type": "function"
		},
		{
			"inputs": [
				{
					"internalType": "uint256",
					"name": "_time",
					"type": "uint256"
				}
			],
			"name": "changeResetPeriod",
			"outputs": [],
			"stateMutability": "nonpayable",
			"type": "function"
		},
		{
			"inputs": [
				{
					"internalType": "uint256",
					"name": "squireId",
					"type": "uint256"
				}
			],
			"name": "checkIfSquireCanLeave",
			"outputs": [
				{
					"internalType": "bool",
					"name": "",
					"type": "bool"
				}
			],
			"stateMutability": "view",
			"type": "function"
		},
		{
			"inputs": [
				{
					"internalType": "address",
					"name": "owner",
					"type": "address"
				}
			],
			"name": "checkSquires",
			"outputs": [
				{
					"internalType": "uint256[]",
					"name": "",
					"type": "uint256[]"
				}
			],
			"stateMutability": "view",
			"type": "function"
		},
		{
			"inputs": [
				{
					"internalType": "enum SquireQuestingMountain.SkillBonuses",
					"name": "",
					"type": "uint8"
				}
			],
			"name": "dropRates",
			"outputs": [
				{
					"internalType": "uint16",
					"name": "nothing",
					"type": "uint16"
				},
				{
					"internalType": "uint16",
					"name": "ring",
					"type": "uint16"
				},
				{
					"internalType": "uint16",
					"name": "trinket",
					"type": "uint16"
				}
			],
			"stateMutability": "view",
			"type": "function"
		},
		{
			"inputs": [
				{
					"internalType": "uint256[]",
					"name": "tokenIds",
					"type": "uint256[]"
				},
				{
					"internalType": "uint256[]",
					"name": "seeds",
					"type": "uint256[]"
				},
				{
					"internalType": "bytes",
					"name": "signature",
					"type": "bytes"
				},
				{
					"internalType": "bool",
					"name": "restart",
					"type": "bool"
				},
				{
					"internalType": "uint256",
					"name": "boost",
					"type": "uint256"
				}
			],
			"name": "finishMountainQuest",
			"outputs": [],
			"stateMutability": "nonpayable",
			"type": "function"
		},
		{
			"inputs": [
				{
					"internalType": "uint256",
					"name": "level",
					"type": "uint256"
				}
			],
			"name": "getRewardForLevel",
			"outputs": [
				{
					"internalType": "enum SquireQuestingMountain.SkillBonuses",
					"name": "",
					"type": "uint8"
				}
			],
			"stateMutability": "pure",
			"type": "function"
		},
		{
			"inputs": [
				{
					"internalType": "uint256",
					"name": "id",
					"type": "uint256"
				}
			],
			"name": "getSkillForID",
			"outputs": [
				{
					"internalType": "enum SquireQuestingMountain.SkillTypes",
					"name": "",
					"type": "uint8"
				}
			],
			"stateMutability": "pure",
			"type": "function"
		},
		{
			"inputs": [
				{
					"internalType": "uint256",
					"name": "tokenId",
					"type": "uint256"
				}
			],
			"name": "getSkillForType",
			"outputs": [
				{
					"internalType": "enum SquireQuestingMountain.SkillTypes",
					"name": "",
					"type": "uint8"
				}
			],
			"stateMutability": "view",
			"type": "function"
		},
		{
			"inputs": [
				{
					"internalType": "uint256[]",
					"name": "squireIds",
					"type": "uint256[]"
				}
			],
			"name": "getTokenSeedIds",
			"outputs": [
				{
					"internalType": "uint256[]",
					"name": "",
					"type": "uint256[]"
				},
				{
					"internalType": "uint256[]",
					"name": "",
					"type": "uint256[]"
				}
			],
			"stateMutability": "view",
			"type": "function"
		},
		{
			"inputs": [
				{
					"internalType": "address",
					"name": "_fief",
					"type": "address"
				},
				{
					"internalType": "address",
					"name": "_squire",
					"type": "address"
				},
				{
					"internalType": "address",
					"name": "_potion",
					"type": "address"
				},
				{
					"internalType": "address",
					"name": "_ring",
					"type": "address"
				},
				{
					"internalType": "address",
					"name": "_trinket",
					"type": "address"
				},
				{
					"internalType": "address",
					"name": "_items",
					"type": "address"
				}
			],
			"name": "init",
			"outputs": [],
			"stateMutability": "nonpayable",
			"type": "function"
		},
		{
			"inputs": [
				{
					"internalType": "address",
					"name": "",
					"type": "address"
				},
				{
					"internalType": "address",
					"name": "",
					"type": "address"
				},
				{
					"internalType": "uint256",
					"name": "",
					"type": "uint256"
				},
				{
					"internalType": "bytes",
					"name": "",
					"type": "bytes"
				}
			],
			"name": "onERC721Received",
			"outputs": [
				{
					"internalType": "bytes4",
					"name": "",
					"type": "bytes4"
				}
			],
			"stateMutability": "pure",
			"type": "function"
		},
		{
			"inputs": [],
			"name": "owner",
			"outputs": [
				{
					"internalType": "address",
					"name": "",
					"type": "address"
				}
			],
			"stateMutability": "view",
			"type": "function"
		},
		{
			"inputs": [
				{
					"internalType": "uint256[]",
					"name": "squireIds",
					"type": "uint256[]"
				}
			],
			"name": "questMountain",
			"outputs": [],
			"stateMutability": "nonpayable",
			"type": "function"
		},
		{
			"inputs": [
				{
					"internalType": "uint256",
					"name": "number",
					"type": "uint256"
				},
				{
					"internalType": "uint256",
					"name": "seed",
					"type": "uint256"
				}
			],
			"name": "random",
			"outputs": [
				{
					"internalType": "uint256",
					"name": "",
					"type": "uint256"
				}
			],
			"stateMutability": "view",
			"type": "function"
		},
		{
			"inputs": [],
			"name": "renounceOwnership",
			"outputs": [],
			"stateMutability": "nonpayable",
			"type": "function"
		},
		{
			"inputs": [],
			"name": "resetTime",
			"outputs": [
				{
					"internalType": "uint256",
					"name": "",
					"type": "uint256"
				}
			],
			"stateMutability": "view",
			"type": "function"
		},
		{
			"inputs": [
				{
					"internalType": "address",
					"name": "_tokenAddress",
					"type": "address"
				}
			],
			"name": "setTokenAddress",
			"outputs": [],
			"stateMutability": "nonpayable",
			"type": "function"
		},
		{
			"inputs": [
				{
					"internalType": "address",
					"name": "account",
					"type": "address"
				}
			],
			"name": "squiresQuestingMountain",
			"outputs": [
				{
					"internalType": "uint256[]",
					"name": "",
					"type": "uint256[]"
				}
			],
			"stateMutability": "view",
			"type": "function"
		},
		{
			"inputs": [],
			"name": "toggleQuesting",
			"outputs": [],
			"stateMutability": "nonpayable",
			"type": "function"
		},
		{
			"inputs": [
				{
					"internalType": "uint256",
					"name": "",
					"type": "uint256"
				}
			],
			"name": "tokenSeedId",
			"outputs": [
				{
					"internalType": "uint256",
					"name": "",
					"type": "uint256"
				}
			],
			"stateMutability": "view",
			"type": "function"
		},
		{
			"inputs": [
				{
					"internalType": "uint256",
					"name": "",
					"type": "uint256"
				}
			],
			"name": "tokenTimer",
			"outputs": [
				{
					"internalType": "uint256",
					"name": "",
					"type": "uint256"
				}
			],
			"stateMutability": "view",
			"type": "function"
		},
		{
			"inputs": [
				{
					"internalType": "address",
					"name": "newOwner",
					"type": "address"
				}
			],
			"name": "transferOwnership",
			"outputs": [],
			"stateMutability": "nonpayable",
			"type": "function"
		}
	]
}